:040000000CEF00F011
:10000800FACF01F0FBCF02F0E9CF03F04DED1AF083
:1000180074EF1BF0500E0001E06F000E0001E16F5D
:100028004BEF05F0250E0001F519D8B406D00001F4
:10003800F551E7EC1EF04BEF05F0000E0001EF6FF5
:10004800000EEE6F000E0001ED6F000EEC6F06D093
:100058000001EC854E4A4F2A01D00BD04EC0F6FF66
:100068004FC0F7FF0800F550300AD8B4F1D701D0D7
:10007800F5D74EC0F6FF4FC0F7FF0800F5505DEC0E
:100088001EF0D8A038D0000E0001EF6F000EEE6F02
:1000980000D0EEC01DF0EFC01EF0000E206E0A0E5C
:1000A8001F6E24EC1EF01DC0EEF01EC0EFF0D00E47
:1000B800536EFF0E546E4EC0F6FF4FC0F7FF080098
:1000C800F550556E566A5350552654505622555081
:1000D8000001EE2756500001EF234E4A4F2A4EC02A
:1000E800F6FF4FC0F7FF0800F5505DEC1EF0D8A0F2
:1000F80002D0CFD700D04EC0F6FF4FC0F7FF0800A0
:10010800F5502E0AD8A434D00001ED8D4E4A4F2A5E
:10011800000E0001F46F000EF36F1ED0F3C01DF047
:10012800F4C01EF0000E206E0A0E1F6E24EC1EF0A6
:100138004EC0F6FF4FC0F7FF0800F5501D26000E11
:100148001E22D00E1D240001F36FFF0E1E20000199
:10015800F46F4E4A4F2A00D04EC0F6FF4FC0F7FF4B
:100168000800F5505DEC1EF0D8A012D0D7D710D0FB
:10017800000E0001F46F000EF36F0001ED8908D046
:100188005BEF05F00001ED8517D04BEF05F014D0BB
:100198004EC0F6FF4FC0F7FF4E4A4F2A0800F5CF72
:1001A800F5F00001F551000AD8B45BEF05F0660AD6
:1001B800D8B4E8D74BEF05F0070E0001ED15D8B419
:1001C80085D30001EDA906D0000E0001F46F060EDC
:1001D800F36F00D0E0C0D9FFE1C0DAFFDECFF0F066
:1001E800DECFF1F0DDCFF2F0030E0001E027000EC4
:1001F800E1230001F2AF12D0F0C00FF0F1C010F00F
:10020800F2C011F04BEC1EF00FC0F0F010C0F1F08E
:1002180011C0F2F0030E0001EC1300D0000E000133
:10022800EB6F000EEA6F0001F0510001F1110001BF
:10023800F211D8B48DD0820E536EFF0E546EF0C0FA
:1002480055F0F1C056F0F2C057F0F3C058F0100E58
:1002580005D0D8905832573256325532E82EF9D751
:10026800555053240001EA6F000E54200001EB6F33
:100278000001EA07D8A0EB07EAC01DF0EBC01EF0AA
:10028800000E206E030E1F6E24EC1EF01DC0EAF057
:100298001EC0EBF0EAC015F0EBC016F0000E186EA9
:1002A8000A0E176EF1EC18F015C0EAF016C0EBF064
:1002B8000001EBAF05D00001EA07D8A0EB0700D09A
:1002C8000001EA510008EBEC08F032C0E6F033C058
:1002D800E7F034C0E8F0E6C023F0E7C024F0E8C057
:1002E80025F0F0C026F0F1C027F0F2C028F010EC9D
:1002F80014F023C0E6F024C0E7F025C0E8F0E6C01B
:100308000FF0E7C010F0E8C011F0000E126E800E7A
:10031800136E3F0E146EA6EC18F0D8B005D000018D
:10032800EA07D8A0EB0714D0E6C00FF0E7C010F03A
:10033800E8C011F0000E126E200E136E410E146EFE
:10034800A6EC18F0D8A004D00001EA4BEB2B00D0A3
:100358000001F4BF08D00001F4511EE10D0E0001A8
:10036800F35DD8B019D0F0C03CF0F1C03DF0F2C058
:100378003EF00001F3518CEC0CF032C03FF033C07A
:1003880040F034C041F0A6EC0EF03CC0F0F03DC0A7
:10039800F1F03EC0F2F000D00001EBBF08D0000140
:1003A800EB5128E10A0E0001EA5DD8B023D0000124
:1003B800F0510001F1110001F211D8B477D0F0C06A
:1003C80039F0F1C03AF0F2C03BF079EC15F0395051
:1003D8003A103B103C10D8A469D00001EBBF66D09E
:1003E8000001EB5107E1020E0001EA5DD8B002D02E
:1003F8005DD000D0E6C00FF0E7C010F0E8C011F003
:10040800700E126E890E136E400E146EA6EC18F064
:10041800D8B003D00001F70E02D00001F80EEA2789
:10042800FF0EEB2300D00001EA51EBEC08F032C0DC
:10043800E6F033C0E7F034C0E8F017D0F0C00FF0B2
:10044800F1C010F0F2C011F0E6C012F0E7C013F0EE
:10045800E8C014F08BEC13F00FC0E2F010C0E3F02A
:1004680011C0E4F012C0E5F017D0F0C00FF0F1C0F1
:1004780010F0F2C011F0E6C012F0E7C013F0E8C0C7
:1004880014F003EC13F00FC0E2F010C0E3F011C059
:10049800E4F012C0E5F000D0000E0001F06F000E8D
:1004A8000001F16F000E0001F26F34D0F0C039F096
:1004B800F1C03AF0F2C03BF079EC15F039C0E2F047
:1004C8003AC0E3F03BC0E4F03CC0E5F0F0C048F0CF
:1004D800F1C049F0F2C04AF0E2C017F0E3C018F0EA
:1004E800E4C019F0E5C01AF0A5EC1BF017C04BF0FA
:1004F80018C04CF019C04DF003EC1DF048C0F0F0E6
:1005080049C0F1F04AC0F2F0000E0001EB6F000E96
:10051800EA6F00D0010E0001F56F0A0E0001F5190F
:10052800D8B422D001D020D00001F551040DF00E2E
:10053800F324F66EFE0EF420F76E0900F550000164
:10054800E25D0900F5500001E3590900F55000018A
:10055800E4590900F5500001E559D8A005D001D0AB
:1005680003D00001F52BD9D7F5C053F0546A53BE18
:1005780054060001F35153260001F451542200019E
:10058800EA5153260001EB51542253500001EE5F0B
:1005980054500001EF5B0001F3510001F411D8B48D
:1005A80005D00001EE07D8A0EF0700D0030E000128
:1005B800EC15536E000E0001ED15546E5350541097
:1005C800D8B405D00001EE07D8A0EF0700D000018D
:1005D800ECA52DD0030E0001EC15536E000E0001A2
:1005E800ED15546E53505410D8B40CD02D0EE7ECC2
:1005F8001EF008D0300EE7EC1EF00001EE07D8A080
:10060800EF0700D00001EFBF73D00001EF51F2E116
:100618000001EE05D8A06CD0EDD76AD008D0200E26
:10062800E7EC1EF00001EE07D8A0EF0700D00001AC
:10063800EFBF07D00001EF51F2E10001EE05D8B09D
:10064800EED7030E0001EC15536E000E0001ED15F8
:10065800546E53505410D8B44BD02D0EE7EC1EF006
:1006680047D0E2C00FF0E3C010F0E4C011F0E5C0DD
:1006780012F00001F551040DF00EF324F66EFE0E93
:10068800F420F76E0900F5CF13F00900F5CF14F048
:100698000900F5CF15F00A00F5CF16F03CEC19F07B
:1006A8000FC0E6F010C0E7F011C0E8F012C0E9F0A2
:1006B800E6C00FF0E7C010F0E8C011F0E9C012F092
:1006C8000A0E136E000E146E000E156E000E166ED6
:1006D80009EC1BF00FC0E6F010C0E7F011C0E8F01D
:1006E80012C0E9F00001E651300FE7EC1EF000D02F
:1006F8000001F5070001F529D8B40AD0B2D708D00F
:10070800300EE7EC1EF00001EA07D8A0EB0700D096
:100718000001EBBF07D00001EB51F2E10001EA054F
:10072800D8B0EED70001F4BF0CD00001F45105E1B8
:10073800090E0001F35DD8A004D0080E0001F56F82
:1007480003D0F3C0F5F000D00001F5510001F35FCC
:10075800000E0001F5BFFF0E0001F45B0001F5512A
:100768000001D8B404D02E0EE7EC1EF000D0000132
:10077800F551EBEC08F032C0DDF033C0DEF034C0E8
:10078800DFF0F0C026F0F1C027F0F2C028F0DDC09D
:1007980023F0DEC024F0DFC025F010EC14F023C0F5
:1007A80039F024C03AF025C03BF079EC15F039C097
:1007B800E2F03AC0E3F03BC0E4F03CC0E5F06ED0B4
:1007C800E2C00FF0E3C010F0E4C011F0E5C012F091
:1007D8000001F551040DF00EF324F66EFE0EF42020
:1007E800F76E0900F5CF13F00900F5CF14F00900F2
:1007F800F5CF15F00A00F5CF16F03CEC19F00FC054
:10080800E6F010C0E7F011C0E8F012C0E9F0E6C069
:100818000FF0E7C010F0E8C011F0E9C012F00A0EBE
:10082800136E000E146E000E156E000E166E09EC97
:100838001BF00FC0E6F010C0E7F011C0E8F012C0DE
:10084800E9F00001E651300FE7EC1EF0E2C00FF0CE
:10085800E3C010F0E4C011F0E5C012F00001F5515A
:10086800040DF00EF324F66EFE0EF420F76E090068
:10087800F5CF13F00900F5CF14F00900F5CF15F006
:100888000A00F5CF16F009EC1BF00FC0E2F010C01B
:10089800E3F011C0E4F012C0E5F000D00001F50764
:1008A8000001F529D8B40AD08BD708D0300EE7EC70
:1008B8001EF00001F307D8A0F40700D00001F3519F
:1008C8000001F411D8B4E3D0F1D7E1D00001F3511D
:1008D8000001F411D8A40ED00001E2510001E31187
:1008E8000001E4110001E511D8A404D00001F34B84
:1008F800F42B00D0800E0001F5BF7F0E536E00016F
:10090800F3510001F55D0001F451800A5358D8B045
:1009180003D0F3C0F5F017D00001F451800A536EEC
:100928000001F5510001F35D800E0001F5BF7F0E57
:100938005358D8B008D00001F5510001F36FF46B9B
:10094800F3BFF40700D00001EE510001EF11D8B455
:1009580011D0030E0001EC15536E000E0001ED15C9
:10096800546E53505410D8B405D00001EE07D8A0E7
:10097800EF0700D00001EDAD1DD00001EE510001E0
:10098800F35D0001F451800A536E0001EF51800AB3
:100998005358D8B009D00001F3510001EE5F0001AF
:1009A800F4510001EF5B06D0000E0001EF6F000E5E
:1009B800EE6F00D0800E0001F5BF7F0E536E000170
:1009C800EE510001F55D0001EF51800A5358D8B08F
:1009D8000BD00001F5510001EE5F000E0001F5BFDC
:1009E800FF0E0001EF5B06D0000E0001EF6F000E56
:1009F800EE6F00D00001ECA525D0030E0001EC1528
:100A0800536E000E0001ED15546E53505410D8B4B7
:100A180004D02D0EE7EC1EF000D00001EE510001CD
:100A2800EF11D8B434D0300EE7EC1EF00001EE0719
:100A3800D8A0EF070001EE510001EF11D8B427D07C
:100A4800F2D725D00001EE510001EF11D8B40FD034
:100A5800200EE7EC1EF00001EE07D8A0EF0700011A
:100A6800EE510001EF11D8B402D0F2D700D0030E36
:100A78000001EC15536E000E0001ED15546E535035
:100A88005410D8B404D02D0EE7EC1EF000D04EC0A0
:100A9800F6FF4FC0F7FF4E4A4F2A0800F5CFF5F092
:100AA8000001F551D8B403D016EF00F000D01200C1
:100AB800BEEC1EF0E5EC1DF0000E236E000E226E5B
:100AC8006EEC1EF0950E646E000E656E64C00FF03D
:100AD80065C010F09A0E116EFF0E126EB4EC1DF088
:100AE800020E376E64C038F065C039F0FF0E3B6EF9
:100AF8003A68000E3D6E000E3C6E010E3E6E020E10
:100B08005DEC16F064C00FF065C010F0E50E116ED4
:100B1800FF0E126EB4EC1DF00A0E376E64C038F08A
:100B280065C039F0FF0E3B6E3A68000E3D6E000E50
:100B38003C6E010E3E6E020E5DEC16F00A0E376E2C
:100B4800D10E386E000E396EFF0E3B6E3A68000EFD
:100B58003D6E000E3C6E010E3E6E230E5DEC16F0EF
:100B680064C00FF065C010F0EB0E116EFF0E126E30
:100B7800B4EC1DF00A0E376E64C038F065C039F069
:100B8800FF0E3B6E3A68000E3D6E000E3C6E010E85
:100B98003E6E320E5DEC16F00A0E376ED30E386ECE
:100BA800000E396EFF0E3B6E3A68000E3D6E000E69
:100BB8003C6E010E3E6E460E5DEC16F064C00FF002
:100BC80065C010F0EF0E116EFF0E126EB4EC1DF042
:100BD8000A0E376E64C038F065C039F0FF0E3B6E00
:100BE8003A68000E3D6E000E3C6E010E3E6E500ED1
:100BF8005DEC16F00A0E376ED50E386E000E396EA3
:100C0800FF0E3B6E3A68000E3D6E000E3C6E010E04
:100C18003E6E640E5DEC16F064C00FF065C010F017
:100C2800FD0E116EFF0E126EB4EC1DF00A0E376E3B
:100C380064C038F065C039F0FF0E3B6E3A68000EAC
:100C48003D6E000E3C6E010E3E6E780E5DEC16F0A9
:100C580064C00FF065C010F0CD0E116EFF0E126E5D
:100C6800B4EC1DF0140E376E64C038F065C039F06E
:100C7800070E3B6E3A68000E3D6E000E3C6E010E8C
:100C88003E6E1E0E5DEC16F0000E226E1E0E216EDC
:100C9800000E246E1B0E236E000E266E3C0E256E73
:100CA800000E286E120E276E070E2A6E296841EC78
:100CB8001BF0000E3A6E280E396E000E3C6E230EA5
:100CC8003B6E000E3E6E070E3D6EF80E406E000E37
:100CD8003F6EFEEC1BF0000E1B6E3C0E1A6E000EF3
:100CE8001D6E230E1C6E000E1F6E070E1E6EFF0E6D
:100CF800216EE00E206E88EC0FF0000E1B6E500E79
:100D08001A6E000E1D6E230E1C6E000E1F6E070E4F
:100D18001E6E070E216EE00E206E88EC0FF01E0E80
:100D2800376EC20E386E000E396E070E3B6E3A688B
:100D3800000E3D6E000E3C6E020E3E6E640E5DECC3
:100D480016F064C00FF065C010F0DE0E116EFF0ED5
:100D5800126EB4EC1DF0320E376E64C038F065C008
:100D680039F0FF0E3B6E3A68000E3D6E000E3C6E89
:100D7800010E3E6E1E0E5DEC16F0000E226E1E0E6B
:100D8800216E000E246E390E236E000E266E3C0E68
:100D9800256E000E286E120E276EFF0E2A6E296829
:100DA80041EC1BF0000E3A6E280E396E000E3C6EB8
:100DB800410E3B6E000E3E6E070E3D6EF80E406E05
:100DC800000E3F6EFEEC1BF0000E1B6E3C0E1A6E02
:100DD800000E1D6E410E1C6E000E1F6E070E1E6E5D
:100DE800FF0E216EE00E206E88EC0FF0000E1B6ED9
:100DF800500E1A6E000E1D6E410E1C6E000E1F6EF8
:100E0800070E1E6E070E216EE00E206E88EC0FF0A6
:100E18003C0E376EBF0E386E000E396EFF0E3B6EFD
:100E28003A68000E3D6E000E3C6E020E3E6E640E79
:100E38005DEC16F064C00FF065C010F0C10E116EC5
:100E4800FF0E126EB4EC1DF0500E376E64C038F011
:100E580065C039F0000E3B6E1F0E3A6E000E3D6EF7
:100E6800000E3C6E010E3E6E1E0E5DEC16F0000E7E
:100E7800226E1E0E216E000E246E570E236E000E7B
:100E8800266E3C0E256E000E286E120E276E000E82
:100E98002A6E1F0E296E41EC1BF0000E1B6E280EE9
:100EA8001A6E000E1D6E5F0E1C6E000E1F6E070E72
:100EB8001E6EF80E216E000E206E88EC0FF0000EEC
:100EC8001B6E3C0E1A6E000E1D6E5F0E1C6E000E21
:100ED8001F6E070E1E6EFF0E216EE00E206E88EC50
:100EE8000FF0000E3A6E500E396E000E3C6E5F0E1B
:100EF8003B6E000E3E6E070E3D6E070E406EE00E16
:100F08003F6EFEEC1BF05A0E376EC80E386E000EA0
:100F1800396E000E3B6E1F0E3A6E000E3D6E000ECF
:100F28003C6E020E3E6E640E5DEC16F064C00FF06F
:100F380065C010F0D70E116EFF0E126EB4EC1DF0E6
:100F48006E0E376E64C038F065C039F0F80E3B6E2F
:100F58001F0E3A6E000E3D6E000E3C6E010E3E6E88
:100F68001E0E5DEC16F0000E226E1E0E216E000E97
:100F7800246E750E236E000E266E3C0E256E000E36
:100F8800286E120E276EF80E2A6E1F0E296E41EC7F
:100F98001BF0000E3A6E280E396E000E3C6E7D0E68
:100FA8003B6E000E3E6E070E3D6EF80E406E000E54
:100FB8003F6EFEEC1BF0000E1B6E3C0E1A6E000E10
:100FC8001D6E7D0E1C6E000E1F6E070E1E6EFF0E30
:100FD800216EE00E206E88EC0FF0000E1B6E500E96
:100FE8001A6E000E1D6E7D0E1C6E000E1F6E070E13
:100FF8001E6E070E216EE00E206E88EC0FF0780E44
:10100800376EC50E386E000E396EF80E3B6E1F0E29
:101018003A6E000E3D6E000E3C6E020E3E6E640E81
:101028005DEC16F01E0E376ECB0E386E000E396E64
:10103800070E3B6E3A68000E3D6E000E3C6E020EC7
:101048003E6E020E5DEC16F064C00FF065C010F045
:10105800F70E116EFF0E126EB4EC1DF0140E376E03
:1010680064C038F065C039F0070E3B6E3A68000E70
:101078003D6E000E3C6E010E3E6E030E5DEC16F0EA
:1010880064C00FF065C010F0F30E116EFF0E126E03
:10109800B4EC1DF0500E376E64C038F065C039F0FE
:1010A800000E3B6E1F0E3A6E000E3D6E000E3C6E3B
:1010B800010E3E6E030E5DEC16F05A0E376ECE0E24
:1010C800386E000E396E000E3B6E1F0E3A6E000E23
:1010D8003D6E000E3C6E020E3E6E020E5DEC16F08A
:1010E80064C00FF065C010F0850E116EFF0E126E11
:1010F800B4EC1DF08C0E376E64C038F065C039F062
:10110800FF0E3B6E3A68000E3D6E000E3C6E010EFF
:101118003E6E010E5DEC16F0950E376E6F0E386E52
:10112800000E396EFF0E3B6E3A68000E3D6E000EE3
:101138003C6E010E3E6E060E5DEC16F0950E376E97
:101148006D0E386E000E396EFF0E3B6E3A68000E5B
:101158003D6E000E3C6E010E3E6E200E5DEC16F0EC
:10116800950E376EDB0E386E000E396EFF0E3B6E35
:101178003A68000E3D6E000E3C6E010E3E6E3A0E51
:101188005DEC16F0950E376ED90E386E000E396E7E
:10119800FF0E3B6E3A68000E3D6E000E3C6E010E6F
:1011A8003E6E570E5DEC16F0950E376ED70E386E04
:1011B800000E396EFF0E3B6E3A68000E3D6E000E53
:1011C8003C6E010E3E6E700E5DEC16F01200386E2D
:1011D80038AEEFD0386C3850800A120FD8A08DD0B6
:1011E800000E206E030E1F6E000E186E0A0E176E8C
:1011F800000E126E640E116E38500F6E106A0FBE1C
:10120800100690EC1AF00FC015F010C016F0F1ECB3
:1012180018F0090E15241D6E000E16201E6E24EC03
:101228001EF0180E1D24F66EFF0E1E20F76E090024
:10123800F5CF26F00900F5CF27F00A00F5CF28F002
:10124800000E186E640E176E3850156E166A15BEAD
:101258001606F1EC18F0120E15241D6E000E16205D
:101268001E6E000E206E030E1F6E24EC1EF0180E6C
:101278001D24F66EFF0E1E20F76E0900F5CF23F031
:101288000900F5CF24F00A00F5CF25F010EC14F092
:1012980023C035F024C036F025C037F035C023F020
:1012A80036C024F037C025F0000E206E030E1F6EE6
:1012B800000E126E0A0E116E38500F6E106A0FBEB5
:1012C800100690EC1AF00FC01DF010C01EF024ECB0
:1012D8001EF0180E1D24F66EFF0E1E20F76E090074
:1012E800F5CF26F00900F5CF27F00A00F5CF28F052
:1012F80010EC14F041D15AD154D03850800A750FEF
:10130800D8A04FD0000E186E0A0E176E3850156E02
:10131800166A15BE1606F1EC18F0090E15241D6E96
:10132800000E16201E6E000E206E030E1F6E24EC9B
:101338001EF0180E1D24F66EFF0E1E20F76E090013
:10134800F5CF23F00900F5CF24F00A00F5CF25F0FA
:10135800000E206E030E1F6E000E126E0A0E116E26
:1013680038500F6E106A0FBE100690EC1AF00FC0BE
:101378001DF010C01EF024EC1EF0180E1D24F66E91
:10138800FF0E1E20F76E0900F5CF26F00900F5CFF5
:1013980027F00A00F5CF28F010EC14F0EDD006D1B4
:1013A80000D03850030D180EF324F66EFF0EF2D05D
:1013B800FDD03850800A120FD8A08DD0000E206EB4
:1013C800030E1F6E000E186E0A0E176E000E126EB8
:1013D800640E116E38500F6E106A0FBE100690EC36
:1013E8001AF00FC015F010C016F0F1EC18F0090E45
:1013F80015241D6E000E16201E6E24EC1EF03F0EE6
:101408001D24F66EFF0E1E20F76E0900F5CF26F09C
:101418000900F5CF27F00A00F5CF28F0000E186E66
:10142800640E176E3850156E166A15BE1606F1EC66
:1014380018F0120E15241D6E000E16201E6E000EDA
:10144800206E030E1F6E24EC1EF03F0E1D24F66E58
:10145800FF0E1E20F76E0900F5CF23F00900F5CF27
:1014680024F00A00F5CF25F010EC14F023C035F075
:1014780024C036F025C037F035C023F036C024F03C
:1014880037C025F0000E206E030E1F6E000E126E80
:101498000A0E116E38500F6E106A0FBE100690ECCF
:1014A8001AF00FC01DF010C01EF024EC1EF03F0E05
:1014B8001D24F66EFF0E1E20F76E0900F5CF26F0EC
:1014C8000900F5CF27F00A00F5CF28F010EC14F04A
:1014D80053D06CD059D03850800A750FD8A054D04A
:1014E800000E186E0A0E176E3850156E166A15BE65
:1014F8001606F1EC18F0090E15241D6E000E1620C4
:101508001E6E000E206E030E1F6E24EC1EF03F0EA2
:101518001D24F66EFF0E1E20F76E0900F5CF23F08E
:101528000900F5CF24F00A00F5CF25F0000E206E53
:10153800030E1F6E000E126E0A0E116E38500F6EDB
:10154800106A0FBE100690EC1AF00FC01DF010C004
:101558001EF024EC1EF03F0E1D24F66EFF0E1E201A
:10156800F76E0900F5CF26F00900F5CF27F00A003D
:10157800F5CF28F010EC14F023C032F024C033F07B
:1015880025C034F013D000D03850030D3F0EF3249B
:10159800F66EFF0EF420F76E0900F5CF32F0090061
:1015A800F5CF33F00A00F5CF34F000D01200426EC8
:1015B80042501E0DF350230F436E4150D8A467D0FC
:1015C800000E3A6E280E396E43C03BF03C6A000E9E
:1015D8003E6E070E3D6E000E406E000E3F6EFEEC36
:1015E8001BF0000E3A6E3C0E396E43C03BF03C6A6D
:1015F800000E3E6E070E3D6E000E406E000E3F6EF2
:10160800FEEC1BF0000E3A6E500E396E43C03BF0F4
:101618003C6A000E3E6E070E3D6E000E406E000ED8
:101628003F6EFEEC1BF0000E1B6E280E1A6E43C0B8
:101638001CF01D6A000E1F6E070E1E6EF80E216E3E
:10164800000E206E88EC0FF0000E1B6E3C0E1A6E1A
:1016580043C01CF01D6A000E1F6E070E1E6EFF0EA3
:10166800216EE00E206E88EC0FF0000E1B6E500EFF
:101678001A6E43C01CF01D6A000E1F6E070E1E6E08
:10168800070E216EE00E206E88EC0FF000D04104AA
:10169800D8A467D0000E3A6E280E396E43C03BF0CE
:1016A8003C6A000E3E6E070E3D6EF80E406E000E50
:1016B8003F6EFEEC1BF0000E3A6E3C0E396E43C0D6
:1016C8003BF03C6A000E3E6E070E3D6E000E406E0B
:1016D800000E3F6EFEEC1BF0000E3A6E500E396E97
:1016E80043C03BF03C6A000E3E6E070E3D6E000E96
:1016F800406E000E3F6EFEEC1BF0000E1B6E280EB7
:101708001A6E43C01CF01D6A000E1F6E070E1E6E77
:10171800F80E216E000E206E88EC0FF0000E1B6E86
:101728003C0E1A6E43C01CF01D6A000E1F6E070E99
:101738001E6EFF0E216EE00E206E88EC0FF0000E7C
:101748001B6E500E1A6E43C01CF01D6A000E1F6EF1
:10175800070E1E6E070E216EE00E206E88EC0FF04D
:1017680000D0020E4118D8A467D0000E3A6E280E99
:10177800396E43C03BF03C6A000E3E6E070E3D6E6C
:10178800000E406E000E3F6EFEEC1BF0000E3A6E2F
:101798003C0E396E43C03BF03C6A000E3E6E070EAD
:1017A8003D6E000E406E000E3F6EFEEC1BF0000E0C
:1017B8003A6E500E396E43C03BF03C6A000E3E6EE6
:1017C800070E3D6E070E406EE00E3F6EFEEC1BF0FE
:1017D800000E1B6E280E1A6E43C01CF01D6A000E08
:1017E8001F6E070E1E6EF80E216E000E206E88EC1E
:1017F8000FF0000E1B6E3C0E1A6E43C01CF01D6AE3
:10180800000E1F6E070E1E6EFF0E216EE00E206E7C
:1018180088EC0FF0000E1B6E500E1A6E43C01CF0C1
:101828001D6A000E1F6E070E1E6E070E216EE00E5B
:10183800206E88EC0FF000D0030E4118D8A467D0B2
:10184800000E3A6E280E396E43C03BF03C6A000E1B
:101858003E6E070E3D6E000E406E000E3F6EFEECB3
:101868001BF0000E3A6E3C0E396E43C03BF03C6AEA
:10187800000E3E6E070E3D6EFF0E406EE00E3F6E90
:10188800FEEC1BF0000E3A6E500E396E43C03BF072
:101898003C6A000E3E6E070E3D6E000E406E000E56
:1018A8003F6EFEEC1BF0000E1B6E280E1A6E43C036
:1018B8001CF01D6A000E1F6E070E1E6EF80E216EBC
:1018C800000E206E88EC0FF0000E1B6E3C0E1A6E98
:1018D80043C01CF01D6A000E1F6E070E1E6EFF0E21
:1018E800216EE00E206E88EC0FF0000E1B6E500E7D
:1018F8001A6E43C01CF01D6A000E1F6E070E1E6E86
:10190800070E216EE00E206E88EC0FF000D012005A
:101918003B6E6D0E3B649BD0000E206E030E1F6E57
:10192800000E186E0A0E176E000E126E640E116EFF
:101938003BC00FF0106A90EC1AF00FC015F010C001
:1019480016F0F1EC18F0090E15241D6E000E162085
:101958001E6E24EC1EF0180E1D24F66EFF0E1E20BF
:10196800F76E0900F5CF26F00900F5CF27F00A0039
:10197800F5CF28F0000E186E640E176E3BC015F0F8
:10198800166AF1EC18F0120E15241D6E000E1620C2
:101998001E6E000E206E030E1F6E24EC1EF0180E35
:1019A8001D24F66EFF0E1E20F76E0900F5CF23F0FA
:1019B8000900F5CF24F00A00F5CF25F010EC14F05B
:1019C80023C038F024C039F025C03AF0000E206E4C
:1019D800030E1F6E000E126E0A0E116E3BC00FF042
:1019E800106A90EC1AF00FC01DF010C01EF024EC25
:1019F8001EF0180E1D24F66EFF0E1E20F76E09004D
:101A0800F5CF26F00900F5CF27F00A00F5CF28F02A
:101A180038C023F039C024F03AC025F010EC14F097
:101A280023C035F024C036F025C037F035C023F088
:101A380036C024F037C025F0000E266E000E276E43
:101A48003F0E286E10EC14F07DD083D062D00A0EC1
:101A58003B645FD0000E206E030E1F6E000E126EE8
:101A68000A0E116E3BC00FF0106A90EC1AF00FC00E
:101A78001DF010C01EF024EC1EF0180E1D24F66E8A
:101A8800FF0E1E20F76E0900F5CF26F00900F5CFEE
:101A980027F00A00F5CF28F0000E186E0A0E176E10
:101AA8003BC015F0166AF1EC18F0090E15241D6EEE
:101AB800000E16201E6E000E206E030E1F6E24EC04
:101AC8001EF0180E1D24F66EFF0E1E20F76E09007C
:101AD800F5CF23F00900F5CF24F00A00F5CF25F063
:101AE80010EC14F023C038F024C039F025C03AF0C7
:101AF80038C023F039C024F03AC025F0000E266E15
:101B0800000E276E3F0E286E10EC14F01BD021D06B
:101B180000D03B50030D180EF324F66EFF0EF42090
:101B2800F76E0900F5CF23F00900F5CF24F00A007D
:101B3800F5CF25F0000E266E000E276E3F0E286E9C
:101B480010EC14F023C032F024C033F025C034F078
:101B580000D0120038EC1EF00FC059F010C05AF037
:101B680059C01DF05AC01EF0000E206E050E1F6EE3
:101B780024EC1EF01DC023F01EC024F063EC1DF001
:101B880023C027F024C028F025C029F0000E2A6EB3
:101B9800800E2B6E440E2C6EECEC15F027C05BF01B
:101BA80028C05CF029C05DF0AE0E4E6EFF0E4F6E81
:101BB8005BC050F05CC051F05DC052F00EEC00F01C
:101BC8005BC00FF05CC010F05DC011F07B0E126EB0
:101BD800240E136E400E146EA6EC18F0D8B002D086
:101BE800010E01D0000E0001916F00D08DC090F061
:101BF800000E80B8010E00018F6F8EC093F0000EAA
:101C080080B6010E0001926F000191510001D8A425
:101C180002D04E0E01D0440E0001D76F000193513F
:101C28000001D8A402D0300E01D0310E0001DB6FC4
:101C3800000192510001D8A402D0300E01D0310E1B
:101C48000001D96F000190510001D8A402D0300ED4
:101C580001D0310E6F6E00018F510001D8A402D05F
:101C6800300E01D0310E6D6E00D00A0E376ED10ED7
:101C7800386E000E396EFF0E3B6E3A68000E3D6EF0
:101C8800000E3C6E010E3E6E230E5DEC16F0950EB6
:101C9800376E6F0E386E000E396EFF0E3B6E3A6867
:101CA800000E3D6E000E3C6E010E3E6E060E5DECA3
:101CB80016F0950E376E6D0E386E000E396EFF0EEB
:101CC8003B6E3A68000E3D6E000E3C6E010E3E6E95
:101CD800200E5DEC16F0950E376EDB0E386E000E9A
:101CE800396EFF0E3B6E3A68000E3D6E000E3C6E7C
:101CF800010E3E6E3A0E5DEC16F0950E376ED90E5B
:101D0800386E000E396EFF0E3B6E3A68000E3D6E5F
:101D1800000E3C6E010E3E6E570E5DEC16F0950EF1
:101D2800376ED70E386E000E396EFF0E3B6E3A686E
:101D3800000E3D6E000E3C6E010E3E6E700E5DECA8
:101D480016F012003EC042F0436A446A3D344236FF
:101D580001E343804250476E41C042F0436A446AFF
:101D68004034423601E343804250466E4750D8B46F
:101D78000BD04650475CD8B00ED0475000084624D8
:101D8800426E180E426407D03FC03CF040C03DF0A0
:101D980041C03EF0B8D04650D8B40BD04750465C4E
:101DA800D8B00ED0465000084724426E180E426440
:101DB80007D03CC03CF03DC03DF03EC03EF0A3D053
:101DC800060E456E3EAE02D0458E00D041BE458C13
:101DD8003D8EFF0E3C16FF0E3D16000E3E16408E41
:101DE800FF0E3F16FF0E4016000E41164650475C88
:101DF800D8B01ED0D8903F364036413646064750B8
:101E08004618D8B40FD0450645C042F0070E421612
:101E1800D8B408D0EFD706D0D8903E323D323C3205
:101E2800472A00D046504718D8B424D0F5D722D036
:101E38004750465CD8B01ED0D8903C363D363E362A
:101E4800470647504618D8B40FD0450645C042F05B
:101E5800070E4216D8B408D0EFD706D0D890413232
:101E680040323F32462A00D046504718D8B402D0F4
:101E7800F5D700D045AE0CD0FF0E3C1AFF0E3D1A28
:101E8800FF0E3E1A010E3C26000E3D22000E3E2299
:101E980045AC0DD0FF0E3F1AFF0E401AFF0E411A37
:101EA800010E3F26000E4022000E412200D0000EF7
:101EB800456E3C503F263D5040223E50412241AEA7
:101EC8000FD0FF0E3F1AFF0E401AFF0E411A010EE7
:101ED8003F26000E4022000E4122010E456E00D022
:101EE8003FC00FF040C010F041C011F047C012F0E1
:101EF80045C013F09EEC17F00FC03CF010C03DF049
:101F080011C03EF000D012001EC022F01FC023F006
:101F1800221E231E224A232A010E2224286E000E86
:101F28002320296E000E256E010E246E1EC022F09D
:101F38001FC023F0D89022362336221E231E224AA1
:101F4800232A22C026F023C027F0000E2B6E000E95
:101F58002A6E1EC02CF01FC02DF01C501E24166EB9
:101F680020C017F021C018F01A50CDEC1DF01E50FB
:101F780000081C24166E20C017F021C018F01A5053
:101F8800CDEC1DF01CC016F020C017F021C018F0D1
:101F98001A501E24CDEC1DF01CC016F020C017F0FE
:101FA80021C018F01E5000081A24CDEC1DF078D07E
:101FB80029BE0BD02C06D8A02D06020E2626000E10
:101FC800272226502826275029222A4A2B2A020E61
:101FD8002426000E252224502826255029221C506C
:101FE8002C24166E20C017F021C018F01A502A248D
:101FF800CDEC1DF01C502C24166E20C017F021C00B
:1020080018F02A5000081A24CDEC1DF02C500008B6
:102018001C24166E20C017F021C018F01A502A246C
:10202800CDEC1DF02C5000081C24166E20C017F0B3
:1020380021C018F02A5000081A24CDEC1DF01C50BD
:102048002A24166E20C017F021C018F01A502C242C
:10205800CDEC1DF01C502A24166E20C017F021C0AC
:1020680018F02C5000081A24CDEC1DF02A50000856
:102078001C24166E20C017F021C018F01A502C240A
:10208800CDEC1DF02A5000081C24166E20C017F055
:1020980021C018F02C5000081A24CDEC1DF000D0F7
:1020A8002C502A5C2B50800A226E2D50800A225810
:1020B800D8A07ED712004A6E4850010DB40EF32402
:1020C800D96E000EF420DA6EDF50496E8350800B13
:1020D8004910836EB6D048C015F0166A000E186E07
:1020E8000A0E176EF1EC18F01550300F0001C26F90
:1020F80048C00FF0106A000E126E0A0E116E90ECB6
:102108001AF00F50300F0001C36F1E0E376EC20E4B
:10211800386E000E396E070E3B6E3A68000E3D6E43
:10212800000E3C6E020E3E6E640E5DEC16F097D00B
:1021380048C015F0166A000E186E0A0E176EF1ECFC
:1021480018F01550300F0001C86F48C00FF0106A22
:10215800000E126E0A0E116E90EC1AF00F50300F2E
:102168000001C96F5A0E376EC80E386E000E396EF0
:10217800000E3B6E1F0E3A6E000E3D6E000E3C6E5A
:10218800020E3E6E640E5DEC16F069D048C015F084
:10219800166A000E186E0A0E176EF1EC18F015503C
:1021A800300F0001BF6F48C00FF0106A000E126EAA
:1021B8000A0E116E90EC1AF00F50300F0001C06F2C
:1021C8003C0E376EBF0E386E000E396EFF0E3B6E3A
:1021D8003A68000E3D6E000E3C6E020E3E6E640EB6
:1021E8005DEC16F03CD048C015F0166A000E186E6B
:1021F8000A0E176EF1EC18F01550300F0001C56F7C
:1022080048C00FF0106A000E126E0A0E116E90ECA4
:102218001AF00F50300F0001C66F780E376EC50EDA
:10222800386E000E396EF80E3B6E1F0E3A6E000EB9
:102238003D6E000E3C6E020E3E6E640E5DEC16F0B6
:102248000ED04A50000AD8B446D7010AD8B49ED74F
:10225800030AD8B46DD7010AD8B4C5D700D0120084
:10226800346E800E3460A6D09F0E2C6401D0A2D0AC
:102278003250D8A403D0010E326E00D01F0E2D6448
:1022880004D07E0E2D6403D000D03F0E2D6E000EBC
:10229800366E040E366401D08DD0530E2D6015D0E5
:1022A800E00E2D241D6E1E6AFF0E1E22000E206EEB
:1022B800050E1F6E24EC1EF036501D26000E1E2241
:1022C800150E1D24F66EFD0E14D0AD0E2D241D6EB8
:1022D8001E6AFF0E1E22000E206E050E1F6E24ECD5
:1022E8001EF036501D26000E1E22140E1D24F66EFA
:1022F800FE0E1E20F76E0800F5CF33F000D0000E5A
:10230800356E060E356401D053D033A023D0320485
:10231800D8A40CD02C503524166E2EC017F02FC020
:1023280018F034503624CDEC1DF03ED03550320232
:10233800F3502C24216E32C022F032C023F02EC07C
:1023480024F02FC025F036503202F35034244EECDE
:102358001CF02AD02E50301804E12F503118D8B470
:1023680023D03204D8A40CD02C503524166E30C09B
:1023780017F031C018F034503624CDEC1DF014D0CD
:1023880035503202F3502C24216E32C022F032C074
:1023980023F030C024F031C025F036503202F3501B
:1023A80034244EEC1CF000D0352AD8903332A9D70B
:1023B800362A6FD7120025C02DF026C02EF02D1E0C
:1023C8002E1E2D4A2E2A010E2D24336E000E2E208D
:1023D800346E000E306E010E2F6E25C02DF026C013
:1023E8002EF0D8902D362E362D1E2E1E2D4A2E2A32
:1023F8002DC031F02EC032F0000E366E000E356E54
:1024080025C037F026C038F067D034BE0BD0370669
:10241800D8A03806020E3126000E3222315033265B
:1024280032503422354A362A020E2F26000E302228
:102438002F5033263050342227A025D0375000089B
:102448002324166E3750372429242D6E2D28176E15
:102458002BC018F02CC019F021503524C6EC19F007
:10246800355000082324166E3550352429242D6E46
:102478002D28176E2BC018F02CC019F021503724C6
:10248800C6EC19F000D027A227D037500008232423
:10249800166E3750372429242D6E2D28176E2BC021
:1024A80018F02CC019F0355000082124C6EC19F09A
:1024B800355000082324166E3550352429242D6EF6
:1024C8002D28176E2BC018F02CC019F037500008B3
:1024D8002124C6EC19F000D03750355C3650800AFC
:1024E8002D6E3850800A2D58D8A08FD71200010EB3
:1024F800D8EC1EF0000E246E960E236ED5EC1BF061
:10250800110ED8EC1EF0010E246EF40E236ED5ECDD
:102518001BF0B10ED8EC1EF0010ED0EC1EF02C0E04
:10252800D0EC1EF02D0ED0EC1EF0B20ED8EC1EF042
:10253800010ED0EC1EF02C0ED0EC1EF02D0ED0ECBF
:102548001EF0B30ED8EC1EF0010ED0EC1EF02C0ECF
:10255800D0EC1EF02D0ED0EC1EF0010ED0EC1EF0CB
:102568002C0ED0EC1EF02D0ED0EC1EF0B40ED8ECD4
:102578001EF0070ED0EC1EF0C00ED8EC1EF0A20E16
:10258800D0EC1EF0020ED0EC1EF0840ED0EC1EF043
:10259800C10ED8EC1EF0C50ED0EC1EF0C20ED8EC61
:1025A8001EF00A0ED0EC1EF0000ED0EC1EF0C30E8A
:1025B800D8EC1EF08A0ED0EC1EF02A0ED0EC1EF0DD
:1025C800C40ED8EC1EF08A0ED0EC1EF0EE0ED0EC45
:1025D8001EF0C50ED8EC1EF00E0ED0EC1EF0200E2C
:1025E800D8EC1EF0360ED8EC1EF0C80ED0EC1EF05B
:1025F8003A0ED8EC1EF0050ED0EC1EF0120011C0F9
:1026080015F0166A176A1034153601E3168015504E
:102618001D6E1D50D8A402D05DD078D014C015F01E
:10262800166A176A1334153601E3168015501C6EA6
:102638001C50D8A402D04ED069D0108EFF0E0F16B1
:10264800FF0E1016000E1116138EFF0E1216FF0E37
:102658001316000E1416000E186E000E196E000EDA
:102668001A6E000E1B6E7F0E1D5E1C50980F1D5EAD
:10267800180E1C6ED890183619361A361B3612509A
:102688000F5C1350105814501158D8A007D012508E
:102698000F5E1350105A1450115A1880D8900F36E4
:1026A800103611361C2EE6D700D01DAE10D01D50A6
:1026B800800A970FD8B003D00DD028D000D0D8907A
:1026C8001B321A32193218321D3EF9D717D0170E9D
:1026D8001D6411D0000E0F6E000E106E000E116EEC
:1026E800000E126E13D007D0D890183619361A3645
:1026F8001B361D0600D01D50D8A4F6D718C00FF001
:1027080019C010F01AC011F01BC012F012001134D9
:1027180012341A6E1A50D8A402D061D07CD0143466
:102728001534196E1950D8A402D059D074D0118E0E
:10273800FF0E0F16FF0E1016FF0E1116000E1216C2
:10274800148EFF0E1216FF0E1316FF0E1416000E2F
:102758001516000E156E000E166E000E176E000E82
:10276800186E7F0E1A5E1950A00F1A5E200E196E91
:1027780000D0D890153616361736183612500F5C1A
:10278800135010581450115815501258D8A00AD088
:1027980012500F5E1350105A1450115A1550125AF5
:1027A800158000D0D8900F36103611361236192EF3
:1027B800E0D700D01AAE10D01A50800A9F0FD8B0B8
:1027C80003D00DD028D000D0D89018321732163246
:1027D80015321A3EF9D717D01F0E1A6411D0000E01
:1027E8000F6E000E106E000E116E000E126E13D0DA
:1027F80007D0D89015361636173618361A0600D070
:102808001A50D8A4F6D715C00FF016C010F017C08C
:1028180011F018C012F0120025C029F02A6A2B6A9C
:102828002434293601E32A8029502C6E2C50D8A450
:1028380002D00ED06CD028C029F02A6A2B6A27341F
:10284800293601E32A802950316E3150D8A407D0A7
:10285800000E236E000E246E000E256E58D03150E7
:102868007B0F2C2625C031F02850311A800E3116E6
:10287800248E278EFF0E2616FF0E2716000E28160A
:10288800000E2D6E000E2E6E000E2F6E070E306E8F
:1028980000D023A007D026502D2627502E222850BE
:1028A8002F2200D0D890253224322332D8902636D1
:1028B80027362836302EEDD700D0090E306E00D0DE
:1028C80023A007D026502D2627502E2228502F220D
:1028D80000D0D890253224322332D8902F322E328D
:1028E8002D32302EEDD700D02DC00FF02EC010F0B5
:1028F8002FC011F02CC012F031C013F09EEC17F06D
:102908000FC023F010C024F011C025F000D0120031
:10291800E00ED8EC1EF0020ED0EC1EF01C0ED0EC2F
:102928001EF0070ED0EC1EF0120ED0EC1EF0370E83
:10293800D0EC1EF0320ED0EC1EF0290ED0EC1EF0BA
:102948002D0ED0EC1EF0290ED0EC1EF0250ED0EC8A
:102958001EF02B0ED0EC1EF0390ED0EC1EF0000E3F
:10296800D0EC1EF0010ED0EC1EF0030ED0EC1EF0E1
:10297800100ED0EC1EF0E10ED8EC1EF0030ED0ECD9
:102988001EF01D0ED0EC1EF0070ED0EC1EF0060E49
:10299800D0EC1EF02E0ED0EC1EF02C0ED0EC1EF05B
:1029A800290ED0EC1EF02D0ED0EC1EF02E0ED0EC21
:1029B8001EF02E0ED0EC1EF0370ED0EC1EF03F0E9F
:1029C800D0EC1EF0000ED0EC1EF0000ED0EC1EF085
:1029D800020ED0EC1EF0100ED0EC1EF0130ED8EC48
:1029E8001EF0000E246E0A0E236ED5EC1BF0290E85
:1029F800D8EC1EF0000E246E640E236ED5EC1BF08E
:102A080012004A6E4850010DB40EF324D96E000E20
:102A1800F420DA6EDF50496E8350800B4910836EC4
:102A28005BD048C015F0166A000E186E0A0E176EB5
:102A3800F1EC18F01550300F0001CB6F48C00FF0C3
:102A4800106A000E126E0A0E116E90EC1AF00F50FA
:102A5800300F0001CC6F1E0E376ECB0E386E000E95
:102A6800396E070E3B6E3A68000E3D6E000E3C6EE6
:102A7800020E3E6E020E5DEC16F036D048C015F020
:102A8800166A000E186E0A0E176EF1EC18F0155043
:102A9800300F0001CE6F48C00FF0106A000E126EA2
:102AA8000A0E116E90EC1AF00F50300F0001CF6F24
:102AB8005A0E376ECE0E386E000E396E000E3B6E13
:102AC8001F0E3A6E000E3D6E000E3C6E020E3E6EFC
:102AD800020E5DEC16F008D04A50000AD8B4A1D70F
:102AE800020AD8B4CBD700D012003BC03DF03E6AF2
:102AF8003F6A3A343D3601E33E803D50476E4750C9
:102B0800D8A402D039D063D0170E3D6E39C03EF03C
:102B18003AC03FF03BC040F03D28416E04D0D89009
:102B280040323F323E32412EFAD73E50426E3A8E04
:102B3800FF0E3916FF0E3A16000E3B163950436E3B
:102B48003A50446E3B50456E466A8E0E475E47AE1D
:102B580010D04750800A8F0FD8B003D00DD037D08F
:102B680000D0D8904632453244324332473EF9D7F6
:102B780019D0170E476411D0000E396E000E3A6E48
:102B8800000E3B6E000E3C6E22D007D0D890433624
:102B9800443645364636470600D04750D8B402D0AA
:102BA800F5D700D04250D8B409D0461E451E441E61
:102BB800436C000E44224522462200D043C039F01F
:102BC80044C03AF045C03BF046C03CF000D012008B
:102BD80029C02DF02E6A2F6A28342D3601E32E8065
:102BE8002D50346E3450D8A402D00ED061D02CC0F1
:102BF8002DF02E6A2F6A2B342D3601E32E802D50AE
:102C0800356E3550D8A407D0000E276E000E286EFA
:102C1800000E296E4DD0000E316E000E326E000E81
:102C2800336E3550890F345E29C035F02C50351A73
:102C3800800E3516288EFF0E2716FF0E2816000E5A
:102C480029162B8EFF0E2A16FF0E2B16000E2C1699
:102C5800180E306E00D0D8903136323633362A50BE
:102C6800275C2B5028582C502958D8A007D02A5018
:102C7800275E2B50285A2C50295A3180D890273655
:102C880028362936302EE7D700D031C00FF032C0B1
:102C980010F033C011F034C012F035C013F09EECC0
:102CA80017F00FC027F010C028F011C029F000D08D
:102CB8001200416E41C047F037C046F038C00FF0EF
:102CC80039C010F044EC1DF00FC042F010C043F0C2
:102CD800000E456E000E446E54D06C50D8B42CD003
:102CE8003E50050D47503F6E406AF3503F26F45062
:102CF800402240BE21D0405004E1810E3F5CD8A064
:102D08001BD0000E476E3E50070DF3504624030FAC
:102D1800466EA00E466403D0A00E466E00D0445006
:102D28003824D96E45503920DA6E200EDE18D8B412
:102D380025D002D023D000D046C02CF044503824EF
:102D4800D96E45503920DA6EDF502D6E3AC02EF01C
:102D58003BC02FF03CC030F03DC031F03EC032F0F7
:102D6800475034EC11F03E50060DF3504724476E9F
:102D7800800E476403D0800E476E00D0444A452A2F
:102D880000D04250445C43504558D8A0A6D7120002
:102D9800216E800E216069D09F0E166401D065D027
:102DA800FF0E1B6EFF0E1C6E175021C01DF01E6A11
:102DB8001D26000E1E221B501D261C501E221EBE44
:102DC8000AD01E5004E1800E1D5CD8A004D021500A
:102DD8000008800F176EFF0E1B6EFF0E1C6E18503A
:102DE80016C01DF01E6A1D26000E1E221B501D2631
:102DF8001C501E221EBE0BD01E5004E1A00E1D5CEE
:102E0800D8A005D016500008A00F186E00D016C024
:102E180012F0215017241B6E1B04136E1650182431
:102E28001C6E1C04146E215027EC1CF01A501F6EE7
:102E380019C020F08284829818C016F01650D8B4B1
:102E480013D001D011D017C021F02150D8B40AD026
:102E580001D008D01F50B4EC1EF02050B4EC1EF086
:102E68002106F3D71606EAD782881200819E440EFF
:102E78000001D16F00D0010E73EC1CF0010EDFECE5
:102E88001CF0010EBBEC1CF0020E97EC1CF00001CC
:102E98008E05D8A405D0090E4B6E000E81EC1DF0EE
:102EA800080E9BEC1DF0030E97EC1CF0030E9BEC38
:102EB8001DF0010E97EC1CF080A810D0020EBBECA0
:102EC8001CF0070E9BEC1DF0030EBBEC1CF0030E70
:102ED8009BEC1DF0010EBBEC1CF000D0020EDFECE9
:102EE8001CF000018D05D8A405D0080E4B6E010E0C
:102EF80081EC1DF0060E9BEC1DF0030EDFEC1CF0C0
:102F0800030E9BEC1DF0010EDFEC1CF080A611D027
:102F1800020E73EC1CF0060E9BEC1DF0030E73EC16
:102F28001CF0030E9BEC1DF0010E73EC1CF001D09D
:102F3800A2D712001250D8B405D00F50101011109B
:102F4800D8A40ED0000E0F6E000E106E000E116E7B
:102F580053D006D0122AD890113210320F3200D036
:102F6800000E0F14146E000E1014156EFE0E1114C0
:102F7800166E145015101610D8B40ED0EBD70CD00E
:102F8800122A010E0F26000E1022000E1122D890D0
:102F9800113210320F3200D0000E0F14146E000ED2
:102FA8001014156EFF0E1114166E1450151016100D
:102FB800D8B408D0E5D706D01206D8900F36103608
:102FC800113600D010BE04D0020E1260F5D700D022
:102FD80012B002D0109E00D0D890123212501112A6
:102FE8001350D8B402D0118E00D00FC00FF010C00B
:102FF80010F011C011F000D01200E0EC1EF089ECC6
:103008001EF0AAEC1EF0000EFCEC1EF0700ED36E43
:10301800F19E5CEC05F094EC1EF000D038EC1EF04C
:103028000FC062F010C063F062C060F063C061F06E
:10303800D89060366136D8906036613660C023F02B
:1030480061C024F063EC1DF023C027F024C028F0F1
:1030580025C029F0000E2A6E800E2B6E440E2C6EB1
:10306800ECEC15F027C080F028C081F029C082F070
:1030780080C00FF081C010F082C011F0330E126EC4
:10308800130E136E400E146EA6EC18F0D8B003D0D1
:103098003AEC17F0C3D754EC18F0C0D70CEF00F097
:1030A800818E4E0E0001D16F00D0010E73EC1CF022
:1030B800010EDFEC1CF0010EBBEC1CF0020E97ECCD
:1030C8001CF0080E9BEC1DF0030E97EC1CF0020E92
:1030D8009BEC1DF0010E97EC1CF080A810D0020E9E
:1030E800BBEC1CF0060E9BEC1DF0030EBBEC1CF0B9
:1030F800020E9BEC1DF0010EBBEC1CF000D0020E82
:10310800DFEC1CF0090E9BEC1DF0030EDFEC1CF04D
:10311800020E9BEC1DF0010EDFEC1CF080A611D016
:10312800020E73EC1CF0070E9BEC1DF0030E73EC03
:103138001CF0020E9BEC1DF0010E73EC1CF001D08C
:10314800B4D7120011AE17D00FC015F010C016F08A
:1031580011C017F0151E161E171E152A000E16226E
:103168001722000E15240F6E000E1620106E800E0A
:103178001720116E00D014AE17D012C015F013C06E
:1031880016F014C017F0151E161E171E152A000E6D
:1031980016221722000E1524126E000E1620136E2A
:1031A800800E1720146E00D0000E0F1A000E101A91
:1031B800800E111A000E121A000E131A800E141A1D
:1031C80012500F5C1350105814501158D8B002D038
:1031D800D89002D0D88000D01200000E1A6E18AE17
:1031E80007D0176C181ED8B0182A010E1A6E00D016
:1031F80016AE07D0156C161ED8B0162A010E1A1A6C
:1032080000D0000E1C6E000E1B6E17501810D8B49C
:1032180021D0010E196E05D0D89017361836192A04
:1032280000D018BE02D0F8D700D0D8901B361C3674
:103238001750155C18501658D8A006D01750155EB0
:103248001850165A1B8000D0D89018321732192EF1
:10325800ECD700D01A50D8B405D01B6C1C1ED8B0BF
:103268001C2A00D01BC015F01CC016F000D012009C
:10327800000E176E000E186E000E196E000E1A6EF4
:103288001350141015101610D8B42FD0010E1B6E41
:1032980007D0D89013361436153616361B2A00D0A8
:1032A80016BE02D0F6D700D0D89017361836193681
:1032B8001A3613500F5C14501058155011581650E8
:1032C8001258D8A00AD013500F5E1450105A155037
:1032D800115A1650125A178000D0D890163215324B
:1032E800143213321B2EE0D700D017C00FF018C0CD
:1032F80010F019C011F01AC012F01200206E800EE2
:1033080020603FD09F0E166401D03BD0FF0E1A6E8E
:10331800FF0E1B6E175020C01CF01D6A1C26000EE5
:103328001D221A501C261B501D221DBE0BD01D50DD
:1033380004E1800E1C5CD8A005D020500008800F46
:10334800176E00D019501E6E18C01FF016C012F06C
:10335800205017241A6E1A04136E16C014F0205049
:1033680027EC1CF08284829807D01E50B4EC1EF023
:103378001F50B4EC1EF000D017061728D8A4F5D7B4
:1033880082881200206E800E20603FD09F0E166447
:1033980001D03BD0FF0E1A6EFF0E1B6E175016C0E1
:1033A8001CF01D6A1C26000E1D221A501C261B50DC
:1033B8001D221DBE0BD01D5004E1A00E1C5CD8A020
:1033C80005D016500008A00F176E00D019501E6EB9
:1033D80018C01FF016C012F020C013F016501724A2
:1033E8001A6E1A04146E205027EC1CF082848298FE
:1033F80007D01E50B4EC1EF01F50B4EC1EF000D0E5
:1034080017061728D8A4F5D782881200838E64C0BF
:103418000FF065C010F0FD0E116EFF0E126EB4ECC9
:103428001DF00A0E376E64C038F065C039F0FF0E23
:103438003B6E3A68000E3D6E000E3C6E010E3E6E0D
:10344800780E5DEC16F07CEC1EF0839E64C00FF0E5
:1034580065C010F0FB0E116EFF0E126EB4EC1DF07D
:103468000A0E376E64C038F065C039F0FF0E3B6E47
:103478003A68000E3D6E000E3C6E010E3E6E780EF0
:103488005DEC16F07CEC1EF0AEEC0DF0FAEC1DF0E5
:1034980012000600EACF04F0E1CF05F0E2CF06F013
:1034A800D9CF07F0DACF08F0F3CF09F0F4CF0AF05C
:1034B800F6CF0BF0F7CF0CF0F8CF0DF0F5CF0EF0FC
:1034C800F2A203D0F5EC1EF000D0F0A003D002EC7D
:1034D8001FF000D0F0A203D0EEEC1EF000D00EC01A
:1034E800F5FF0DC0F8FF0CC0F7FF0BC0F6FF0AC0D0
:1034F800F4FF09C0F3FF08C0DAFF07C0D9FF06C010
:10350800E2FF05C0E1FF04C0EAFF03C0E9FF02C013
:10351800FBFF01C0FAFF1100000E146E10AE07D0B9
:103528000F6C101ED8B0102A010E146E00D012AE07
:1035380005D0116C121ED8B0122A00D011501210EA
:10354800D8B41DD0010E136E05D0D890113612369E
:10355800132A00D012BE02D0F8D700D011500F5C49
:1035680012501058D8A005D011500F5E1250105AA2
:1035780000D0D89012321132132EF0D700D0145048
:10358800D8B405D00F6C101ED8B0102A00D00FC0C8
:103598000FF010C010F000D01200116E000EAC6ECB
:1035A800000EAB6E11A002D0AC8800D011A203D0DF
:1035B800AC8CAB8C00D011A402D0AC8E00D011A67C
:1035C80002D0AB8802D0AB8A00D011B8AC849E98E8
:1035D80011AA02D0AB8600D011AC02D09D8A01D0CE
:1035E8009D9A9E9A11AE02D09D8801D09D980FC0D9
:1035F800AFFF1050B06EAC8AAB8E949C948EACB872
:10360800ACBE02D0948C00D01200135014101510C8
:103618001610D8B429D0010E176E07D0D8901336DB
:10362800143615361636172A00D016BE02D0F6D72D
:1036380000D013500F5C14501058155011581650E4
:103648001258D8A009D013500F5E1450105A1550B4
:10365800115A1650125A00D0D89016321532143218
:103668001332172EE6D700D00FC00FF010C010F09D
:1036780011C011F012C012F0120023C016F025C0BC
:1036880017F029C018F02AC019F0215082EC19F05F
:10369800235027242B6E2B04166E25C017F029C043
:1036A80018F02AC019F0215082EC19F023C016F046
:1036B80027C017F029C018F02AC019F02150C6EC0D
:1036C80019F023C016F027C017F029C018F02AC037
:1036D80019F0215025242B6E2B04C6EC19F012008A
:1036E80000EE80F0340EEE6AE806FDE100EE64F0CC
:1036F800080EEE6AE806FDE11E0EF66E3C0EF76E49
:10370800000EF86E00EEB4F010EE29F00900F5CFC7
:10371800EEFFE550E150FAE1160EF66E3E0EF76E3A
:10372800000EF86E00EE6CF010EE05F00900F5CF13
:10373800EEFFE550E150FAE1000EF86E000101EFEE
:1037480018F08E0E1F6E07D0D8901A321932183220
:1037580017321F2A00D0000E17141B6E000E181403
:103768001C6E000E19141D6EFF0E1A141E6E1B50CF
:103778001C101D101E10D8A4E7D717C00FF018C0D2
:1037880010F019C011F01FC012F0000E136E9EEC5D
:1037980017F00FC017F010C018F011C019F000D0C2
:1037A800120023C01DF024C01EF0000E206EFA0E79
:1037B8001F6E24EC1EF01DC027F01EC028F027C085
:1037C80025F028C026F0251E261E254A262AFF0E8B
:1037D8002524276EFF0E2620286EB80EB16E27C04E
:1037E800D6FF2850D76EA192B18000D0A1A2FED7F3
:1037F800B19012003D5000083B24166ED8803D342D
:10380800176E3FC018F040C019F03950C6EC19F0D7
:1038180039C021F03AC022F03BC023F03CC024F06C
:103828003DC025F03EC026F0000E286E030E276E20
:10383800000E2A6E000E296E3FC02BF040C02CF0FF
:10384800DFEC11F01200156E2A0ED8EC1EF0000EF7
:10385800D0EC1EF015506924D0EC1EF0000ED0EC10
:103868001EF013506924D0EC1EF02B0ED8EC1EF07D
:10387800000ED0EC1EF012506B24D0EC1EF0000E9F
:10388800D0EC1EF014506B24D0EC1EF02C0ED8ECAB
:103898001EF01200296E29C02AF02B6A0ED021C012
:1038A80016F023C017F024C018F025C019F02A50CC
:1038B800C6EC19F02A4A2B2A00D0225029C026F03B
:1038C800276A2626000E272226502A5C2B50800ABB
:1038D800286E2750800A2858D8A0E1D71200446ED5
:1038E800030E0001946F44C041F000019451DBECD9
:1038F8000AF00AD0819801D08188819A13D08198E2
:1039080001D08188818A0ED04450000AD8B4F2D7F9
:10391800010AD8B4F1D7030AD8B4F1D7010AD8B448
:10392800F0D700D01200446E020E0001946F44C01C
:1039380041F000019451DBEC0AF00AD0809201D0EA
:103948008082809413D0809201D0808280840ED0AF
:103958004450000AD8B4F2D7010AD8B4F1D7030A00
:10396800D8B4F1D7010AD8B4F0D700D01200446E09
:10397800010E0001946F44C041F000019451DBEC4A
:103988000AF00AD0849201D08482849413D084925D
:1039980001D0848284840ED04450000AD8B4F2D76F
:1039A800010AD8B4F1D7030AD8B4F1D7010AD8B4B8
:1039B800F0D700D01200446E000E0001946F44C08E
:1039C80041F000019451DBEC0AF00AD0809A01D052
:1039D800808A819C13D0809A01D0808A818C0ED0F5
:1039E8004450000AD8B4F2D7010AD8B4F1D7030A70
:1039F800D8B4F1D7010AD8B4F0D700D012004B5090
:103A08004C104D10D8B407D0000E4B1A000E4C1AAB
:103A1800800E4D1A00D048C03CF049C03DF04AC065
:103A28003EF04BC03FF04CC040F04DC041F0A6EC1A
:103A38000EF03CC048F03DC049F03EC04AF000D00E
:103A480012002A0ED8EC1EF0000ED0EC1EF0000E6C
:103A5800D0EC1EF0000ED0EC1EF07F0ED0EC1EF065
:103A68002B0ED8EC1EF0000ED0EC1EF0000ED0ECA1
:103A78001EF0000ED0EC1EF09F0ED0EC1EF01200CF
:103A88000FC013F010C014F003D0134A142A00D04A
:103A980013C0D9FF14C0DAFFDF50D8A4F6D70FC07F
:103AA80011F010C012F0111E121E114A122A1350E2
:103AB80011240F6E14501220106E00D01200000E48
:103AC800266E24AE07D0236C241ED8B0242A010EFB
:103AD800266E00D023C00FF024C010F0116A8E0E9D
:103AE800126E26C013F09EEC17F00FC023F010C022
:103AF80024F011C025F000D012004B044C6E4C503D
:103B0800D8B40CD001D00AD04CC048F00001945170
:103B180005EC15F09FEC1EF04C06F1D7000E486E30
:103B28000001945105EC15F09FEC1EF012005E6E3A
:103B38005EC05FF05F50D8B40CD001D00AD05FC02F
:103B480048F0000194515FEC10F00AEC1AF05F069F
:103B5800F1D7000E486E000194515FEC10F012008E
:103B68000FC013F010C014F005D0134A142A114ADC
:103B7800122A00D011C0F6FF12C0F7FF13C0D9FFF8
:103B880014C0DAFF0800F5CFDFFFDF50D8A4EDD767
:103B98001200196E800E196013D09F0E166401D0A2
:103BA8000FD016C012F01928136E1628146E19506B
:103BB80027EC1CF01850D0EC1EF01750D0EC1EF07B
:103BC800120082888294800EC76E300EC66E7BEC1F
:103BD80012F025EC1DF08CEC14F0360ED8EC1EF02B
:103BE800C00ED0EC1EF0010E686E120094EC1EF0B0
:103BF8000001830500018411D8A40CD0000E000137
:103C0800846F000E836F660E4E6EFF0E4F6E0EECC5
:103C180000F000D012004079243019120278001008
:103C2800FF303000303000303000303000303000AD
:103C380030300044003000300044003000300000D4
:103C48001D501F02F3CF21F0F4CF22F01D502002A7
:103C5800F35022261E501F02F350222621C01DF0C9
:103C680022C01EF000D01200C28200D0C2B2FED71D
:103C7800C450126E116AC3501124136E000E122024
:103C8800146E13C00FF014C010F000D012000F50C3
:103C980010101110D8B406D0000E0F1A000E101A0A
:103CA800800E111A0FC00FF010C010F011C011F0E3
:103CB8001200116E000E106E3A0E116006D02F0E13
:103CC800116403D0010E106E00D010C00FF00F3039
:103CD80000D01200000E166E800E176EA00E186E21
:103CE80022C019F023C01AF0000ECCEC16F0120016
:103CF800030ED56EDB0ED66E0B0ED76EF294D58EF4
:103D080000D0F2A4FED7D59E1200190E926E070EAF
:103D1800936E000E946E000E956E000E966E120055
:103D2800F292F090F092F19CF19AF188F288F08684
:103D3800F088F28E1200838EC7EC1EF07CEC1EF029
:103D4800839E07EC1FF07CEC1EF01200000E106E34
:103D5800190E0F6E3C0ED1EC1AF0600ED36E1200E5
:103D6800106E9E96C9CF0FF010C0C9FF00D0C7A033
:103D7800FED712008292000E246E640E236ED5ECDC
:103D88001BF082821200F90ECB6E050ECA6E4A0E27
:103D9800BB6E3C0EBA6E1200116E8298828411506E
:103DA800B4EC1EF082881200116E82988294115031
:103DB800B4EC1EF082881200010EC26E0E0EC16EA7
:103DC800A90EC06E12000F6E00D0ACA2FED70FC0B5
:103DD800ADFF1200F092000E0001886F010E876F90
:103DE8001200F292000E0001846F010E836F120020
:103DF8000F6E0F50040DF328C26E1200F090010EE2
:103E080000018D6F1200000EBA6E8196120001300B
:043E18000030000076
:10FD140000000000000000005F0000000700070072
:10FD2400147F147F14242A7F2A1223130864623652
:10FD3400495620500008070300001C2241000041DE
:10FD4400221C002A1C7F1C2A08083E080800807018
:10FD5400300008080808080000606000201008044B
:10FD6400023E5149453E00427F400072494949469E
:10FD74002141494D331814127F1027454545393C1C
:10FD84004A49493141211109073649494936464909
:10FD940049291E000014000000403400000008142B
:10FDA40022411414141414004122140802015909A4
:10FDB400063E415D594E7C1211127C7F49494936F9
:10FDC4003E414141227F4141413E7F494949417F72
:10FDD400090909013E414151737F0808087F004128
:10FDE4007F41002040413F017F081422417F404071
:10FDF40040407F021C027F7F0408107F3E41414146
:10FE04003E7F090909063E4151215E7F09192946B1
:10FE1400264949493203017F01033F4040403F1FC7
:10FE24002040201F3F4038403F63140814630304FC
:10FE34007804036159494D43007F4141410204085C
:10FE44001020004141417F0402010204404040402F
:10FE540040000307080020545478407F2844443865
:10FE64003844444428384444287F385454541800AF
:10FE7400087E090218A4A49C787F0804047800442E
:10FE84007D40002040403D007F1028440000417F19
:10FE940040007C047804787C0804047838444444A2
:10FEA40038FC1824241818242418FC7C080404089A
:10FEB400485454542404043F44243C4040207C1CB3
:10FEC4002040201C3C4030403C44281028444C90A6
:10FED40090907C4464544C44000836410000007700
:10FEE4000000004136080002010204020100000083
:10FEF4000A00000064000000E8030000102700006E
:10FF0400A086010040420F008096980000E1F505AC
:10FF140000CA9A3B00803FCDCC3DD7233C12833AA4
:10FF2400B7D138C62737388635C0D633CC2B327094
:10FF34008930E7DB2EE53C1E42A20D00803F002005
:10FF44004100C842007A44401C4650C347247449C7
:10FF540097184BBCBE4C6B6E4E03155079AD60F3D5
:10FF64004971494E543020696E74657272757074AB
:10FF74002070696E206465746563746564200D0A7D
:10FF8400004557502045574C54204E5350204E5353
:10FF94004C54204D4400454345333330314C2046C6
:10FFA400616C6C2032322D533100766F6C74732087
:10FFB4006172652025302E33660D0A0A004E4F52B9
:10FFC40054482F534F55544800454153542F5745D7
:10FFD4005354004E2F53204C5400452F57204C545B
:10FFE400004D6F64653A0046523A0046533A005059
:0CFFF4004E53005045570020002A00002A
:020000040020DA
:08000000FFFFFFFFFFFFFFFF00
:020000040030CA
:0E000000FF08191EFF8281FF0FC00FE00F40A6
:00000001FF
