:040000000CEF00F011
:10000800FACF03F0FBCF04F0E9CF05F0BCED08F020
:10001800FAEF08F01F0E306E000E316E99D1250EE2
:100028003818D8B404D03850CEEC0CF091D1000E6A
:10003800376E000E366E000E356E05D035841D4ABB
:100048001E2A01D00BD01DC0F6FF1EC0F7FF080006
:10005800F550300AD8B4F2D701D0F5D71DC0F6FF55
:100068001EC0F7FF0800F5501BEC0CF0D8A03BD0E1
:10007800000E376E000E366E00D036C011F037C055
:1000880012F0000E146E0A0E136EF5EC0BF011C090
:1000980036F012C037F0D00E2B6EFF0E2C6E1DC03E
:1000A800F6FF1EC0F7FF0800F5502D6E2E6A2B5084
:1000B8002D262C502E222D5036262E5037221D4A02
:1000C8001E2A1DC0F6FF1EC0F7FF0800F5501BECE6
:1000D8000CF0D8A008D0D1D706D048D11BD0358E87
:1000E80019D036D117D01DC0F6FF1EC0F7FF1D4A24
:1000F8001E2A0800F5CF38F03850000AD8B436D197
:10010800640AD8B407D00D0AD8B404D0110AD8B4F8
:10011800E6D71ED135BE15D030C0D9FF31C0DAFFC1
:10012800DECF33F0DDCF34F0020E3026000E312260
:1001380034AE4ED0030E3512336C341ED8B0342A88
:1001480047D030C0D9FF31C0DAFFDECF33F0DDCF82
:1001580034F0020E3026000E31223AD0010E386EED
:10016800050E3818D8B43DD001D03BD03850020D18
:10017800340EF324F66EFF0EF420F76E0900F550E6
:10018800335C0900F5503458D8A02BD001D029D0C1
:10019800382AE6D726D0010E386E040E3818D8B49F
:1001A80020D001D01ED03850020D3E0EF324F66E3A
:1001B800FF0EF420F76E0900F550335C0900F55086
:1001C8003458D8A00ED001D00CD0382AE6D709D0A0
:1001D8003550800B000AD8B4C1D7800AD8B4DBD711
:1001E80000D036503710D8B40AD035C02BF0030EE3
:1001F8002B16D8B404D03606D8A0370600D0800E07
:1002080038BE7F0E2B6E3650385C3750800A2B581C
:10021800D8B007D03850365E000E38BEFF0E375AB9
:1002280005D0000E376E000E366E00D035A41AD0F9
:1002380035C02BF0030E2B16D8B404D02D0ECEECFF
:100248000CF000D036503710D8B426D0300ECEEC93
:100258000CF03606D8A0370636503710D8B41CD064
:10026800F5D71AD036503710D8B40CD0200ECEECB3
:100278000CF03606D8A0370636503710D8B402D05E
:10028800F5D700D035C02BF0030E2B16D8B404D008
:100298002D0ECEEC0CF000D038C032F053D045D043
:1002A8003250020D340EF324F66EFF0EF420F76E72
:1002B8000900F5CF13F00A00F5CF14F033C011F0A0
:1002C80034C012F0D4EC09F011C018F012C019F0C3
:1002D800000E1B6E0A0E1A6EA5EC0AF01850300FAD
:1002E800386E2CD033C011F034C012F03250020DE9
:1002F8003E0EF324F66EFF0EF420F76E0900F5CFDC
:1003080013F00A00F5CF14F0D4EC09F011500F0BDC
:100318002F6E2F50010DE70EF324F66EFF0EF4201A
:10032800F76E0800F5CF38F009D03550800B000A79
:10033800D8B4B6D7800AD8B4D5D700D03850CEECC8
:100348000CF000D032063228D8B402D0EED700D054
:100358001DC0F6FF1EC0F7FF1D4A1E2A0800F5CF74
:1003680038F03850D8B402D05AD600D0120014EC65
:100378000BF06FEC09F066EC0CF0F2EC07F000D033
:1003880091EC0BF0145001017B6F01017B51116E50
:10039800126A11BE1206000E146E090E136EF5ECE9
:1003A8000BF011C017F012C018F0000E1A6E050EEF
:1003B800196EA7EC07F01750200F01017A6FA2EC15
:1003C80009F062506D18D8B454D062C06DF091EC49
:1003D8000BF0145001017D6F01017D51116E126AFD
:1003E80011BE1206000E146E090E136EF5EC0BF01A
:1003F80011C017F012C018F0000E1A6E050E196E13
:10040800A7EC07F01750200F01017C6FB10E1D6E8D
:10041800FF0E1E6E5DC01FF0206A5FC021F0226AC9
:1004280062C023F0246A60C025F0266A5AC027F00B
:10043800286A6CC029F02A6A0EEC00F0850E1D6E41
:10044800FF0E1E6E01017D511F6E206A1FBE200621
:1004580001017C51216E226A21BE22060EEC00F0B9
:10046800460E1D6EFF0E1E6E0EEC00F009EC0CF031
:1004780000D04C044D10D8A483D7000E4D6E000E4A
:100488004C6EF288F19C5C68000E01017F6F000ED3
:100498007E6F01017FBF0AD001017F5121E1150E56
:1004A80001017E5DD8B01CD001D01AD0E90E01013F
:1004B8007E25D96E000E01017F21DA6E5050DE18BC
:1004C800D8A409D07EC15CF00D0E5C18D8A408D061
:1004D8006FEC09F005D001017E4B7F2BDAD700D0F5
:1004E8005C28D8B44DD7000E3C6E3C0E3B6E000E17
:1004F8003E6E500E3D6E000E406E140E3F6E5C5008
:10050800020D800EF324D96E000EF420DA6EDECFD1
:1005180041F0DDCF42F02CEC0AF0000E1D6E3C0ECF
:100528001C6E000E1F6E500E1E6E000E216E140EF5
:10053800206EFF0E236E2268E9EC02F04D0E396E34
:100548005C50040D000EF3243A6E010EF4203B6E4D
:10055800000E3D6E000E3C6E5C50020D800EF324C2
:10056800D96E000EF420DA6EDECF3EF0DDCF3FF01C
:10057800010E406E340E3BEC06F05C50010DD40EBB
:10058800F324D96E000EF420DA6EDF50806E5C50D2
:10059800010DBF0EF324D96E000EF420DA6EDF5081
:1005A800436E5C50010DAA0EF324D96E000EF420A0
:1005B800DA6EDF504310836EB5EC0CF009EC0CF0EA
:1005C800F0EC0CF0DDD60CEF00F020C024F021C0D8
:1005D80025F0241E251E244A252A010E24242A6ECD
:1005E800000E25202B6E000E276E010E266E20C0F1
:1005F80024F021C025F0D89024362536241E251E47
:10060800244A252A24C028F025C029F0000E2D6E82
:10061800000E2C6E20C02EF021C02FF01E5020247A
:10062800186E22C019F023C01AF01C50C8EC0BF049
:10063800205000081E24186E22C019F023C01AF09A
:100648001C50C8EC0BF01EC018F022C019F023C0D3
:100658001AF01C502024C8EC0BF01EC018F022C061
:1006680019F023C01AF0205000081C24C8EC0BF025
:1006780078D02BBE0BD02E06D8A02F06020E282627
:10068800000E292228502A2629502B222C4A2D2AAE
:10069800020E2626000E272226502A2627502B2215
:1006A8001E502E24186E22C019F023C01AF01C50B8
:1006B8002C24C8EC0BF01E502E24186E22C019F002
:1006C80023C01AF02C5000081C24C8EC0BF02E5044
:1006D80000081E24186E22C019F023C01AF01C50FE
:1006E8002C24C8EC0BF02E5000081E24186E22C0D3
:1006F80019F023C01AF02C5000081C24C8EC0BF089
:100708001E502C24186E22C019F023C01AF01C5059
:100718002E24C8EC0BF01E502C24186E22C019F0A1
:1007280023C01AF02E5000081C24C8EC0BF02C50E3
:1007380000081E24186E22C019F023C01AF01C509D
:100748002E24C8EC0BF02C5000081E24186E22C072
:1007580019F023C01AF02E5000081C24C8EC0BF026
:1007680000D02E502C5C2D50800A246E2F50800A09
:100778002458D8A07ED71200F2925150D8B496D0FF
:10078800CE50CFCF01F0026A01C002F0016A011019
:10079800486E0250496E000ECF6E000ECE6E86D0A7
:1007A800000ECF6E000ECE6E9E90900ECD6ECD8058
:1007B800000E586E000E446E000E456E000E466E1A
:1007C800000E476E010E516E6FD081D0350E485C19
:1007D800210E4958D8A009D01C0E485C250E49584E
:1007E800D8B003D0020E516E2AD0FCEC0CF027D002
:1007F80026D06DD0A10E485C0F0E4958D8A009D05C
:10080800880E485C130E4958D8B003D0030E516EB9
:100818004BD0FCEC0CF048D047D059D0910E485C36
:10082800010E4958D8A008D0BC0E485C020E4958A1
:10083800D8B002D0040ED7D7FCEC0CF000D0F19C55
:1008480046D0910E485C010E4958D8A02AD0080E0F
:10085800485C070E4958D8B024D0D8904434446E28
:100868004534456E4634466E4734476EE90E485C5B
:10087800030E4958D8A007D0010E4426000E452281
:100888004622472200D0582A1F0E5864BFD7000EB0
:100898004D6E010E4C6E45C050F0F298000E516E30
:1008A800B5D7FCEC0CF000D0F18C11D05150000AF7
:1008B800D8B476D7010AD8B489D7030AD8B49AD756
:1008C800010AD8B4ABD7070AD8B4BBD700D01200F6
:1008D800366E800E3660A6D09F0E2E6401D0A2D050
:1008E8003450D8A403D0010E346E00D01F0E2F64EC
:1008F80004D07E0E2F6403D000D03F0E2F6E000E62
:10090800386E040E386401D08DD0530E2F6015D088
:10091800E00E2F24116E126AFF0E1222000E146EC2
:10092800050E136EF5EC0BF038501126000E12224E
:10093800590E1124F66EFD0E14D0AD0E2F24116E33
:10094800126AFF0E1222000E146E050E136EF5ECDD
:100958000BF038501126000E1222580E1124F66E94
:10096800FE0E1220F76E0800F5CF35F000D0000E0D
:10097800376E060E376401D053D035A023D0340427
:10098800D8A40CD02E503724186E30C019F031C0BE
:100998001AF036503824C8EC0BF03ED037503402E9
:1009A800F3502E24236E34C024F034C025F030C018
:1009B80026F031C027F038503402F3503624CBECFF
:1009C8000AF02AD03050321804E131503318D8B424
:1009D80023D03404D8A40CD02E503724186E32C03B
:1009E80019F033C01AF036503824C8EC0BF014D084
:1009F80037503402F3502E24236E34C024F034C010
:100A080025F032C026F033C027F038503402F350B6
:100A18003624CBEC0AF000D0372AD8903532A9D743
:100A2800382A6FD7120027C02FF028C030F02F1EA9
:100A3800301E2F4A302A010E2F24356E000E30202A
:100A4800366E000E326E010E316E27C02FF028C0B0
:100A580030F0D8902F3630362F1E301E2F4A302ACD
:100A68002FC033F030C034F0000E386E000E376EF1
:100A780027C039F028C03AF067D036BE0BD0390607
:100A8800D8A03A06020E3326000E342233503526FB
:100A980034503622374A382A020E3126000E3222C6
:100AA800315035263250362229A025D03950000839
:100AB8002524186E395039242B242F6E2F28196EAF
:100AC8002DC01AF02EC01BF02350372439EC08F043
:100AD800375000082524186E375037242B242F6EE2
:100AE8002F28196E2DC01AF02EC01BF02350392460
:100AF80039EC08F000D029A227D039500008252465
:100B0800186E395039242B242F6E2F28196E2DC0BA
:100B18001AF02EC01BF037500008232439EC08F0D7
:100B2800375000082524186E375037242B242F6E91
:100B38002F28196E2DC01AF02EC01BF0395000084E
:100B4800232439EC08F000D03950375C3850800A3B
:100B58002F6E3A50800A2F58D8A08FD71200010E56
:100B6800C6EC0CF0000E186E960E176E55EC0AF0D7
:100B7800110EC6EC0CF0010E186EF40E176E55EC43
:100B88000AF0B10EC6EC0CF0010EBEEC0CF02C0E07
:100B9800BEEC0CF02D0EBEEC0CF0B20EC6EC0CF058
:100BA800010EBEEC0CF02C0EBEEC0CF02D0EBEECC3
:100BB8000CF0B30EC6EC0CF0010EBEEC0CF02C0ED3
:100BC800BEEC0CF02D0EBEEC0CF0010EBEEC0CF0E1
:100BD8002C0EBEEC0CF02D0EBEEC0CF0B40EC6ECD8
:100BE8000CF0070EBEEC0CF0C00EC6EC0CF0A20E1A
:100BF800BEEC0CF0020EBEEC0CF0840EBEEC0CF059
:100C0800C10EC6EC0CF0C50EBEEC0CF0C20EC6EC64
:100C18000CF00A0EBEEC0CF0000EBEEC0CF0C30E8D
:100C2800C6EC0CF08A0EBEEC0CF02A0EBEEC0CF0F2
:100C3800C40EC6EC0CF08A0EBEEC0CF0EE0EBEEC48
:100C48000CF0C50EC6EC0CF00E0EBEEC0CF0200E2F
:100C5800C6EC0CF0360EC6EC0CF0C80EBEEC0CF070
:100C68003A0EC6EC0CF0050EBEEC0CF012000101B9
:100C7800736F73C179F139C078F13AC011F03BC094
:100C880012F034EC0BF011C074F112C075F1000EC3
:100C98000101776F000E766F64D06E50D8B434D0EF
:100CA8004050050D01017951416E426AF3504126C9
:100CB800F450422242BE28D0425004E1810E415CE9
:100CC800D8A022D0000E0101796F4050070DF350D3
:100CD80001017825030F0101786FA00E01017865E5
:100CE80004D0A00E0101786F00D0010176513A249A
:100CF800D96E010177513B20DA6E200EDE18D8B488
:100D08002CD002D02AD000D078C12EF00101765123
:100D18003A24D96E010177513B20DA6EDF502F6EED
:100D28003CC030F03DC031F03EC032F03FC033F03F
:100D380040C034F0010179516CEC04F04050060DCC
:100D4800F350010179250101796F800E0101796560
:100D580004D0800E0101796F00D00101764B772B0A
:100D680000D0010174510101765D01017551010145
:100D78007759D8A092D71200E00EC6EC0CF0020EFC
:100D8800BEEC0CF01C0EBEEC0CF0070EBEEC0CF02A
:100D9800120EBEEC0CF0370EBEEC0CF0320EBEECB0
:100DA8000CF0290EBEEC0CF02D0EBEEC0CF0290E4A
:100DB800BEEC0CF0250EBEEC0CF02B0EBEEC0CF0CD
:100DC800390EBEEC0CF0000EBEEC0CF0010EBEECC1
:100DD8000CF0030EBEEC0CF0100EBEEC0CF0E10EA5
:100DE800C6EC0CF0030EBEEC0CF01D0EBEEC0CF0C5
:100DF800070EBEEC0CF0060EBEEC0CF02E0EBEEC90
:100E08000CF02C0EBEEC0CF0290EBEEC0CF02D0EE6
:100E1800BEEC0CF02E0EBEEC0CF02E0EBEEC0CF060
:100E2800370EBEEC0CF03F0EBEEC0CF0000EBEEC24
:100E38000CF0000EBEEC0CF0020EBEEC0CF0100E26
:100E4800BEEC0CF0130EC6EC0CF0000E186E0A0E79
:100E5800176E55EC0AF0290EC6EC0CF0000E186E51
:100E6800640E176E55EC0AF01200236E800E236094
:100E780069D09F0E186401D065D0FF0E1D6EFF0E5D
:100E88001E6E195023C01FF0206A1F26000E202254
:100E98001D501F261E50202220BE0AD0205004E1DB
:100EA800800E1F5CD8A004D023500008800F196E54
:100EB800FF0E1D6EFF0E1E6E1A5018C01FF0206A1E
:100EC8001F26000E20221D501F261E50202220BE45
:100ED8000BD0205004E1A00E1F5CD8A005D01850FC
:100EE8000008A00F1A6E00D018C014F0235019245F
:100EF8001D6E1D04156E18501A241E6E1E04166EE3
:100F080023507EEC0AF01C50216E1BC022F0828414
:100F180082981AC018F01850D8B413D001D011D044
:100F280019C023F02350D8B40AD001D008D02150DA
:100F38007DEC0CF022507DEC0CF02306F3D718065C
:100F4800EAD782881200000E1C6E1AAE07D0196C00
:100F58001A1ED8B01A2A010E1C6E00D018AE07D07F
:100F6800176C181ED8B0182A010E1C1A00D0000ED3
:100F78001E6E000E1D6E19501A10D8B421D0010E25
:100F88001B6E05D0D89019361A361B2A00D01ABE07
:100F980002D0F8D700D0D8901D361E361950175CED
:100FA8001A501858D8A006D01950175E1A50185A57
:100FB8001D8000D0D8901A3219321B2EECD700D0E1
:100FC8001C50D8B405D01D6C1E1ED8B01E2A00D0E7
:100FD8001DC017F01EC018F000D0120091EC0CF0E4
:100FE800E0EC0BF0000E256E000E246E4BEC0CF0BE
:100FF800540E4E6E010E4F6E4EC011F04FC012F0DF
:10100800D30E136EFF0E146EAFEC0BF0020E396E9A
:101018004EC03AF04FC03BF0FF0E3D6E3C68000EEC
:101028003F6E000E3E6E010E406E020E3BEC06F067
:101038004EC011F04FC012F0F80E136EFF0E146E72
:10104800AFEC0BF00A0E396E4EC03AF04FC03BF0D1
:10105800FF0E3D6E3C68000E3F6E000E3E6E010EA8
:10106800406E320E3BEC06F01200226E800E2260BB
:101078003FD09F0E186401D03BD0FF0E1C6EFF0EB0
:101088001D6E195018C01EF01F6A1E26000E1F2262
:101098001C501E261D501F221FBE0BD01F5004E1DE
:1010A800A00E1E5CD8A005D018500008A00F196E1D
:1010B80000D01B50206E1AC021F018C014F022C0B6
:1010C80015F0185019241C6E1C04166E22507EEC64
:1010D8000AF08284829807D020507DEC0CF02150D1
:1010E8007DEC0CF000D019061928D8A4F5D7828811
:1010F800120000F800F800F8FF07FF07E0071F00DC
:101108001F001FF8FFFFFFFFFFFFFFFFFFFFFFFFAD
:10111800FFFFFFFFFFFFFFFFFFFFFFFF2020200073
:1011280000000000000000000000000000000000B7
:10113800000000000606020404050000000000008C
:10114800000000000000000000000000000000FF98
:10115800FFFFFFFFFFFFFFFFFFFFFFA262E2220288
:10116800C2E0A8906898B030187A10385A424A52AB
:101178000600EACF06F0E1CF07F0E2CF08F0D9CFBA
:1011880009F0DACF0AF0F3CF0BF0F4CF0CF0F6CF7A
:101198000DF0F7CF0EF0F8CF0FF0F5CF10F09EA0BE
:1011A80003D0DBEC0CF000D0F2A203D0C0EC03F0CB
:1011B80000D010C0F5FF0FC0F8FF0EC0F7FF0DC03C
:1011C800F6FF0CC0F4FF0BC0F3FF0AC0DAFF09C03A
:1011D800D9FF08C0E2FF07C0E1FF06C0EAFF05C06B
:1011E800E9FF04C0FBFF03C0FAFF110001EE54F051
:1011F8001F0EEE6AE806FDE100EE44F0290EEE6AE5
:10120800E806FDE1040EF66E140EF76E000EF86E99
:1012180001EE00F010EE54F00900F5CFEEFFE550B6
:10122800E150FAE1FA0EF66E100EF76E000EF86E47
:1012380000EE80F010EE7EF00900F5CFEEFFE550ED
:10124800E150FAE1000EF66E1A0EF76E000EF86E17
:101258000900F5CF6DF00900F5CF6EF0000EF86EBD
:101268000001BBEF01F0136E000EAC6E000EAB6E0A
:1012780013A002D0AC8800D013A203D0AC8CAB8CE6
:1012880000D013A402D0AC8E00D013A602D0AB8835
:1012980002D0AB8A00D013B8AC849E9813AA02D0AF
:1012A800AB8600D013AC02D09D8A01D09D9A9E9A3D
:1012B80013AE02D09D8801D09D9811C0AFFF125087
:1012C800B06EAC8AAB8E949C948EACB8ACBE02D097
:1012D800948C00D01200680E136E000E146E000E6F
:1012E800626E000E5F6E000E5D6E040E5B6E300E59
:1012F8005A6E110E606E220E6C6EA3EC0CF0135039
:10130800132472EC0BF0145072EC0BF0625072EC78
:101318000BF05F5072EC0BF05D5072EC0BF05B5011
:1013280072EC0BF05A5072EC0BF0605072EC0BF050
:101338006C5072EC0BF09AEC0CF01200680E156E03
:10134800000E146EA3EC0CF01550152472EC0BF083
:10135800145072EC0BF072EC0CF0D880153472EC6F
:101368000BF0010EF0EC0AF0626E010EF0EC0AF0E0
:101378005F6E010EF0EC0AF05D6E010EF0EC0AF003
:101388005B6E010EF0EC0AF05A6E010EF0EC0AF0FA
:10139800606E000EF0EC0AF06C6E9AEC0CF0120025
:1013A800000E176E000E166E13501410D8B421D00C
:1013B800010E156E05D0D89013361436152A00D0B4
:1013C80014BE02D0F8D700D0D8901636173613506E
:1013D800115C14501258D8A006D01350115E145046
:1013E800125A168000D0D89014321332152EECD72A
:1013F80000D016C011F017C012F0120043482D009B
:101408004348200043482B007C3C3C003E3E7C0087
:101418003E7C7C00202D2000202B20004551200000
:1014280020302000313030003230300020312000B0
:1014380020322000203320002034200020352000D6
:1014480020362000203720002038200020392000B6
:101458003F5000083D24186ED8803F34196E41C0B3
:101468001AF042C01BF03B5039EC08F03BC023F0A7
:101478003CC024F03DC025F03EC026F03FC027F018
:1014880040C028F0000E2A6E030E296E000E2C6E46
:10149800000E2B6E41C02DF042C02EF017EC05F067
:1014A800120017C011F018C012F0000E146EFA0ED8
:1014B800136EF5EC0BF011C01BF012C01CF01BC032
:1014C80019F01CC01AF0191E1A1E194A1A2AFF0E02
:1014D80019241B6EFF0E1A201C6EB80EB16E1BC0AD
:1014E800B2FF1C50B36EA192B18000D0A1A2FED76A
:1014F800B1901200176E2A0EC6EC0CF0000EBEEC6E
:101508000CF017505924BEEC0CF0000EBEEC0CF099
:1015180015505924BEEC0CF02B0EC6EC0CF0000E46
:10152800BEEC0CF014506124BEEC0CF0000EBEECC6
:101538000CF016506124BEEC0CF02C0EC6EC0CF02E
:1015480012001A501B10D8B41DD0010E1C6E05D005
:10155800D8901A361B361C2A00D01BBE02D0F8D7EA
:1015680000D01A50185C1B501958D8A005D01A5032
:10157800185E1B50195A00D0D8901B321A321C2EF4
:10158800F0D700D018C018F019C019F012002B6E4F
:101598002BC02CF02D6A0ED023C018F025C019F0EE
:1015A80026C01AF027C01BF02C5039EC08F02C4A42
:1015B8002D2A00D024502BC028F0296A2826000E96
:1015C800292228502C5C2D50800A2A6E2950800A26
:1015D8002A58D8A0E1D71200116EF8EC0CF0000ED2
:1015E800126E070E126401D00FD0D5EC0CF081AA50
:1015F80003D0D880133604D013501324136E00D0B0
:10160800F4EC0CF0122AEDD71150D8B403D0ACEC9E
:101618000CF003D0E6EC0CF000D0135000D0120010
:1016280087EC0CF066EC0CF0700ED36EF19E0F0E8A
:10163800C16E000E926E310E936E000E946E000E07
:10164800956E000E966EA00E116E860E126E010E2D
:10165800136E000E146EE1EC0CF03CEC0CF0120072
:1016680011C015F012C016F003D0154A162A00D082
:1016780015C0D9FF16C0DAFFDF50D8A4F6D711C0BD
:1016880013F012C014F0131E141E134A142A155016
:101698001324116E16501420126E00D012002A0E58
:1016A800C6EC0CF0000EBEEC0CF0000EBEEC0CF01C
:1016B800000EBEEC0CF07F0EBEEC0CF02B0EC6EC50
:1016C8000CF0000EBEEC0CF0000EBEEC0CF0000EA0
:1016D800BEEC0CF09F0EBEEC0CF01200116E000E6A
:1016E800126E070E126401D011D011AE03D0F8ECBF
:1016F8000CF003D0EBEC0CF000D0D5EC0CF0F4ECD3
:101708000CF011501124116E122AEBD7F8EC0CF0E2
:10171800D5EC0CF0F4EC0CF01200480E186EAA0E82
:10172800166EA3EC0CF01850182472EC0BF016503F
:1017380072EC0BF072EC0CF0D880183472EC0BF0F1
:10174800000EF0EC0AF0176E9AEC0CF017C014F0CB
:10175800156A00D0120011C015F012C016F005D09D
:10176800154A162A134A142A00D013C0F6FF14C0CB
:10177800F7FF15C0D9FF16C0DAFF0800F5CFDFFF65
:10178800DF50D8A4EDD712001B6E800E1B6013D05B
:101798009F0E186401D00FD018C014F01B28156EC6
:1017A8001828166E1B507EEC0AF01A50BEEC0CF08E
:1017B8001950BEEC0CF0120082888294800EC76E1D
:1017C800300EC66EB3EC05F053EC0BF0C0EC06F02F
:1017D800360EC6EC0CF0C00EBEEC0CF0010E536ECB
:1017E800120011501302F3CF15F0F4CF16F0115078
:1017F8001402F350162612501302F350162615C081
:1018080011F016C012F000D01200000E126E000E79
:10181800116E12BE08D0680E115C420E1258D8B074
:1018280005D001D003D0114A122AF3D71200136E43
:10183800000E126E3A0E136006D02F0E136403D0FA
:10184800010E126E00D012C011F0113000D012003B
:10185800156EA3EC0CF01550152472EC0BF0135018
:1018680072EC0BF0145072EC0BF09AEC0CF01200C6
:10187800480E166EAC0E136E020E146E16502CEC3B
:101888000CF0EE0E136E165059EC0CF01200000E10
:10189800186E800E196EA00E1A6E24C01BF025C09B
:1018A8001CF0000E39EC07F01200146EA3EC0CF0DB
:1018B8001450142472EC0BF0135072EC0BF09AECE9
:1018C8000CF01200F292F19CF288000ECF6E000E1E
:1018D800CE6E9E909D80F28CF28E1200F4EC0CF08D
:1018E800F8EC0CF0D5EC0CF0EBEC0CF0F4EC0CF0A4
:1018F8001200126E9E96C9CF11F012C0C9FF00D017
:10190800C7A0FED71200000E126E190E116E3C0E03
:1019180037EC09F0700ED36E12008290000E186E2C
:10192800640E176E55EC0AF082801200F4EC0CF08D
:10193800EBEC0CF0D5EC0CF0F8EC0CF01200F8EC39
:101948000CF0D5EC0CF0EBEC0CF0F4EC0CF0120015
:10195800EBEC0CF0D5EC0CF0F4EC0CF0F8EC0CF033
:101968001200F90ECB6E050ECA6E4A0EBB6E3C0E07
:10197800BA6E1200136E8298828413507DEC0CF0BC
:1019880082881200136E8298829413507DEC0CF0BA
:1019980082881200116E00D0ACA2FED711C0ADFF34
:1019A80012009388060EE82EFED700D01200000E13
:1019B800516EF19CCD909E901200D5EC0CF0F8EC95
:1019C8000CF01200D5EC0CF0F4EC0CF01200819A3B
:1019D800939A00D000D01200000EBA6E81961200C1
:1019E8008198939800D01200938A00D000D01200FA
:0A19F800000E516ECD901200FF01A9
:10FD580000000000000000005F000000070007002E
:10FD6800147F147F14242A7F2A122313086462360E
:10FD7800495620500008070300001C22410000419A
:10FD8800221C002A1C7F1C2A08083E0808008070D4
:10FD98003000080808080800006060002010080407
:10FDA800023E5149453E00427F400072494949465A
:10FDB8002141494D331814127F1027454545393CD8
:10FDC8004A494931412111090736494949364649C5
:10FDD80049291E00001400000040340000000814E7
:10FDE8002241141414141400412214080201590960
:10FDF800063E415D594E7C1211127C7F49494936B5
:10FE08003E414141227F4141413E7F494949417F2D
:10FE1800090909013E414151737F0808087F0041E3
:10FE28007F41002040413F017F081422417F40402C
:10FE380040407F021C027F7F0408107F3E41414101
:10FE48003E7F090909063E4151215E7F091929466D
:10FE5800264949493203017F01033F4040403F1F83
:10FE68002040201F3F4038403F63140814630304B8
:10FE78007804036159494D43007F41414102040818
:10FE88001020004141417F040201020440404040EB
:10FE980040000307080020545478407F2844443821
:10FEA8003844444428384444287F3854545418006B
:10FEB800087E090218A4A49C787F080404780044EA
:10FEC8007D40002040403D007F1028440000417FD5
:10FED80040007C047804787C08040478384444445E
:10FEE80038FC1824241818242418FC7C0804040856
:10FEF800485454542404043F44243C4040207C1C6F
:10FF08002040201C3C4030403C44281028444C9061
:10FF180090907C4464544C440008364100000077BB
:10FF280000000041360800020102040201000A0034
:10FF38006400E803102701001000000100102D2DB7
:10FF48002D2D2D2D2D2D2D2D2D2D2D2D2D2D2D2DD9
:10FF58002D2D2D2D2D2D2D2D2D2D2D2D2D2D2D2DC9
:10FF68002D2D2D2D2D2D2D2D2D2D2D2D2D2D2D2DB9
:10FF78002D2D2D2D2D2D2D2D2D2D0D0A00205465C7
:10FF88006D7065726174757265203D20256420640A
:10FF980065677265657343203D2025642064656745
:10FFA80072656573460D0A0A0020253032783A25B5
:10FFB8003032783A2530327820253032782F253083
:10FFC80032782F253032780D0A0A004543453333FD
:10FFD80030314C2046616C6C2032322D5331003068
:10FFE80031323334353637383961626364656600D7
:08FFF8004C41422031310000B0
:020000040020DA
:08000000FFFFFFFFFFFFFFFF00
:020000040030CA
:0E000000FF08191EFF8281FF0FC00FE00F40A6
:00000001FF
