:040000001AEF7FF084
:10FE2A0037EC7FF037EC7FF01200000EF86E00011D
:10FE3A00CCEF7FF0016E0150040DF328C26E120060
:10FE4A00010EC26E1A0EC16EC90EC06E12000F0EDE
:10FE5A00926E000E936E000E946E000E956E000E5A
:10FE6A00966E1200020ED56EDB0ED66E0B0ED76E94
:10FE7A00F294D58E00D0F2A4FED7D59E1200016E60
:10FE8A00000E026E04D015EC7FF0022A00D0015059
:10FE9A00025CD8A0F8D71200C28200D0C2B2FED744
:10FEAA00C450026E016AC3500124036E000E022080
:10FEBA00046E00D01200016E0AD0819201D08182B4
:10FECA00819413D0819201D0818281840ED0015015
:10FEDA00000AD8B4F2D7010AD8B4F1D7030AD8B4C1
:10FEEA00F1D7010AD8B4F0D700D01200016E0AD0B7
:10FEFA00849201D08482849413D0849201D0848223
:10FF0A0084840ED00150000AD8B4F2D7010AD8B4BA
:10FF1A00F1D7030AD8B4F1D7010AD8B4F0D700D080
:10FF2A001200016E0AD0809A01D0808A819013D083
:10FF3A00809A01D0808A81800ED00150000AD8B4FC
:10FF4A00F2D7010AD8B4F1D7030AD8B4F1D7010A13
:10FF5A00D8B4F0D700D01200016E0AD0819801D02F
:10FF6A008188819A13D0819801D08188818A0ED0A4
:10FF7A000150000AD8B4F2D7010AD8B4F1D7030A5B
:10FF8A00D8B4F1D7010AD8B4F0D700D01200600E65
:10FF9A00D36E000E816E82688368846825EC7FF0D8
:10FFAA002CEC7FF0000E1FEC7FF000D051EC7FF0BC
:10FFBA00000E066E000E056E06BE08D00650F6E16B
:10FFCA00040E055CD8B0F2D701D0F0D7055096ECF4
:10FFDA007FF00550B1EC7FF0055060EC7FF00550E2
:10FFEA007BEC7FF0010E44EC7FF0054A062AE4D749
:06FFFA00DDD700EF00F06E
:020000040020DA
:08000000FFFFFFFFFFFFFFFF00
:020000040030CA
:0E000000FF08191EFF8281FF0FC00FE00F40A6
:00000001FF
