:020000040000FA
:100000000F0EC16EFF0E926EFF0E936E000E946E79
:10001000000E966E070E956E83B411EF00F013EF8D
:1000200000F03EEF00F083B218EF00F01DEF00F09B
:1000300083B037EF00F030EF00F083B029EF00F02D
:1000400022EF00F0839A8398839645EC00F00CEF42
:1000500000F0839A8398838655EC00F00CEF00F053
:10006000839A8388839668EC00F00CEF00F0839A03
:10007000838883867BEC00F00CEF00F0838A839802
:1000800083968EEC00F00CEF00F080500F0B016EA9
:10009000011C0F0B036E03C082FF05E050EF00F060
:1000A000849454EF00F08484120080500F0B016E92
:1000B00081500F0B026E036E0124036E03C082FF9A
:1000C00005E063EF00F0849467EF00F08484120091
:1000D00080500F0B016E81500F0B026E036E0118E2
:1000E000036E03C082FF05E076EF00F084947AEFA0
:1000F00000F08484120080500F0B016E81500F0BB2
:10010000026E036E0110036E03C082FF05E089EFEB
:1001100000F084948DEF00F08484120080500F0B67
:10012000016E090E01659FEF00F0060E0124016EBD
:1001300005E09BEF00F084949FEF00F08484015071
:08014000036E03C082FF1200F0
:020148000000B5
:020000040030CA
:0100010008F6
:0100020019E4
:010003001EDE
:010006008178
:00000001FF
