:0400000055EF75F053
:10E88600016E0150040DF328C26E1200010EC26E15
:10E896000E0EC16EA90EC06E1200036E829882948F
:10E8A600035069EC74F082881200036E82988284A9
:10E8B600035069EC74F0828812008292000E086E92
:10E8C600640E076EC2EC75F082821200026E9E968E
:10E8D600C9CF01F002C0C9FF00D0C7A0FED7120001
:10E8E600000E026E190E016E3C0E47EC76F0600EBD
:10E8F600D36E1200190E926E070E936E000E946E72
:10E90600000E956E000E966E1200000E086E800EBA
:10E91600096EA00E0A6E14C00BF015C00CF0000EA6
:10E9260007EC77F0120049EC74F07DEC74F073ECB0
:10E9360074F0000E43EC74F0700ED36EF19E03EC8F
:10E946007BF000EF00F001500302F3CF05F0F4CFA7
:10E9560006F001500402F350062602500302F3505B
:10E96600062605C001F006C002F000D0120082881B
:10E976008294800EC76E300EC66E5DEC78F017EC92
:10E9860075F0E4EC77F0360E50EC74F0C00E58ECEF
:10E9960074F0010E756E1200407924301912027857
:10E9A6000010FF01303000303000303000303000D1
:10E9B600303000303000440030003000300030008D
:10E9C6004400300030000B6E800E0B6013D09F0E9B
:10E9D600086401D00FD008C004F00B28056E082883
:10E9E600066E0B509BEC75F00A5058EC74F009500B
:10E9F60058EC74F0120001C005F002C006F005D014
:10EA0600054A062A034A042A00D003C0F6FF04C0BA
:10EA1600F7FF05C0D9FF06C0DAFF0800F5CFDFFF14
:10EA2600DF50D8A4EDD712002A0E50EC74F0000E79
:10EA360058EC74F0000E58EC74F0000E58EC74F0BC
:10EA46007F0E58EC74F02B0E50EC74F0000E58EC60
:10EA560074F0000E58EC74F0000E58EC74F09F0E33
:10EA660058EC74F0120001C005F002C006F003D0A5
:10EA7600054A062A00D005C0D9FF06C0DAFFDF50D6
:10EA8600D8A4F6D701C003F002C004F0031E041E8A
:10EA9600034A042A05500324016E06500420026E20
:10EAA60000D0120000EE80F01F0EEE6AE806FDE1CF
:10EAB60000EE68F0120EEE6AE806FDE19E0EF66EB6
:10EAC600E90EF76E000EF86E00EE3AF010EE2EF03C
:10EAD6000900F5CFEEFFE550E150FAE1000EF86EC1
:10EAE600000196EF74F01B6E1BC01CF01D6A0ED061
:10EAF60013C008F015C009F016C00AF017C00BF0D5
:10EB06001C50C3EC76F01C4A1D2A00D014501BC0C2
:10EB160018F0196A1826000E192218501C5C1D5090
:10EB2600800A1A6E1950800A1A58D8A0E1D7120026
:10EB3600076E2A0E50EC74F0000E58EC74F0075075
:10EB4600762458EC74F0000E58EC74F005507624D8
:10EB560058EC74F02B0E50EC74F0000E58EC74F078
:10EB66000450792458EC74F0000E58EC74F00650FA
:10EB7600792458EC74F02C0E50EC74F0120007C097
:10EB860001F008C002F0000E046EFA0E036EA6EC49
:10EB960074F001C00BF002C00CF00BC009F00CC001
:10EBA6000AF0091E0A1E094A0A2AFF0E09240B6EDC
:10EBB600FF0E0A200C6EB80EB16E0BC0D6FF0C50BD
:10EBC600D76EA192B18000D0A1A2FED7B19012005B
:10EBD6002F5000082D24086ED8802F34096E31C0BE
:10EBE6000AF032C00BF02B50C3EC76F02BC013F0BA
:10EBF6002CC014F02DC015F02EC016F02FC017F043
:10EC060030C018F0000E1A6E030E196E000E1C6E40
:10EC1600000E1B6E31C01DF032C01EF0E5EC78F020
:10EC2600120015C008F017C009F01BC00AF01CC07E
:10EC36000BF013507FEC76F0155019241D6E1D0451
:10EC4600086E17C009F01BC00AF01CC00BF0135069
:10EC56007FEC76F015C008F019C009F01BC00AF069
:10EC66001CC00BF01350C3EC76F015C008F019C0A9
:10EC760009F01BC00AF01CC00BF0135017241D6EC0
:10EC86001D04C3EC76F01200036E000EAC6E000E8F
:10EC9600AB6E03A002D0AC8800D003A203D0AC8C2C
:10ECA600AB8C00D003A402D0AC8E00D003A602D059
:10ECB600AB8802D0AB8A00D003B8AC849E9803AA76
:10ECC60002D0AB8600D003AC02D09D8A01D09D9ABB
:10ECD6009E9A03AE02D09D8801D09D9801C0AFFFD9
:10ECE6000250B06EAC8AAB8E949C948EACB8ACBE1F
:10ECF60002D0948C00D01200126E800E12603FD0AB
:10ED06009F0E086401D03BD0FF0E0C6EFF0E0D6EF9
:10ED1600095012C00EF00F6A0E26000E0F220C507C
:10ED26000E260D500F220FBE0BD00F5004E1800EA1
:10ED36000E5CD8A005D012500008800F096E00D0D6
:10ED46000B50106E0AC011F008C004F012500924CE
:10ED56000C6E0C04056E08C006F012509BEC75F0A4
:10ED66008284829807D0105069EC74F0115069ECD7
:10ED760074F000D009060928D8A4F5D782881200B5
:10ED8600126E800E12603FD09F0E086401D03BD0F9
:10ED9600FF0E0C6EFF0E0D6E095008C00EF00F6AC6
:10EDA6000E26000E0F220C500E260D500F220FBEFF
:10EDB6000BD00F5004E1A00E0E5CD8A005D0085071
:10EDC6000008A00F096E00D00B50106E0AC011F09B
:10EDD60008C004F012C005F0085009240C6E0C049B
:10EDE600066E12509BEC75F08284829807D0105004
:10EDF60069EC74F0115069EC74F000D0090609282A
:10EE0600D8A4F5D782881200136E800E136069D0DD
:10EE16009F0E086401D065D0FF0E0D6EFF0E0E6EBC
:10EE2600095013C00FF0106A0F26000E10220D5065
:10EE36000F260E50102210BE0AD0105004E1800E8C
:10EE46000F5CD8A004D013500008800F096EFF0E87
:10EE56000D6EFF0E0E6E0A5008C00FF0106A0F26D8
:10EE6600000E10220D500F260E50102210BE0BD091
:10EE7600105004E1A00E0F5CD8A005D00850000881
:10EE8600A00F0A6E00D008C004F0135009240D6EBE
:10EE96000D04056E08500A240E6E0E04066E1350FD
:10EEA6009BEC75F00C50116E0BC012F082848298A8
:10EEB6000AC008F00850D8B413D001D011D009C048
:10EEC60013F01350D8B40AD001D008D0115069EC11
:10EED60074F0125069EC74F01306F3D70806EAD7FB
:10EEE60082881200356E35C039F029C038F02AC044
:10EEF60001F02BC002F036EC75F001C033F002C011
:10EF060034F0000E376E000E366E54D04550D8B42D
:10EF16002CD03050050D3950316E326AF3503126FF
:10EF2600F450322232BE21D0325004E1810E315CDF
:10EF3600D8A01BD0000E396E3050070DF350382480
:10EF4600030F386EA00E386403D0A00E386E00D0C2
:10EF560036502A24D96E37502B20DA6E200EDE1852
:10EF6600D8B425D002D023D000D038C01EF03650F9
:10EF76002A24D96E37502B20DA6EDF501F6E2CC034
:10EF860020F02DC021F02EC022F02FC023F030C07B
:10EF960024F0395081EC79F03050060DF3503924C5
:10EFA600396E800E396403D0800E396E00D0364A31
:10EFB600372A00D03350365C34503758D8A0A6D7FD
:10EFC6001200E00E50EC74F0020E58EC74F01C0EB9
:10EFD60058EC74F0070E58EC74F0120E58EC74F0FE
:10EFE600370E58EC74F0320E58EC74F0290E58ECCB
:10EFF60074F02D0E58EC74F0290E58EC74F0250EB2
:10F0060058EC74F02B0E58EC74F0390E58EC74F082
:10F01600000E58EC74F0010E58EC74F0030E58EC28
:10F0260074F0100E58EC74F0E10E50EC74F0030E10
:10F0360058EC74F01D0E58EC74F0070E58EC74F092
:10F04600060E58EC74F02E0E58EC74F02C0E58EC9C
:10F0560074F0290E58EC74F02D0E58EC74F02E0E48
:10F0660058EC74F02E0E58EC74F0370E58EC74F021
:10F076003F0E58EC74F0000E58EC74F0000E58EC8D
:10F0860074F0020E58EC74F0100E58EC74F0130E77
:10F0960050EC74F0000E086E0A0E076EC2EC75F0A6
:10F0A600290E50EC74F0000E086E640E076EC2EC6A
:10F0B60075F01200010E50EC74F0000E086E960EFC
:10F0C600076EC2EC75F0110E50EC74F0010E086E6E
:10F0D600F40E076EC2EC75F0B10E50EC74F0010E32
:10F0E60058EC74F02C0E58EC74F02D0E58EC74F0AD
:10F0F600B20E50EC74F0010E58EC74F02C0E58EC75
:10F1060074F02D0E58EC74F0B30E50EC74F0010E42
:10F1160058EC74F02C0E58EC74F02D0E58EC74F07C
:10F12600010E58EC74F02C0E58EC74F02D0E58ECC1
:10F1360074F0B40E50EC74F0070E58EC74F0C00E78
:10F1460050EC74F0A20E58EC74F0020E58EC74F009
:10F15600840E58EC74F0C10E50EC74F0C50E58ECE9
:10F1660074F0C20E50EC74F00A0E58EC74F0000EF7
:10F1760058EC74F0C30E50EC74F08A0E58EC74F030
:10F186002A0E58EC74F0C40E50EC74F08A0E58EC4B
:10F1960074F0EE0E58EC74F0C50E50EC74F00E0ED2
:10F1A60058EC74F0200E50EC74F0360E50EC74F0FF
:10F1B600C80E58EC74F03A0E50EC74F0050E58EC8C
:10F1C60074F0120017C01FF018C020F01F1E201E7A
:10F1D6001F4A202A010E1F24256E000E2020266EAF
:10F1E600000E226E010E216E17C01FF018C020F00F
:10F1F600D8901F3620361F1E201E1F4A202A1FC0E9
:10F2060023F020C024F0000E286E000E276E17C0D3
:10F2160029F018C02AF067D026BE0BD02906D8A040
:10F226002A06020E2326000E2422235025262450C9
:10F236002622274A282A020E2126000E22222150A3
:10F2460025262250262219A025D02950000815244B
:10F25600086E295029241B241F6E1F28096E1DC005
:10F266000AF01EC00BF013502724C3EC76F027508B
:10F2760000081524086E275027241B241F6E1F28FC
:10F28600096E1DC00AF01EC00BF013502924C3ECF2
:10F2960076F000D019A227D0295000081524086E50
:10F2A600295029241B241F6E1F28096E1DC00AF031
:10F2B6001EC00BF0275000081324C3EC76F027502D
:10F2C60000081524086E275027241B241F6E1F28AC
:10F2D600096E1DC00AF01EC00BF029500008132449
:10F2E600C3EC76F000D02950275C2850800A1F6EA8
:10F2F6002A50800A1F58D8A08FD71200266E800E7B
:10F306002660A6D09F0E1E6401D0A2D02450D8A499
:10F3160003D0010E246E00D01F0E1F6404D07E0E93
:10F326001F6403D000D03F0E1F6E000E286E040E21
:10F33600286401D08DD0530E1F6015D0E00E1F2417
:10F34600016E026AFF0E0222000E046E050E036EA7
:10F35600A6EC74F028500126000E0222250E012488
:10F36600F66EFD0E14D0AD0E1F24016E026AFF0E5E
:10F376000222000E046E050E036EA6EC74F02850F1
:10F386000126000E0222240E0124F66EFE0E022035
:10F39600F76E0800F5CF25F000D0000E276E060E9A
:10F3A600276401D053D025A023D02404D8A40CD0A0
:10F3B6001E502724086E20C009F021C00AF02650EE
:10F3C6002824E6EC74F03ED027502402F3501E2485
:10F3D600136E24C014F024C015F020C016F021C00E
:10F3E60017F028502402F350262476EC75F02AD024
:10F3F6002050221804E121502318D8B423D0240425
:10F40600D8A40CD01E502724086E22C009F023C0B1
:10F416000AF026502824E6EC74F014D02750240273
:10F42600F3501E24136E24C014F024C015F022C01D
:10F4360016F023C017F028502402F350262476EC49
:10F4460075F000D0272AD8902532A9D7282A6FD759
:10F45600120010C014F011C015F0141E151E144A27
:10F46600152A010E14241A6E000E15201B6E000EAE
:10F47600176E010E166E10C014F011C015F0D8905C
:10F4860014361536141E151E144A152A14C018F003
:10F4960015C019F0000E1D6E000E1C6E10C01EF079
:10F4A60011C01FF00E501024086E12C009F013C0D0
:10F4B6000AF00C50E6EC74F0105000080E24086EAA
:10F4C60012C009F013C00AF00C50E6EC74F00EC03E
:10F4D60008F012C009F013C00AF00C501024E6EC34
:10F4E60074F00EC008F012C009F013C00AF01050F4
:10F4F60000080C24E6EC74F078D01BBE0BD01E0678
:10F50600D8A01F06020E1826000E192218501A2619
:10F5160019501B221C4A1D2A020E1626000E1722FF
:10F5260016501A2617501B220E501E24086E12C0A3
:10F5360009F013C00AF00C501C24E6EC74F00E50CF
:10F546001E24086E12C009F013C00AF01C500008F1
:10F556000C24E6EC74F01E5000080E24086E12C04F
:10F5660009F013C00AF00C501C24E6EC74F01E508F
:10F5760000080E24086E12C009F013C00AF01C50D1
:10F5860000080C24E6EC74F00E501C24086E12C021
:10F5960009F013C00AF00C501E24E6EC74F00E506D
:10F5A6001C24086E12C009F013C00AF01E50000891
:10F5B6000C24E6EC74F01C5000080E24086E12C0F1
:10F5C60009F013C00AF00C501E24E6EC74F01C502F
:10F5D60000080E24086E12C009F013C00AF01E506F
:10F5E60000080C24E6EC74F000D01E501C5C1D5084
:10F5F600800A146E1F50800A1458D8A07ED71200B5
:10F6060060EC74F0BAEC74F0000E156E000E146E19
:10F6160088EC74F0800E6C6E000E6D6E6CC001F09E
:10F626006DC002F08B0E036EFF0E046EFEEC74F0DE
:10F63600020E296E6CC02AF06DC02BF0FF0E2D6EE7
:10F646002C68000E2F6E000E2E6E010E306E020E0E
:10F6560075EC77F06CC001F06DC002F0E60E036E3B
:10F66600FF0E046EFEEC74F00A0E296E6CC02AF0D2
:10F676006DC02BF0FF0E2D6E2C68000E2F6E000E47
:10F686002E6E010E306E020E75EC77F00A0E296EA4
:10F69600580E2A6E000E2B6EFF0E2D6E2C68000E75
:10F6A6002F6E000E2E6E010E306E230E75EC77F067
:10F6B6006CC001F06DC002F0EC0E036EFF0E046E1E
:10F6C600FEEC74F00A0E296E6CC02AF06DC02BF0A9
:10F6D600FF0E2D6E2C68000E2F6E000E2E6E010E84
:10F6E600306E320E75EC77F00A0E296E5A0E2A6EBF
:10F6F600000E2B6EFF0E2D6E2C68000E2F6E000E68
:10F706002E6E010E306E460E75EC77F06CC001F071
:10F716006DC002F0F00E036EFF0E046EFEEC74F088
:10F726000A0E296E6CC02AF06DC02BF0FF0E2D6EEE
:10F736002C68000E2F6E000E2E6E010E306E500ECF
:10F7460075EC77F00A0E296E5C0E2A6E000E2B6E93
:10F75600FF0E2D6E2C68000E2F6E000E2E6E010E03
:10F76600306E640E75EC77F06CC001F06DC002F07F
:10F77600FC0E036EFF0E046EFEEC74F00A0E296E8C
:10F786006CC02AF06DC02BF0FF0E2D6E2C68000E9B
:10F796002F6E000E2E6E010E306E780E75EC77F021
:10F7A6006CC001F06DC002F0CE0E036EFF0E046E4B
:10F7B600FEEC74F0140E296E6CC02AF06DC02BF0AE
:10F7C600070E2D6E2C68000E2F6E000E2E6E010E8B
:10F7D600306E1E0E75EC77F0000E146E1E0E136E54
:10F7E600000E166E1B0E156E000E186E3C0E176E72
:10F7F600000E1A6E120E196E070E1C6E1B6814ECA4
:10F8060076F0000E2C6E280E2B6E000E2E6E230E3A
:10F816002D6E000E306E070E2F6EF80E326E000E35
:10F82600316EEBEC75F0000E0D6E3C0E0C6E000E9C
:10F836000F6E230E0E6E000E116E070E106EFF0E6B
:10F84600136EE00E126E2CEC7AF0000E0D6E500E5A
:10F856000C6E000E0F6E230E0E6E000E116E070E4E
:10F86600106E070E136EE00E126E2CEC7AF01E0E62
:10F87600296E490E2A6E000E2B6E070E2D6E2C6811
:10F88600000E2F6E000E2E6E020E306E640E75EC9C
:10F8960077F06CC001F06DC002F0DF0E036EFF0E54
:10F8A600046EFEEC74F0320E296E6CC02AF06DC048
:10F8B6002BF0FF0E2D6E2C68000E2F6E000E2E6E96
:10F8C600010E306E1E0E75EC77F0000E146E1E0ED5
:10F8D600136E000E166E390E156E000E186E3C0E67
:10F8E600176E000E1A6E120E196EFF0E1C6E1B6836
:10F8F60014EC76F0000E2C6E280E2B6E000E2E6E7B
:10F90600410E2D6E000E306E070E2F6EF80E326E03
:10F91600000E316EEBEC75F0000E0D6E3C0E0C6EAB
:10F92600000E0F6E410E0E6E000E116E070E106E5B
:10F93600FF0E136EE00E126E2CEC7AF0000E0D6EBA
:10F94600500E0C6E000E0F6E410E0E6E000E116EF6
:10F95600070E106E070E136EE00E126E2CEC7AF088
:10F966003C0E296E460E2A6E000E2B6EFF0E2D6E75
:10F976002C68000E2F6E000E2E6E020E306E640E78
:10F9860075EC77F06CC001F06DC002F0C20E036E2C
:10F99600FF0E046EFEEC74F0500E296E6CC02AF059
:10F9A6006DC02BF0000E2D6E1F0E2C6E000E2F6EEE
:10F9B600000E2E6E010E306E1E0E75EC77F0000EE8
:10F9C600146E1E0E136E000E166E570E156E000E7A
:10F9D600186E3C0E176E000E1A6E120E196E000E81
:10F9E6001C6E1F0E1B6E14EC76F0000E0D6E280EAC
:10F9F6000C6E000E0F6E5F0E0E6E000E116E070E71
:10FA0600106EF80E136E000E126E2CEC7AF0000ECD
:10FA16000D6E3C0E0C6E000E0F6E5F0E0E6E000E1F
:10FA2600116E070E106EFF0E136EE00E126E2CECAA
:10FA36007AF0000E2C6E500E2B6E000E2E6E5F0EA0
:10FA46002D6E000E306E070E2F6E070E326EE00E14
:10FA5600316EEBEC75F05A0E296E4F0E2A6E000EC3
:10FA66002B6E000E2D6E1F0E2C6E000E2F6E000ECE
:10FA76002E6E020E306E640E75EC77F06CC001F0DF
:10FA86006DC002F0D80E036EFF0E046EFEEC74F02D
:10FA96006E0E296E6CC02AF06DC02BF0F80E2D6E1E
:10FAA6001F0E2C6E000E2F6E000E2E6E010E306E87
:10FAB6001E0E75EC77F0000E146E1E0E136E000E01
:10FAC600166E750E156E000E186E3C0E176E000E35
:10FAD6001A6E120E196EF80E1C6E1F0E1B6E14ECAB
:10FAE60076F0000E2C6E280E2B6E000E2E6E7D0EFE
:10FAF6002D6E000E306E070E2F6EF80E326E000E53
:10FB0600316EEBEC75F0000E0D6E3C0E0C6E000EB9
:10FB16000F6E7D0E0E6E000E116E070E106EFF0E2E
:10FB2600136EE00E126E2CEC7AF0000E0D6E500E77
:10FB36000C6E000E0F6E7D0E0E6E000E116E070E11
:10FB4600106E070E136EE00E126E2CEC7AF0780E25
:10FB5600296E4C0E2A6E000E2B6EF80E2D6E1F0EA1
:10FB66002C6E000E2F6E000E2E6E020E306E640E80
:10FB760075EC77F01E0E296E520E2A6E000E2B6E55
:10FB8600070E2D6E2C68000E2F6E000E2E6E020EC6
:10FB9600306E020E75EC77F06CC001F06DC002F0AD
:10FBA600F80E036EFF0E046EFEEC74F0140E296E52
:10FBB6006CC02AF06DC02BF0070E2D6E2C68000E5F
:10FBC6002F6E000E2E6E010E306E030E75EC77F062
:10FBD6006CC001F06DC002F0F40E036EFF0E046EF1
:10FBE600FEEC74F0500E296E6CC02AF06DC02BF03E
:10FBF600000E2D6E1F0E2C6E000E2F6E000E2E6E3A
:10FC0600010E306E030E75EC77F05A0E296E550E06
:10FC16002A6E000E2B6E000E2D6E1F0E2C6E000E21
:10FC26002F6E000E2E6E020E306E020E75EC77F001
:10FC36006CC001F06DC002F0760E036EFF0E046E0E
:10FC4600FEEC74F08C0E296E6CC02AF06DC02BF0A1
:10FC5600FF0E2D6E2C68000E2F6E000E2E6E010EFE
:10FC6600306E010E75EC77F0950E296E600E2A6ED9
:10FC7600000E2B6EFF0E2D6E2C68000E2F6E000EE2
:10FC86002E6E010E306E060E75EC77F0950E296E0F
:10FC96005E0E2A6E000E2B6EFF0E2D6E2C68000E69
:10FCA6002F6E000E2E6E010E306E200E75EC77F064
:10FCB600950E296E660E2A6E000E2B6EFF0E2D6EA9
:10FCC6002C68000E2F6E000E2E6E010E306E3A0E50
:10FCD60075EC77F0950E296E640E2A6E000E2B6E6B
:10FCE600FF0E2D6E2C68000E2F6E000E2E6E010E6E
:10FCF600306E570E75EC77F0950E296E620E2A6EF1
:10FD0600000E2B6EFF0E2D6E2C68000E2F6E000E51
:10FD16002E6E010E306E700E75EC77F0120000003C
:10FD26000000000000005F00000007000700147FCD
:10FD3600147F14242A7F2A12231308646236495634
:10FD460020500008070300001C2241000041221C2D
:10FD5600002A1C7F1C2A08083E0808008070300014
:10FD66000808080808000060600020100804023E29
:10FD76005149453E00427F4000724949494621416A
:10FD8600494D331814127F1027454545393C4A49D9
:10FD96004931412111090736494949364649492918
:10FDA6001E00001400000040340000000814224128
:10FDB6001414141414004122140802015909063EB1
:10FDC600415D594E7C1211127C7F494949363E41AC
:10FDD6004141227F4141413E7F494949417F0909CD
:10FDE60009013E414151737F0808087F00417F4168
:10FDF600002040413F017F081422417F404040409F
:10FE06007F021C027F7F0408107F3E4141413E7FF6
:10FE1600090909063E4151215E7F091929462649ED
:10FE260049493203017F01033F4040403F1F2040C4
:10FE3600201F3F4038403F631408146303047804CE
:10FE4600036159494D43007F414141020408102096
:10FE5600004141417F04020102044040404040000D
:10FE66000307080020545478407F28444438384417
:10FE7600444428384444287F385454541800087E93
:10FE8600090218A4A49C787F0804047800447D40E5
:10FE9600002040403D007F1028440000417F400084
:10FEA6007C047804787C080404783844444438FC9C
:10FEB6001824241818242418FC7C08040408485420
:10FEC60054542404043F44243C4040207C1C2040DD
:10FED600201C3C4030403C44281028444C909090D4
:10FEE6007C4464544C44000836410000007700000E
:10FEF60000413608000201020402010000000A0067
:10FF0600000064000000E803000010270000A0863F
:10FF1600010040420F008096980000E1F50500CAF6
:10FF26009A3B00803FCDCC3DD7233C12833AB7D1D4
:10FF360038C62737388635C0D633CC2B3270893051
:10FF4600E7DB2EE53C1E42A20D00803F002041006B
:10FF5600C842007A44401C4650C347247449971847
:10FF66004BBCBE4C6B6E4E03155079AD60F34971B8
:10FF76004557502045574C54204E5350204E534C15
:10FF860054204D4400454345333330314C204661BF
:10FF96006C6C2032322D533400766F6C7473206192
:10FFA60072652025302E33660D0A0A00737465705B
:10FFB60073206172652025640D0A0A004E4F525463
:10FFC600482F534F55544800454153542F574553D6
:10FFD60054004E2F53204C5400452F57204C5400AC
:10FFE6004D6F64653A0046523A0046533A00504E09
:0AFFF6005300504557002A00000098
:020000040020DA
:08000000FFFFFFFFFFFFFFFF00
:020000040030CA
:0E000000FF08191EFF8281FF0FC00FE00F40A6
:00000001FF
