:0400000008EF64F0B1
:10C1BD000130003000000EBA6E81961200016E0142
:10C1CD0050040DF328C26E1200016E00D0ACA2FE19
:10C1DD00D701C0ADFF1200010EC26E0E0EC16EA9C9
:10C1ED000EC06E1200036E8298829403501BEC6198
:10C1FD00F082881200036E8298828403501BEC61DA
:10C20D00F082881200F90ECB6E050ECA6E4A0EBB77
:10C21D006E3C0EBA6E12008292000E166E640E15F2
:10C22D006EAFEC63F082821200026E9E96C9CF0152
:10C23D00F002C0C9FF00D0C7A0FED71200000E0249
:10C24D006E190E016E3C0EA4EC64F0600ED36E12EE
:10C25D0000838E09EC61F045EC61F0839EE1EC60AA
:10C26D00F045EC61F01200190E926E070E936E0000
:10C27D000E946E000E956E000E966E1200030ED586
:10C28D006EDB0ED66E0B0ED76EF294D58E00D0F2FD
:10C29D00A4FED7D59E1200000E086E800E096EA06A
:10C2AD000E0A6E14C00BF015C00CF0000E28EC68D1
:10C2BD00F01200036E000E026E3A0E036006D02FD0
:10C2CD000E036403D0010E026E00D002C001F00116
:10C2DD003000D01200015002100310D8B406D00067
:10C2ED000E011A000E021A800E031A01C001F0028F
:10C2FD00C002F003C003F01200C28200D0C2B2FE31
:10C30D00D7C450046E036AC3500324056E000E0497
:10C31D0020066E05C001F006C002F000D012000F1D
:10C32D00501102F3CF13F0F4CF14F00F501202F3AB
:10C33D0050142610501102F350142613C00FF01490
:10C34D00C010F000D012000040792430191202788C
:10C35D000010FF3030003030003030003030003011
:10C36D0030003030004400300030004400300030E8
:10C37D000082888294800EC76E300EC66E5FEC6CA4
:10C38D00F071EC62F05DEC6AF0360EF9EC60F0C025
:10C39D000E01EC61F0010E766E1200696E69C06AD5
:10C3AD00F06A50D8B40BD001D009D06AC03AF079F8
:10C3BD00502EEC6EF01DEC65F06A06F2D7000E3AC9
:10C3CD006E79502EEC6EF012000B6E800E0B60131A
:10C3DD00D09F0E086401D00FD008C004F00B2805C3
:10C3ED006E0828066E0B505FEC63F00A5001EC618D
:10C3FD00F0095001EC61F012003D043E6E3E50D844
:10C40D00B40BD001D009D03EC03AF07950E9EC69B7
:10C41D00F02FEC61F03E06F2D7000E3A6E7950E93E
:10C42D00EC69F02FEC61F0120001C005F002C006BE
:10C43D00F005D0054A062A034A042A00D003C0F6A7
:10C44D00FF04C0F7FF05C0D9FF06C0DAFF0800F5ED
:10C45D00CFDFFFDF50D8A4EDD71200000E186E16F7
:10C46D00AE07D0156C161ED8B0162A010E186E0028
:10C47D00D015C001F016C002F0036A8E0E046E18BE
:10C48D00C005F0C5EC67F001C015F002C016F00351
:10C49D00C017F000D0120001C005F002C006F00375
:10C4AD00D0054A062A00D005C0D9FF06C0DAFFDF45
:10C4BD0050D8A4F6D701C003F002C004F0031E0447
:10C4CD001E034A042A05500324016E06500420025F
:10C4DD006E00D012002A0EF9EC60F0000E01EC6136
:10C4ED00F0000E01EC61F0000E01EC61F07F0E0129
:10C4FD00EC61F02B0EF9EC60F0000E01EC61F00038
:10C50D000E01EC61F0000E01EC61F09F0E01EC618B
:10C51D00F01200366E000E796E36C033F07950CDC4
:10C52D00EC72F00AD0809A01D0808A819C13D08061
:10C53D009A01D0808A818C0ED03650000AD8B4F280
:10C54D00D7010AD8B4F1D7030AD8B4F1D7010AD864
:10C55D00B4F0D700D01200366E010E796E36C033AE
:10C56D00F07950CDEC72F00AD0849201D08482849F
:10C57D009413D0849201D0848284840ED0365000DE
:10C58D000AD8B4F2D7010AD8B4F1D7030AD8B4F156
:10C59D00D7010AD8B4F0D700D01200366E020E794A
:10C5AD006E36C033F07950CDEC72F00AD080920126
:10C5BD00D08082809413D0809201D0808280840EAE
:10C5CD00D03650000AD8B4F2D7010AD8B4F1D70347
:10C5DD000AD8B4F1D7010AD8B4F0D700D01200367A
:10C5ED006E030E796E36C033F07950CDEC72F00AD1
:10C5FD00D0819801D08188819A13D0819801D08102
:10C60D0088818A0ED03650000AD8B4F2D7010AD8E4
:10C61D00B4F1D7030AD8B4F1D7010AD8B4F0D700D2
:10C62D00D012003D503E103F10D8B407D0000E3D43
:10C63D001A000E3E1A800E3F1A00D03AC02EF03B63
:10C64D00C02FF03CC030F03DC031F03EC032F03F65
:10C65D00C033F0DAEC6FF02EC03AF02FC03BF03063
:10C66D00C03CF000D012001B6E1BC01CF01D6A0EEA
:10C67D00D013C008F015C009F016C00AF017C00B92
:10C68D00F01C505EEC65F01C4A1D2A00D014501BA6
:10C69D00C018F0196A1826000E192218501C5C1DBE
:10C6AD0050800A1A6E1950800A1A58D8A0E1D71274
:10C6BD0000076E2A0EF9EC60F0000E01EC61F00738
:10C6CD0050772401EC61F0000E01EC61F00550771C
:10C6DD002401EC61F02B0EF9EC60F0000E01EC6121
:10C6ED00F004507A2401EC61F0000E01EC61F006CB
:10C6FD00507A2401EC61F02C0EF9EC60F012002F51
:10C70D005000082D24086ED8802F34096E31C00AD0
:10C71D00F032C00BF02B505EEC65F02BC013F02CFB
:10C72D00C014F02DC015F02EC016F02FC017F0302C
:10C73D00C018F0000E1A6E030E196E000E1C6E005E
:10C74D000E1B6E31C01DF032C01EF0E7EC6CF01206
:10C75D000015C00FF016C010F0000E126EFA0E117B
:10C76D006E96EC61F00FC019F010C01AF019C017D9
:10C77D00F01AC018F0171E181E174A182AFF0E17A8
:10C78D0024196EFF0E18201A6EB80EB16E19C0D690
:10C79D00FF1A50D76EA192B18000D0A1A2FED7B1E1
:10C7AD009012008E0E116E07D0D8900C320B320AFB
:10C7BD00320932112A00D0000E09140D6E000E0A36
:10C7CD00140E6E000E0B140F6EFF0E0C14106E0D6A
:10C7DD00500E100F101010D8A4E7D709C001F00AA1
:10C7ED00C002F00BC003F011C004F0000E056EC5C1
:10C7FD00EC67F001C009F002C00AF003C00BF000B5
:10C80D00D0120000EEA9F0260EEE6AE806FDE1005A
:10C81D00EE6DF00E0EEE6AE806FDE1550EF66EC3F6
:10C82D000EF76E000EF86E00EE80F010EE29F00996
:10C83D0000F5CFEEFFE550E150FAE1BD0EF66EC109
:10C84D000EF76E000EF86E00EE7BF010EE05F0099F
:10C85D0000F5CFEEFFE550E150FAE1000EF86E0065
:10C86D0001C2EF66F015C008F017C009F01BC00A31
:10C87D00F01CC00BF01350A2EC65F0155019241DDF
:10C88D006E1D04086E17C009F01BC00AF01CC00B0A
:10C89D00F01350A2EC65F015C008F019C009F01B9B
:10C8AD00C00AF01CC00BF013505EEC65F015C0080B
:10C8BD00F019C009F01BC00AF01CC00BF013501783
:10C8CD00241D6E1D045EEC65F01200055006100768
:10C8DD00100810D8B429D0010E096E07D0D89005D4
:10C8ED0036063607360836092A00D008BE02D0F6BD
:10C8FD00D700D00550015C06500258075003580868
:10C90D00500458D8A009D00550015E0650025A07B0
:10C91D0050035A0850045A00D0D8900832073206F6
:10C92D00320532092EE6D700D001C001F002C00257
:10C93D00F003C003F004C004F01200036E000EAC4F
:10C94D006E000EAB6E03A002D0AC8800D003A20324
:10C95D00D0AC8CAB8C00D003A402D0AC8E00D00335
:10C96D00A602D0AB8802D0AB8A00D003B8AC849EAF
:10C97D009803AA02D0AB8600D003AC02D09D8A01E9
:10C98D00D09D9A9E9A03AE02D09D8801D09D9801AC
:10C99D00C0AFFF0250B06EAC8AAB8E949C948EAC3F
:10C9AD00B8ACBE02D0948C00D01200000E066E0200
:10C9BD00AE07D0016C021ED8B0022A010E066E0021
:10C9CD00D004AE05D0036C041ED8B0042A00D003E9
:10C9DD00500410D8B41DD0010E056E05D0D89003AB
:10C9ED00360436052A00D004BE02D0F8D700D00395
:10C9FD0050015C04500258D8A005D00350015E04CC
:10CA0D0050025A00D0D89004320332052EF0D700D0
:10CA1D00D00650D8B405D0016C021ED8B0022A0041
:10CA2D00D001C001F002C002F000D01200838E6D63
:10CA3D00C001F06EC002F0FC0E036EFF0E046E1B03
:10CA4D00EC62F00A0E296E6DC02AF06EC02BF0FF5D
:10CA5D000E2D6E2C68000E2F6E000E2E6E010E30F8
:10CA6D006E780E96EC68F045EC61F0839E6DC0011A
:10CA7D00F06EC002F0FA0E036EFF0E046E1BEC6238
:10CA8D00F00A0E296E6DC02AF06EC02BF0FF0E2D30
:10CA9D006E2C68000E2F6E000E2E6E010E306E780D
:10CAAD000E96EC68F045EC61F0BCEC70F0120012E3
:10CABD006E800E12603FD09F0E086401D03BD0FFF8
:10CACD000E0C6EFF0E0D6E095008C00EF00F6A0EA3
:10CADD0026000E0F220C500E260D500F220FBE0BEE
:10CAED00D00F5004E1A00E0E5CD8A005D008500068
:10CAFD0008A00F096E00D00B50106E0AC011F0087F
:10CB0D00C004F012C005F0085009240C6E0C040688
:10CB1D006E12505FEC63F08284829807D010501B28
:10CB2D00EC61F011501BEC61F000D009060928D81A
:10CB3D00A4F5D782881200126E800E12603FD09F2E
:10CB4D000E086401D03BD0FF0E0C6EFF0E0D6E096A
:10CB5D005012C00EF00F6A0E26000E0F220C500E52
:10CB6D00260D500F220FBE0BD00F5004E1800E0E7C
:10CB7D005CD8A005D012500008800F096E00D00BB4
:10CB8D0050106E0AC011F008C004F0125009240CA8
:10CB9D006E0C04056E08C006F012505FEC63F08257
:10CBAD0084829807D010501BEC61F011501BEC6182
:10CBBD00F000D009060928D8A4F5D7828812000004
:10CBCD000E096E000E0A6E000E0B6E000E0C6E0539
:10CBDD0050061007100810D8B42FD0010E0D6E0797
:10CBED00D0D89005360636073608360D2A00D008FF
:10CBFD00BE02D0F6D700D0D89009360A360B360CC7
:10CC0D00360550015C065002580750035808500471
:10CC1D0058D8A00AD00550015E0650025A0750039D
:10CC2D005A0850045A098000D0D8900832073206AD
:10CC3D003205320D2EE0D700D009C001F00AC00236
:10CC4D00F00BC003F00CC004F01200000E0C6E0AC5
:10CC5D00AE07D0096C0A1ED8B00A2A010E0C6E0060
:10CC6D00D008AE07D0076C081ED8B0082A010E0CEC
:10CC7D001A00D0000E0E6E000E0D6E09500A10D85F
:10CC8D00B421D0010E0B6E05D0D89009360A360BA3
:10CC9D002A00D00ABE02D0F8D700D0D8900D360E9B
:10CCAD00360950075C0A500858D8A006D00950071D
:10CCBD005E0A50085A0D8000D0D8900A3209320B06
:10CCCD002EECD700D00C50D8B405D00D6C0E1ED85C
:10CCDD00B00E2A00D00DC007F00EC008F000D01223
:10CCED000003AE17D001C007F002C008F003C00961
:10CCFD00F0071E081E091E072A000E082209220031
:10CD0D000E0724016E000E0820026E800E0920030E
:10CD1D006E00D006AE17D004C007F005C008F006AF
:10CD2D00C009F0071E081E091E072A000E08220959
:10CD3D0022000E0724046E000E0820056E800E09D9
:10CD4D0020066E00D0000E011A000E021A800E038E
:10CD5D001A000E041A000E051A800E061A04500150
:10CD6D005C0550025806500358D8B002D0D8900236
:10CD7D00D0D88000D01200F2EC60F03AEC61F025D2
:10CD8D00EC61F0000EE5EC60F0700ED36EF19E6E6E
:10CD9D00EC76F000D083EC61F001C06BF002C06C5A
:10CDAD00F06BC00FF06CC010F0000E126E050E117E
:10CDBD006E96EC61F00FC015F010C016F034EC62F9
:10CDCD00F015C019F016C01AF017C01BF0000E1C9C
:10CDDD006E800E1D6E440E1E6E05EC69F019C0A915
:10CDED00F01AC0AAF01BC0ABF0A9C001F0AAC00296
:10CDFD00F0ABC003F07B0E046E240E056E400E06E4
:10CE0D006E77EC66F0D8B003D065EC67F0C3D7133E
:10CE1D00EC67F0C0D700EF00F0818E4E0E00019D43
:10CE2D006F00D0010EF6EC62F0010E90EC62F00195
:10CE3D000EB2EC62F0020ED4EC62F0080ED4EC618E
:10CE4D00F0030ED4EC62F0020ED4EC61F0010ED4BE
:10CE5D00EC62F080A810D0020EB2EC62F0060ED497
:10CE6D00EC61F0030EB2EC62F0020ED4EC61F00155
:10CE7D000EB2EC62F000D0020E90EC62F0090ED40E
:10CE8D00EC61F0030E90EC62F0020ED4EC61F00157
:10CE9D000E90EC62F080A611D0020EF6EC62F00757
:10CEAD000ED4EC61F0030EF6EC62F0020ED4EC61E0
:10CEBD00F0010EF6EC62F001D0B4D71200819E4461
:10CECD000E00019D6F00D0010EF6EC62F0010E9088
:10CEDD00EC62F0010EB2EC62F0020ED4EC62F08165
:10CEED00A005D0090E3D6E000E03EC62F0080ED4C5
:10CEFD00EC61F0030ED4EC62F0030ED4EC61F001A2
:10CF0D000ED4EC62F080A810D0020EB2EC62F007E5
:10CF1D000ED4EC61F0030EB2EC62F0030ED4EC61B2
:10CF2D00F0010EB2EC62F000D0020E90EC62F081D6
:10CF3D00A205D0080E3D6E010E03EC62F0060ED474
:10CF4D00EC61F0030E90EC62F0030ED4EC61F00195
:10CF5D000E90EC62F080A611D0020EF6EC62F00697
:10CF6D000ED4EC61F0030EF6EC62F0030ED4EC611E
:10CF7D00F0010EF6EC62F001D0A6D712000450D8E5
:10CF8D00B405D0015002100310D8A40ED0000E012C
:10CF9D006E000E026E000E036E53D006D0042AD81A
:10CFAD009003320232013200D0000E0114066E00E1
:10CFBD000E0214076EFE0E0314086E0650071008BD
:10CFCD0010D8B40ED0EBD70CD0042A010E012600D8
:10CFDD000E0222000E0322D89003320232013200DB
:10CFED00D0000E0114066E000E0214076EFF0E0324
:10CFFD0014086E065007100810D8B408D0E5D706EF
:10D00D00D00406D89001360236033600D002BE0495
:10D01D00D0020E0460F5D700D004B002D0029E00FD
:10D02D00D0D8900432045003120550D8B402D00366
:10D03D008E00D001C001F002C002F003C003F00069
:10D04D00D01200136E800E136069D09F0E0864011C
:10D05D00D065D0FF0E0D6EFF0E0E6E095013C00F72
:10D06D00F0106A0F26000E10220D500F260E5010D4
:10D07D002210BE0AD0105004E1800E0F5CD8A0041F
:10D08D00D013500008800F096EFF0E0D6EFF0E0EAF
:10D09D006E0A5008C00FF0106A0F26000E10220DF8
:10D0AD00500F260E50102210BE0BD0105004E1A0D0
:10D0BD000E0F5CD8A005D008500008A00F0A6E0016
:10D0CD00D008C004F0135009240D6E0D04056E0830
:10D0DD00500A240E6E0E04066E13505FEC63F00CB6
:10D0ED0050116E0BC012F0828482980AC008F008AD
:10D0FD0050D8B413D001D011D009C013F01350D8AB
:10D10D00B40AD001D008D011501BEC61F012501BA5
:10D11D00EC61F01306F3D70806EAD78288120035C2
:10D12D006E35C039F029C038F02AC001F02BC0028D
:10D13D00F052EC62F001C033F002C034F0000E3753
:10D14D006E000E366E54D07B50D8B42CD0305005B6
:10D15D000D3950316E326AF3503126F4503222328D
:10D16D00BE21D0325004E1810E315CD8A01BD0001D
:10D17D000E396E3050070DF3503824030F386EA062
:10D18D000E386403D0A00E386E00D036502A24D944
:10D19D006E37502B20DA6E200EDE18D8B425D00253
:10D1AD00D023D000D038C01EF036502A24D96E3787
:10D1BD00502B20DA6EDF501F6E2CC020F02DC021B9
:10D1CD00F02EC022F02FC023F030C024F039508350
:10D1DD00EC6DF03050060DF3503924396E800E3958
:10D1ED006403D0800E396E00D0364A372A00D03312
:10D1FD0050365C34503758D8A0A6D712001BC01F2C
:10D20D00F0206A216A1A341F3601E320801F502650
:10D21D006E2650D8A402D00ED061D01EC01FF020B3
:10D22D006A216A1D341F3601E320801F50276E27A7
:10D23D0050D8A407D0000E196E000E1A6E000E1BEA
:10D24D006E4DD0000E236E000E246E000E256E273F
:10D25D0050890F265E1BC027F01E50271A800E27FF
:10D26D00161A8EFF0E1916FF0E1A16000E1B161D1E
:10D27D008EFF0E1C16FF0E1D16000E1E16180E220A
:10D28D006E00D0D8902336243625361C50195C1DDF
:10D29D00501A581E501B58D8A007D01C50195E1D8F
:10D2AD00501A5A1E501B5A2380D89019361A361B05
:10D2BD0036222EE7D700D023C001F024C002F0257E
:10D2CD00C003F026C004F027C005F0C5EC67F001DF
:10D2DD00C019F002C01AF003C01BF000D012002DCF
:10D2ED00C02FF0306A316A2C342F3601E330802F95
:10D2FD0050396E3950D8A402D039D063D0170E2FC3
:10D30D006E2BC030F02CC031F02DC032F02F2833F1
:10D31D006E04D0D890323231323032332EFAD730CB
:10D32D0050346E2C8EFF0E2B16FF0E2C16000E2D6C
:10D33D00162B50356E2C50366E2D50376E386A8E3A
:10D34D000E395E39AE10D03950800A8F0FD8B00328
:10D35D00D00DD037D000D0D8903832373236323564
:10D36D0032393EF9D719D0170E396411D0000E2B72
:10D37D006E000E2C6E000E2D6E000E2E6E22D0073E
:10D38D00D0D8903536363637363836390600D0395E
:10D39D0050D8B402D0F5D700D03450D8B409D03815
:10D3AD001E371E361E356C000E36223722382200EF
:10D3BD00D035C02BF036C02CF037C02DF038C02E34
:10D3CD00F000D012003C6E3A50010D800EF324D9BE
:10D3DD006E000EF420DA6EDF503B6E8350800B3BF7
:10D3ED0010836E5BD03AC007F0086A000E0A6E0A11
:10D3FD000E096E2CEC66F00750300F0001976F3A56
:10D40D00C001F0026A000E046E0A0E036EDCEC64BD
:10D41D00F00150300F0001986F1E0E296E970E2AE5
:10D42D006E000E2B6E070E2D6E2C68000E2F6E00EB
:10D43D000E2E6E020E306E020E96EC68F036D03A5D
:10D44D00C007F0086A000E0A6E0A0E096E2CEC6613
:10D45D00F00750300F00019A6F3AC001F0026A00D8
:10D46D000E046E0A0E036EDCEC64F00150300F00FA
:10D47D00019B6F5A0E296E9A0E2A6E000E2B6E00AE
:10D48D000E2D6E1F0E2C6E000E2F6E000E2E6E02C8
:10D49D000E306E020E96EC68F008D03C50000AD8A3
:10D4AD00B4A1D7020AD8B4CBD700D01200E00EF940
:10D4BD00EC60F0020E01EC61F01C0E01EC61F00766
:10D4CD000E01EC61F0120E01EC61F0370E01EC6112
:10D4DD00F0320E01EC61F0290E01EC61F02D0E0120
:10D4ED00EC61F0290E01EC61F0250E01EC61F02BE1
:10D4FD000E01EC61F0390E01EC61F0000E01EC61F2
:10D50D00F0010E01EC61F0030E01EC61F0100E0163
:10D51D00EC61F0E10EF9EC60F0030E01EC61F01D31
:10D52D000E01EC61F0070E01EC61F0060E01EC61ED
:10D53D00F02E0E01EC61F02C0E01EC61F0290E01C4
:10D54D00EC61F02D0E01EC61F02E0E01EC61F02E70
:10D55D000E01EC61F0370E01EC61F03F0E01EC6154
:10D56D00F0000E01EC61F0000E01EC61F0020E0115
:10D57D00EC61F0100E01EC61F0130EF9EC60F000AF
:10D58D000E166E0A0E156EAFEC63F0290EF9EC60F7
:10D59D00F0000E166E640E156EAFEC63F0120017F0
:10D5AD00C01BF01C6A1D6A16341B3601E31C801B60
:10D5BD00501E6E1E50D8A402D00ED06CD01AC01BB7
:10D5CD00F01C6A1D6A19341B3601E31C801B5023A5
:10D5DD006E2350D8A407D0000E156E000E166E00E7
:10D5ED000E176E58D023507B0F1E2617C023F01A2E
:10D5FD0050231A800E2316168E198EFF0E1816FF45
:10D60D000E1916000E1A16000E1F6E000E206E005B
:10D61D000E216E070E226E00D015A007D018501FD8
:10D62D0026195020221A50212200D0D890173216D8
:10D63D00321532D890183619361A36222EEDD700FB
:10D64D00D0090E226E00D015A007D018501F261934
:10D65D005020221A50212200D0D8901732163215A0
:10D66D0032D890213220321F32222EEDD700D01F1A
:10D67D00C001F020C002F021C003F01EC004F02351
:10D68D00C005F0C5EC67F001C015F002C016F0033F
:10D69D00C017F000D01200033404340C6E0C50D8B7
:10D6AD00A402D061D07CD0063407340B6E0B50D859
:10D6BD00A402D059D074D0038EFF0E0116FF0E02B6
:10D6CD0016FF0E0316000E0416068EFF0E0416FF2F
:10D6DD000E0516FF0E0616000E0716000E076E003D
:10D6ED000E086E000E096E000E0A6E7F0E0C5E0B9C
:10D6FD0050A00F0C5E200E0B6E00D0D89007360890
:10D70D003609360A360450015C055002580650039E
:10D71D005807500458D8A00AD00450015E05500295
:10D72D005A0650035A0750045A078000D0D890016A
:10D73D00360236033604360B2EE0D700D00CAE1071
:10D74D00D00C50800A9F0FD8B003D00DD028D00038
:10D75D00D0D8900A320932083207320C3EF9D71769
:10D76D00D01F0E0C6411D0000E016E000E026E0063
:10D77D000E036E000E046E13D007D0D89007360836
:10D78D003609360A360C0600D00C50D8A4F6D70749
:10D79D00C001F008C002F009C003F00AC004F01285
:10D7AD000003C007F0086A096A0234073601E3086E
:10D7BD008007500F6E0F50D8A402D05DD078D006E0
:10D7CD00C007F0086A096A0534073601E3088007C7
:10D7DD00500E6E0E50D8A402D04ED069D0028EFFDE
:10D7ED000E0116FF0E0216000E0316058EFF0E0417
:10D7FD0016FF0E0516000E0616000E0A6E000E0B15
:10D80D006E000E0C6E000E0D6E7F0E0F5E0E50989C
:10D81D000F0F5E180E0E6ED8900A360B360C360DA5
:10D82D00360450015C0550025806500358D8A00725
:10D83D00D00450015E0550025A0650035A0A80D892
:10D84D00900136023603360E2EE6D700D00FAE10FD
:10D85D00D00F50800A970FD8B003D00DD028D0002C
:10D86D00D0D8900D320C320B320A320F3EF9D71749
:10D87D00D0170E0F6411D0000E016E000E026E0057
:10D88D000E036E000E046E13D007D0D8900A360B1F
:10D89D00360C360D360F0600D00F50D8A4F6D70A29
:10D8AD00C001F00BC002F00CC003F00DC004F0126B
:10D8BD0000010EF9EC60F0000E166E960E156EAFAF
:10D8CD00EC63F0110EF9EC60F0010E166EF40E150E
:10D8DD006EAFEC63F0B10EF9EC60F0010E01EC618E
:10D8ED00F02C0E01EC61F02D0E01EC61F0B20EF991
:10D8FD00EC60F0010E01EC61F02C0E01EC61F02DED
:10D90D000E01EC61F0B30EF9EC60F0010E01EC616B
:10D91D00F02C0E01EC61F02D0E01EC61F0010E0109
:10D92D00EC61F02C0E01EC61F02D0E01EC61F0B408
:10D93D000EF9EC60F0070E01EC61F0C00EF9EC6031
:10D94D00F0A20E01EC61F0020E01EC61F0840E010B
:10D95D00EC61F0C10EF9EC60F0C50E01EC61F0C2A6
:10D96D000EF9EC60F00A0E01EC61F0000E01EC61B5
:10D97D00F0C30EF9EC60F08A0E01EC61F02A0E0195
:10D98D00EC61F0C40EF9EC60F08A0E01EC61F0EE82
:10D99D000E01EC61F0C50EF9EC60F00E0E01EC61BC
:10D9AD00F0200EF9EC60F0360EF9EC60F0C80E01C7
:10D9BD00EC61F03A0EF9EC60F0050E01EC61F0123D
:10D9CD000017C01FF018C020F01F1E201E1F4A2078
:10D9DD002A010E1F24256E000E2020266E000E2219
:10D9ED006E010E216E17C01FF018C020F0D8901FC9
:10D9FD003620361F1E201E1F4A202A1FC023F0204E
:10DA0D00C024F0000E286E000E276E17C029F018E6
:10DA1D00C02AF067D026BE0BD02906D8A02A060250
:10DA2D000E2326000E24222350252624502622279D
:10DA3D004A282A020E2126000E22222150252622B6
:10DA4D0050262219A025D0295000081524086E292A
:10DA5D005029241B241F6E1F28096E1DC00AF01E9D
:10DA6D00C00BF0135027245EEC65F027500008150D
:10DA7D0024086E275027241B241F6E1F28096E1D96
:10DA8D00C00AF01EC00BF0135029245EEC65F000A7
:10DA9D00D019A227D0295000081524086E29502925
:10DAAD00241B241F6E1F28096E1DC00AF01EC00BFB
:10DABD00F02750000813245EEC65F0275000081580
:10DACD0024086E275027241B241F6E1F28096E1D46
:10DADD00C00AF01EC00BF02950000813245EEC653F
:10DAED00F000D02950275C2850800A1F6E2A5080E4
:10DAFD000A1F58D8A08FD71200266E800E2660A65A
:10DB0D00D09F0E1E6401D0A2D02450D8A403D00102
:10DB1D000E246E00D01F0E1F6404D07E0E1F6403F2
:10DB2D00D000D03F0E1F6E000E286E040E2864012B
:10DB3D00D08DD0530E1F6015D0E00E1F240F6E1028
:10DB4D006AFF0E1022000E126E050E116E96EC611C
:10DB5D00F028500F26000E1022330E0F24F66EFD06
:10DB6D000E14D0AD0E1F240F6E106AFF0E10220082
:10DB7D000E126E050E116E96EC61F028500F2600F8
:10DB8D000E1022320E0F24F66EFE0E1020F76E08C8
:10DB9D0000F5CF25F000D0000E276E060E2764018C
:10DBAD00D053D025A023D02404D8A40CD01E5027A8
:10DBBD0024086E20C009F021C00AF026502824EB5D
:10DBCD00EC61F03ED027502402F3501E24136E2436
:10DBDD00C014F024C015F020C016F021C017F02895
:10DBED00502402F35026243AEC63F02AD020502220
:10DBFD001804E121502318D8B423D02404D8A40C40
:10DC0D00D01E502724086E22C009F023C00AF0262A
:10DC1D00502824EBEC61F014D027502402F3501E51
:10DC2D0024136E24C014F024C015F022C016F02366
:10DC3D00C017F028502402F35026243AEC63F0006C
:10DC4D00D0272AD8902532A9D7282A6FD712003C81
:10DC5D006E3A50010D800EF324D96E000EF420DAC9
:10DC6D006EDF503B6E8350800B3B10836EB6D03A07
:10DC7D00C007F0086A000E0A6E0A0E096E2CEC66DB
:10DC8D00F00750300F00018E6F3AC001F0026A00AC
:10DC9D000E046E0A0E036EDCEC64F00150300F00C2
:10DCAD00018F6F1E0E296E8E0E2A6E000E2B6E07C3
:10DCBD000E2D6E2C68000E2F6E000E2E6E020E3085
:10DCCD006E640E96EC68F097D03AC007F0086A00C3
:10DCDD000E0A6E0A0E096E2CEC66F00750300F001E
:10DCED0001946F3AC001F0026A000E046E0A0E0331
:10DCFD006EDCEC64F00150300F0001956F5A0E2967
:10DD0D006E940E2A6E000E2B6E000E2D6E1F0E2CB5
:10DD1D006E000E2F6E000E2E6E020E306E640E967D
:10DD2D00EC68F069D03AC007F0086A000E0A6E0A76
:10DD3D000E096E2CEC66F00750300F00018B6F3A18
:10DD4D00C001F0026A000E046E0A0E036EDCEC6474
:10DD5D00F00150300F00018C6F3C0E296E8B0E2A96
:10DD6D006E000E2B6EFF0E2D6E2C68000E2F6E00AA
:10DD7D000E2E6E020E306E640E96EC68F03CD03AAC
:10DD8D00C007F0086A000E0A6E0A0E096E2CEC66CA
:10DD9D00F00750300F0001916F3AC001F0026A0098
:10DDAD000E046E0A0E036EDCEC64F00150300F00B1
:10DDBD0001926F780E296E910E2A6E000E2B6EF861
:10DDCD000E2D6E1F0E2C6E000E2F6E000E2E6E027F
:10DDDD000E306E640E96EC68F00ED03C50000AD8F2
:10DDED00B446D7010AD8B49ED7030AD8B46DD7016B
:10DDFD000AD8B4C5D700D0120010C014F011C01548
:10DE0D00F0141E151E144A152A010E14241A6E0044
:10DE1D000E15201B6E000E176E010E166E10C0141F
:10DE2D00F011C015F0D89014361536141E151E14A9
:10DE3D004A152A14C018F015C019F0000E1D6E00F9
:10DE4D000E1C6E10C01EF011C01FF00E50102408D5
:10DE5D006E12C009F013C00AF00C50EBEC61F0101B
:10DE6D005000080E24086E12C009F013C00AF00C01
:10DE7D0050EBEC61F00EC008F012C009F013C00AAF
:10DE8D00F00C501024EBEC61F00EC008F012C0093C
:10DE9D00F013C00AF0105000080C24EBEC61F07880
:10DEAD00D01BBE0BD01E06D8A01F06020E182600D2
:10DEBD000E192218501A2619501B221C4A1D2A020F
:10DECD000E1626000E172216501A2617501B220E5C
:10DEDD00501E24086E12C009F013C00AF00C501C1D
:10DEED0024EBEC61F00E501E24086E12C009F013E5
:10DEFD00C00AF01C5000080C24EBEC61F01E500021
:10DF0D00080E24086E12C009F013C00AF00C501C44
:10DF1D0024EBEC61F01E5000080E24086E12C009AF
:10DF2D00F013C00AF01C5000080C24EBEC61F00E4D
:10DF3D00501C24086E12C009F013C00AF00C501EBC
:10DF4D0024EBEC61F00E501C24086E12C009F01386
:10DF5D00C00AF01E5000080C24EBEC61F01C5000C0
:10DF6D00080E24086E12C009F013C00AF00C501EE2
:10DF7D0024EBEC61F01C5000080E24086E12C00951
:10DF8D00F013C00AF01E5000080C24EBEC61F000F9
:10DF9D00D01E501C5C1D50800A146E1F50800A1438
:10DFAD0058D8A07ED7120030C034F0356A366A2FAB
:10DFBD0034343601E335803450396E33C034F035A6
:10DFCD006A366A3234343601E335803450386E396E
:10DFDD0050D8B40BD03850395CD8B00ED039500071
:10DFED00083824346E180E346407D031C02EF03248
:10DFFD00C02FF033C030F0B8D03850D8B40BD03972
:10E00D0050385CD8B00ED0385000083924346E1812
:10E01D000E346407D02EC02EF02FC02FF030C0303C
:10E02D00F0A3D0060E376E30AE02D0378E00D0334F
:10E03D00BE378C2F8EFF0E2E16FF0E2F16000E30B4
:10E04D0016328EFF0E3116FF0E3216000E331638B5
:10E05D0050395CD8B01ED0D8903136323633363880
:10E06D000639503818D8B40FD0370637C034F007FA
:10E07D000E3416D8B408D0EFD706D0D89030322F42
:10E08D00322E32392A00D038503918D8B424D0F570
:10E09D00D722D03950385CD8B01ED0D8902E362F1C
:10E0AD00363036390639503818D8B40FD0370637D0
:10E0BD00C034F0070E3416D8B408D0EFD706D0D838
:10E0CD0090333232323132382A00D038503918D8A4
:10E0DD00B402D0F5D700D037AE0CD0FF0E2E1AFFFC
:10E0ED000E2F1AFF0E301A010E2E26000E2F2200B3
:10E0FD000E302237AC0DD0FF0E311AFF0E321AFF43
:10E10D000E331A010E3126000E3222000E3322007C
:10E11D00D0000E376E2E5031262F50322230503314
:10E12D002233AE0FD0FF0E311AFF0E321AFF0E330F
:10E13D001A010E3126000E3222000E3322010E3747
:10E14D006E00D031C001F032C002F033C003F0399F
:10E15D00C004F037C005F0C5EC67F001C02EF00229
:10E16D00C02FF003C030F000D0120083EC61F0013D
:10E17D00C064F002C065F064C00FF065C010F0001F
:10E18D000E126E050E116E96EC61F00FC015F010AB
:10E19D00C016F034EC62F015C019F016C01AF01765
:10E1AD00C01BF0000E1C6E800E1D6E440E1E6E0503
:10E1BD00EC69F019C066F01AC067F01BC068F0ADCD
:10E1CD000E406EFF0E416E66C042F067C043F068B0
:10E1DD00C044F0FDEC79F066C001F067C002F06854
:10E1ED00C003F07B0E046E240E056E400E066E7796
:10E1FD00EC66F0D8B002D0010E01D0000E736E00A7
:10E20D00D0000E81B2010E726E000E80B8010E713B
:10E21D006E000E81B0010E756E000E80B6010E748B
:10E22D006E7350D8A402D04E0E01D0440E0001A33F
:10E23D006F7550D8A402D0300E01D0310E0001A759
:10E24D006F7450D8A402D0300E01D0310E0001A54C
:10E25D006F7250D8A402D0300E01D0310E7E6E7187
:10E26D0050D8A402D0300E01D0310E7C6E00D00AF1
:10E27D000E296E9D0E2A6E000E2B6EFF0E2D6E2C2E
:10E28D0068000E2F6E000E2E6E010E306E230E9650
:10E29D00EC68F0950E296E7E0E2A6E000E2B6EFF29
:10E2AD000E2D6E2C68000E2F6E000E2E6E010E3090
:10E2BD006E060E96EC68F0950E296E7C0E2A6E0099
:10E2CD000E2B6EFF0E2D6E2C68000E2F6E000E2E77
:10E2DD006E010E306E200E96EC68F0950E296EA72D
:10E2ED000E2A6E000E2B6EFF0E2D6E2C68000E2F5B
:10E2FD006E000E2E6E010E306E3A0E96EC68F09595
:10E30D000E296EA50E2A6E000E2B6EFF0E2D6E2C95
:10E31D0068000E2F6E000E2E6E010E306E570E968B
:10E32D00EC68F0950E296EA30E2A6E000E2B6EFF73
:10E33D000E2D6E2C68000E2F6E000E2E6E010E30FF
:10E34D006E700E96EC68F012002D6E6D0E2D649BA6
:10E35D00D0000E126E030E116E000E0A6E0A0E091B
:10E36D006E000E046E640E036E2DC001F0026ADCA9
:10E37D00EC64F001C007F002C008F02CEC66F00967
:10E38D000E07240F6E000E0820106E96EC61F0360D
:10E39D000E0F24F66EFF0E1020F76E0900F5CF1844
:10E3AD00F00900F5CF19F00A00F5CF1AF0000E0AAA
:10E3BD006E640E096E2DC007F0086A2CEC66F01223
:10E3CD000E07240F6E000E0820106E000E126E0345
:10E3DD000E116E96EC61F0360E0F24F66EFF0E10D8
:10E3ED0020F76E0900F5CF15F00900F5CF16F00AEC
:10E3FD0000F5CF17F0D6EC6AF015C02AF016C02B39
:10E40D00F017C02CF0000E126E030E116E000E04EC
:10E41D006E0A0E036E2DC001F0026ADCEC64F00191
:10E42D00C00FF002C010F096EC61F0360E0F24F61E
:10E43D006EFF0E1020F76E0900F5CF18F00900F5EC
:10E44D00CF19F00A00F5CF1AF02AC015F02BC0161F
:10E45D00F02CC017F0D6EC6AF015C027F016C028C6
:10E46D00F017C029F027C015F028C016F029C017E5
:10E47D00F0000E186E000E196E3F0E1A6ED6EC6A75
:10E48D00F07DD083D062D00A0E2D645FD0000E12C5
:10E49D006E030E116E000E046E0A0E036E2DC0017A
:10E4AD00F0026ADCEC64F001C00FF002C010F096CF
:10E4BD00EC61F0360E0F24F66EFF0E1020F76E098C
:10E4CD0000F5CF18F00900F5CF19F00A00F5CF1AB5
:10E4DD00F0000E0A6E0A0E096E2DC007F0086A2CA8
:10E4ED00EC66F0090E07240F6E000E0820106E006A
:10E4FD000E126E030E116E96EC61F0360E0F24F6B1
:10E50D006EFF0E1020F76E0900F5CF15F00900F51E
:10E51D00CF16F00A00F5CF17F0D6EC6AF015C02A29
:10E52D00F016C02BF017C02CF02AC015F02BC0161A
:10E53D00F02CC017F0000E186E000E196E3F0E1A5B
:10E54D006ED6EC6AF01BD021D000D02D50030D36C5
:10E55D000EF324F66EFF0EF420F76E0900F5CF15BD
:10E56D00F00900F5CF16F00A00F5CF17F0000E18E0
:10E57D006E000E196E3F0E1A6ED6EC6AF015C024A1
:10E58D00F016C025F017C026F000D01200346E34FE
:10E59D00501E0DF350230F356E3350D8A467D000A5
:10E5AD000E2C6E280E2B6E35C02DF02E6A000E30FF
:10E5BD006E070E2F6E000E326E000E316E86EC63FE
:10E5CD00F0000E2C6E3C0E2B6E35C02DF02E6A0019
:10E5DD000E306E070E2F6E000E326E000E316E86EF
:10E5ED00EC63F0000E2C6E500E2B6E35C02DF02E00
:10E5FD006A000E306E070E2F6E000E326E000E3159
:10E60D006E86EC63F0000E0D6E280E0C6E35C00E8E
:10E61D00F00F6A000E116E070E106EF80E136E00DD
:10E62D000E126E03EC6FF0000E0D6E3C0E0C6E357F
:10E63D00C00EF00F6A000E116E070E106EFF0E1356
:10E64D006EE00E126E03EC6FF0000E0D6E500E0CA0
:10E65D006E35C00EF00F6A000E116E070E106E07AC
:10E66D000E136EE00E126E03EC6FF000D03304D873
:10E67D00A467D0000E2C6E280E2B6E35C02DF02EFB
:10E68D006A000E306E070E2F6EF80E326E000E31D0
:10E69D006E86EC63F0000E2C6E3C0E2B6E35C02D8D
:10E6AD00F02E6A000E306E070E2F6E000E326E00C9
:10E6BD000E316E86EC63F0000E2C6E500E2B6E3507
:10E6CD00C02DF02E6A000E306E070E2F6E000E322A
:10E6DD006E000E316E86EC63F0000E0D6E280E0C82
:10E6ED006E35C00EF00F6A000E116E070E106EF82B
:10E6FD000E136E000E126E03EC6FF0000E0D6E3CDD
:10E70D000E0C6E35C00EF00F6A000E116E070E1056
:10E71D006EFF0E136EE00E126E03EC6FF0000E0D19
:10E72D006E500E0C6E35C00EF00F6A000E116E0796
:10E73D000E106E070E136EE00E126E03EC6FF000EE
:10E74D00D0020E3318D8A467D0000E2C6E280E2BD5
:10E75D006E35C02DF02E6A000E306E070E2F6E0036
:10E76D000E326E000E316E86EC63F0000E2C6E3C98
:10E77D000E2B6E35C02DF02E6A000E306E070E2F4B
:10E78D006E000E326E000E316E86EC63F0000E2CB4
:10E79D006E500E2B6E35C02DF02E6A000E306E07AA
:10E7AD000E2F6E070E326EE00E316E86EC63F000AA
:10E7BD000E0D6E280E0C6E35C00EF00F6A000E1188
:10E7CD006E070E106EF80E136E000E126E03EC6FC8
:10E7DD00F0000E0D6E3C0E0C6E35C00EF00F6A0083
:10E7ED000E116E070E106EFF0E136EE00E126E03FD
:10E7FD00EC6FF0000E0D6E500E0C6E35C00EF00F5E
:10E80D006A000E116E070E106E070E136EE00E12DB
:10E81D006E03EC6FF000D0030E3318D8A467D00050
:10E82D000E2C6E280E2B6E35C02DF02E6A000E307C
:10E83D006E070E2F6E000E326E000E316E86EC637B
:10E84D00F0000E2C6E3C0E2B6E35C02DF02E6A0096
:10E85D000E306E070E2F6EFF0E326EE00E316E868D
:10E86D00EC63F0000E2C6E500E2B6E35C02DF02E7D
:10E87D006A000E306E070E2F6E000E326E000E31D6
:10E88D006E86EC63F0000E0D6E280E0C6E35C00E0C
:10E89D00F00F6A000E116E070E106EF80E136E005B
:10E8AD000E126E03EC6FF0000E0D6E3C0E0C6E35FD
:10E8BD00C00EF00F6A000E116E070E106EFF0E13D4
:10E8CD006EE00E126E03EC6FF0000E0D6E500E0C1E
:10E8DD006E35C00EF00F6A000E116E070E106E072A
:10E8ED000E136EE00E126E03EC6FF000D012002AC4
:10E8FD006E2AAEEFD02A6C2A50800A120FD8A08D46
:10E90D00D0000E126E030E116E000E0A6E0A0E0965
:10E91D006E000E046E640E036E2A50016E026A01C3
:10E92D00BE0206DCEC64F001C007F002C008F02C5A
:10E93D00EC66F0090E07240F6E000E0820106E967F
:10E94D00EC61F0360E0F24F66EFF0E1020F76E09F7
:10E95D0000F5CF18F00900F5CF19F00A00F5CF1A20
:10E96D00F0000E0A6E640E096E2A50076E086A07D3
:10E97D00BE08062CEC66F0120E07240F6E000E0872
:10E98D0020106E000E126E030E116E96EC61F036B5
:10E99D000E0F24F66EFF0E1020F76E0900F5CF1541
:10E9AD00F00900F5CF16F00A00F5CF17F0D6EC6A96
:10E9BD00F015C027F016C028F017C029F027C01594
:10E9CD00F028C016F029C017F0000E126E030E11BC
:10E9DD006E000E046E0A0E036E2A50016E026A015D
:10E9ED00BE0206DCEC64F001C00FF002C010F09620
:10E9FD00EC61F0360E0F24F66EFF0E1020F76E0947
:10EA0D0000F5CF18F00900F5CF19F00A00F5CF1A6F
:10EA1D00F0D6EC6AF041D15AD154D02A50800A7503
:10EA2D000FD8A04FD0000E0A6E0A0E096E2A50079D
:10EA3D006E086A07BE08062CEC66F0090E07240F57
:10EA4D006E000E0820106E000E126E030E116E96E3
:10EA5D00EC61F0360E0F24F66EFF0E1020F76E09E6
:10EA6D0000F5CF15F00900F5CF16F00A00F5CF1718
:10EA7D00F0000E126E030E116E000E046E0A0E03E0
:10EA8D006E2A50016E026A01BE0206DCEC64F001D2
:10EA9D00C00FF002C010F096EC61F0360E0F24F6A8
:10EAAD006EFF0E1020F76E0900F5CF18F00900F576
:10EABD00CF19F00A00F5CF1AF0D6EC6AF0EDD006BA
:10EACD00D100D02A50030D360EF324F66EFF0EF250
:10EADD00D0FDD02A50800A120FD8A08DD0000E1272
:10EAED006E030E116E000E0A6E0A0E096E000E04F4
:10EAFD006E640E036E2A50016E026A01BE0206DCC0
:10EB0D00EC64F001C007F002C008F02CEC66F009CF
:10EB1D000E07240F6E000E0820106E96EC61F05D4E
:10EB2D000E0F24F66EFF0E1020F76E0900F5CF18AC
:10EB3D00F00900F5CF19F00A00F5CF1AF0000E0A12
:10EB4D006E640E096E2A50076E086A07BE08062C01
:10EB5D00EC66F0120E07240F6E000E0820106E00EA
:10EB6D000E126E030E116E96EC61F05D0E0F24F613
:10EB7D006EFF0E1020F76E0900F5CF15F00900F5A8
:10EB8D00CF16F00A00F5CF17F0D6EC6AF015C027B6
:10EB9D00F016C028F017C029F027C015F028C016B0
:10EBAD00F029C017F0000E126E030E116E000E0448
:10EBBD006E0A0E036E2A50016E026A01BE0206DC59
:10EBCD00EC64F001C00FF002C010F096EC61F05D46
:10EBDD000E0F24F66EFF0E1020F76E0900F5CF18FC
:10EBED00F00900F5CF19F00A00F5CF1AF0D6EC6A4E
:10EBFD00F053D06CD059D02A50800A750FD8A0543C
:10EC0D00D0000E0A6E0A0E096E2A50076E086A07AA
:10EC1D00BE08062CEC66F0090E07240F6E000E08D8
:10EC2D0020106E000E126E030E116E96EC61F05DEB
:10EC3D000E0F24F66EFF0E1020F76E0900F5CF159E
:10EC4D00F00900F5CF16F00A00F5CF17F0000E12FF
:10EC5D006E030E116E000E046E0A0E036E2A500125
:10EC6D006E026A01BE0206DCEC64F001C00FF00218
:10EC7D00C010F096EC61F05D0E0F24F66EFF0E10D5
:10EC8D0020F76E0900F5CF18F00900F5CF19F00A3D
:10EC9D0000F5CF1AF0D6EC6AF015C024F016C02599
:10ECAD00F017C026F013D000D02A50030D5D0EF3DF
:10ECBD0024F66EFF0EF420F76E0900F5CF24F0094F
:10ECCD0000F5CF25F00A00F5CF26F000D012001286
:10ECDD00EC61F0BFEC61F0000E156E000E146E527B
:10ECED00EC61F0B00E6D6E000E6E6E6DC001F06ECB
:10ECFD00C002F0990E036EFF0E046E1BEC62F00263
:10ED0D000E296E6DC02AF06EC02BF0FF0E2D6E2CED
:10ED1D0068000E2F6E000E2E6E010E306E020E96D6
:10ED2D00EC68F06DC001F06EC002F0E40E036EFFF2
:10ED3D000E046E1BEC62F00A0E296E6DC02AF06E89
:10ED4D00C02BF0FF0E2D6E2C68000E2F6E000E2EB8
:10ED5D006E010E306E020E96EC68F00A0E296E9D55
:10ED6D000E2A6E000E2B6EFF0E2D6E2C68000E2FD0
:10ED7D006E000E2E6E010E306E230E96EC68F06D49
:10ED8D00C001F06EC002F0EA0E036EFF0E046E1BA2
:10ED9D00EC62F00A0E296E6DC02AF06EC02BF0FFEA
:10EDAD000E2D6E2C68000E2F6E000E2E6E010E3085
:10EDBD006E320E96EC68F00A0E296E9F0E2A6E00CA
:10EDCD000E2B6EFF0E2D6E2C68000E2F6E000E2E6C
:10EDDD006E010E306E460E96EC68F06DC001F06E51
:10EDED00C002F0EE0E036EFF0E046E1BEC62F00A15
:10EDFD000E296E6DC02AF06EC02BF0FF0E2D6E2CFD
:10EE0D0068000E2F6E000E2E6E010E306E500E9697
:10EE1D00EC68F00A0E296EA10E2A6E000E2B6EFF05
:10EE2D000E2D6E2C68000E2F6E000E2E6E010E3004
:10EE3D006E640E96EC68F06DC001F06EC002F0FCD1
:10EE4D000E036EFF0E046E1BEC62F00A0E296E6D42
:10EE5D00C02AF06EC02BF0FF0E2D6E2C68000E2F09
:10EE6D006E000E2E6E010E306E780E96EC68F06D03
:10EE7D00C001F06EC002F0CC0E036EFF0E046E1BCF
:10EE8D00EC62F0140E296E6DC02AF06EC02BF007E7
:10EE9D000E2D6E2C68000E2F6E000E2E6E010E3094
:10EEAD006E1E0E96EC68F0000E146E1E0E136E00A4
:10EEBD000E166E1B0E156E000E186E3C0E176E00A4
:10EECD000E1A6E120E196E070E1C6E1B6839EC644D
:10EEDD00F0000E2C6E280E2B6E000E2E6E230E2DB6
:10EEED006E000E306E070E2F6EF80E326E000E3164
:10EEFD006E86EC63F0000E0D6E3C0E0C6E000E0F68
:10EF0D006E230E0E6E000E116E070E106EFF0E1399
:10EF1D006EE00E126E03EC6FF0000E0D6E500E0CC7
:10EF2D006E000E0F6E230E0E6E000E116E070E107C
:10EF3D006E070E136EE00E126E03EC6FF01E0E29AF
:10EF4D006E8E0E2A6E000E2B6E070E2D6E2C680027
:10EF5D000E2F6E000E2E6E020E306E640E96EC6845
:10EF6D00F06DC001F06EC002F0DD0E036EFF0E04F9
:10EF7D006E1BEC62F0320E296E6DC02AF06EC02B46
:10EF8D00F0FF0E2D6E2C68000E2F6E000E2E6E01F2
:10EF9D000E306E1E0E96EC68F0000E146E1E0E13E3
:10EFAD006E000E166E390E156E000E186E3C0E1795
:10EFBD006E000E1A6E120E196EFF0E1C6E1B683946
:10EFCD00EC64F0000E2C6E280E2B6E000E2E6E4192
:10EFDD000E2D6E000E306E070E2F6EF80E326E0077
:10EFED000E316E86EC63F0000E0D6E3C0E0C6E0055
:10EFFD000E0F6E410E0E6E000E116E070E106EFF8F
:10F00D000E136EE00E126E03EC6FF0000E0D6E50CF
:10F01D000E0C6E000E0F6E410E0E6E000E116E0771
:10F02D000E106E070E136EE00E126E03EC6FF03CB9
:10F03D000E296E8B0E2A6E000E2B6EFF0E2D6E2C72
:10F04D0068000E2F6E000E2E6E020E306E640E9640
:10F05D00EC68F06DC001F06EC002F0C00E036EFFE3
:10F06D000E046E1BEC62F0500E296E6DC02AF06E10
:10F07D00C02BF0000E2D6E1F0E2C6E000E2F6E008D
:10F08D000E2E6E010E306E1E0E96EC68F0000E14F4
:10F09D006E1E0E136E000E166E570E156E000E18A8
:10F0AD006E3C0E176E000E1A6E120E196E000E1CAF
:10F0BD006E1F0E1B6E39EC64F0000E0D6E280E0CDB
:10F0CD006E000E0F6E5F0E0E6E000E116E070E109F
:10F0DD006EF80E136E000E126E03EC6FF0000E0D37
:10F0ED006E3C0E0C6E000E0F6E5F0E0E6E000E114E
:10F0FD006E070E106EFF0E136EE00E126E03EC6FA8
:10F10D00F0000E2C6E500E2B6E000E2E6E5F0E2D1F
:10F11D006E000E306E070E2F6E070E326EE00E3142
:10F12D006E86EC63F05A0E296E940E2A6E000E2B2D
:10F13D006E000E2D6E1F0E2C6E000E2F6E000E2EFD
:10F14D006E020E306E640E96EC68F06DC001F06EBE
:10F15D00C002F0D60E036EFF0E046E1BEC62F06E55
:10F16D000E296E6DC02AF06EC02BF0F80E2D6E1F9D
:10F17D000E2C6E000E2F6E000E2E6E010E306E1EBA
:10F18D000E96EC68F0000E146E1E0E136E000E1629
:10F19D006E750E156E000E186E3C0E176E000E1A63
:10F1AD006E120E196EF80E1C6E1F0E1B6E39EC646E
:10F1BD00F0000E2C6E280E2B6E000E2E6E7D0E2D79
:10F1CD006E000E306E070E2F6EF80E326E000E3181
:10F1DD006E86EC63F0000E0D6E3C0E0C6E000E0F85
:10F1ED006E7D0E0E6E000E116E070E106EFF0E135D
:10F1FD006EE00E126E03EC6FF0000E0D6E500E0CE5
:10F20D006E000E0F6E7D0E0E6E000E116E070E103F
:10F21D006E070E136EE00E126E03EC6FF0780E2972
:10F22D006E910E2A6E000E2B6EF80E2D6E1F0E2C8B
:10F23D006E000E2F6E000E2E6E020E306E640E9648
:10F24D00EC68F01E0E296E970E2A6E000E2B6E07BF
:10F25D000E2D6E2C68000E2F6E000E2E6E020E30CF
:10F26D006E020E96EC68F06DC001F06EC002F0F605
:10F27D000E036EFF0E046E1BEC62F0140E296E6D04
:10F28D00C02AF06EC02BF0070E2D6E2C68000E2FCD
:10F29D006E000E2E6E010E306E030E96EC68F06D44
:10F2AD00C001F06EC002F0F20E036EFF0E046E1B75
:10F2BD00EC62F0500E296E6DC02AF06EC02BF0007E
:10F2CD000E2D6E1F0E2C6E000E2F6E000E2E6E016B
:10F2DD000E306E030E96EC68F05A0E296E9A0E2AB9
:10F2ED006E000E2B6E000E2D6E1F0E2C6E000E2F4F
:10F2FD006E000E2E6E020E306E020E96EC68F06DE4
:10F30D00C001F06EC002F0840E036EFF0E046E1B82
:10F31D00EC62F08C0E296E6DC02AF06EC02BF0FFE2
:10F32D000E2D6E2C68000E2F6E000E2E6E010E30FF
:10F33D006E010E96EC68F0950E296E7E0E2A6E000B
:10F34D000E2B6EFF0E2D6E2C68000E2F6E000E2EE6
:10F35D006E010E306E060E96EC68F0950E296E7CE1
:10F36D000E2A6E000E2B6EFF0E2D6E2C68000E2FCA
:10F37D006E000E2E6E010E306E200E96EC68F0951E
:10F38D000E296EA70E2A6E000E2B6EFF0E2D6E2C03
:10F39D0068000E2F6E000E2E6E010E306E3A0E9618
:10F3AD00EC68F0950E296EA50E2A6E000E2B6EFFE1
:10F3BD000E2D6E2C68000E2F6E000E2E6E010E306F
:10F3CD006E570E96EC68F0950E296EA30E2A6E0000
:10F3DD000E2B6EFF0E2D6E2C68000E2F6E000E2E56
:10F3ED006E010E306E700E96EC68F01200420E4EED
:10F3FD006E000E4F6E89EF7EF0250E6318D8B405A2
:10F40D00D06350EBEC60F089EF7EF0000E5D6E0086
:10F41D000E5C6E000E5B6E000E5A6E05D05A844067
:10F42D004A412A01D00BD040C0F6FF41C0F7FF087A
:10F43D0000F550300AD8B4F2D701D0F5D740C0F658
:10F44D00FF41C0F7FF0800F55060EC61F0D8A03522
:10F45D00D0000E5D6E000E5C6E00D05CC00FF05DD6
:10F46D00C010F0000E126E0A0E116E96EC61F00FC8
:10F47D00C05CF010C05DF0D00E456EFF0E466E40C4
:10F48D00C0F6FF41C0F7FF0800F550476E486A45CA
:10F49D005047264650482247505C2648505D224032
:10F4AD004A412A40C0F6FF41C0F7FF0800F5506001
:10F4BD00EC61F0D8A002D0D1D700D040C0F6FF410A
:10F4CD00C0F7FF0800F5502E0AD8A430D05B8C4051
:10F4DD004A412A000E626E000E616E1CD061C00F93
:10F4ED00F062C010F0000E126E0A0E116E96EC61F5
:10F4FD00F040C0F6FF41C0F7FF0800F5500F2600A1
:10F50D000E1022D00E0F24616EFF0E1020626E4081
:10F51D004A412A00D040C0F6FF41C0F7FF0800F570
:10F52D005060EC61F0D8A00DD0D9D70BD0000E6291
:10F53D006E000E616E5B8805D0F4D35B8413D0E250
:10F54D00D311D040C0F6FF41C0F7FF404A412A0811
:10F55D0000F5CF63F06350000AD8B4E3D3660AD840
:10F56D00B4ECD7D0D3070E5B14D8B423D35BA80566
:10F57D00D0000E626E060E616E00D04EC0D9FF4FE8
:10F58D00C0DAFFDECF5EF0DECF5FF0DDCF60F003DF
:10F59D000E4E26000E4F2260AE11D05EC001F05F00
:10F5AD00C002F060C003F071EC61F001C05EF002CA
:10F5BD00C05FF003C060F0030E5A1200D0000E5968
:10F5CD006E000E586E5E505F106010D8B485D082FC
:10F5DD000E456EFF0E466E5EC047F05FC048F06090
:10F5ED00C049F061C04AF0100E05D0D8904A32499A
:10F5FD003248324732E82EF9D747504524586E002D
:10F60D000E4620596E5806D8A0590658C00FF0590D
:10F61D00C010F0000E126E030E116E96EC61F00F1D
:10F62D00C058F010C059F058C007F059C008F0008C
:10F63D000E0A6E0A0E096E2CEC66F007C058F00823
:10F64D00C059F059AE04D05806D8A0590600D0586C
:10F65D005000087EEC74F024C054F025C055F026FF
:10F66D00C056F054C015F055C016F056C017F05ED8
:10F67D00C018F05FC019F060C01AF0D6EC6AF01532
:10F68D00C054F016C055F017C056F054C001F055D7
:10F69D00C002F056C003F0000E046E800E056E3FE2
:10F6AD000E066E77EC66F0D8B004D05806D8A05987
:10F6BD000613D054C001F055C002F056C003F0003F
:10F6CD000E046E200E056E410E066E77EC66F0D8B8
:10F6DD00A003D0584A592A00D062BE06D062501CF1
:10F6ED00E10D0E615CD8B018D05EC02EF05FC02F5A
:10F6FD00F060C030F06150ABEC71F024C031F025FA
:10F70D00C032F026C033F0DAEC6FF02EC05EF02F71
:10F71D00C05FF030C060F000D059BE06D059502007
:10F72D00E10A0E585CD8B01CD05E505F106010D846
:10F73D00B46DD05EC02BF05FC02CF060C02DF076A4
:10F74D00EC69F02B502C102D102E10D8B459BE5E34
:10F75D00D0595006E1020E585CD8B002D057D000F7
:10F76D00D054C001F055C002F056C003F0700E0425
:10F77D006E890E056E400E066E77EC66F0D8B002FF
:10F78D00D0F70E01D0F80E5826FF0E592200D05892
:10F79D00507EEC74F024C054F025C055F026C056B0
:10F7AD00F017D05EC001F05FC002F060C003F054EE
:10F7BD00C004F055C005F056C006F052EC6BF001D8
:10F7CD00C050F002C051F003C052F004C053F01706
:10F7DD00D05EC001F05FC002F060C003F054C00401
:10F7ED00F055C005F056C006F0D7EC6BF001C050D7
:10F7FD00F002C051F003C052F004C053F000D0002D
:10F80D000E5E6E000E5F6E000E606E33D05EC02B0E
:10F81D00F05FC02CF060C02DF076EC69F02BC0507D
:10F82D00F02CC051F02DC052F02EC053F05EC03AF6
:10F83D00F05FC03BF060C03CF050C009F051C00A11
:10F84D00F052C00BF053C00CF0D8EC63F009C03D82
:10F85D00F00AC03EF00BC03FF018EC63F03AC05E0A
:10F86D00F03BC05FF03CC060F0000E596E000E58CA
:10F87D006E00D0010E636E0A0E6318D8B41CD00151
:10F88D00D01AD06350040D0E0EF324F66EFF0EF455
:10F89D0020F76E0900F550505C0900F550515809DC
:10F8AD0000F55052580900F5505358D8A004D00116
:10F8BD00D002D0632AE0D763C045F0466A45BE4604
:10F8CD0006615045266250462258504526595046ED
:10F8DD002245505C5E46505D5A61506210D8B404AA
:10F8ED00D05C06D8A05D0600D0030E5A14456E00FC
:10F8FD000E5B14466E45504610D8B404D05C06D845
:10F90D00A05D0600D05AA426D0030E5A14456E00F1
:10F91D000E5B14466E45504610D8B40BD02D0EEB31
:10F92D00EC60F007D0300EEBEC60F05C06D8A05D1B
:10F93D000600D05DBE69D05D50F5E15C04D8A064D1
:10F94D00D0F1D762D007D0200EEBEC60F05C06D87A
:10F95D00A05D0600D05DBE05D05D50F5E15C04D81C
:10F96D00B0F2D7030E5A14456E000E5B14466E4569
:10F97D00504610D8B449D02D0EEBEC60F045D05068
:10F98D00C001F051C002F052C003F053C004F06347
:10F99D0050040D0E0EF324F66EFF0EF420F76E09D3
:10F9AD0000F5CF05F00900F5CF06F00900F5CF07FA
:10F9BD00F00A00F5CF08F0E6EC65F001C054F00256
:10F9CD00C055F003C056F004C057F054C001F055B7
:10F9DD00C002F056C003F057C004F00A0E056E00C9
:10F9ED000E066E000E076E000E086E6CEC64F001D4
:10F9FD00C054F002C055F003C056F004C057F05487
:10FA0D0050300FEBEC60F000D063066328D8B409DA
:10FA1D00D0B6D707D0300EEBEC60F05806D8A05911
:10FA2D000600D059BE05D05950F5E15804D8B0F2B2
:10FA3D00D762BE09D0625004E1090E615CD8A00303
:10FA4D00D0080E636E03D061C063F000D0635061C7
:10FA5D005E000E63BEFF0E625A6350D8B404D02E02
:10FA6D000EEBEC60F000D063507EEC74F024C04BD4
:10FA7D00F025C04CF026C04DF05EC018F05FC019E7
:10FA8D00F060C01AF04BC015F04CC016F04DC01709
:10FA9D00F0D6EC6AF015C02BF016C02CF017C02D67
:10FAAD00F076EC69F02BC050F02CC051F02DC05207
:10FABD00F02EC053F06BD050C001F051C002F05287
:10FACD00C003F053C004F06350040D0E0EF324F682
:10FADD006EFF0EF420F76E0900F5CF05F00900F565
:10FAED00CF06F00900F5CF07F00A00F5CF08F0E6D4
:10FAFD00EC65F001C054F002C055F003C056F0049F
:10FB0D00C057F054C001F055C002F056C003F05775
:10FB1D00C004F00A0E056E000E066E000E076E0094
:10FB2D000E086E6CEC64F001C054F002C055F00389
:10FB3D00C056F004C057F05450300FEBEC60F0504D
:10FB4D00C001F051C002F052C003F053C004F06385
:10FB5D0050040D0E0EF324F66EFF0EF420F76E0911
:10FB6D0000F5CF05F00900F5CF06F00900F5CF0738
:10FB7D00F00A00F5CF08F06CEC64F001C050F00213
:10FB8D00C051F003C052F004C053F000D0630663BF
:10FB9D0028D8B409D090D707D0300EEBEC60F061C7
:10FBAD0006D8A0620600D061506210D8B4ABD0F474
:10FBBD00D7A9D061506210D8A409D050505110521D
:10FBCD00105310D8A403D0614A622A00D0800E636E
:10FBDD00BE7F0E456E6150635C6250800A4558D8F9
:10FBED00B003D061C063F011D06250800A456E63DE
:10FBFD0050615C800E63BE7F0E4558D8B006D06351
:10FC0D0050616E626A61BE620600D05C505D10D8B4
:10FC1D00B40ED0030E5A14456E000E5B14466E459D
:10FC2D00504610D8B404D05C06D8A05D0600D05B59
:10FC3D00AC14D05C50615C6250800A456E5D5080A2
:10FC4D000A4558D8B005D061505C5E62505D5A05CA
:10FC5D00D0000E5D6E000E5C6E00D0800E63BE7F18
:10FC6D000E456E5C50635C5D50800A4558D8B007F8
:10FC7D00D063505C5E000E63BEFF0E5D5A05D00072
:10FC8D000E5D6E000E5C6E00D05AA41ED0030E5A8F
:10FC9D0014456E000E5B14466E45504610D8B404E4
:10FCAD00D02D0EEBEC60F000D05C505D10D8B42A76
:10FCBD00D0300EEBEC60F05C06D8A05D065C505DBC
:10FCCD0010D8B420D0F5D71ED05C505D10D8B40C30
:10FCDD00D0200EEBEC60F05C06D8A05D065C505DAC
:10FCED0010D8B402D0F5D700D0030E5A14456E00CB
:10FCFD000E5B14466E45504610D8B404D02D0EEB55
:10FD0D00EC60F000D040C0F6FF41C0F7FF404A4123
:10FD1D002A0800F5CF63F06350D8B403D003EF7A0F
:10FD2D00F000D0120000000000000000005F000095
:10FD3D000007000700147F147F14242A7F2A122342
:10FD4D001308646236495620500008070300001C52
:10FD5D002241000041221C002A1C7F1C2A08083E5B
:10FD6D00080800807030000808080808000060606E
:10FD7D000020100804023E5149453E00427F4000DC
:10FD8D0072494949462141494D331814127F1027B4
:10FD9D00454545393C4A4949314121110907364903
:10FDAD00494936464949291E0000140000004034D7
:10FDBD0000000008142241141414141400412214DC
:10FDCD000802015909063E415D594E7C1211127C03
:10FDDD007F494949363E414141227F4141413E7F64
:10FDED00494949417F090909013E414151737F0844
:10FDFD0008087F00417F41002040413F017F0814EA
:10FE0D0022417F404040407F021C027F7F0408104A
:10FE1D007F3E4141413E7F090909063E4151215E28
:10FE2D007F09192946264949493203017F01033FBC
:10FE3D004040403F1F2040201F3F4038403F63144B
:10FE4D0008146303047804036159494D43007F414D
:10FE5D0041410204081020004141417F040201028A
:10FE6D0004404040404000030708002054547840AF
:10FE7D007F284444383844444428384444287F3843
:10FE8D005454541800087E090218A4A49C787F08C5
:10FE9D0004047800447D40002040403D007F102840
:10FEAD00440000417F40007C047804787C08040401
:10FEBD00783844444438FC1824241818242418FC99
:10FECD007C08040408485454542404043F44243C3E
:10FEDD004040207C1C2040201C3C4030403C4428AD
:10FEED001028444C9090907C4464544C4400083647
:10FEFD0041000000770000004136080002010204B5
:10FF0D0002010000000A00000064000000E8030088
:10FF1D000010270000A086010040420F0080969837
:10FF2D000000E1F50500CA9A3B00803FCDCC3DD7DE
:10FF3D00233C12833AB7D138C62737388635C0D619
:10FF4D0033CC2B32708930E7DB2EE53C1E42A20DFF
:10FF5D0000803F00204100C842007A44401C4650BA
:10FF6D00C34724744997184BBCBE4C6B6E4E03159A
:10FF7D005079AD60F349714557502045574C542089
:10FF8D004E5350204E534C54204D44004543453361
:10FF9D003330314C2046616C6C2032322D533100A0
:10FFAD00766F6C7473206172652025302E33660D6B
:10FFBD000A0A004E4F5254482F534F55544800458E
:10FFCD004153542F57455354004E2F53204C54003A
:10FFDD00452F57204C54004D6F64653A0046523AF8
:10FFED000046533A00504E53005045570020002A0A
:02FFFD00000002
:020000040020DA
:08000000FFFFFFFFFFFFFFFF00
:020000040030CA
:0E000000FF08191EFF8281FF0FC00FE00F40A6
:00000001FF
