:0400000033EF15F0D5
:1010000000010000000A00000064000000E8030086
:101010000010270000A086010040420F0080969833
:101020000000E1F50500CA9A3B00803FCDCC3DD7DA
:10103000233C12833AB7D138C62737388635C0D615
:1010400033CC2B32708930E7DB2EE53C1E42A20DFB
:1010500000803F00204100C842007A44401C4650B6
:10106000C34724744997184BBCBE4C6B6E4E031596
:101070005079AD60F3497154686520766F6C746186
:10108000676520697320252E3366200D0A00000055
:10109000430E4F6E000E506E6CD3250E6218D8B4FE
:1010A00004D06250D8EC15F064D3000E526E000EDE
:1010B000516E41C0F6FF42C0F7FF0800F5502E0AFE
:1010C000D8A430D0528C414A422A000E5E6E000EE7
:1010D0005D6E1CD05DC00FF05EC010F0000E126E91
:1010E0000A0E116E48EC15F041C0F6FF42C0F7FF42
:1010F0000800F5500F26000E1022D00E0F245D6E52
:10110000FF0E10205E6E414A422A00D041C0F6FF19
:1011100042C0F7FF0800F550A6EC15F0D8A00DD09E
:10112000D9D70BD0000E5E6E000E5D6E528805D0D2
:101130002ED3528413D01DD311D041C0F6FF42C02C
:10114000F7FF414A422A0800F5CF62F06250000AD8
:10115000D8B41DD3660AD8B4ECD70BD3070E5214FB
:10116000D8B4CDD252A805D0000E5E6E060E5D6ECC
:1011700000D04FC0D9FF50C0DAFFDECF5FF0DECF26
:1011800060F0DDCF61F0030E4F26000E502261AEFD
:1011900011D05FC00DF060C00EF061C00FF082ECA6
:1011A00015F00DC05FF00EC060F00FC061F0030ECF
:1011B000511200D0000E586E000E576E5F50601036
:1011C0006110D8B485D0820E466EFF0E476E5FC0A8
:1011D00048F060C049F061C04AF062C04BF0100EA8
:1011E00005D0D8904B324A3249324832E82EF9D7EE
:1011F00048504624576E000E4720586E5706D8A018
:10120000580657C00FF058C010F0000E126E030EB3
:10121000116E48EC15F00FC057F010C058F057C0D1
:1012200007F058C008F0000E0A6E0A0E096E17EC9F
:1012300013F007C057F008C058F058AE04D0570656
:10124000D8A0580600D057500008C8EC0BF02BC0AF
:1012500059F02CC05AF02DC05BF059C01CF05AC098
:101260001DF05BC01EF05FC01FF060C020F061C0C9
:1012700021F054EC11F01CC059F01DC05AF01EC0F2
:101280005BF059C001F05AC002F05BC003F0000EE1
:10129000046E800E056E3F0E066E62EC13F0D8B041
:1012A00004D05706D8A0580613D059C001F05AC030
:1012B00002F05BC003F0000E046E200E056E410EBE
:1012C000066E62EC13F0D8A003D0574A582A00D01B
:1012D0005EBE06D05E501CE10D0E5D5CD8B018D02D
:1012E0005FC010F060C011F061C012F05D50B8EC4A
:1012F0000DF02BC013F02CC014F02DC015F0DAEC5B
:101300000EF010C05FF011C060F012C061F000D0AC
:1013100058BE06D0585020E10A0E575CD8B01CD0F9
:101320005F5060106110D8B46DD05FC032F060C003
:1013300033F061C034F0D0EC11F03250331034107F
:101340003510D8B458BE5ED0585006E1020E575C36
:10135000D8B002D057D000D059C001F05AC002F026
:101360005BC003F0700E046E890E056E400E066EB3
:1013700062EC13F0D8B002D0F70E01D0F80E572669
:10138000FF0E582200D05750C8EC0BF02BC059F07C
:101390002CC05AF02DC05BF017D05FC001F060C0C8
:1013A00002F061C003F059C004F05AC005F05BC000
:1013B00006F0CFEC10F001C053F002C054F003C0AF
:1013C00055F004C056F017D05FC001F060C002F0C5
:1013D00061C003F059C004F05AC005F05BC006F0CC
:1013E00047EC10F001C053F002C054F003C055F0B8
:1013F00004C056F000D0000E5F6E000E606E000E4E
:10140000616E33D05FC032F060C033F061C034F041
:10141000D0EC11F032C053F033C054F034C055F06A
:1014200035C056F05FC01CF060C01DF061C01EF0FA
:1014300053C009F054C00AF055C00BF056C00CF070
:10144000A4EC14F009C01FF00AC020F00BC021F07A
:10145000D4EC14F01CC05FF01DC060F01EC061F041
:10146000000E586E000E576E00D0010E626E0A0E0E
:101470006218D8B41CD001D01AD06250040D010EED
:10148000F324F66E100EF420F76E0900F550535C4D
:101490000900F55054580900F55055580900F55009
:1014A0005658D8A004D001D002D0622AE0D7030E4B
:1014B0005114466E000E5214476E46504710D8B471
:1014C00049D02D0ED8EC15F045D053C001F054C0D2
:1014D00002F055C003F056C004F06250040D010E36
:1014E000F324F66E100EF420F76E0900F5CF05F028
:1014F0000900F5CF06F00900F5CF07F00A00F5CF97
:1015000008F0ADEC13F001C059F002C05AF003C06E
:101510005BF004C05CF059C001F05AC002F05BC03F
:1015200003F05CC004F00A0E056E000E066E000E9D
:10153000076E000E086E34EC14F001C059F002C0C2
:101540005AF003C05BF004C05CF05950300FD8EC87
:1015500015F000D062066228D8B409D0B6D707D0FB
:10156000300ED8EC15F05706D8A0580600D058BE5B
:1015700005D05850F5E15704D8B0F2D75EBE09D077
:101580005E5004E1090E5D5CD8A003D0080E626EC7
:1015900003D05DC062F000D062505D5E000E62BE9E
:1015A000FF0E5E5A6250D8B404D02E0ED8EC15F05F
:1015B00000D06250C8EC0BF02BC04CF02CC04DF0AA
:1015C0002DC04EF05FC01FF060C020F061C021F060
:1015D0004CC01CF04DC01DF04EC01EF054EC11F07C
:1015E0001CC032F01DC033F01EC034F0D0EC11F03E
:1015F00032C053F033C054F034C055F035C056F00B
:101600006BD053C001F054C002F055C003F056C077
:1016100004F06250040D010EF324F66E100EF42057
:10162000F76E0900F5CF05F00900F5CF06F00900C7
:10163000F5CF07F00A00F5CF08F0ADEC13F001C0CC
:1016400059F002C05AF003C05BF004C05CF059C00E
:1016500001F05AC002F05BC003F05CC004F00A0E57
:10166000056E000E066E000E076E000E086E34EC5E
:1016700014F001C059F002C05AF003C05BF004C07E
:101680005CF05950300FD8EC15F053C001F054C045
:1016900002F055C003F056C004F06250040D010E74
:1016A000F324F66E100EF420F76E0900F5CF05F066
:1016B0000900F5CF06F00900F5CF07F00A00F5CFD5
:1016C00008F034EC14F001C053F002C054F003C031
:1016D00055F004C056F000D062066228D8B409D094
:1016E00090D707D0300ED8EC15F05D06D8A05E0676
:1016F00000D05D505E10D8B43CD0F4D73AD05D50E5
:101700005E10D8A409D05350541055105610D8A4C8
:1017100003D05D4A5E2A00D0800E62BE7F0E466E08
:101720005D50625C5E50800A4658D8B003D05DC000
:1017300062F011D05E50800A466E62505D5C800E91
:1017400062BE7F0E4658D8B006D062505D6E5E6AAB
:101750005DBE5E0600D0030E5114466E000E52149C
:10176000476E46504710D8B404D02D0ED8EC15F073
:1017700000D041C0F6FF42C0F7FF414A422A0800AC
:10178000F5CF62F06250D8B402D087D400D01200F6
:10179000316E31AEEFD0316C3150800A120FD8A0CB
:1017A0008DD0000E126E030E116E000E0A6E0A0E20
:1017B000096E000E046E640E036E3150016E026AF3
:1017C00001BE0206F3EC13F001C007F002C008F0FE
:1017D00017EC13F0090E07240F6E000E0820106E90
:1017E00048EC15F0290E0F24F66E100E1020F76E3F
:1017F0000900F5CF1FF00900F5CF20F00A00F5CF62
:1018000021F0000E0A6E640E096E3150076E086AF0
:1018100007BE080617EC13F0120E07240F6E000E19
:101820000820106E000E126E030E116E48EC15F0BB
:10183000290E0F24F66E100E1020F76E0900F5CF5A
:101840001CF00900F5CF1DF00A00F5CF1EF054EC96
:1018500011F01CC02EF01DC02FF01EC030F02EC0A5
:101860001CF02FC01DF030C01EF0000E126E030ED3
:10187000116E000E046E0A0E036E3150016E026A84
:1018800001BE0206F3EC13F001C00FF002C010F02D
:1018900048EC15F0290E0F24F66E100E1020F76E8E
:1018A0000900F5CF1FF00900F5CF20F00A00F5CFB1
:1018B00021F054EC11F041D15AD154D03150800A6A
:1018C000750FD8A04FD0000E0A6E0A0E096E315067
:1018D000076E086A07BE080617EC13F0090E072406
:1018E0000F6E000E0820106E000E126E030E116EA9
:1018F00048EC15F0290E0F24F66E100E1020F76E2E
:101900000900F5CF1CF00900F5CF1DF00A00F5CF56
:101910001EF0000E126E030E116E000E046E0A0E03
:10192000036E3150016E026A01BE0206F3EC13F041
:1019300001C00FF002C010F048EC15F0290E0F2482
:10194000F66E100E1020F76E0900F5CF1FF009009B
:10195000F5CF20F00A00F5CF21F054EC11F0EDD0D6
:1019600006D100D03150030D290EF324F66E100E6F
:10197000F2D0FDD03150800A120FD8A08DD0000EC9
:10198000126E030E116E000E0A6E0A0E096E000E24
:10199000046E640E036E3150016E026A01BE0206CF
:1019A000F3EC13F001C007F002C008F017EC13F0DD
:1019B000090E07240F6E000E0820106E48EC15F07B
:1019C000500E0F24F66E100E1020F76E0900F5CFA2
:1019D0001FF00900F5CF20F00A00F5CF21F0000E2E
:1019E0000A6E640E096E3150076E086A07BE08065B
:1019F00017EC13F0120E07240F6E000E0820106E65
:101A0000000E126E030E116E48EC15F0500E0F24EE
:101A1000F66E100E1020F76E0900F5CF1CF00900CD
:101A2000F5CF1DF00A00F5CF1EF054EC11F01CC0EC
:101A30002EF01DC02FF01EC030F02EC01CF02FC0A5
:101A40001DF030C01EF0000E126E030E116E000E5F
:101A5000046E0A0E036E3150016E026A01BE020668
:101A6000F3EC13F001C00FF002C010F048EC15F0D9
:101A7000500E0F24F66E100E1020F76E0900F5CFF1
:101A80001FF00900F5CF20F00A00F5CF21F054EC4B
:101A900011F053D06CD059D03150800A750FD8A0B6
:101AA00054D0000E0A6E0A0E096E3150076E086A95
:101AB00007BE080617EC13F0090E07240F6E000E80
:101AC0000820106E000E126E030E116E48EC15F019
:101AD000500E0F24F66E100E1020F76E0900F5CF91
:101AE0001CF00900F5CF1DF00A00F5CF1EF0000E26
:101AF000126E030E116E000E046E0A0E036E31504C
:101B0000016E026A01BE0206F3EC13F001C00FF091
:101B100002C010F048EC15F0500E0F24F66E100EB7
:101B20001020F76E0900F5CF1FF00900F5CF20F067
:101B30000A00F5CF21F054EC11F01CC02BF01DC0B1
:101B40002CF01EC02DF013D000D03150030D500EDC
:101B5000F324F66E100EF420F76E0900F5CF2BF08B
:101B60000900F5CF2CF00A00F5CF2DF000D01200BF
:101B7000346E6D0E34649BD0000E126E030E116E27
:101B8000000E0A6E0A0E096E000E046E640E036EDD
:101B900034C001F0026AF3EC13F001C007F002C098
:101BA00008F017EC13F0090E07240F6E000E082042
:101BB000106E48EC15F0290E0F24F66E100E102052
:101BC000F76E0900F5CF1FF00900F5CF20F00A00ED
:101BD000F5CF21F0000E0A6E640E096E34C007F0D6
:101BE000086A17EC13F0120E07240F6E000E08207F
:101BF000106E000E126E030E116E48EC15F0290ED9
:101C00000F24F66E100E1020F76E0900F5CF1CF0B1
:101C10000900F5CF1DF00A00F5CF1EF054EC11F0CD
:101C20001CC031F01DC032F01EC033F0000E126E29
:101C3000030E116E000E046E0A0E036E34C001F026
:101C4000026AF3EC13F001C00FF002C010F048EC90
:101C500015F0290E0F24F66E100E1020F76E0900F5
:101C6000F5CF1FF00900F5CF20F00A00F5CF21F0E5
:101C700031C01CF032C01DF033C01EF054EC11F026
:101C80001CC02EF01DC02FF01EC030F02EC01CF066
:101C90002FC01DF030C01EF0000E1F6E000E206E13
:101CA0003F0E216E54EC11F07DD083D062D00A0E2D
:101CB00034645FD0000E126E030E116E000E046EBF
:101CC0000A0E036E34C001F0026AF3EC13F001C097
:101CD0000FF002C010F048EC15F0290E0F24F66E3C
:101CE000100E1020F76E0900F5CF1FF00900F5CF98
:101CF00020F00A00F5CF21F0000E0A6E0A0E096EE0
:101D000034C007F0086A17EC13F0090E07240F6EB1
:101D1000000E0820106E000E126E030E116E48ECBD
:101D200015F0290E0F24F66E100E1020F76E090024
:101D3000F5CF1CF00900F5CF1DF00A00F5CF1EF01D
:101D400054EC11F01CC031F01DC032F01EC033F055
:101D500031C01CF032C01DF033C01EF0000E1F6EEB
:101D6000000E206E3F0E216E54EC11F01BD021D0DE
:101D700000D03450030D290EF324F66E100EF4201B
:101D8000F76E0900F5CF1CF00900F5CF1DF00A0031
:101D9000F5CF1EF0000E1F6E000E206E3F0E216E5E
:101DA00054EC11F01CC02BF01DC02CF01EC02DF007
:101DB00000D0120012C016F0176A186A11341636D5
:101DC00001E3178016501B6E15C016F0176A186ACB
:101DD0001434163601E3178016501A6E1B50D8B40F
:101DE0000BD01A501B5CD8B00ED01B5000081A2420
:101DF000166E180E166407D013C010F014C011F040
:101E000015C012F0B8D01A50D8B40BD01B501A5CC1
:101E1000D8B00ED01A5000081B24166E180E166487
:101E200007D010C010F011C011F012C012F0A3D0F2
:101E3000060E196E12AE02D0198E00D015BE198C86
:101E4000118EFF0E1016FF0E1116000E1216148EB4
:101E5000FF0E1316FF0E1416000E15161A501B5CFB
:101E6000D8B01ED0D8901336143615361A061B502B
:101E70001A18D8B40FD0190619C016F0070E161686
:101E8000D8B408D0EFD706D0D89012321132103221
:101E90001B2A00D01A501B18D8B424D0F5D722D052
:101EA0001B501A5CD8B01ED0D8901036113612369E
:101EB0001B061B501A18D8B40FD0190619C016F0FB
:101EC000070E1616D8B408D0EFD706D0D890153222
:101ED000143213321A2A00D01A501B18D8B402D068
:101EE000F5D700D019AE0CD0FF0E101AFF0E111A44
:101EF000FF0E121A010E1026000E1122000E1222E1
:101F000019AC0DD0FF0E131AFF0E141AFF0E151A7E
:101F1000010E1326000E1422000E152200D0000E12
:101F2000196E10501326115014221250152215AE9E
:101F30000FD0FF0E131AFF0E141AFF0E151A010E02
:101F40001326000E1422000E1522010E196E00D069
:101F500013C001F014C002F015C003F01BC004F060
:101F600019C005F0B4EC12F001C010F002C011F07D
:101F700003C012F000D01200CEEC15F0EAEC15F020
:101F8000C3EC15F000D0000EDFEC15F06FEC15F08F
:101F900001C063F002C064F0000E1F6E800E206E60
:101FA000400E216E63C009F064C00AF015EC15F014
:101FB00009C01CF00AC01DF00BC01EF054EC11F05B
:101FC0001CC02BF01DC02CF01EC02DF0000E2E6E7C
:101FD0007A0E2F6E440E306E43EC12F02BC067F079
:101FE0002CC068F02DC069F067C032F068C033F0D3
:101FF00069C034F0D0EC11F03250666E000E1F6EE6
:10200000200E206E410E216E67C013F068C014F0E0
:1020100069C015F066505CEC15F009C00DF00AC0FF
:102020000EF00BC00FF082EC15F00DC010F00EC0DA
:1020300011F00FC012F0DAEC0EF010C01CF011C05D
:102040001DF012C01EF054EC11F01CC032F01DC087
:1020500033F01EC034F0D0EC11F03250656E770EC4
:10206000416E100E426E67C043F068C044F069C014
:1020700045F048EC08F06650F6EC14F06550B7EC0B
:1020800015F0839E94EC15F07ED700EF00F003C0AE
:1020900007F0086A096A0234073601E3088007502E
:1020A0000F6E0F50D8A402D05DD078D006C007F0D4
:1020B000086A096A0534073601E3088007500E6E86
:1020C0000E50D8A402D04ED069D0028EFF0E011659
:1020D000FF0E0216000E0316058EFF0E0416FF0EED
:1020E0000516000E0616000E0A6E000E0B6E000E90
:1020F0000C6E000E0D6E7F0E0F5E0E50980F0F5E71
:10210000180E0E6ED8900A360B360C360D3604506B
:10211000015C0550025806500358D8A007D004505F
:10212000015E0550025A0650035A0A80D8900136C3
:10213000023603360E2EE6D700D00FAE10D00F5069
:10214000800A970FD8B003D00DD028D000D0D890F7
:102150000D320C320B320A320F3EF9D717D0170E60
:102160000F6411D0000E016E000E026E000E036EA1
:10217000000E046E13D007D0D8900A360B360C36FA
:102180000D360F0600D00F50D8A4F6D70AC001F0C4
:102190000BC002F00CC003F00DC004F012000334B9
:1021A00004340C6E0C50D8A402D061D07CD006341C
:1021B00007340B6E0B50D8A402D059D074D0038EC4
:1021C000FF0E0116FF0E0216FF0E0316000E041678
:1021D000068EFF0E0416FF0E0516FF0E0616000EE5
:1021E0000716000E076E000E086E000E096E000E38
:1021F0000A6E7F0E0C5E0B50A00F0C5E200E0B6E55
:1022000000D0D8900736083609360A360450015CEB
:10221000055002580650035807500458D8A00AD059
:102220000450015E0550025A0650035A0750045AE2
:10223000078000D0D89001360236033604360B2EC4
:10224000E0D700D00CAE10D00C50800A9F0FD8B051
:1022500003D00DD028D000D0D8900A3209320832ED
:1022600007320C3EF9D717D01F0E0C6411D0000EA8
:10227000016E000E026E000E036E000E046E13D08F
:1022800007D0D8900736083609360A360C0600D033
:102290000C50D8A4F6D707C001F008C002F009C05E
:1022A00003F00AC004F012001EC022F0236A246A60
:1022B0001D34223601E323802250256E2550D8A4F8
:1022C00002D00ED06CD021C022F0236A246A2034C0
:1022D000223601E3238022502A6E2A50D8A407D048
:1022E000000E1C6E000E1D6E000E1E6E58D02A5081
:1022F0007B0F25261EC02AF021502A1A800E2A168E
:102300001D8E208EFF0E1F16FF0E2016000E2116AA
:10231000000E266E000E276E000E286E070E296E28
:1023200000D01CA007D01F50262620502722215065
:10233000282200D0D8901E321D321C32D8901F3671
:1023400020362136292EEDD700D0090E296E00D077
:102350001CA007D01F5026262050272221502822BB
:1023600000D0D8901E321D321C32D890283227322D
:102370002632292EEDD700D026C001F027C002F06A
:1023800028C003F025C004F02AC005F0B4EC12F018
:1023900001C01CF002C01DF003C01EF000D01200EE
:1023A00034C036F0376A386A3334363601E3378062
:1023B0003650406E4050D8A402D039D063D0170EAA
:1023C000366E32C037F033C038F034C039F03628BA
:1023D0003A6E04D0D8903932383237323A2EFAD7A2
:1023E00037503B6E338EFF0E3216FF0E3316000E43
:1023F000341632503C6E33503D6E34503E6E3F6A60
:102400008E0E405E40AE10D04050800A8F0FD8B084
:1024100003D00DD037D000D0D8903F323E323D327D
:102420003C32403EF9D719D0170E406411D0000E4F
:10243000326E000E336E000E346E000E356E22D0FA
:1024400007D0D8903C363D363E363F36400600D069
:102450004050D8B402D0F5D700D03B50D8B409D002
:102460003F1E3E1E3D1E3C6C000E3D223E223F2282
:1024700000D03CC032F03DC033F03EC034F03FC02D
:1024800035F000D012002DC031F0326A336A2C349E
:10249000313601E332803150386E3850D8A402D042
:1024A0000ED061D030C031F0326A336A2F34313609
:1024B00001E332803150396E3950D8A407D0000E74
:1024C0002B6E000E2C6E000E2D6E4DD0000E356E54
:1024D000000E366E000E376E3950890F385E2DC0F3
:1024E00039F03050391A800E39162C8EFF0E2B160B
:1024F000FF0E2C16000E2D162F8EFF0E2E16FF0E21
:102500002F16000E3016180E346E00D0D8903536C7
:10251000363637362E502B5C2F502C5830502D58D5
:10252000D8A007D02E502B5E2F502C5A30502D5A49
:102530003580D8902B362C362D36342EE7D700D068
:1025400035C001F036C002F037C003F038C004F0E7
:1025500039C005F0B4EC12F001C02BF002C02CF031
:1025600003C02DF000D012000450D8B405D00150A3
:1025700002100310D8A40ED0000E016E000E026EE1
:10258000000E036E53D006D0042AD89003320232D4
:10259000013200D0000E0114066E000E0214076E08
:1025A000FE0E0314086E065007100810D8B40ED0A3
:1025B000EBD70CD0042A010E0126000E0222000ED9
:1025C0000322D89003320232013200D0000E0114EF
:1025D000066E000E0214076EFF0E0314086E0650FE
:1025E00007100810D8B408D0E5D706D00406D89054
:1025F00001360236033600D002BE04D0020E04605B
:10260000F5D700D004B002D0029E00D0D89004329A
:10261000045003120550D8B402D0038E00D001C07C
:1026200001F002C002F003C003F000D01200000E5F
:102630000C6E0AAE07D0096C0A1ED8B00A2A010E29
:102640000C6E00D008AE07D0076C081ED8B0082A60
:10265000010E0C1A00D0000E0E6E000E0D6E095009
:102660000A10D8B421D0010E0B6E05D0D8900936CF
:102670000A360B2A00D00ABE02D0F8D700D0D89074
:102680000D360E360950075C0A500858D8A006D0FF
:102690000950075E0A50085A0D8000D0D8900A32BF
:1026A00009320B2EECD700D00C50D8B405D00D6CED
:1026B0000E1ED8B00E2A00D00DC007F00EC008F0D4
:1026C00000D0120003AE17D001C007F002C008F01E
:1026D00003C009F0071E081E091E072A000E082263
:1026E0000922000E0724016E000E0820026E800EE3
:1026F0000920036E00D006AE17D004C007F005C055
:1027000008F006C009F0071E081E091E072A000E61
:1027100008220922000E0724046E000E0820056E10
:10272000800E0920066E00D0000E011A000E021A5B
:10273000800E031A000E041A000E051A800E061AE7
:102740000450015C0550025806500358D8B002D01E
:10275000D89002D0D88000D01200000E096E000E72
:102760000A6E000E0B6E000E0C6E05500610071060
:102770000810D8B42FD0010E0D6E07D0D8900536B2
:102780000636073608360D2A00D008BE02D0F6D726
:1027900000D0D89009360A360B360C360550015C4D
:1027A000065002580750035808500458D8A00AD0C1
:1027B0000550015E0650025A0750035A0850045A49
:1027C000098000D0D89008320732063205320D2E2B
:1027D000E0D700D009C001F00AC002F00BC003F03E
:1027E0000CC004F01200000E066E02AE07D0016CA1
:1027F000021ED8B0022A010E066E00D004AE05D02B
:10280000036C041ED8B0042A00D003500410D8B4BE
:102810001DD0010E056E05D0D89003360436052A6A
:1028200000D004BE02D0F8D700D00350015C0450A1
:102830000258D8A005D00350015E0450025A00D0BF
:10284000D89004320332052EF0D700D00650D8B409
:1028500005D0016C021ED8B0022A00D001C001F0E0
:1028600002C002F000D01200055006100710081038
:10287000D8B429D0010E096E07D0D8900536063697
:1028800007360836092A00D008BE02D0F6D700D095
:102890000550015C06500258075003580850045870
:1028A000D8A009D00550015E0650025A0750035ABD
:1028B0000850045A00D0D890083207320632053248
:1028C000092EE6D700D001C001F002C002F003C01B
:1028D00003F004C004F01200036E000EAC6E000E94
:1028E000AB6E03A002D0AC8800D003A203D0AC8CA6
:1028F000AB8C00D003A402D0AC8E00D003A602D0D3
:10290000AB8802D0AB8A00D003B8AC849E9803AAEF
:1029100002D0AB8600D003AC02D09D8A01D09D9A34
:102920009E9A03AE02D09D8801D09D9801C0AFFF52
:102930000250B06EAC8AAB8E949C948EACB8ACBE98
:1029400002D0948C00D012008E0E116E07D0D89059
:102950000C320B320A320932112A00D0000E09144F
:102960000D6E000E0A140E6E000E0B140F6EFF0E8D
:102970000C14106E0D500E100F101010D8A4E7D7C5
:1029800009C001F00AC002F00BC003F011C004F04E
:10299000000E056EB4EC12F001C009F002C00AF09E
:1029A00003C00BF000D012001F5020102110D8B42B
:1029B00007D0000E1F1A000E201A800E211A00D018
:1029C0001CC010F01DC011F01EC012F01FC013F08B
:1029D00020C014F021C015F0DAEC0EF010C01CF08D
:1029E00011C01DF012C01EF000D01200026E025085
:1029F000010D6A0EF324D96E000EF420DA6EDF505A
:102A00003F0B826E0250010D6A0EF324D96E000E48
:102A1000F420DA6EDF50400B016E0150D8A402D0D2
:102A2000849002D0848000D01200000E0C6E0AAE9A
:102A300007D0096C0A1ED8B00A2A010E0C6E00D00D
:102A400009C001F00AC002F0036A8E0E046E0CC0C9
:102A500005F0B4EC12F001C009F002C00AF003C0A6
:102A60000BF000D01200CA0EF66E2B0EF76E000EA1
:102A7000F86E00EE6AF010EE0AF00900F5CFEEFFF6
:102A8000E550E150FAE1000EF86E0001BCEF0FF0E6
:102A90000F501102F3CF13F0F4CF14F00F501202C5
:102AA000F350142610501102F350142613C00FF0E7
:102AB00014C010F000D012000C6E0C50016E026AAF
:102AC000036A8E0E046E000E056EB4EC12F001C0A7
:102AD00009F002C00AF003C00BF000D01200C2825D
:102AE00000D0C2B2FED7C450046E036AC3500324A0
:102AF000056E000E0420066E05C001F006C002F04F
:102B000000D012000D500E100F10D8B406D0000ED9
:102B10000D1A000E0E1A800E0F1A0DC00DF00EC009
:102B20000EF00FC00FF01200000E026E000E016ECC
:102B300002BE08D0680E015C420E0258D8B005D023
:102B400001D003D0014A022AF3D71200036E000E0F
:102B5000026E3A0E036006D02F0E036403D0010EFE
:102B6000026E00D002C001F0013000D01200016EF0
:102B70000150010D6A0EF324D96E000EF420DA6EB6
:102B8000DF50836E12003F0E926E000E936E000EA9
:102B9000946E000E956E000E966E1200000E026E80
:102BA000190E016E3C0E6CEC14F0600ED36E120028
:102BB000016E00D0ACA2FED701C0ADFF1200016EC5
:102BC0000150040DF328C26E12004079243019120E
:0E2BD000027800101A0EC16EA90EC06E12001F
:020000040020DA
:08000000FFFFFFFFFFFFFFFF00
:020000040030CA
:0E000000FF08191EFF8381FF0FC00FE00F40A5
:00000001FF
