:040000007CEF0EF093
:1010000000010000000A00000064000000E8030086
:101010000010270000A086010040420F0080969833
:101020000000E1F50500CA9A3B54686520526573DB
:10103000697374616E636520697320256C690D0A9C
:101040000A0A0000600ED36E000E816E826883680B
:1010500084680AEC0FF0E7EC0EF0DCEC0EF0020E08
:1010600011EC0FF000D091EC0EF001C034F002C092
:1010700035F034C029F035C02AF0D89029362A3608
:10108000D89029362A3629C009F02AC00AF05EEC29
:101090000EF009C00DF00AC00EF00BC00FF0000EEC
:1010A000106E7A0E116E440E126EE7EC0BF00DC04E
:1010B00036F00EC037F00FC038F036C001F037C040
:1010C00002F038C003F0A4EC0EF001C009F002C039
:1010D0000AF003C00BF0120E0C6E830E0D6E400E64
:1010E0000E6E92EC0AF009C02BF00AC02CF00BC077
:1010F0002DF02BC00DF02CC00EF02DC00FF0980E6F
:10110000106E190E116E460E126EE7EC0BF00DC04C
:101110002EF00EC02FF00FC030F036C00DF037C0EB
:101120000EF038C00FF02EC010F02FC011F030C0FC
:1011300012F0E7EC0BF00DC031F00EC032F00FC032
:1011400033F031C001F032C002F033C003F074EC70
:101150000BF001C039F002C03AF003C03BF004C00C
:101160003CF03CBE09D03C503B1047E1100E395CCE
:10117000270E3A58D8B041D039C001F03AC002F039
:101180003BC003F03CC004F0E80E056E030E066E93
:10119000000E076E000E086E58EC0CF001503FEC8C
:1011A0000EF0640E056E000E066E000E076E000E49
:1011B000086E39C001F03AC002F03BC003F03CC0F9
:1011C00004F058EC0CF001C00FF002C010F003C0A6
:1011D00011F004C012F00A0E136E000E146E000E11
:1011E000156E000E166E2AEC0DF00F50C3EC0EF0CB
:1011F000010ED0EC0EF0000E64D03CBE0AD03C5084
:1012000062E1A00E395C860E3A58010E3B58D8B008
:101210005AD039C001F03AC002F03BC003F03CC0E4
:1012200004F0100E056E270E066E000E076E000EFF
:10123000086E58EC0CF001503FEC0EF0E80E056E15
:10124000030E066E000E076E000E086E39C001F028
:101250003AC002F03BC003F03CC004F058EC0CF084
:1012600001C00FF002C010F003C011F004C012F072
:101270000A0E136E000E146E000E156E000E166E22
:101280002AEC0DF00F50C3EC0EF0000ED0EC0EF077
:1012900039C001F03AC002F03BC003F03CC004F09A
:1012A000100E056E270E066E000E076E000E086EFD
:1012B00058EC0CF0470E0124D96E000E0220DA6EB5
:1012C000DF50816E00D03CBE0DD03C5008E1710E65
:1012D000395C110E3A58010E3B58D8A003D04EC0CD
:1012E00081FF00D03CBE13D03C5008E1A10E395C18
:1012F000860E3A58010E3B58D8A009D0000E3FEC9C
:101300000EF0470E836E838E4EC081FF00D03CBE30
:1013100008D03C503B103A1009E1460E395CD8B079
:1013200005D0FAEC0EF01BEC0FF003D017EC0FF029
:1013300000D0290E176E100E186E39C019F03AC081
:101340001AF03BC01BF03CC01CF0ACEC09F0B6EC52
:101350000EF089D600EF00F0190E216E000E226EFD
:10136000D2D0250E2818D8B404D0285003EC0FF0A2
:10137000CAD0000E236E06D0D4D0238803D019D053
:10138000C2D017D017C0F6FF18C0F7FF174A182AA7
:101390000800F5CF28F02850000AD8B4C2D0640A5B
:1013A000D8B407D00D0AD8B404D0050AD8B4E5D70C
:1013B000AAD023A80ED021C0D9FF22C0DAFFDECFE9
:1013C00024F0DECF25F0DECF26F0DECF27F0040EAE
:1013D0000ED021C0D9FF22C0DAFFDECF24F0DDCF4E
:1013E00025F0000E25BEFF0E266E276E020E21266A
:1013F000000E222200D027AE0BD0030E2312271E90
:10140000261E251E246C000E25222622272200D00F
:10141000010E286E0A0E2818D8B41CD001D01AD09C
:101420002850040D010EF324F66E100EF420F76E12
:101430000900F550245C0900F55025580900F550C5
:1014400026580900F5502758D8A004D001D002D062
:10145000282AE0D723C01DF0030E1D16D8B404D0EF
:101460002D0E03EC0FF000D028501F6E206A1FBE17
:1014700020063FD01FC01DF020C01EF0D8901D36A2
:101480001E36D8901D361E36010E1D24F66E100E27
:101490001E20F76E0900F5CF05F00900F5CF06F024
:1014A0000900F5CF07F00A00F5CF08F024C001F0DD
:1014B00025C002F026C003F027C004F089EC0DF02F
:1014C00001C00EF002C00FF003C010F004C011F014
:1014D0000A0E126E000E136E000E146E000E156EC4
:1014E000CFEC0DF00E50300F286E285003EC0FF0AB
:1014F00000D01F06D8A020061F28BCE12028D8B4A1
:1015000002D0B8D700D017C0F6FF18C0F7FF174AAF
:10151000182A0800F5CF28F02850D8B402D021D7D7
:1015200000D012000BC00FF0106A116A0A340F3697
:1015300001E310800F50146E0EC00FF0106A116A94
:101540000D340F3601E310800F50136E1450D8B4D1
:101550000BD01350145CD8B00ED0145000081324D4
:101560000F6E180E0F6407D00CC009F00DC00AF002
:101570000EC00BF0B8D01350D8B40BD01450135C7D
:10158000D8B00ED01350000814240F6E180E0F643C
:1015900007D009C009F00AC00AF00BC00BF0A3D0B5
:1015A000060E126E0BAE02D0128E00D00EBE128C42
:1015B0000A8EFF0E0916FF0E0A16000E0B160D8E70
:1015C000FF0E0C16FF0E0D16000E0E161350145CB7
:1015D000D8B01ED0D8900C360D360E3613061450E7
:1015E0001318D8B40FD0120612C00FF0070E0F1642
:1015F000D8B408D0EFD706D0D8900B320A320932CF
:10160000142A00D013501418D8B424D0F5D722D0FF
:101610001450135CD8B01ED0D89009360A360B3659
:10162000140614501318D8B40FD0120612C00FF0BD
:10163000070E0F16D8B408D0EFD706D0D8900E32C8
:101640000D320C32132A00D013501418D8B402D023
:10165000F5D700D012AE0CD0FF0E091AFF0E0A1AF1
:10166000FF0E0B1A010E0926000E0A22000E0B2295
:1016700012AC0DD0FF0E0C1AFF0E0D1AFF0E0E1A33
:10168000010E0C26000E0D22000E0E2200D0000EC0
:10169000126E09500C260A500D220B500E220EAE6F
:1016A0000FD0FF0E0C1AFF0E0D1AFF0E0E1A010EB0
:1016B0000C26000E0D22000E0E22010E126E00D01E
:1016C0000CC001F00DC002F00EC003F014C004F015
:1016D00012C005F0C7EC0CF001C009F002C00AF01E
:1016E00003C00BF000D0120003C005F0066A076AC1
:1016F0000234053601E3068005500F6E0F50D8A462
:1017000002D039D063D0170E056E01C006F002C0BA
:1017100007F003C008F00528096E04D0D8900832FD
:1017200007320632092EFAD706500A6E028EFF0ED5
:101730000116FF0E0216000E031601500B6E02502A
:101740000C6E03500D6E0E6A8E0E0F5E0FAE10D033
:101750000F50800A8F0FD8B003D00DD037D000D0F3
:10176000D8900E320D320C320B320F3EF9D719D011
:10177000170E0F6411D0000E016E000E026E000EE7
:10178000036E000E046E22D007D0D8900B360C36B4
:101790000D360E360F0600D00F50D8B402D0F5D754
:1017A00000D00A50D8B409D00E1E0D1E0C1E0B6CB2
:1017B000000E0C220D220E2200D00BC001F00CC036
:1017C00002F00DC003F00EC004F000D012000FC0F4
:1017D00013F0146A156A0E34133601E314801350A3
:1017E0001A6E1A50D8A402D00ED061D012C013F0D5
:1017F000146A156A1134133601E3148013501B6EFA
:101800001B50D8A407D0000E0D6E000E0E6E000EF9
:101810000F6E4DD0000E176E000E186E000E196E72
:101820001B50890F1A5E0FC01BF012501B1A800E3E
:101830001B160E8EFF0E0D16FF0E0E16000E0F1647
:10184000118EFF0E1016FF0E1116000E1216180E36
:10185000166E00D0D89017361836193610500D5C19
:1018600011500E5812500F58D8A007D010500D5ECE
:1018700011500E5A12500F5A1780D8900D360E364E
:101880000F36162EE7D700D017C001F018C002F0AF
:1018900019C003F01AC004F01BC005F0C7EC0CF02F
:1018A00001C00DF002C00EF003C00FF000D0120016
:1018B000000E0A6E08AE0BD0081E071E061E056C31
:1018C000000E062207220822010E0A6E00D004AE86
:1018D0000BD0041E031E021E016C000E0222032206
:1018E0000422010E0A1A00D0000E0B6E000E0C6EC0
:1018F000000E0D6E000E0E6E05500610071008103B
:10190000D8B42FD0010E096E07D0D8900536063610
:1019100007360836092A00D008BE02D0F6D700D014
:10192000D8900B360C360D360E360550015C06503D
:1019300002580750035808500458D8A00AD0055040
:10194000015E0650025A0750035A0850045A0B8091
:1019500000D0D8900832073206320532092EE0D77F
:1019600000D00A50D8B409D00E1E0D1E0C1E0B6CF0
:10197000000E0C220D220E2200D00BC001F00CC074
:1019800002F00DC003F00EC004F000D012000450AD
:10199000D8B405D0015002100310D8A40ED0000E08
:1019A000016E000E026E000E036E53D006D0042AA4
:1019B000D89003320232013200D0000E0114066EBC
:1019C000000E0214076EFE0E0314086E0650071078
:1019D0000810D8B40ED0EBD70CD0042A010E012683
:1019E000000E0222000E0322D8900332023201328E
:1019F00000D0000E0114066E000E0214076EFF0EDA
:101A00000314086E065007100810D8B408D0E5D7A4
:101A100006D00406D89001360236033600D002BE46
:101A200004D0020E0460F5D700D004B002D0029EAC
:101A300000D0D8900432045003120550D8B402D01C
:101A4000038E00D001C001F002C002F003C003F019
:101A500000D01200000E186E12AE0BD0121E111E16
:101A6000101E0F6C000E102211221222010E186E91
:101A700000D016AE09D0161E151E141E136C000ED3
:101A800014221522162200D013501410151016100F
:101A9000D8B429D0010E176E07D0D890133614365B
:101AA00015361636172A00D016BE02D0F6D700D04B
:101AB00013500F5C145010581550115816501258EE
:101AC000D8A009D013500F5E1450105A1550115A57
:101AD0001650125A00D0D8901632153214321332E2
:101AE000172EE6D700D01850D8B409D0121E111EF8
:101AF000101E0F6C000E10221122122200D00FC0F7
:101B00000FF010C010F011C011F012C012F000D090
:101B10001200000E096E000E0A6E000E0B6E000E13
:101B20000C6E0550061007100810D8B42FD0010E07
:101B30000D6E07D0D89005360636073608360D2AC2
:101B400000D008BE02D0F6D700D0D89009360A36A9
:101B50000B360C360550015C0650025807500358EE
:101B600008500458D8A00AD00550015E0650025A09
:101B70000750035A0850045A098000D0D890083200
:101B80000732063205320D2EE0D700D009C001F031
:101B90000AC002F00BC003F00CC004F01200125097
:101BA000131014101510D8B429D0010E166E07D0DA
:101BB000D8901236133614361536162A00D015BEB4
:101BC00002D0F6D700D012500E5C13500F581450AC
:101BD000105815501158D8A009D012500E5E13504D
:101BE0000F5A1450105A1550115A00D0D89015326F
:101BF000143213321232162EE6D700D00EC00EF079
:101C00000FC00FF010C010F011C011F01200036EE1
:101C1000000EAC6E000EAB6E03A002D0AC8800D0FC
:101C200003A203D0AC8CAB8C00D003A402D0AC8E4A
:101C300000D003A602D0AB8802D0AB8A00D003B894
:101C4000AC849E9803AA02D0AB8600D003AC02D02D
:101C50009D8A01D09D9A9E9A03AE02D09D8801D0A4
:101C60009D9801C0AFFF0250B06EAC8AAB8E949CC1
:101C7000948EACB8ACBE02D0948C00D01200026E30
:101C80000250010D3D0EF324D96E000EF420DA6EE1
:101C9000DF50826E0250010D3D0EF324D96E000E0E
:101CA000F420DA6EDF50400B016E0150D8A402D050
:101CB000000E01D0010E846E00D01200000E0C6EDA
:101CC0000AAE07D0096C0A1ED8B00A2A010E0C6EA3
:101CD00000D009C001F00AC002F0036A8E0E046E43
:101CE0000CC005F0C7EC0CF001C009F002C00AF00E
:101CF00003C00BF000D01200E20EF66E1D0EF76E60
:101D0000000EF86E00EE3DF010EE12F00900F5CF77
:101D1000EEFFE550E150FAE1000EF86E000122EF0F
:101D200008F0C28200D0C2B2FED7C450046E036A6B
:101D3000C3500324056E000E0420066E05C001F09A
:101D400006C002F000D01200015002100310D8B4F7
:101D500006D0000E011A000E021A800E031A01C0EE
:101D600001F002C002F003C003F01200020ED56EB3
:101D7000DB0ED66E0B0ED76EF294D58E00D0F2A489
:101D8000FED7D59E1200016E0150010D3D0EF324C9
:101D9000D96E000EF420DA6EDF50836E838E12004F
:101DA000026E0250FF0A016E0132013283500118A7
:101DB0007F0B0118836E12000F0E926E000E936E51
:101DC000000E946E000E956E000E966E1200000EC0
:101DD000026E190E016E3C0E07EC0EF0600ED36E13
:101DE0001200407924301912027800100001020319
:101DF00004050607F90ECB6E050ECA6E4A0EBB6EC1
:101E00003C0EBA6E1200016E00D0ACA2FED701C02B
:101E1000ADFF1200010EC26E1B0EC16EC90EC06E68
:101E20001200016E0150040DF328C26E1200000E64
:0E1E3000BA6E819612008188818A819C120010
:020000040020DA
:08000000FFFFFFFFFFFFFFFF00
:020000040030CA
:0E000000FF08191EFF8281FF0FC00FE00F40A6
:00000001FF
