:040000000CEF00F011
:10000800FACF03F0FBCF04F0E9CF05F04CED0DF08B
:100018000CEF0DF044AE1CD02D0E0001DD6F7F0EED
:100028004414176E186A000E1A6E0A0E196E3CEC0C
:100038000CF01750300F0001DE6F7F0E44141F6E56
:10004800206A000E226E0A0E216ECBEC0CF01BD03B
:100058002B0E0001DD6F44C017F045C018F0000EEC
:100068001A6E0A0E196E3CEC0CF01750300F000196
:10007800DE6F44C01FF045C020F0000E226E0A0E4D
:10008800216ECBEC0CF01F50300F0001DF6F00D059
:1000980047AE29D02D0E0001E16F46C0ECF047C0F5
:1000A800EDF00001EC1FED1FEC4BED2BECC0EEF07A
:1000B800EDC0EFF0EEC017F0EFC018F0000E1A6EAA
:1000C8000A0E196E3CEC0CF01750300F0001E26F6D
:1000D800EEC01FF0EFC020F0000E226E0A0E216E57
:1000E800CBEC0CF01BD02B0E0001E16F46C017F0D3
:1000F80047C018F0000E1A6E0A0E196E3CEC0CF090
:100108001750300F0001E26F46C01FF047C020F0C3
:10011800000E226E0A0E216ECBEC0CF01F50300F31
:100128000001E36F00D05E380F0B300F0001C76F7E
:100138005E500F0B300F0001C86F5F380F0B300F88
:100148000001CA6F5F500F0B300F0001CB6F623890
:100158000F0B300F0001CD6F62500F0B300F0001F5
:10016800CE6F60380F0B300F0001BE6F60500F0B61
:10017800300F0001BF6F5A380F0B300F0001C16FED
:100188005A500F0B300F0001C26F6C380F0B300F35
:100198000001C46F6C500F0B300F0001C56F500485
:1001A800D8A40BD0D90E116E000E126EEC0E136E81
:1001B800FF0E146E99EC10F00BD0D90E116E000ED4
:1001C800126EF00E136EFF0E146E99EC10F000D044
:1001D800000E1A6E640E196E5CC017F0186A3CECBB
:1001E8000CF017C01FF018C020F0000E226E0A0E87
:1001F800216ECBEC0CF01F50300F0001D56F000EB4
:100208001A6E0A0E196E5CC017F0186A3CEC0CF0F6
:1002180017C01FF018C020F0000E226E0A0E216EC3
:10022800CBEC0CF01F50300F0001D66F5CC01FF0F4
:10023800206A000E226E0A0E216ECBEC0CF01F50C5
:10024800300F0001D76F4CC017F04DC018F0030EE7
:100258001A6EE80E196E3CEC0CF01750300F0001C6
:10026800D06F000E1A6E640E196E4CC017F04DC098
:1002780018F03CEC0CF017C01FF018C020F0000E6E
:10028800226E0A0E216ECBEC0CF01F50300F0001CD
:10029800D16F000E1A6E0A0E196E4CC017F04DC0C1
:1002A80018F03CEC0CF017C01FF018C020F0000E3E
:1002B800226E0A0E216ECBEC0CF01F50300F00019D
:1002C800D26F4CC01FF04DC020F0000E226E0A0EF7
:1002D800216ECBEC0CF01F50300F0001D36F170EBE
:1002E800396EDD0E3A6E000E3B6EFF0E3D6EE00E6F
:1002F8003C6E000E3F6E000E3E6E020E406E010E0A
:10030800B2EC08F0170E396EE10E3A6E000E3B6E35
:10031800FF0E3D6EE00E3C6E000E3F6E000E3E6E10
:10032800020E406E460EB2EC08F0340E396EC70E5F
:100338003A6E000E3B6E070E3D6E3C68000E3F6E37
:10034800000E3E6E020E406E0F0EB2EC08F0520E1A
:10035800396EBE0E3A6E000E3B6E070E3D6EE00E15
:100368003C6E000E3F6E000E3E6E020E406E0F0E8B
:10037800B2EC08F0820E396ED90E3A6E000E3B6E62
:10038800F80E3D6E000E3C6E000E3F6E000E3E6E87
:10039800010E406E5F0EB2EC08F0960E396ED50E67
:1003A8003A6E000E3B6E070E3D6EE00E3C6E000E80
:1003B8003F6E000E3E6E010E406E0A0EB2EC08F063
:1003C800960E396ED00E3A6E000E3B6E070E3D6EDD
:1003D800E00E3C6E000E3F6E000E3E6E010E406E4B
:1003E8005D0EB2EC08F012001F0E306E000E316E7A
:1003F80099D1250E3818D8B404D038500CEC12F026
:1004080091D1000E376E000E366E000E356E05D097
:1004180035841D4A1E2A01D00BD01DC0F6FF1EC010
:10042800F7FF0800F550300AD8B4F2D701D0F5D755
:100438001DC0F6FF1EC0F7FF0800F5503DEC11F097
:10044800D8A03BD0000E376E000E366E00D036C0F6
:1004580011F037C012F0000E146E0A0E136EDFECA6
:1004680010F011C036F012C037F0D00E2B6EFF0E10
:100478002C6E1DC0F6FF1EC0F7FF0800F5502D6E4C
:100488002E6A2B502D262C502E222D5036262E50DB
:1004980037221D4A1E2A1DC0F6FF1EC0F7FF08009E
:1004A800F5503DEC11F0D8A008D0D1D706D048D1EE
:1004B8001BD0358E19D036D117D01DC0F6FF1EC0FF
:1004C800F7FF1D4A1E2A0800F5CF38F03850000AF9
:1004D800D8B436D1640AD8B407D00D0AD8B404D039
:1004E800110AD8B4E6D71ED135BE15D030C0D9FF11
:1004F80031C0DAFFDECF33F0DDCF34F0020E302624
:10050800000E312234AE4ED0030E3512336C341E39
:10051800D8B0342A47D030C0D9FF31C0DAFFDECF97
:1005280033F0DDCF34F0020E3026000E31223AD0FF
:10053800010E386E050E3818D8B43DD001D03BD026
:100548003850020D1C0EF324F66EFF0EF420F76EE1
:100558000900F550335C0900F5503458D8A02BD069
:1005680001D029D0382AE6D726D0010E386E040EDD
:100578003818D8B420D001D01ED03850020D260E1D
:10058800F324F66EFF0EF420F76E0900F550335C85
:100598000900F5503458D8A00ED001D00CD0382A14
:1005A800E6D709D03550800B000AD8B4C1D7800AE5
:1005B800D8B4DBD700D036503710D8B40AD035C0FD
:1005C8002BF0030E2B16D8B404D03606D8A0370665
:1005D80000D0800E38BE7F0E2B6E3650385C3750F8
:1005E800800A2B58D8B007D03850365E000E38BE77
:1005F800FF0E375A05D0000E376E000E366E00D04B
:1006080035A41AD035C02BF0030E2B16D8B404D05D
:100618002D0E0CEC12F000D036503710D8B426D07E
:10062800300E0CEC12F03606D8A0370636503710CC
:10063800D8B41CD0F5D71AD036503710D8B40CD04F
:10064800200E0CEC12F03606D8A0370636503710BC
:10065800D8B402D0F5D700D035C02BF0030E2B1636
:10066800D8B404D02D0E0CEC12F000D038C032F003
:1006780053D045D03250020D1C0EF324F66EFF0EF7
:10068800F420F76E0900F5CF13F00A00F5CF14F047
:1006980033C011F034C012F0CAEC0EF011C018F0DB
:1006A80012C019F0000E1B6E0A0E1A6E48EC0FF0FD
:1006B8001850300F386E2CD033C011F034C012F0FF
:1006C8003250020D260EF324F66EFF0EF420F76E5C
:1006D8000900F5CF13F00A00F5CF14F0CAEC0EF0BC
:1006E80011500F0B2F6E2F50010D9F0EF324F66E35
:1006F800FF0EF420F76E0800F5CF38F009D035501A
:10070800800B000AD8B4B6D7800AD8B4D5D700D0A1
:1007180038500CEC12F000D032063228D8B402D08F
:10072800EED700D01DC0F6FF1EC0F7FF1D4A1E2AD7
:100738000800F5CF38F03850D8B402D05AD600D0D7
:100748001200C7EC11F0CAEC10F0000E256E000E76
:10075800246E6DEC11F0540E4E6E010E4F6E4EC0AD
:1007680011F04FC012F0770E136EFF0E146E99EC55
:1007780010F0010E396E4EC03AF04FC03BF0FF0E3C
:100788003D6E3C68000E3F6E000E3E6E010E406EE0
:10079800010EB2EC08F04EC011F04FC012F0CF0EAF
:1007A800136EFF0E146E99EC10F00B0E396E4EC0DE
:1007B8003AF04FC03BF0F80E3D6E1F0E3C6E000E37
:1007C8003F6E000E3E6E010E406E180EB2EC08F041
:1007D800000E1D6E280E1C6E000E1F6E170E1E6E6C
:1007E800000E216E020E206EFF0E236EE00E226EAA
:1007F800F2EC05F04EC011F04FC012F0F80E136E77
:10080800FF0E146E99EC10F0170E396E4EC03AF0C8
:100818004FC03BF0FF0E3D6EE00E3C6E000E3F6E8B
:10082800000E3E6E020E406E2D0EB2EC08F04EC069
:1008380011F04FC012F0F20E136EFF0E146E99EC09
:1008480010F0000E1D6E6E0E1C6E000E1F6E170E41
:100858001E6E000E216E020E206EFF0E236EE00E3D
:10086800226EF2EC05F0170E396E4EC03AF04FC00A
:100878003BF0FF0E3D6EE00E3C6E000E3F6E000E2C
:100888003E6E020E406E730EB2EC08F04EC011F0D0
:100898004FC012F0E20E136EFF0E146E99EC10F0BA
:1008A800280E396E4EC03AF04FC03BF0000E3D6E38
:1008B8001F0E3C6E000E3F6E000E3E6E010E406E27
:1008C800320EB2EC08F04EC011F04FC012F0E70E35
:1008D800136EFF0E146E99EC10F0470E396E4EC071
:1008E8003AF04FC03BF0F80E3D6E000E3C6E000E25
:1008F8003F6E000E3E6E010E406E320EB2EC08F0F6
:100908004EC011F04FC012F0DC0E136EFF0E146EC5
:1009180099EC10F0780E396E4EC03AF04FC03BF0AB
:10092800000E3D6E1F0E3C6E000E3F6E000E3E6EBA
:10093800010E406E550EB2EC08F04EC011F04FC0DB
:1009480012F0FB0E136EFF0E146E99EC10F08C0E65
:10095800396E4EC03AF04FC03BF0FF0E3D6E3C681A
:10096800000E3F6E000E3E6E010E406E0C0EB2EC95
:1009780008F04EC011F04FC012F0F40E136EFF0EC7
:10098800146E99EC10F08C0E396E4EC03AF04FC0D0
:100998003BF0FF0E3D6E3C68000E3F6E000E3E6E53
:1009A800010E406E5F0EB2EC08F012006EEC0FF014
:1009B80032EC0EF0B180A5EC03F000D098EC0EF00C
:1009C80062506E18D8B469D062C06EF07BEC10F03B
:1009D80014C044F015C045F044C011F045C012F0F1
:1009E800000E146E090E136EDFEC10F011C017F034
:1009F80012C018F0000E1A6E050E196E3CEC0CF0C1
:100A0800200E1724466E000E1820476EFFEC0FF0DC
:100A18001FC04CF020C04DF02E0E1D6EFF0E1E6E36
:100A28005EC01FF0206A5FC021F0226A62C023F016
:100A3800246A60C025F0266A5AC027F0286A6CC06C
:100A480029F02A6AF8EC01F0620E1D6EFF0E1E6E88
:100A580044C01FF045C020F046C021F047C022F036
:100A6800F8EC01F08B0E1D6EFF0E1E6E4CC01FF0D1
:100A78004DC020F05CC021F0226AF8EC01F04CC0B7
:100A88001FF04DC020F0FDEC0DF05CC01FF0206A97
:100A9800DDEC0FF00EEC00F000D04A044B10D8A4A7
:100AA8008DD7000E4B6E000E4A6EB00E1D6EFF0EF7
:100AB8001E6E51C01FF0206AF8EC01F0F288F19C1C
:100AC8005D68000E0001F46F000EF36F0001F4BFC3
:100AD8000AD00001F45120E1150E0001F35DD8B0F1
:100AE8001BD001D019D03F0E0001F325D96E010E9D
:100AF8000001F421DA6E5150DE18D8A408D0F3C0F2
:100B08005DF0000E0001F46F150EF36F00D00001C8
:100B1800F34BF42BDBD700D0000E0001F26F000E70
:100B2800F16F0001F2BF0AD00001F25121E1150E68
:100B38000001F15DD8B01CD001D01AD03F0E0001E1
:100B4800F125D96E010E0001F221DA6E5150DE183E
:100B5800D8A409D0F1C05DF00F0E5D18D8A408D054
:100B680032EC0EF005D00001F14BF22BDAD700D0B1
:100B78005D28D8A407D04C0E1D6EFF0E1E6EF8EC33
:100B880001F01CD7BDEC11F0C00E1D6EFF0E1E6EDD
:100B98005DC01FF0206AF8EC01F05D50010D2A0ECF
:100BA800F324D96E010EF420DA6EDF50806E050E44
:100BB8005D18D8A403D09FEC11F000D0060E5D1884
:100BC800D8A403D019EC11F000D0070E5D18D8A4F2
:100BD800F5D6F3EC10F0F2D60CEF00F020C024F0BC
:100BE80021C025F0241E251E244A252A010E24246E
:100BF8002A6E000E25202B6E000E276E010E266E23
:100C080020C024F021C025F0D89024362536241E93
:100C1800251E244A252A24C028F025C029F0000EC4
:100C28002D6E000E2C6E20C02EF021C02FF01E500D
:100C38002024186E22C019F023C01AF01C50B2EC00
:100C480010F0205000081E24186E22C019F023C08E
:100C58001AF01C50B2EC10F01EC018F022C019F0A7
:100C680023C01AF01C502024B2EC10F01EC018F05B
:100C780022C019F023C01AF0205000081C24B2EC3E
:100C880010F078D02BBE0BD02E06D8A02F06020E5F
:100C98002826000E292228502A2629502B222C4AA1
:100CA8002D2A020E2626000E272226502A262750F5
:100CB8002B221E502E24186E22C019F023C01AF0C1
:100CC8001C502C24B2EC10F01E502E24186E22C09A
:100CD80019F023C01AF02C5000081C24B2EC10F0B4
:100CE8002E5000081E24186E22C019F023C01AF0D6
:100CF8001C502C24B2EC10F02E5000081E24186E44
:100D080022C019F023C01AF02C5000081C24B2ECA1
:100D180010F01E502C24186E22C019F023C01AF0AF
:100D28001C502E24B2EC10F01E502C24186E22C039
:100D380019F023C01AF02E5000081C24B2EC10F051
:100D48002C5000081E24186E22C019F023C01AF077
:100D58001C502E24B2EC10F02C5000081E24186EE3
:100D680022C019F023C01AF02E5000081C24B2EC3F
:100D780010F000D02E502C5C2D50800A246E2F507D
:100D8800800A2458D8A07ED71200F2925250D8B4C4
:100D9800A0D0CE50CFCF01F0026A01C002F0016AA4
:100DA8000110486E0250496E000ECF6E000ECE6ED6
:100DB80090D0000ECF6E000ECE6E9E90900ECD6E2F
:100DC800CD80000E586E000E0001F56F000EF66F14
:100DD800000EF76F000EF86F010E526E78D08AD0B1
:100DE800350E485C210E4958D8A009D01C0E485C25
:100DF800250E4958D8B003D0020E526E2AD03FECC7
:100E080012F027D026D076D0A10E485C0F0E495894
:100E1800D8A009D0880E485C130E4958D8B003D022
:100E2800030E526E54D03FEC12F051D050D062D025
:100E3800910E485C010E4958D8A008D0BC0E485CF9
:100E4800020E4958D8B002D0040ED7D73FEC12F0A2
:100E580000D0F19C4FD0910E485C010E4958D8A0A3
:100E680033D0080E485C070E4958D8B02DD0D8901A
:100E78000001F5350001F56F0001F6350001F66F48
:100E88000001F7350001F76F0001F8350001F86F30
:100E9800E90E485C030E4958D8A008D0010E00019D
:100EA800F527000EF623F723F82300D0582A1F0E43
:100EB8005864B6D7000E4B6E010E4A6EF6C051F05C
:100EC800F298000E526EACD73FEC12F000D0F18CC5
:100ED80011D05250000AD8B46CD7010AD8B480D7C0
:100EE800030AD8B491D7010AD8B4A2D7070AD8B44C
:100EF800B2D700D01200366E800E3660A6D09F0E94
:100F08002E6401D0A2D03450D8A403D0010E346E80
:100F180000D01F0E2F6404D07E0E2F6403D000D0A3
:100F28003F0E2F6E000E386E040E386401D08DD03F
:100F3800530E2F6015D0E00E2F24116E126AFF0E8B
:100F48001222000E146E050E136EDFEC10F03850EE
:100F58001126000E1222410E1124F66EFD0E14D039
:100F6800AD0E2F24116E126AFF0E1222000E146E9F
:100F7800050E136EDFEC10F038501126000E122209
:100F8800400E1124F66EFE0E1220F76E0800F5CF03
:100F980035F000D0000E376E060E376401D053D0FE
:100FA80035A023D03404D8A40CD02E503724186E82
:100FB80030C019F031C01AF036503824B2EC10F0B5
:100FC8003ED037503402F3502E24236E34C024F020
:100FD80034C025F030C026F031C027F03850340234
:100FE800F350362494EC0FF02AD03050321804E134
:100FF80031503318D8B423D03404D8A40CD02E5090
:101008003724186E32C019F033C01AF0365038241D
:10101800B2EC10F014D037503402F3502E24236E63
:1010280034C024F034C025F032C026F033C027F095
:1010380038503402F350362494EC0FF000D0372A9D
:10104800D8903532A9D7382A6FD71200010E04EC90
:1010580012F0000E186E960E176EF8EC0EF0110EC8
:1010680004EC12F0010E186EF40E176EF8EC0EF088
:10107800B10E04EC12F0010EFCEC11F02C0EFCEC9D
:1010880011F02D0EFCEC11F0B20E04EC12F0010E72
:10109800FCEC11F02C0EFCEC11F02D0EFCEC11F018
:1010A800B30E04EC12F0010EFCEC11F02C0EFCEC6B
:1010B80011F02D0EFCEC11F0010EFCEC11F02C0ED1
:1010C800FCEC11F02D0EFCEC11F0B40E04EC12F057
:1010D800070EFCEC11F0C00E04EC12F0A20EFCECB2
:1010E80011F0020EFCEC11F0840EFCEC11F0C10EB4
:1010F80004EC12F0C50EFCEC11F0C20E04EC12F078
:101108000A0EFCEC11F0000EFCEC11F0C30E04EC1E
:1011180012F08A0EFCEC11F02A0EFCEC11F0C40E51
:1011280004EC12F08A0EFCEC11F0EE0EFCEC11F05F
:10113800C50E04EC12F00E0EFCEC11F0200E04ECBF
:1011480012F0360E04EC12F0C80EFCEC11F03A0E58
:1011580004EC12F0050EFCEC11F012000001E56F32
:10116800E5C0EBF039C0EAF03AC011F03BC012F02C
:101178001EEC10F011C0E6F012C0E7F0000E0001FE
:10118800E96F000EE86F64D06F50D8B434D0405087
:10119800050D0001EB51416E426AF3504126F450AF
:1011A800422242BE28D0425004E1810E415CD8A0C0
:1011B80022D0000E0001EB6F4050070DF3500001E4
:1011C800EA25030F0001EA6FA00E0001EA6504D0CA
:1011D800A00E0001EA6F00D00001E8513A24D96E50
:1011E8000001E9513B20DA6E200EDE18D8B42CD06D
:1011F80002D02AD000D0EAC02EF00001E8513A24EB
:10120800D96E0001E9513B20DA6EDF502F6E3CC0E9
:1012180030F03DC031F03EC032F03FC033F040C046
:1012280034F00001EB517FEC07F04050060DF3500D
:101238000001EB250001EB6F800E0001EB6504D087
:10124800800E0001EB6F00D00001E84BE92B00D0C5
:101258000001E6510001E85D0001E7510001E9598C
:10126800D8A092D712001FC023F0246A256A1E3422
:10127800233601E324802350266E2650D8A402D0BA
:101288000ED06CD022C023F0246A256A213423367C
:1012980001E3248023502B6E2B50D8A407D0000ED6
:1012A8001D6E000E1E6E000E1F6E58D02B507B0F49
:1012B80026261FC02BF022502B1A800E2B161E8EAE
:1012C800218EFF0E2016FF0E2116000E2216000E8C
:1012D800276E000E286E000E296E070E2A6E00D0AB
:1012E8001DA007D02050272621502822225029222D
:1012F80000D0D8901F321E321D32D89020362136A9
:1013080022362A2EEDD700D0090E2A6E00D01DA055
:1013180007D020502726215028222250292200D0E9
:10132800D8901F321E321D32D890293228322732E7
:101338002A2EEDD700D027C011F028C012F029C0FE
:1013480013F026C014F02BC015F07EEC0BF011C082
:101358001DF012C01EF013C01FF000D01200E00EE6
:1013680004EC12F0020EFCEC11F01C0EFCEC11F077
:10137800070EFCEC11F0120EFCEC11F0370EFCEC31
:1013880011F0320EFCEC11F0290EFCEC11F02D0ED0
:10139800FCEC11F0290EFCEC11F0250EFCEC11F020
:1013A8002B0EFCEC11F0390EFCEC11F0000EFCECED
:1013B80011F0010EFCEC11F0030EFCEC11F0100E14
:1013C800FCEC11F0E10E04EC12F0030EFCEC11F051
:1013D8001D0EFCEC11F0070EFCEC11F0060EFCECF7
:1013E80011F02E0EFCEC11F02C0EFCEC11F0290E75
:1013F800FCEC11F02D0EFCEC11F02E0EFCEC11F0B3
:101408002E0EFCEC11F0370EFCEC11F03F0EFCEC4C
:1014180011F0000EFCEC11F0000EFCEC11F0020EC5
:10142800FCEC11F0100EFCEC11F0130E04EC12F0B1
:10143800000E186E0A0E176EF8EC0EF0290E04EC6A
:1014480012F0000E186E640E176EF8EC0EF0120013
:1014580013C015F0166A176A1234153601E31680A0
:1014680015501F6E1F50D8A402D039D063D0170E64
:10147800156E11C016F012C017F013C018F0152819
:10148800196E04D0D890183217321632192EFAD79E
:1014980016501A6E128EFF0E1116FF0E1216000E3F
:1014A800131611501B6E12501C6E13501D6E1E6ABF
:1014B8008E0E1F5E1FAE10D01F50800A8F0FD8B03F
:1014C80003D00DD037D000D0D8901E321D321C3238
:1014D8001B321F3EF9D719D0170E1F6411D0000E0A
:1014E800116E000E126E000E136E000E146E22D0D6
:1014F80007D0D8901B361C361D361E361F0600D066
:101508001F50D8B402D0F5D700D01A50D8B409D09B
:101518001E1E1D1E1C1E1B6C000E1C221D221E22C0
:1015280000D01BC011F01CC012F01DC013F01EC06B
:1015380014F000D012002EC032F0336A346A2D3411
:10154800323601E333803250396E3950D8A402D094
:101558000ED061D031C032F0336A346A303432365A
:1015680001E3338032503A6E3A50D8A407D0000EC7
:101578002C6E000E2D6E000E2E6E4DD0000E366EA7
:10158800000E376E000E386E3A50890F395E2EC045
:101598003AF031503A1A800E3A162D8EFF0E2C165C
:1015A800FF0E2D16000E2E16308EFF0E2F16FF0E74
:1015B8003016000E3116180E356E00D0D89036361B
:1015C800373638362F502C5C30502D5831502E5825
:1015D800D8A007D02F502C5E30502D5A31502E5A9B
:1015E8003680D8902C362D362E36352EE7D700D0BB
:1015F80036C011F037C012F038C013F039C014F0FB
:101608003AC015F07EEC0BF011C02CF012C02DF092
:1016180013C02EF000D01200236E800E236069D014
:101628009F0E186401D065D0FF0E1D6EFF0E1E6E52
:10163800195023C01FF0206A1F26000E20221D50BB
:101648001F261E50202220BE0AD0205004E1800E02
:101658001F5CD8A004D023500008800F196EFF0E1D
:101668001D6EFF0E1E6E1A5018C01FF0206A1F262E
:10167800000E20221D501F261E50202220BE0BD0F7
:10168800205004E1A00E1F5CD8A005D01850000817
:10169800A00F1A6E00D018C014F0235019241D6E24
:1016A8001D04156E18501A241E6E1E04166E235043
:1016B80021EC0FF01C50216E1BC022F08480829810
:1016C8001AC018F01850D8B413D001D011D019C0CE
:1016D80023F02350D8B40AD001D008D02150A9EC67
:1016E80011F02250A9EC11F02306F3D71806EAD717
:1016F800828812001450D8B405D01150121013105B
:10170800D8A40ED0000E116E000E126E000E136ECD
:1017180053D006D0142AD89013321232113200D086
:10172800000E1114166E000E1214176EFE0E13140E
:10173800186E165017101810D8B40ED0EBD70CD05E
:10174800142A010E1126000E1222000E1322D89020
:1017580013321232113200D0000E1114166E000E20
:101768001214176EFF0E1314186E16501710181057
:10177800D8B408D0E5D706D01406D890113612365A
:10178800133600D012BE04D0020E1460F5D700D074
:1017980014B002D0129E00D0D890143214501312F4
:1017A8001550D8B402D0138E00D011C011F012C059
:1017B80012F013C013F000D01200416E040ECB6E6D
:1017C800070ECA6E000E206E800E216E400E226E2D
:1017D800415006EC11F019C01DF01AC01EF01BC0D4
:1017E8001FF037EC09F01DC02CF01EC02DF01FC0F3
:1017F8002EF0000E2F6EA00E306E410E316E9FEC53
:101808000AF02CC03EF02DC03FF02EC040F03EC084
:1018180011F03FC012F040C013F02CEC0AF011C0D8
:1018280042F012C043F041503B6E3C6A42503B5C70
:101838003C50800A3D6E4350800A3D58D8B003D0D2
:10184800424A432A00D042C03BF0030E3B163B38C5
:10185800F00B0C09BD6E42C03BF043C03CF03C3479
:101868003C323B323C343C323B323B50BE6E120081
:10187800000E1C6E1AAE07D0196C1A1ED8B01A2AA0
:10188800010E1C6E00D018AE07D0176C181ED8B009
:10189800182A010E1C1A00D0000E1E6E000E1D6EB6
:1018A80019501A10D8B421D0010E1B6E05D0D8904B
:1018B80019361A361B2A00D01ABE02D0F8D700D023
:1018C800D8901D361E361950175C1A501858D8A0D3
:1018D80006D01950175E1A50185A1D8000D0D8909B
:1018E8001A3219321B2EECD700D01C50D8B405D0B0
:1018F8001D6C1E1ED8B01E2A00D01DC017F01EC0B9
:1019080018F000D01200226E800E22603FD09F0E89
:10191800186401D03BD0FF0E1C6EFF0E1D6E1950CF
:1019280018C01EF01F6A1E26000E1F221C501E26FD
:101938001D501F221FBE0BD01F5004E1A00E1E5CBD
:10194800D8A005D018500008A00F196E00D01B5061
:10195800206E1AC021F018C014F022C015F01850DB
:1019680019241C6E1C04166E225021EC0FF0848082
:10197800829807D02050A9EC11F02150A9EC11F061
:1019880000D019061928D8A4F5D782881200000EAD
:10199800246E20AE07D01F6C201ED8B0202A010E5E
:1019A800246E00D022AE05D0216C221ED8B0222A87
:1019B80000D021502210D8B41DD0010E236E05D0BE
:1019C800D89021362236232A00D022BE02D0F8D75A
:1019D80000D021501F5C22502058D8A005D021509B
:1019E8001F5E2250205A00D0D89022322132232E56
:1019F800F0D700D02450D8B405D01F6C201ED8B022
:101A0800202A00D01FC01FF020C020F000D01200F4
:101A180000EEF5F00A0EEE6AE806FDE100EE44F08D
:101A2800290EEE6AE806FDE1140EF66E1B0EF76E3F
:101A3800000EF86E01EE00F010EE75F00900F5CF1B
:101A4800EEFFE550E150FAE1CA0EF66E1C0EF76E95
:101A5800000EF86E00EE80F010EE65F00900F5CF8C
:101A6800EEFFE550E150FAE1860EF66E240EF76EB1
:101A7800000EF86E0900F5CF6DF00900F5CF6EF095
:101A88000900F5CF6FF0000EF86E0001DAEF04F0F0
:101A98000600EACF06F0E1CF07F0E2CF08F0D9CF91
:101AA80009F0DACF0AF0F3CF0BF0F4CF0CF0F6CF51
:101AB8000DF0F7CF0EF0F8CF0FF0F5CF10F09EA095
:101AC80003D019EC12F000D0F2A203D0C9EC06F052
:101AD80000D010C0F5FF0FC0F8FF0EC0F7FF0DC013
:101AE800F6FF0CC0F4FF0BC0F3FF0AC0DAFF09C011
:101AF800D9FF08C0E2FF07C0E1FF06C0EAFF05C042
:101B0800E9FF04C0FBFF03C0FAFF110000F800F86A
:101B180000F8FF07FF07E0071F001F001FF8FFFF7F
:101B2800FFFFFFFFFFFFFFFFFFFFFFFFFFFFFFFFBD
:101B3800FFFFFFFFFFFF010101060602040405077E
:101B48000707070707070707070707A262E2220236
:101B5800C2E0A8906898B030187A10385A424A52B1
:101B680020454345333330314C20466127323220FB
:101B78004C313200000000000000000000000000AE
:101B88000000136E000EAC6E000EAB6E13A002D0F8
:101B9800AC8800D013A203D0AC8CAB8C00D013A4BB
:101BA80002D0AC8E00D013A602D0AB8802D0AB8A8C
:101BB80000D013B8AC849E9813AA02D0AB8600D08C
:101BC80013AC02D09D8A01D09D9A9E9A13AE02D082
:101BD8009D8801D09D9811C0AFFF1250B06EAC8A9D
:101BE800AB8E949C948EACB8ACBE02D0948C00D0D2
:101BF800120083CF21F01F0E21162150246E256A72
:101C08001FC017F020C018F0010E1A6EF40E196EDE
:101C18003CEC0CF017C022F018C023F020BE05D011
:101C2800205006E11F04D8B003D024C083FF15D08C
:101C38005D50010DA40EF324D96E000EF420DA6E67
:101C4800DF50216EAC0E2224D96E000E2320DA6EEE
:101C5800DF5021102410836E00D01200680E136E1E
:101C6800000E146E000E626E000E5F6E000E5E6E49
:101C7800040E5B6E290E5A6E110E606E220E6C6E8B
:101C8800E2EC11F0135013245CEC10F014505CECEF
:101C980010F062505CEC10F05F505CEC10F05E509D
:101CA8005CEC10F05B505CEC10F05A505CEC10F0FF
:101CB80060505CEC10F06C505CEC10F0D9EC11F05A
:101CC800120030303A30303A30300030303A30306C
:101CD8003A30300031312F31372F32320030303A3C
:101CE80030303A3030000001020304050607204076
:101CF8006080A0C0E030373546004F4646003000CF
:101D080030302F30302F30300030303A30303A30E9
:101D180030003030303000303030004F4646002B35
:101D28003235002B37370000680E156E000E146E22
:101D3800E2EC11F0155015245CEC10F014505CEC3A
:101D480010F094EC11F0D88015345CEC10F0010E12
:101D5800B9EC0FF0626E010EB9EC0FF05F6E010E78
:101D6800B9EC0FF05E6E010EB9EC0FF05B6E010E70
:101D7800B9EC0FF05A6E010EB9EC0FF0606E000E60
:101D8800B9EC0FF06C6ED9EC11F01200000E176E62
:101D9800000E166E13501410D8B421D0010E156E13
:101DA80005D0D89013361436152A00D014BE02D0A8
:101DB800F8D700D0D890163617361350115C145047
:101DC8001258D8A006D01350115E1450125A16801B
:101DD80000D0D89014321332152EECD700D016C08C
:101DE80011F017C012F0120017C011F018C012F04D
:101DF800000E146E7D0E136EDFEC10F011C01BF098
:101E080012C01CF01BC019F01CC01AF0191E1A1EB3
:101E1800194A1A2AFF0E19241B6EFF0E1A201C6E6F
:101E2800030ED56E1BC0D6FF1C50D76EF294D58E0C
:101E380000D0F2A4FED7D59E1200176E2A0E04EC2D
:101E480012F0000EFCEC11F017505924FCEC11F0C4
:101E5800000EFCEC11F015505924FCEC11F02B0E7F
:101E680004EC12F0000EFCEC11F014506124FCECB0
:101E780011F0000EFCEC11F016506124FCEC11F08E
:101E88002C0E04EC12F012001A501B10D8B41DD0FE
:101E9800010E1C6E05D0D8901A361B361C2A00D0AD
:101EA8001BBE02D0F8D700D01A50185C1B50195826
:101EB800D8A005D01A50185E1B50195A00D0D890D7
:101EC8001B321A321C2EF0D700D018C018F019C0D7
:101ED80019F01200B3EC11F0700ED36E0F0EC16E34
:101EE800000E926E310E936E010E946E000E956E7A
:101EF800000E966EF19E000EB26E020EB16EA00E2E
:101F0800116E860E126E010E136E000E146E24EC06
:101F180012F05EEC11F088EC11F0000E506E120019
:101F28002B6E2BC02CF02D6A0ED023C018F025C0C4
:101F380019F026C01AF027C01BF02C5087EC0CF0C3
:101F48002C4A2D2A00D024502BC028F0296A282694
:101F5800000E292228502C5C2D50800A2A6E295008
:101F6800800A2A58D8A0E1D71200116E3BEC12F073
:101F7800000E126E070E126401D00FD013EC12F08F
:101F880081AA03D0D880133604D013501324136EBB
:101F980000D037EC12F0122AEDD71150D8B403D084
:101FA800EBEC11F003D029EC12F000D0135000D064
:101FB80012001FC017F020C018F0000E1A6E0A0E8B
:101FC800196E3CEC0CF01750216E20BE0CD020503E
:101FD80004E1460E1F5CD8A006D08350F80B836E30
:101FE8008350070905D08350F80B836E8350211066
:101FF800836E00D01200B2CF17F0186A000E1A6E66
:10200800020E196E3CEC0CF017C021F018C022F03B
:10201800000EB26E21C011F022C012F0000E146E34
:102028003C0E136EDFEC10F011C01FF012C020F050
:1020380000D0120011C015F012C016F003D0154AD6
:10204800162A00D015C0D9FF16C0DAFFDF50D8A471
:10205800F6D711C013F012C014F0131E141E134A41
:10206800142A15501324116E16501420126E00D025
:1020780012002A0E04EC12F0000EFCEC11F0000E17
:10208800FCEC11F0000EFCEC11F07F0EFCEC11F0F2
:102098002B0E04EC12F0000EFCEC11F0000EFCEC20
:1020A80011F0000EFCEC11F09F0EFCEC11F0120088
:1020B800116E000E126E070E126401D011D011AE0F
:1020C80003D03BEC12F003D02EEC12F000D013EC4E
:1020D80012F037EC12F011501124116E122AEBD7BE
:1020E8003BEC12F013EC12F037EC12F01200480E31
:1020F800186EAA0E166EE2EC11F0185018245CEC5B
:1021080010F016505CEC10F094EC11F0D8801834F4
:102118005CEC10F0000EB9EC0FF0176ED9EC11F072
:1021280017C014F0156A00D0120011C015F012C0C3
:1021380016F005D0154A162A134A142A00D013C0DF
:10214800F6FF14C0F7FF15C0D9FF16C0DAFF080064
:10215800F5CFDFFFDF50D8A4EDD712001B6E800E3D
:102168001B6013D09F0E186401D00FD018C014F054
:102178001B28156E1828166E1B5021EC0FF01A50EC
:10218800FCEC11F01950FCEC11F0120082888490DC
:10219800800EC76E300EC66E2AEC08F03DEC10F0CB
:1021A800B3EC09F0360E04EC12F0C00EFCEC11F0A2
:1021B800010E536E120011501302F3CF15F0F4CF35
:1021C80016F011501402F350162612501302F35051
:1021D800162615C011F016C012F000D01200640EB9
:1021E8005C18D8A408D0BDEC11F0BDEC11F0640E59
:1021F800E1EC0BF006D0050E5C265C50E1EC0BF030
:1022080000D012001C6E1C50116E126A136A8E0EDA
:10221800146E000E156E7EEC0BF011C019F012C092
:102228001AF013C01BF000D012005C50D8A408D0DC
:10223800BDEC11F0BDEC11F0000EE1EC0BF006D096
:10224800050E5C5E5C50E1EC0BF000D01200000E55
:10225800126E000E116E12BE08D0680E115C420E8E
:102268001258D8B005D001D003D0114A122AF3D79A
:102278001200136E000E126E3A0E136006D02F0E67
:10228800136403D0010E126E00D012C011F0113089
:1022980000D01200156EE2EC11F0155015245CEC1C
:1022A80010F013505CEC10F014505CEC10F0D9EC0A
:1022B80011F01200480E166EAC0E136E020E146E5C
:1022C80016504EEC11F0EE0E136E16507BEC11F01A
:1022D8001200000E186E800E196EA00E1A6E24C021
:1022E8001BF025C01CF0000E10EC0BF01200146E51
:1022F800E2EC11F0145014245CEC10F013505CEC78
:1023080010F0D9EC11F01200F292F19CF288000E54
:10231800CF6E000ECE6E9E909D80F28CF28E1200D3
:1023280037EC12F03BEC12F013EC12F02EEC12F03A
:1023380037EC12F012005050D8A403D0F4EC11F08E
:1023480003D01FEC12F000D01200126E9E96C9CF77
:1023580011F012C0C9FF00D0C7A0FED71200000EAE
:10236800126E190E116E3C0EC5EC0DF0700ED36E88
:102378001200D0EC11F02BEC11F033EC12F05C50A1
:10238800E1EC0BF012008292000E186E640E176ECC
:10239800F8EC0EF082821200F90ECB6E050ECA6EB2
:1023A8004A0EBB6E3C0EBA6E120037EC12F02EECE1
:1023B80012F013EC12F03BEC12F012003BEC12F0AE
:1023C80013EC12F02EEC12F037EC12F012002EEC97
:1023D80012F013EC12F037EC12F03BEC12F0120092
:1023E800010E506E5C50E1EC0BF084828494120074
:1023F800136E829884801350A9EC11F08288120021
:10240800136E829884901350A9EC11F08288120000
:10241800116E00D0ACA2FED711C0ADFF1200938898
:10242800060EE82EFED700D01200000E526EF19C68
:10243800CD909E901200000E506E849284841200FB
:1024480013EC12F03BEC12F0120013EC12F037EC24
:1024580012F01200819A939A00D000D01200000E58
:10246800BA6E819612008198939800D01200938AD0
:1024780000D000D01200000E526ECD9012004BFF1B
:02248800010051
:10FD400000000000000000005F0000000700070046
:10FD5000147F147F14242A7F2A1223130864623626
:10FD6000495620500008070300001C2241000041B2
:10FD7000221C002A1C7F1C2A08083E0808008070EC
:10FD8000300008080808080000606000201008041F
:10FD9000023E5149453E00427F4000724949494672
:10FDA0002141494D331814127F1027454545393CF0
:10FDB0004A494931412111090736494949364649DD
:10FDC00049291E00001400000040340000000814FF
:10FDD0002241141414141400412214080201590978
:10FDE000063E415D594E7C1211127C7F49494936CD
:10FDF0003E414141227F4141413E7F494949417F46
:10FE0000090909013E414151737F0808087F0041FB
:10FE10007F41002040413F017F081422417F404044
:10FE200040407F021C027F7F0408107F3E41414119
:10FE30003E7F090909063E4151215E7F0919294685
:10FE4000264949493203017F01033F4040403F1F9B
:10FE50002040201F3F4038403F63140814630304D0
:10FE60007804036159494D43007F41414102040830
:10FE70001020004141417F04020102044040404003
:10FE800040000307080020545478407F2844443839
:10FE90003844444428384444287F38545454180083
:10FEA000087E090218A4A49C787F08040478004402
:10FEB0007D40002040403D007F1028440000417FED
:10FEC00040007C047804787C080404783844444476
:10FED00038FC1824241818242418FC7C080404086E
:10FEE000485454542404043F44243C4040207C1C87
:10FEF0002040201C3C4030403C44281028444C907A
:10FF000090907C4464544C440008364100000077D3
:10FF100000000041360800020102040201000A004C
:10FF20006400E803102701001000000100102530D4
:10FF300032783A253032783A2530327820253032FE
:10FF4000782F253032782F253032780043616E6E5D
:10FF50006F742066696E6420627574746F6E200D14
:10FF60000A002054656D70203D2025642043203D0B
:10FF700020256420462000454345333330314C2052
:10FF800046616C6C2032322D53340052504D203D6E
:10FF900020256420206463203D2025640D0A003064
:10FFA000313233343536373839616263646566001F
:10FFB0004E45435F436F6465203D2025780D0A0060
:10FFC000627574746F6E203D202564200D0A005404
:10FFD000656D70657261747572653A0020204641E6
:10FFE0004E0054696D650044617465004F4E2000F9
:10FFF0004F46460052504D00432F0044430000003E
:020000040020DA
:08000000FFFFFFFFFFFFFFFF00
:020000040030CA
:0E000000FF08191EFF8281FF0FC00FE00F40A6
:00000001FF
