:020000040000FA
:100000000F0EC16E000E946E956E966E180E306EC9
:10001000080E316E190E326E090E336E100E346EEC
:10002000110E356E000E366E010E376E050E386EEF
:10003000010E396E070E3A6E000E3B6E040E3C6EDA
:10004000030E3D6E020E3E6E060E3F6E340E00EE47
:1000500030F010EE38F0000E286E080E296E285091
:10006000826EEF50836EE750846E3EEC00F0E92A1A
:10007000E12A282A2906F3E127EF00F0FF0E216E7E
:100080000000FF0E206E00002006FDE12106F8E1D1
:0200900012005C
:0200920000006C
:020000040030CA
:0100010008F6
:0100020019E4
:010003001EDE
:010006008178
:00000001FF
