:040000000CEF00F011
:10000800FACF03F0FBCF04F0E9CF05F077ED08F065
:10001800F7EF07F0200E316E000E326E3DD1250E3F
:100028003618D8B404D0365054EC0BF035D1000E45
:10003800356E000E346E000E336E05D033841E4AC2
:100048001F2A01D00BD01EC0F6FF1FC0F7FF080003
:10005800F550300AD8B4F2D701D0F5D71EC0F6FF54
:100068001FC0F7FF0800F550F4EC0AF0D8A03BD009
:10007800000E356E000E346E00D034C011F035C05D
:1000880012F0000E146E0A0E136ECEEC0AF011C0B8
:1000980034F012C035F0D00E266EFF0E276E1EC04B
:1000A800F6FF1FC0F7FF0800F550286E296A265092
:1000B80028262750292228503426295035221E4A1E
:1000C8001F2A1EC0F6FF1FC0F7FF0800F550F4EC0A
:1000D8000AF0D8A008D0D1D706D0ECD0338803D006
:1000E80015D0DAD013D01EC0F6FF1FC0F7FF1E4A86
:1000F8001F2A0800F5CF36F03650000AD8B4DAD0F7
:100108006C0AD8B4EBD7140AD8A4C6D033A80ED03A
:1001180031C0D9FF32C0DAFFDECF2DF0DECF2EF0AE
:10012800DECF2FF0DECF30F0040E0FD031C0D9FF74
:1001380032C0DAFFDECF26F0DDCF27F026C02DF063
:1001480027C02EF02F6A306A020E3126000E3222A6
:1001580000D0010E366E080E3618D8B41CD001D067
:100168001AD03650040D9C0EF324F66EFF0EF420C0
:10017800F76E0900F5502D5C0900F5502E5809005E
:10018800F5502F580900F5503058D8A004D001D0A8
:1001980002D0362AE0D7800E36BE7F0E266E345047
:1001A800365C3550800A2658D8B007D03650345EB1
:1001B800000E36BEFF0E355A05D0000E356E000E05
:1001C800346E00D033A410D034503510D8B41CD0BD
:1001D800300E54EC0BF03406D8A0350634503510E8
:1001E800D8B412D0F5D710D034503510D8B40CD0BC
:1001F800200E54EC0BF03406D8A0350634503510D8
:10020800D8B402D0F5D700D036502B6E2C6A2BBE4E
:100218002C0638D02DC011F02EC012F02FC013F0CC
:1002280030C014F02BC026F02CC027F0D89026360A
:100238002736D890263627369C0E2624F66EFF0ED3
:100248002720F76E0900F5CF15F00900F5CF16F055
:100258000900F5CF17F00A00F5CF18F06DEC07F09C
:1002680011500F0B2A6E2A50010DE60EF324F66E7C
:10027800FF0EF420F76E0800F5CF36F0365054EC38
:100288000BF000D02B06D8A02C062B28C3E12C2875
:10029800D8B402D0BFD700D01EC0F6FF1FC0F7FFEA
:1002A8001E4A1F2A0800F5CF36F03650D8B402D0BF
:1002B800B6D600D012001EEC0BF0700ED36EF19E75
:1002C800000E926E010E936E000E946E000E956EE7
:1002D800000E966E0F0EC16E26EC07F0F292F19C9E
:1002E800F288000ECF6E000ECE6E9E909D80F28C2E
:1002F800F28E000E636E000E626E000E5A6E000ED5
:100308005B6E000E5C6E000E5D6E00D062046310C2
:10031800D8A4FCD7000E636E000E626E5BC066F058
:10032800BC0E1E6EFF0E1F6E5AC020F05BC021F07F
:100338005CC022F05DC023F066C024F0256A0EEC94
:1003480000F0F288F19C0001F3690001F069000EE9
:100358000001F26F000EF16F0001F2BF0AD0000138
:10036800F2511DE1150E0001F15DD8B018D001D091
:1003780016D0440E0001F125D96E000E0001F221BD
:10038800DA6E6650DE18D8A405D0F1C0F3F0F1C0DB
:10039800F0F000D00001F14BF22BDED700D0000EB8
:1003A8007EEC09F0000E50EC09F0000E22EC09F08A
:1003B8000001F329D8B457D0000E3C6E3C0E3B6EBA
:1003C800000E3E6E500E3D6E000E406E140E3F6ED7
:1003D8000001F351020D800EF324D96E000EF420B3
:1003E800DA6EDECF41F0DDCF42F0ACEC09F0000E62
:1003F8001D6E3C0E1C6E000E1F6E500E1E6E000E03
:10040800216E140E206EFF0E236E226864EC02F03B
:100418004D0E396E0001F351040D2A0EF3243A6E85
:10042800010EF4203B6E0001F351020D000EF3247F
:10043800D96E010EF420DA6EDECF3CF0DDCF3DF050
:100448000001F351020D800EF324D96E000EF42042
:10045800DA6EDECF3EF0DDCF3FF0010E406E340E97
:10046800BAEC05F000D00001F051010DAA0EF324FA
:10047800D96E000EF420DA6EDF507EEC09F0000130
:10048800F051010DBF0EF324D96E000EF420DA6E80
:10049800DF5050EC09F00001F051010DD40EF324A7
:1004A800D96E000EF420DA6EDF5022EC09F03BEC36
:1004B8000BF0E2EC0AF061EC0BF028D70CEF00F03F
:1004C80020C024F021C025F0241E251E244A252AF8
:1004D800010E24242A6E000E25202B6E000E276E96
:1004E800010E266E20C024F021C025F0D8902436B5
:1004F8002536241E251E244A252A24C028F025C076
:1005080029F0000E2D6E000E2C6E20C02EF021C09A
:100518002FF01E502024186E22C019F023C01AF0A4
:100528001C50A1EC0AF0205000081E24186E22C0AE
:1005380019F023C01AF01C50A1EC0AF01EC018F0E4
:1005480022C019F023C01AF01C502024A1EC0AF094
:100558001EC018F022C019F023C01AF0205000085D
:100568001C24A1EC0AF078D02BBE0BD02E06D8A004
:100578002F06020E2826000E292228502A26295046
:100588002B222C4A2D2A020E2626000E2722265020
:100598002A2627502B221E502E24186E22C019F00E
:1005A80023C01AF01C502C24A1EC0AF01E502E2453
:1005B800186E22C019F023C01AF02C5000081C2411
:1005C800A1EC0AF02E5000081E24186E22C019F063
:1005D80023C01AF01C502C24A1EC0AF02E5000085D
:1005E8001E24186E22C019F023C01AF02C500008DF
:1005F8001C24A1EC0AF01E502C24186E22C019F0FD
:1006080023C01AF01C502E24A1EC0AF01E502C24F2
:10061800186E22C019F023C01AF02E5000081C24AE
:10062800A1EC0AF02C5000081E24186E22C019F004
:1006380023C01AF01C502E24A1EC0AF02C500008FC
:100648001E24186E22C019F023C01AF02E5000087C
:100658001C24A1EC0AF000D02E502C5C2D50800AEE
:10066800246E2F50800A2458D8A07ED71200F29208
:100678006750D8B49AD0CE50CFCF01F0026A01C0EB
:1006880002F0016A01105E6E02505F6E000ECF6EBE
:10069800000ECE6E8AD0000ECF6E000ECE6E9E90EB
:1006A800900ECD6ECD80000E696E000E5A6E000E53
:1006B8005B6E000E5C6E000E5D6E010E676E73D091
:1006C80085D0350E5E5C210E5F58D8A009D01C0E6F
:1006D8005E5C250E5F58D8B003D0020E676E2AD034
:1006E80065EC0BF027D026D071D0A10E5E5C0F0E02
:1006F8005F58D8A009D0880E5E5C130E5F58D8B03A
:1007080003D0030E676E4FD065EC0BF04CD04BD086
:100718005DD0910E5E5C010E5F58D8A008D0BC0E6B
:100728005E5C020E5F58D8B002D0040ED7D765ECD5
:100738000BF000D0F19C4AD0910E5E5C010E5F5820
:10074800D8A02ED0080E5E5C070E5F58D8B028D00F
:10075800D8905A345A6E5B345B6E5C345C6E5D3490
:100768005D6EE90E5E5C030E5F58D8A00DD0010ED9
:100778005A245A6E000E5B205B6E000E5C205C6E85
:10078800000E5D205D6E00D0692A1F0E6964B9D71E
:10079800000E636E010E626EF298000E676EB1D79E
:1007A80065EC0BF000D0F18C11D06750000AD8B47A
:1007B80072D7010AD8B485D7030AD8B496D7010AE4
:1007C800D8B4A7D7070AD8B4B7D700D01200366E66
:1007D800800E3660A6D09F0E2E6401D0A2D0345071
:1007E800D8A403D0010E346E00D01F0E2F6404D09D
:1007F8007E0E2F6403D000D03F0E2F6E000E386E91
:10080800040E386401D08DD0530E2F6015D0E00E41
:100818002F24116E126AFF0E1222000E146E050E9E
:10082800136ECEEC0AF038501126000E1222C10EBB
:100838001124F66EFD0E14D0AD0E2F24116E126A1F
:10084800FF0E1222000E146E050E136ECEEC0AF087
:1008580038501126000E1222C00E1124F66EFE0E1C
:100868001220F76E0800F5CF35F000D0000E376E75
:10087800060E376401D053D035A023D03404D8A451
:100888000CD02E503724186E30C019F031C01AF031
:1008980036503824A1EC0AF03ED037503402F350D9
:1008A8002E24236E34C024F034C025F030C026F046
:1008B80031C027F038503402F350362425EC0AF0C2
:1008C8002AD03050321804E131503318D8B423D02C
:1008D8003404D8A40CD02E503724186E32C019F026
:1008E80033C01AF036503824A1EC0AF014D037502F
:1008F8003402F3502E24236E34C024F034C025F083
:1009080032C026F033C027F038503402F350362472
:1009180025EC0AF000D0372AD8903532A9D7382AE2
:100928006FD7120027C02FF028C030F02F1E301EBE
:100938002F4A302A010E2F24356E000E3020366ED5
:10094800000E326E010E316E27C02FF028C030F035
:10095800D8902F3630362F1E301E2F4A302A2FC0FF
:1009680033F030C034F0000E386E000E376E27C0FA
:1009780039F028C03AF067D036BE0BD03906D8A077
:100988003A06020E3326000E3422335035263450F0
:100998003622374A382A020E3126000E32223150CA
:1009A80035263250362229A025D039500008252472
:1009B800186E395039242B242F6E2F28196E2DC00C
:1009C8001AF02EC01BF023503724B3EC07F0375031
:1009D80000082524186E375037242B242F6E2F2813
:1009E800196E2DC01AF02EC01BF023503924B3EC19
:1009F80007F000D029A227D0395000082524186E06
:100A0800395039242B242F6E2F28196E2DC01AF037
:100A18002EC01BF0375000082324B3EC07F03750E2
:100A280000082524186E375037242B242F6E2F28C2
:100A3800196E2DC01AF02EC01BF03950000823245F
:100A4800B3EC07F000D03950375C3850800A2F6E6D
:100A58003A50800A2F58D8A08FD71200010E4CECBC
:100A68000BF0000E186E960E176ED5EC09F0110EED
:100A78004CEC0BF0010E186EF40E176ED5EC09F065
:100A8800B10E4CEC0BF0010E44EC0BF02C0E44ECC8
:100A98000BF02D0E44EC0BF0B20E4CEC0BF0010EEB
:100AA80044EC0BF02C0E44EC0BF02D0E44EC0BF048
:100AB800B30E4CEC0BF0010E44EC0BF02C0E44EC96
:100AC8000BF02D0E44EC0BF0010E44EC0BF02C0E49
:100AD80044EC0BF02D0E44EC0BF0B40E4CEC0BF088
:100AE800070E44EC0BF0C00E4CEC0BF0A20E44ECDD
:100AF8000BF0020E44EC0BF0840E44EC0BF0C10E2C
:100B08004CEC0BF0C50E44EC0BF0C20E4CEC0BF0A9
:100B18000A0E44EC0BF0000E44EC0BF0C30E4CEC48
:100B28000BF08A0E44EC0BF02A0E44EC0BF0C40ECA
:100B38004CEC0BF08A0E44EC0BF0EE0E44EC0BF090
:100B4800C50E4CEC0BF00E0E44EC0BF0200E4CECEA
:100B58000BF0360E4CEC0BF0C80E44EC0BF03A0ED2
:100B68004CEC0BF0050E44EC0BF012000001E96FA1
:100B7800E9C0EFF039C0EEF03AC011F03BC012F016
:100B88004AEC0AF011C0EAF012C0EBF0000E0001C6
:100B9800ED6F000EEC6F64D05950D8B434D040508B
:100BA800050D0001EF51416E426AF3504126F450A1
:100BB800422242BE28D0425004E1810E415CD8A0B6
:100BC80022D0000E0001EF6F4050070DF3500001D6
:100BD800EE25030F0001EE6FA00E0001EE6504D0B4
:100BE800A00E0001EE6F00D00001EC513A24D96E3E
:100BF8000001ED513B20DA6E200EDE18D8B42CD05F
:100C080002D02AD000D0EEC02EF00001EC513A24D8
:100C1800D96E0001ED513B20DA6EDF502F6E3CC0DB
:100C280030F03DC031F03EC032F03FC033F040C03C
:100C380034F00001EF51EBEC03F04050060DF35097
:100C48000001EF250001EF6F800E0001EF6504D071
:100C5800800E0001EF6F00D00001EC4BED2B00D0AF
:100C68000001EA510001EC5D0001EB510001ED5972
:100C7800D8A092D71200E00E4CEC0BF0020E44EC18
:100C88000BF01C0E44EC0BF0070E44EC0BF0120EAC
:100C980044EC0BF0370E44EC0BF0320E44EC0BF046
:100CA800290E44EC0BF02D0E44EC0BF0290E44EC0D
:100CB8000BF0250E44EC0BF02B0E44EC0BF0390E28
:100CC80044EC0BF0000E44EC0BF0010E44EC0BF07E
:100CD800030E44EC0BF0100E44EC0BF0E10E4CEC60
:100CE8000BF0030E44EC0BF01D0E44EC0BF0070E5A
:100CF80044EC0BF0060E44EC0BF02E0E44EC0BF01B
:100D08002C0E44EC0BF0290E44EC0BF02D0E44ECA9
:100D18000BF02E0E44EC0BF02E0E44EC0BF0370EBD
:100D280044EC0BF03F0E44EC0BF0000E44EC0BF0DF
:100D3800000E44EC0BF0020E44EC0BF0100E44ECE9
:100D48000BF0130E4CEC0BF0000E186E0A0E176E1B
:100D5800D5EC09F0290E4CEC0BF0000E186E640E61
:100D6800176ED5EC09F01200236E800E236069D04F
:100D78009F0E186401D065D0FF0E1D6EFF0E1E6E0B
:100D8800195023C01FF0206A1F26000E20221D5074
:100D98001F261E50202220BE0AD0205004E1800EBB
:100DA8001F5CD8A004D023500008800F196EFF0ED6
:100DB8001D6EFF0E1E6E1A5018C01FF0206A1F26E7
:100DC800000E20221D501F261E50202220BE0BD0B0
:100DD800205004E1A00E1F5CD8A005D018500008D0
:100DE800A00F1A6E00D018C014F0235019241D6EDD
:100DF8001D04156E18501A241E6E1E04166E2350FC
:100E0800FEEC09F01C50216E1BC022F082848298EF
:100E18001AC018F01850D8B413D001D011D019C086
:100E280023F02350D8B40AD001D008D0215028ECA0
:100E38000BF0225028EC0BF02306F3D71806EAD75C
:100E48008288120032EC0BF0B9EC0AF0000E256E25
:100E5800000E246E05EC0BF07E0E646E010E656EBE
:100E680064C011F065C012F0D20E136EFF0E146E3E
:100E780088EC0AF0020E396E64C03AF065C03BF0A7
:100E8800FF0E3D6E3C68000E3F6E000E3E6E010E7A
:100E9800406E020EBAEC05F064C011F065C012F0A5
:100EA800F70E136EFF0E146E88EC0AF00A0E396EF8
:100EB80064C03AF065C03BF0FF0E3D6E3C68000E22
:100EC8003F6E000E3E6E010E406E320EBAEC05F01B
:100ED8001200000E196E000E1A6E000E1B6E000E28
:100EE8001C6E1550161017101810D8B42FD0010EFC
:100EF8001D6E07D0D89015361636173618361D2AA7
:100F080000D018BE02D0F6D700D0D89019361A36BD
:100F18001B361C361550115C1650125817501358B2
:100F280018501458D8A00AD01550115E1650125AED
:100F38001750135A1850145A198000D0D8901832E4
:100F48001732163215321D2EE0D700D019C011F015
:100F58001AC012F01BC013F01CC014F01200226E4D
:100F6800800E22603FD09F0E186401D03BD0FF0E48
:100F78001C6EFF0E1D6E195018C01EF01F6A1E262B
:100F8800000E1F221C501E261D501F221FBE0BD0F4
:100F98001F5004E1A00E1E5CD8A005D01850000810
:100FA800A00F196E00D01B50206E1AC021F018C077
:100FB80014F022C015F0185019241C6E1C04166E6B
:100FC8002250FEEC09F08284829807D0205028EC49
:100FD8000BF0215028EC0BF000D019061928D8A4E2
:100FE800F5D78288120001EE7EF01F0EEE6AE80641
:100FF800FDE100EE5AF0130EEE6AE806FDE1700E10
:10100800F66E100EF76E000EF86E01EE00F010EEA0
:101018007EF00900F5CFEEFFE550E150FAE1DA0E77
:10102800F66E110EF76E000EF86E00EE80F010EE00
:1010380069F00900F5CFEEFFE550E150FAE1260E20
:10104800F66E160EF76E000EF86E00EE44F010EE17
:1010580016F00900F5CFEEFFE550E150FAE1000E79
:10106800F86E00015FEF01F0FFFFFFFFFFFFFFFFDA
:10107800FFFFFFFFFFFFFFFFFFFF00000000000072
:101088000000000000000000000000000000000058
:10109800000043482D004348200043482B007C3C77
:1010A8003C003E3E7C003E7C7C00564C2D00564C5D
:1010B8002B00455100002030200031303000323004
:1010C800300020312000203220002033200020343E
:1010D800200020352000203620002037200020382E
:1010E8002000203920000600EACF06F0E1CF07F003
:1010F800E2CF08F0D9CF09F0DACF0AF0F3CF0BF03E
:10110800F4CF0CF0F6CF0DF0F7CF0EF0F8CF0FF0CC
:10111800F5CF10F09EA003D05BEC0BF000D0F2A24C
:1011280003D03BEC03F000D010C0F5FF0FC0F8FF70
:101138000EC0F7FF0DC0F6FF0CC0F4FF0BC0F3FFA5
:101148000AC0DAFF09C0D9FF08C0E2FF07C0E1FF03
:1011580006C0EAFF05C0E9FF04C0FBFF03C0FAFFB1
:101168001100136E000EAC6E000EAB6E13A002D011
:10117800AC8800D013A203D0AC8CAB8C00D013A4E5
:1011880002D0AC8E00D013A602D0AB8802D0AB8AB6
:1011980000D013B8AC849E9813AA02D0AB8600D0B6
:1011A80013AC02D09D8A01D09D9A9E9A13AE02D0AC
:1011B8009D8801D09D9811C0AFFF1250B06EAC8AC7
:1011C800AB8E949C948EACB8ACBE02D0948C00D0FC
:1011D800120000F800F800F81F001F00E0071FF8D1
:1011E8001FF81FF8FFFFFFFFFFFFFFFFFFFFFFFFD5
:1011F800FFFFFFFFFFFFFFFFFFFFFFFF01010100F0
:1012080000000000000000000000000000000000D6
:10121800000000000606020303040505050000009F
:1012280000000000000000000000000000000000B6
:10123800000005050505050505050500116E14D016
:10124800809601D08086809802D080968088809A87
:1012580022D08096809806D0809603D08086FAD7D0
:1012680080868088808A17D01150000AD8B4E8D7C1
:10127800010AD8B4E7D7030AD8B4E7D7010AD8B423
:10128800E8D7070AD8B4EAD7010AD8B4E9D7030AD5
:10129800D8B4E2D700D01200116E14D0839A01D0CE
:1012A800838A839C02D0839A838C839E22D0839ADC
:1012B800839C06D0839A03D0838AFAD7838A838C47
:1012C800838E17D01150000AD8B4E8D7010AD8B4D1
:1012D800E7D7030AD8B4E7D7010AD8B4E8D7070A8A
:1012E800D8B4EAD7010AD8B4E9D7030AD8B4E2D700
:1012F80000D01200116E14D0839001D083808392A5
:1013080002D083908382839422D08390839206D0E4
:10131800839003D08380FAD783808382838417D015
:101328001150000AD8B4E8D7010AD8B4E7D7030A9D
:10133800D8B4E7D7010AD8B4E8D7070AD8B4EAD7A7
:10134800010AD8B4E9D7030AD8B4E2D700D012000A
:101358003F5000083D24186ED8803F34196E41C0B4
:101368001AF042C01BF03B50B3EC07F03BC023F02F
:101378003CC024F03DC025F03EC026F03FC027F019
:1013880040C028F0000E2A6E030E296E000E2C6E47
:10139800000E2B6E41C02DF042C02EF096EC04F0EA
:1013A800120017C011F018C012F0000E146EFA0ED9
:1013B800136ECEEC0AF011C01BF012C01CF01BC05B
:1013C80019F01CC01AF0191E1A1E194A1A2AFF0E03
:1013D80019241B6EFF0E1A201C6EB80EB16E1BC0AE
:1013E800B2FF1C50B36EA192B18000D0A1A2FED76B
:1013F800B1901200176E2A0E4CEC0BF0000E44EC64
:101408000BF017506A2444EC0BF0000E44EC0BF080
:1014180015506A2444EC0BF02B0E4CEC0BF0000E2C
:1014280044EC0BF014506C2444EC0BF0000E44EC2C
:101438000BF016506C2444EC0BF02C0E4CEC0BF01B
:1014480012002B6E2BC02CF02D6A0ED023C018F082
:1014580025C019F026C01AF027C01BF02C50B3EC99
:1014680007F02C4A2D2A00D024502BC028F0296AD6
:101478002826000E292228502C5C2D50800A2A6E1E
:101488002950800A2A58D8A0E1D7120011C015F0B7
:1014980012C016F003D0154A162A00D015C0D9FF7D
:1014A80016C0DAFFDF50D8A4F6D711C013F012C067
:1014B80014F0131E141E134A142A15501324116E07
:1014C80016501420126E00D012002A0E4CEC0BF0AD
:1014D800000E44EC0BF0000E44EC0BF0000E44EC54
:1014E8000BF07F0E44EC0BF02B0E4CEC0BF0000EC7
:1014F80044EC0BF0000E44EC0BF0000E44EC0BF047
:101508009F0E44EC0BF0120011C015F012C016F03B
:1015180005D0154A162A134A142A00D013C0F6FF1C
:1015280014C0F7FF15C0D9FF16C0DAFF0800F5CFC1
:10153800DFFFDF50D8A4EDD712001B6E800E1B60B2
:1015480013D09F0E186401D00FD018C014F01B28B8
:10155800156E1828166E1B50FEEC09F01A5044EC54
:101568000BF0195044EC0BF0120082888294800E24
:10157800C76E300EC66E32EC05F069EC0AF03FEC2F
:1015880006F0360E4CEC0BF0C00E44EC0BF0010EDE
:10159800686E120011501302F3CF15F0F4CF16F055
:1015A80011501402F350162612501302F350162647
:1015B80015C011F016C012F000D01200000E126E05
:1015C800000E116E12BE08D0680E115C420E125841
:1015D800D8B005D001D003D0114A122AF3D712008F
:1015E800136E000E126E3A0E136006D02F0E13649F
:1015F80003D0010E126E00D012C011F0113000D0CD
:101608001200000E186E800E196EA00E1A6E24C0FD
:101618001BF025C01CF0000EB8EC06F01200A26208
:10162800E22202C2E0A8906898B030187A10385ABE
:10163800424A5201000E126E190E116E3C0EB5ECA4
:1016480008F0600ED36E1200126E9E96C9CF11F08C
:1016580012C0C9FF00D0C7A0FED712008292000EA8
:10166800186E640E176ED5EC09F082821200F90E1E
:10167800CB6E050ECA6E4A0EBB6E3C0EBA6E1200D9
:10168800136E82988284135028EC0BF08288120023
:10169800136E82988294135028EC0BF08288120003
:1016A800116E00D0ACA2FED711C0ADFF1200000E23
:1016B800676EF19CCD909E901200000EBA6E8196D6
:0A16C8001200000E676ECD901200B4
:10FDC00000000000000000005F00000007000700C6
:10FDD000147F147F14242A7F2A12231308646236A6
:10FDE000495620500008070300001C224100004132
:10FDF000221C002A1C7F1C2A08083E08080080706C
:10FE0000300008080808080000606000201008049E
:10FE1000023E5149453E00427F40007249494946F1
:10FE20002141494D331814127F1027454545393C6F
:10FE30004A4949314121110907364949493646495C
:10FE400049291E000014000000403400000008147E
:10FE500022411414141414004122140802015909F7
:10FE6000063E415D594E7C1211127C7F494949364C
:10FE70003E414141227F4141413E7F494949417FC5
:10FE8000090909013E414151737F0808087F00417B
:10FE90007F41002040413F017F081422417F4040C4
:10FEA00040407F021C027F7F0408107F3E41414199
:10FEB0003E7F090909063E4151215E7F0919294605
:10FEC000264949493203017F01033F4040403F1F1B
:10FED0002040201F3F4038403F6314081463030450
:10FEE0007804036159494D43007F414141020408B0
:10FEF0001020004141417F04020102044040404083
:10FF000040000307080020545478407F28444438B8
:10FF10003844444428384444287F38545454180002
:10FF2000087E090218A4A49C787F08040478004481
:10FF30007D40002040403D007F1028440000417F6C
:10FF400040007C047804787C0804047838444444F5
:10FF500038FC1824241818242418FC7C08040408ED
:10FF6000485454542404043F44243C4040207C1C06
:10FF70002040201C3C4030403C44281028444C90F9
:10FF800090907C4464544C44000836410000007753
:10FF900000000041360800020102040201000000D6
:10FFA000100000000001000000100000000001002F
:10FFB0000000100000000001000000104E45435FEB
:10FFC000436F6465203D202530386C782025780DFE
:10FFD0000A00454345333330314C2046616C6C2078
:10FFE00032322D53310030313233343536373839EF
:10FFF000616263646566004C41422031302000003C
:020000040020DA
:08000000FFFFFFFFFFFFFFFF00
:020000040030CA
:0E000000FF08191EFF8281FF0FC00FE00F40A6
:00000001FF
