:0400000041EF6FF06D
:10D93200000EBA6E81961200010EC26E0E0EC16EFC
:10D94200A90EC06E1200036E829882940350C6EC38
:10D952006CF082881200036E829882840350C6ECB7
:10D962006CF082881200F90ECB6E050ECA6E4A0E5A
:10D97200BB6E3C0EBA6E12008292000E086E640EEE
:10D98200076E18EC6FF082821200026E9E96C9CF6B
:10D9920001F002C0C9FF00D0C7A0FED71200000EDE
:10D9A200026E190E016E3C0EA5EC6FF0600ED36E86
:10D9B20012008280B4EC6CF0F0EC6CF0829099EC86
:10D9C2006CF0F0EC6CF01200190E926E030E936E76
:10D9D200000E946E000E956E000E966E1200030EEF
:10D9E200D56EDB0ED66E0B0ED76EF294D58E00D0AE
:10D9F200F2A4FED7D59E1200000E086E800E096EAC
:10DA0200A00E0A6E14C00BF015C00CF0000E93ECC1
:04DA120073F012009B
:10DA1700013030003030003030003030003030001E
:10DA27003030004400300030003000300044003017
:10DA3700003000C28200D0C2B2FED7C450046E03C9
:10DA47006AC3500324056E000E0420066E05C0014C
:10DA5700F006C002F000D0120001500302F3CF0518
:10DA6700F0F4CF06F001500402F3500626025003EB
:10DA770002F350062605C001F006C002F000D012DE
:10DA870000400079002400300019001200020078DD
:10DA97000000001800FF00FF000000000000000069
:10DAA700000000FF000000000082888294800EC7FB
:10DAB7006E300EC66E5AEC75F062EC6EF0E1EC74E7
:10DAC700F0360EA4EC6CF0C00EACEC6CF0010E75E9
:10DAD7006E12003C6E3CC03DF03D50D8B40BD001F7
:10DAE700D009D01EEC70F03DC03AF0785029EC77A1
:10DAF700F03D06F2D7000E3A6E785029EC77F01217
:10DB0700000B6E800E0B6013D09F0E086401D00FC0
:10DB1700D008C004F00B28056E0828066E0B50C805
:10DB2700EC6EF00A50ACEC6CF00950ACEC6CF012F7
:10DB37000001C005F002C006F005D0054A062A0319
:10DB47004A042A00D003C0F6FF04C0F7FF05C0D976
:10DB5700FF06C0DAFF0800F5CFDFFFDF50D8A4EDDE
:10DB6700D71200016E0AD0809A01D0808A819C1357
:10DB7700D0809A01D0808A818C0ED00150000AD8BB
:10DB8700B4F2D7010AD8B4F1D7030AD8B4F1D70150
:10DB97000AD8B4F0D700D01200016E0AD0849201DF
:10DBA700D08482849413D0849201D0848284840E9A
:10DBB700D00150000AD8B4F2D7010AD8B4F1D7037C
:10DBC7000AD8B4F1D7010AD8B4F0D700D0120001AF
:10DBD7006E0AD0819801D08188819A13D0819801EB
:10DBE700D08188818A0ED00150000AD8B4F2D701BB
:10DBF7000AD8B4F1D7030AD8B4F1D7010AD8B4F0D8
:10DC0700D700D01200000E0C6E0AAE07D0096C0ABE
:10DC17001ED8B00A2A010E0C6E00D009C001F00A06
:10DC2700C002F0036A8E0E046E0CC005F030EC7370
:10DC3700F001C009F002C00AF003C00BF000D012D7
:10DC470000046E0450020D800EF324D96E000EF40A
:10DC570020DA6EDECF02F0DDCF03F002C083FF04CF
:10DC670050020D940EF324D96E000EF420DA6EDF05
:10DC770050016E84500118FE0B0118846E120001CA
:10DC8700C005F002C006F003D0054A062A00D005F9
:10DC9700C0D9FF06C0DAFFDF50D8A4F6D701C0030A
:10DCA700F002C004F0031E041E034A042A055003B1
:10DCB70024016E06500420026E00D012002A0EA422
:10DCC700EC6CF0000EACEC6CF0000EACEC6CF00001
:10DCD7000EACEC6CF07F0EACEC6CF02B0EA4EC6C85
:10DCE700F0000EACEC6CF0000EACEC6CF0000EAC7F
:10DCF700EC6CF09F0EACEC6CF01200366E020E78F6
:10DD07006E36C033F078509EEC79F00AD0809201DD
:10DD1700D08082809413D0809201D0808280840E3C
:10DD2700D03650000AD8B4F2D7010AD8B4F1D703D5
:10DD37000AD8B4F1D7010AD8B4F0D700D012001B23
:10DD47006E1BC01CF01D6A0ED013C008F015C00969
:10DD5700F016C00AF017C00BF01C505FEC70F01CF7
:10DD67004A1D2A00D014501BC018F0196A18260043
:10DD77000E192218501C5C1D50800A1A6E1950800B
:10DD87000A1A58D8A0E1D71200076E2A0EA4EC6C25
:10DD9700F0000EACEC6CF007507624ACEC6CF000A5
:10DDA7000EACEC6CF005507624ACEC6CF02B0EA4AA
:10DDB700EC6CF0000EACEC6CF004507924ACEC6C1D
:10DDC700F0000EACEC6CF006507924ACEC6CF02C47
:10DDD7000EA4EC6CF012002F5000082D24086ED80A
:10DDE700802F34096E31C00AF032C00BF02B505F20
:10DDF700EC70F02BC013F02CC014F02DC015F02ED2
:10DE0700C016F02FC017F030C018F0000E1A6E03BE
:10DE17000E196E000E1C6E000E1B6E31C01DF03207
:10DE2700C01EF0E2EC75F0120007C001F008C00256
:10DE3700F0000E046EFA0E036E30EC6DF001C00BAD
:10DE4700F002C00CF00BC009F00CC00AF0091E0A62
:10DE57001E094A0A2AFF0E09240B6EFF0E0A200C20
:10DE67006EB80EB16E0BC0D6FF0C50D76EA192B133
:10DE77008000D0A1A2FED7B190120000EEA8F01F3B
:10DE87000EEE6AE806FDE100EE65F0150EEE6AE8B3
:10DE970006FDE1880EF66EDA0EF76E000EF86E00DC
:10DEA700EE80F010EE28F00900F5CFEEFFE550E127
:10DEB70050FAE1170EF66EDA0EF76E000EF86E00E6
:10DEC700EE42F010EE23F00900F5CFEEFFE550E14A
:10DED70050FAE1000EF86E0001C2EF71F015C008AC
:10DEE700F017C009F01BC00AF01CC00BF01350A3B9
:10DEF700EC70F0155019241D6E1D04086E17C0092B
:10DF0700F01BC00AF01CC00BF01350A3EC70F01507
:10DF1700C008F019C009F01BC00AF01CC00BF013B1
:10DF2700505FEC70F015C008F019C009F01BC00A6B
:10DF3700F01CC00BF0135017241D6E1D045FEC700E
:10DF4700F01200036E000EAC6E000EAB6E03A00263
:10DF5700D0AC8800D003A203D0AC8CAB8C00D0032C
:10DF6700A402D0AC8E00D003A602D0AB8802D0ABFF
:10DF77008A00D003B8AC849E9803AA02D0AB86006F
:10DF8700D003AC02D09D8A01D09D9A9E9A03AE021F
:10DF9700D09D8801D09D9801C0AFFF0250B06EACF4
:10DFA7008AAB8E949C948EACB8ACBE02D0948C0095
:10DFB700D01200000E066E02AE07D0016C021ED80A
:10DFC700B0022A010E066E00D004AE05D0036C0421
:10DFD7001ED8B0042A00D003500410D8B41DD001B5
:10DFE7000E056E05D0D89003360436052A00D004F6
:10DFF700BE02D0F8D700D00350015C04500258D8B5
:10E00700A005D00350015E0450025A00D0D89004F6
:10E01700320332052EF0D700D00650D8B405D00110
:10E027006C021ED8B0022A00D001C001F002C00263
:10E03700F000D0120082806CC001F06DC002F0FDCC
:10E047000E036EFF0E046E9CEC6DF00A0E296E6CCB
:10E05700C02AF06DC02BF0FF0E2D6E2C68000E2F1E
:10E067006E000E2E6E010E306E780E01EC74F0F01D
:10E07700EC6CF082906CC001F06DC002F0FB0E03F7
:10E087006EFF0E046E9CEC6DF00A0E296E6CC02AB2
:10E09700F06DC02BF0FF0E2D6E2C68000E2F6E005A
:10E0A7000E2E6E010E306E780E01EC74F0F0EC6CF3
:10E0B700F0BFEC78F01200126E800E12603FD09F16
:10E0C7000E086401D03BD0FF0E0C6EFF0E0D6E09DB
:10E0D7005008C00EF00F6A0E26000E0F220C500ECD
:10E0E700260D500F220FBE0BD00F5004E1A00E0ECD
:10E0F7005CD8A005D008500008A00F096E00D00B0F
:10E1070050106E0AC011F008C004F012C005F008E4
:10E117005009240C6E0C04066E1250C8EC6EF08287
:10E1270084829807D01050C6EC6CF01150C6EC6C86
:10E13700F000D009060928D8A4F5D7828812001262
:10E147006E800E12603FD09F0E086401D03BD0FF57
:10E157000E0C6EFF0E0D6E095012C00EF00F6A0EF8
:10E1670026000E0F220C500E260D500F220FBE0B4D
:10E17700D00F5004E1800E0E5CD8A005D0125000DD
:10E1870008800F096E00D00B50106E0AC011F008FE
:10E19700C004F0125009240C6E0C04056E08C0066A
:10E1A700F01250C8EC6EF08284829807D01050C6E7
:10E1B700EC6CF01150C6EC6CF000D009060928D8B9
:10E1C700A4F5D7828812003D6E020E3D18D8A41E12
:10E1D700D03C043E6E3E50D8B40ED001D00CD03E99
:10E1E700C03AF0020ECEEC72F03E5024EC6EF0DA3C
:10E1F700EC6CF03E06EFD7000E3A6E020ECEEC72D4
:10E20700F083688480DAEC6CF0819000D03D50D8C0
:10E21700A41ED03C043F6E3F50D8B40ED001D00CA2
:10E22700D03FC03AF0000ECEEC72F03F5024EC6EB7
:10E23700F0DAEC6CF03F06EFD7000E3A6E000ECE28
:10E24700EC72F083688480DAEC6CF0819200D01273
:10E2570000000E066E04AE07D0036C041ED8B0048F
:10E267002A010E066E00D002AE07D0016C021ED83E
:10E27700B0022A010E061A00D0000E086E000E0723
:10E287006E03500410D8B421D0010E056E05D0D806
:10E297009003360436052A00D004BE02D0F8D70012
:10E2A700D0D890073608360350015C04500258D87E
:10E2B700A006D00350015E0450025A078000D0D850
:10E2C7009004320332052EECD700D00650D8B4059F
:10E2D700D0076C081ED8B0082A00D007C001F00884
:10E2E700C002F000D0120003AE17D001C007F00241
:10E2F700C008F003C009F0071E081E091E072A0000
:10E307000E08220922000E0724016E000E082002C3
:10E317006E800E0920036E00D006AE17D004C0072A
:10E32700F005C008F006C009F0071E081E091E0701
:10E337002A000E08220922000E0724046E000E0888
:10E3470020056E800E0920066E00D0000E011A000F
:10E357000E021A800E031A000E041A000E051A8008
:10E367000E061A0450015C0550025806500358D88F
:10E37700B002D0D89002D0D88000D01200E5EC6C63
:10E38700F09DEC6CF0D0EC6CF0700ED36EF19E4FFC
:10E39700EC7BF01DEC6DF001C040F002C041F04095
:10E3A700C001F041C002F0000E046E050E036E308E
:10E3B700EC6DF001C009F002C00AF006EC6EF0093E
:10E3C700C00DF00AC00EF00BC00FF0000E106E80EB
:10E3D7000E116E440E126E70EC74F00DC065F00EE7
:10E3E700C066F00FC067F065C001F066C002F06755
:10E3F700C003F0000E046E600E056E400E066E77C9
:10E40700EC71F0D8B002D0010E01D0000E726E0090
:10E41700D07250D8B403D06DEC72F0FAD717EC7203
:10E42700F0F7D700EF00F0000E696E000E686E81FE
:10E437009E4E0E556E020E81EC6EF0010EB5EC6D20
:10E44700F0010EEBEC6DF0010ED0EC6DF0020E81D9
:10E45700EC6EF0080E6DEC6DF0030E81EC6EF002C1
:10E467000E6DEC6DF0010E81EC6EF082AE10D002F5
:10E477000ED0EC6DF0060E6DEC6DF0030ED0EC6D6A
:10E48700F0020E6DEC6DF0010ED0EC6DF000D002D5
:10E497000EB5EC6DF0090E6DEC6DF0030EB5EC6D7D
:10E4A700F0020E6DEC6DF0010EB5EC6DF080A6106C
:10E4B700D0020EEBEC6DF0070E6DEC6DF0030EEB7A
:10E4C700EC6DF0020E6DEC6DF0010EEBEC6DF000F3
:10E4D700D01200000E696E010E686E818E440E55D3
:10E4E7006E020E81EC6EF0010EB5EC6DF0010EEBD5
:10E4F700EC6DF0010ED0EC6DF081A005D0090E3C5B
:10E507006E020EE7EC70F0080E6DEC6DF0030E81F5
:10E51700EC6EF0030E6DEC6DF0010E81EC6EF08287
:10E52700AE10D0020ED0EC6DF0060E6DEC6DF00360
:10E537000ED0EC6DF0030E6DEC6DF0010ED0EC6DAE
:10E54700F000D0020EB5EC6DF081A205D0080E3CAC
:10E557006E000EE7EC70F0060E6DEC6DF0030EB575
:10E56700EC6DF0030E6DEC6DF0010EB5EC6DF08007
:10E57700A610D0020EEBEC6DF0060E6DEC6DF003FD
:10E587000EEBEC6DF0030E6DEC6DF0010EEBEC6D28
:10E59700F000D012003B6E57D03AC001F0026A007B
:10E5A7000E046E0A0E036E2CEC71F00150300F4F03
:10E5B7006E3AC001F0026A000E046E0A0E036EDDA9
:10E5C700EC6FF00150300F506E1E0E296E4F0E2A61
:10E5D7006E000E2B6E070E2D6E2C68000E2F6E0030
:10E5E7000E2E6E020E306E020E01EC74F034D03A2D
:10E5F700C001F0026A000E046E0A0E036E2CEC7165
:10E60700F00150300F526E3AC001F0026A000E045A
:10E617006E0A0E036EDDEC6FF00150300F536E5A29
:10E627000E296E520E2A6E000E2B6E000E2D6E1FD7
:10E637000E2C6E000E2F6E000E2E6E020E306E0226
:10E647000E01EC74F008D03B50000AD8B4A5D702ED
:10E657000AD8B4CDD700D012000450D8B405D001E1
:10E667005002100310D8A40ED0000E016E000E0247
:10E677006E000E036E53D006D0042AD890033202E0
:10E6870032013200D0000E0114066E000E0214078C
:10E697006EFE0E0314086E065007100810D8B40E4D
:10E6A700D0EBD70CD0042A010E0126000E0222005F
:10E6B7000E0322D89003320232013200D0000E013D
:10E6C70014066E000E0214076EFF0E0314086E0682
:10E6D7005007100810D8B408D0E5D706D00406D8DC
:10E6E7009001360236033600D002BE04D0020E0473
:10E6F70060F5D700D004B002D0029E00D0D89004B5
:10E7070032045003120550D8B402D0038E00D00152
:10E71700C001F002C002F003C003F000D0120013E2
:10E727006E800E136069D09F0E086401D065D0FF1C
:10E737000E0D6EFF0E0E6E095013C00FF0106A0F0C
:10E7470026000E10220D500F260E50102210BE0A62
:10E75700D0105004E1800E0F5CD8A004D0135000F5
:10E7670008800F096EFF0E0D6EFF0E0E6E0A500821
:10E77700C00FF0106A0F26000E10220D500F260E44
:10E7870050102210BE0BD0105004E1A00E0F5CD821
:10E79700A005D008500008A00F0A6E00D008C004DA
:10E7A700F0135009240D6E0D04056E08500A240E4F
:10E7B7006E0E04066E1350C8EC6EF00C50116E0B03
:10E7C700C012F0828482980AC008F00850D8B413A7
:10E7D700D001D011D009C013F01350D8B40AD0011A
:10E7E700D008D01150C6EC6CF01250C6EC6CF01388
:10E7F70006F3D70806EAD782881200356E35C03986
:10E80700F029C038F02AC001F02BC002F043EC6EAB
:10E81700F001C033F002C034F0000E376E000E3640
:10E827006E54D04250D8B42CD03050050D395031E9
:10E837006E326AF3503126F450322232BE21D03282
:10E847005004E1810E315CD8A01BD0000E396E3028
:10E8570050070DF3503824030F386EA00E386403A9
:10E86700D0A00E386E00D036502A24D96E37502BE0
:10E8770020DA6E200EDE18D8B425D002D023D000BF
:10E88700D038C01EF036502A24D96E37502B20DAE4
:10E897006EDF501F6E2CC020F02DC021F02EC0223D
:10E8A700F02FC023F030C024F039507EEC76F030E2
:10E8B70050060DF3503924396E800E396403D08029
:10E8C7000E396E00D0364A372A00D03350365C34C2
:10E8D700503758D8A0A6D712000FC013F0146A15E6
:10E8E7006A0E34133601E3148013501A6E1A50D887
:10E8F700A402D00ED061D012C013F0146A156A11A9
:10E9070034133601E3148013501B6E1B50D8A40731
:10E91700D0000E0D6E000E0E6E000E0F6E4DD00065
:10E927000E176E000E186E000E196E1B50890F1A07
:10E937005E0FC01BF012501B1A800E1B160E8EFFA7
:10E947000E0D16FF0E0E16000E0F16118EFF0E106F
:10E9570016FF0E1116000E1216180E166E00D0D8DE
:10E967009017361836193610500D5C11500E581284
:10E97700500F58D8A007D010500D5E11500E5A12E4
:10E98700500F5A1780D8900D360E360F36162EE7D1
:10E99700D700D017C001F018C002F019C003F01A51
:10E9A700C004F01BC005F030EC73F001C00DF0029D
:10E9B700C00EF003C00FF000D01200E00EA4EC6C04
:10E9C700F0020EACEC6CF01C0EACEC6CF0070EAC6D
:10E9D700EC6CF0120EACEC6CF0370EACEC6CF03269
:10E9E7000EACEC6CF0290EACEC6CF02D0EACEC6CB4
:10E9F700F0290EACEC6CF0250EACEC6CF02B0EACE9
:10EA0700EC6CF0390EACEC6CF0000EACEC6CF00179
:10EA17000EACEC6CF0030EACEC6CF0100EACEC6CC6
:10EA2700F0E10EA4EC6CF0030EACEC6CF01D0EAC38
:10EA3700EC6CF0070EACEC6CF0060EACEC6CF02E48
:10EA47000EACEC6CF02C0EACEC6CF0290EACEC6C54
:10EA5700F02D0EACEC6CF02E0EACEC6CF02E0EAC78
:10EA6700EC6CF0370EACEC6CF03F0EACEC6CF000DD
:10EA77000EACEC6CF0000EACEC6CF0020EACEC6C77
:10EA8700F0100EACEC6CF0130EA4EC6CF0000E085A
:10EA97006E0A0E076E18EC6FF0290EA4EC6CF000EE
:10EAA7000E086E640E076E18EC6FF01200010EA4CC
:10EAB700EC6CF0000E086E960E076E18EC6FF011F6
:10EAC7000EA4EC6CF0010E086EF40E076E18EC6FD6
:10EAD700F0B10EA4EC6CF0010EACEC6CF02C0EACAB
:10EAE700EC6CF02D0EACEC6CF0B20EA4EC6CF001FB
:10EAF7000EACEC6CF02C0EACEC6CF02D0EACEC6CA0
:10EB0700F0B30EA4EC6CF0010EACEC6CF02C0EAC78
:10EB1700EC6CF02D0EACEC6CF0010EACEC6CF02C48
:10EB27000EACEC6CF02D0EACEC6CF0B40EA4EC6CEF
:10EB3700F0070EACEC6CF0C00EA4EC6CF0A20EACBF
:10EB4700EC6CF0020EACEC6CF0840EACEC6CF0C12B
:10EB57000EA4EC6CF0C50EACEC6CF0C20EA4EC6C21
:10EB6700F00A0EACEC6CF0000EACEC6CF0C30EA42B
:10EB7700EC6CF08A0EACEC6CF02A0EACEC6CF0C4CA
:10EB87000EA4EC6CF08A0EACEC6CF0EE0EACEC6CF8
:10EB9700F0C50EA4EC6CF00E0EACEC6CF0200EA4DD
:10EBA700EC6CF0360EA4EC6CF0C80EACEC6CF03AE2
:10EBB7000EA4EC6CF0050EACEC6CF0120017C01F45
:10EBC700F018C020F01F1E201E1F4A202A010E1F0A
:10EBD70024256E000E2020266E000E226E010E21C7
:10EBE7006E17C01FF018C020F0D8901F3620361FB0
:10EBF7001E201E1F4A202A1FC023F020C024F00019
:10EC07000E286E000E276E17C029F018C02AF0676D
:10EC1700D026BE0BD02906D8A02A06020E2326002E
:10EC27000E24222350252624502622274A282A024A
:10EC37000E2126000E222221502526225026221997
:10EC4700A025D0295000081524086E295029241B17
:10EC5700241F6E1F28096E1DC00AF01EC00BF0137B
:10EC67005027245FEC70F0275000081524086E2702
:10EC77005027241B241F6E1F28096E1DC00AF01E73
:10EC8700C00BF0135029245FEC70F000D019A227B5
:10EC9700D0295000081524086E295029241B241F49
:10ECA7006E1F28096E1DC00AF01EC00BF02750000A
:10ECB7000813245FEC70F0275000081524086E270E
:10ECC7005027241B241F6E1F28096E1DC00AF01E23
:10ECD700C00BF02950000813245FEC70F000D02916
:10ECE70050275C2850800A1F6E2A50800A1F58D868
:10ECF700A08FD71200266E800E2660A6D09F0E1E0C
:10ED07006401D0A2D02450D8A403D0010E246E00F1
:10ED1700D01F0E1F6404D07E0E1F6403D000D03FA7
:10ED27000E1F6E000E286E040E286401D08DD0537E
:10ED37000E1F6015D0E00E1F24016E026AFF0E023F
:10ED470022000E046E050E036E30EC6DF0285001A4
:10ED570026000E0222BD0E0124F66EFD0E14D0AD64
:10ED67000E1F24016E026AFF0E0222000E046E05BA
:10ED77000E036E30EC6DF028500126000E0222BC07
:10ED87000E0124F66EFE0E0220F76E0800F5CF2561
:10ED9700F000D0000E276E060E276401D053D02551
:10EDA700A023D02404D8A40CD01E502724086E20FA
:10EDB700C009F021C00AF02650282484EC6DF03EEB
:10EDC700D027502402F3501E24136E24C014F024BD
:10EDD700C015F020C016F021C017F028502402F308
:10EDE700502624A3EC6EF02AD02050221804E121EB
:10EDF700502318D8B423D02404D8A40CD01E5027ED
:10EE070024086E22C009F023C00AF0265028248463
:10EE1700EC6DF014D027502402F3501E24136E24F7
:10EE2700C014F024C015F022C016F023C017F02834
:10EE3700502402F3502624A3EC6EF000D0272AD8E2
:10EE4700902532A9D7282A6FD712003B6EAED03A49
:10EE5700C001F0026A000E046E0A0E036E2CEC71FC
:10EE6700F00150300F466E3AC001F0026A000E04FE
:10EE77006E0A0E036EDDEC6FF00150300F476E1E09
:10EE87000E296E460E2A6E000E2B6E070E2D6E2C67
:10EE970068000E2F6E000E2E6E020E306E640E018D
:10EEA700EC74F091D03AC001F0026A000E046E0AC9
:10EEB7000E036E2CEC71F00150300F4C6E3AC0010E
:10EEC700F0026A000E046E0A0E036EDDEC6FF001AD
:10EED70050300F4D6E5A0E296E4C0E2A6E000E2BB7
:10EEE7006E000E2D6E1F0E2C6E000E2F6E000E2E56
:10EEF7006E020E306E640E01EC74F065D03AC001FC
:10EF0700F0026A000E046E0A0E036E2CEC71F0011B
:10EF170050300F496E3AC001F0026A000E046E0AC3
:10EF27000E036EDDEC6FF00150300F4A6E780E293C
:10EF37006E490E2A6E000E2B6EF80E2D6E1F0E2CCC
:10EF47006E000E2F6E000E2E6E020E306E640E01D6
:10EF5700EC74F039D03AC001F0026A000E046E0A70
:10EF67000E036E2CEC71F00150300F436E3AC00166
:10EF7700F0026A000E046E0A0E036EDDEC6FF001FC
:10EF870050300F446E3C0E296E430E2A6E000E2B36
:10EF97006EFF0E2D6E2C68000E2F6E000E2E6E0269
:10EFA7000E306E640E01EC74F00ED03B50000AD8A0
:10EFB700B44ED7010AD8B4CED7030AD8B473D70151
:10EFC7000AD8B49CD700D0120010C014F011C01595
:10EFD700F0141E151E144A152A010E14241A6E0069
:10EFE7000E15201B6E000E176E010E166E10C01444
:10EFF700F011C015F0D89014361536141E151E14CE
:10F007004A152A14C018F015C019F0000E1D6E001D
:10F017000E1C6E10C01EF011C01FF00E50102408F9
:10F027006E12C009F013C00AF00C5084EC6DF0109A
:10F037005000080E24086E12C009F013C00AF00C25
:10F047005084EC6DF00EC008F012C009F013C00A2E
:10F05700F00C50102484EC6DF00EC008F012C009BB
:10F06700F013C00AF0105000080C2484EC6DF078FF
:10F07700D01BBE0BD01E06D8A01F06020E182600F6
:10F087000E192218501A2619501B221C4A1D2A0233
:10F097000E1626000E172216501A2617501B220E80
:10F0A700501E24086E12C009F013C00AF00C501C41
:10F0B7002484EC6DF00E501E24086E12C009F01364
:10F0C700C00AF01C5000080C2484EC6DF01E5000A0
:10F0D700080E24086E12C009F013C00AF00C501C69
:10F0E7002484EC6DF01E5000080E24086E12C0092F
:10F0F700F013C00AF01C5000080C2484EC6DF00ECD
:10F10700501C24086E12C009F013C00AF00C501EE0
:10F117002484EC6DF00E501C24086E12C009F01305
:10F12700C00AF01E5000080C2484EC6DF01C50003F
:10F13700080E24086E12C009F013C00AF00C501E06
:10F147002484EC6DF01C5000080E24086E12C009D0
:10F15700F013C00AF01E5000080C2484EC6DF00078
:10F16700D01E501C5C1D50800A146E1F50800A145C
:10F1770058D8A07ED712001DEC6DF001C03AF002FE
:10F18700C03BF03AC001F03BC002F0000E046E0530
:10F197000E036E30EC6DF001C009F002C00AF006F4
:10F1A700EC6EF009C00DF00AC00EF00BC00FF000B6
:10F1B7000E106E800E116E440E126E70EC74F00D10
:10F1C700C065F00EC066F00FC067F065C001F0665D
:10F1D700C002F067C003F0000E046E600E056E40BB
:10F1E7000E066E77EC71F0D8B002D0010E01D00098
:10F1F7000E726E000E81B2010E716E000E82BE019C
:10F207000E706E000E81B0010E746E000E80B60196
:10F217000E736E7150D8A402D0300E01D0310E5D3E
:10F227006E7250D8A402D04E0E01D0440E5F6E7499
:10F2370050D8A402D0300E01D0310E636E7350D86F
:10F24700A402D0300E01D0310E616E7050D8A402E6
:10F25700D0300E01D0310E5B6E00D00A0E296E55EC
:10F267000E2A6E000E2B6EFF0E2D6E2C68000E2FD1
:10F277006E000E2E6E010E306E230E01EC74F095AB
:10F287000E296E5D0E2A6E000E2B6EFF0E2D6E2C54
:10F2970068000E2F6E000E2E6E010E306E060E01E8
:10F2A700EC74F0950E296E5B0E2A6E000E2B6EFF26
:10F2B7000E2D6E2C68000E2F6E000E2E6E010E3076
:10F2C7006E200E01EC74F0950E296E630E2A6E0007
:10F2D7000E2B6EFF0E2D6E2C68000E2F6E000E2E5D
:10F2E7006E010E306E3A0E01EC74F0950E296E61C8
:10F2F7000E2A6E000E2B6EFF0E2D6E2C68000E2F41
:10F307006E000E2E6E010E306E570E01EC74F095E6
:10F317000E296E5F0E2A6E000E2B6EFF0E2D6E2CC1
:10F3270068000E2F6E000E2E6E010E306E700E01ED
:10F33700EC74F01200346E34501E0DF350230F3569
:10F347006E3350D8A467D0000E2C6E280E2B6E3566
:10F35700C02DF02E6A000E306E070E2F6E000E3293
:10F367006E000E316EEFEC6EF0000E2C6E3C0E2B25
:10F377006E35C02DF02E6A000E306E070E2F6E0010
:10F387000E326E000E316EEFEC6EF0000E2C6E50EA
:10F397000E2B6E35C02DF02E6A000E306E070E2F25
:10F3A7006E000E326E000E316EEFEC6EF0000E0D39
:10F3B7006E280E0C6E35C00EF00F6A000E116E0728
:10F3C7000E106EF80E136E000E126EE8EC77F0005A
:10F3D7000E0D6E3C0E0C6E35C00EF00F6A000E114E
:10F3E7006E070E106EFF0E136EE00E126EE8EC77CE
:10F3F700F0000E0D6E500E0C6E35C00EF00F6A0049
:10F407000E116E070E106E070E136EE00E126EE8E9
:10F41700EC77F000D03304D8A467D0000E2C6E2808
:10F427000E2B6E35C02DF02E6A000E306E070E2F94
:10F437006EF80E326E000E316EEFEC6EF0000E2C91
:10F447006E3C0E2B6E35C02DF02E6A000E306E0707
:10F457000E2F6E000E326E000E316EEFEC6EF00066
:10F467000E2C6E500E2B6E35C02DF02E6A000E300E
:10F477006E070E2F6E000E326E000E316EEFEC6EC1
:10F48700F0000E0D6E280E0C6E35C00EF00F6A00E0
:10F497000E116E070E106EF80E136E000E126EE848
:10F4A700EC77F0000E0D6E3C0E0C6E35C00EF00FB3
:10F4B7006A000E116E070E106EFF0E136EE00E122D
:10F4C7006EE8EC77F0000E0D6E500E0C6E35C00E28
:10F4D700F00F6A000E116E070E106E070E136EE026
:10F4E7000E126EE8EC77F000D0030E3318D8A4673D
:10F4F700D0000E2C6E280E2B6E35C02DF02E6A0014
:10F507000E306E070E2F6E000E326E000E316EEF4C
:10F51700EC6EF0000E2C6E3C0E2B6E35C02DF02ECF
:10F527006A000E306E070E2F6EFF0E326EE00E3140
:10F537006EEFEC6EF0000E2C6E500E2B6E35C02D5C
:10F54700F02E6A000E306E070E2F6E000E326E0020
:10F557000E316EEFEC6EF0000E0D6E280E0C6E3550
:10F56700C00EF00F6A000E116E070E106EF80E1324
:10F577006E000E126EE8EC77F0000E0D6E3C0E0C6E
:10F587006E35C00EF00F6A000E116E070E106EFF7B
:10F597000E136EE00E126EE8EC77F0000E0D6E5053
:10F5A7000E0C6E35C00EF00F6A000E116E070E10AE
:10F5B7006E070E136EE00E126EE8EC77F000D002C5
:10F5C7000E3318D8A467D0000E2C6E280E2B6E357C
:10F5D700C02DF02E6A000E306E070E2F6E000E3211
:10F5E7006E000E316EEFEC6EF0000E2C6E3C0E2BA3
:10F5F7006E35C02DF02E6A000E306E070E2F6E008E
:10F607000E326E000E316EEFEC6EF0000E2C6E5067
:10F617000E2B6E35C02DF02E6A000E306E070E2FA2
:10F627006E070E326EE00E316EEFEC6EF0000E0DCF
:10F637006E280E0C6E35C00EF00F6A000E116E07A5
:10F647000E106EF80E136E000E126EE8EC77F000D7
:10F657000E0D6E3C0E0C6E35C00EF00F6A000E11CB
:10F667006E070E106EFF0E136EE00E126EE8EC774B
:10F67700F0000E0D6E500E0C6E35C00EF00F6A00C6
:10F687000E116E070E106E070E136EE00E126EE867
:10F69700EC77F000D01200BDEC6CF058EC6DF00088
:10F6A7000E156E000E146EFDEC6CF0A80E6C6E005D
:10F6B7000E6D6E6CC001F06DC002F0AD0E036EFFF3
:10F6C7000E046E9CEC6DF0020E296E6CC02AF06D74
:10F6D700C02BF0FF0E2D6E2C68000E2F6E000E2E25
:10F6E7006E010E306E020E01EC74F06CC001F06D0D
:10F6F700C002F0E50E036EFF0E046E9CEC6DF00A7F
:10F707000E296E6CC02AF06DC02BF0FF0E2D6E2CEB
:10F7170068000E2F6E000E2E6E010E306E020E0167
:10F72700EC74F00A0E296E550E2A6E000E2B6EFF32
:10F737000E2D6E2C68000E2F6E000E2E6E010E30F1
:10F747006E230E01EC74F06CC001F06DC002F0EB9B
:10F757000E036EFF0E046E9CEC6DF00A0E296E6CA4
:10F76700C02AF06DC02BF0FF0E2D6E2C68000E2FF7
:10F777006E000E2E6E010E306E320E01EC74F00A22
:10F787000E296E570E2A6E000E2B6EFF0E2D6E2C55
:10F7970068000E2F6E000E2E6E010E306E460E01A3
:10F7A700EC74F06CC001F06DC002F0EF0E036EFF59
:10F7B7000E046E9CEC6DF00A0E296E6CC02AF06D7B
:10F7C700C02BF0FF0E2D6E2C68000E2F6E000E2E34
:10F7D7006E010E306E500E01EC74F00A0E296E5950
:10F7E7000E2A6E000E2B6EFF0E2D6E2C68000E2F4C
:10F7F7006E000E2E6E010E306E640E01EC74F06C0E
:10F80700C001F06DC002F0FD0E036EFF0E046E9C8A
:10F81700EC6DF00A0E296E6CC02AF06DC02BF0FF5C
:10F827000E2D6E2C68000E2F6E000E2E6E010E3000
:10F837006E780E01EC74F06CC001F06DC002F0CD73
:10F847000E036EFF0E046E9CEC6DF0140E296E6CA9
:10F85700C02AF06DC02BF0070E2D6E2C68000E2FFE
:10F867006E000E2E6E010E306E1E0E01EC74F0004F
:10F877000E146E1E0E136E000E166E1B0E156E0006
:10F887000E186E3C0E176E000E1A6E120E196E07CA
:10F897000E1C6E1B6872EC6FF0000E2C6E280E2B80
:10F8A7006E000E2E6E230E2D6E000E306E070E2F7D
:10F8B7006EF80E326E000E316EEFEC6EF0000E0D2C
:10F8C7006E3C0E0C6E000E0F6E230E0E6E000E11A8
:10F8D7006E070E106EFF0E136EE00E126EE8EC77D9
:10F8E700F0000E0D6E500E0C6E000E0F6E230E0EF6
:10F8F7006E000E116E070E106E070E136EE00E12DD
:10F907006EE8EC77F01E0E296E460E2A6E000E2B5F
:10F917006E070E2D6E2C68000E2F6E000E2E6E02D7
:10F927000E306E640E01EC74F06CC001F06DC00215
:10F93700F0DE0E036EFF0E046E9CEC6DF0320E29A6
:10F947006E6CC02AF06DC02BF0FF0E2D6E2C680078
:10F957000E2F6E000E2E6E010E306E1E0E01EC7411
:10F96700F0000E146E1E0E136E000E166E390E1575
:10F977006E000E186E3C0E176E000E1A6E120E19E0
:10F987006EFF0E1C6E1B6872EC6FF0000E2C6E285B
:10F997000E2B6E000E2E6E410E2D6E000E306E0772
:10F9A7000E2F6EF80E326E000E316EEFEC6EF00019
:10F9B7000E0D6E3C0E0C6E000E0F6E410E0E6E009D
:10F9C7000E116E070E106EFF0E136EE00E126EE82C
:10F9D700EC77F0000E0D6E500E0C6E000E0F6E41A0
:10F9E7000E0E6E000E116E070E106E070E136EE0F0
:10F9F7000E126EE8EC77F03C0E296E430E2A6E006D
:10FA07000E2B6EFF0E2D6E2C68000E2F6E000E2E25
:10FA17006E020E306E640E01EC74F06CC001F06D76
:10FA2700C002F0C10E036EFF0E046E9CEC6DF05029
:10FA37000E296E6CC02AF06DC02BF0000E2D6E1FC4
:10FA47000E2C6E000E2F6E000E2E6E010E306E1EE7
:10FA57000E01EC74F0000E146E1E0E136E000E16DF
:10FA67006E570E156E000E186E3C0E176E000E1AAE
:10FA77006E120E196E000E1C6E1F0E1B6E72EC6F4F
:10FA8700F0000E0D6E280E0C6E000E0F6E5F0E0E40
:10FA97006E000E116E070E106EF80E136E000E122A
:10FAA7006EE8EC77F0000E0D6E3C0E0C6E000E0F3C
:10FAB7006E5F0E0E6E000E116E070E106EFF0E13A8
:10FAC7006EE00E126EE8EC77F0000E2C6E500E2BE7
:10FAD7006E000E2E6E5F0E2D6E000E306E070E2F0F
:10FAE7006E070E326EE00E316EEFEC6EF05A0E2995
:10FAF7006E4C0E2A6E000E2B6E000E2D6E1F0E2CF6
:10FB07006E000E2F6E000E2E6E020E306E640E010A
:10FB1700EC74F06CC001F06DC002F0D70E036EFFFD
:10FB27000E046E9CEC6DF06E0E296E6CC02AF06DA3
:10FB3700C02BF0F80E2D6E1F0E2C6E000E2F6E00D0
:10FB47000E2E6E010E306E1E0E01EC74F0000E14B8
:10FB57006E1E0E136E000E166E750E156E000E18C5
:10FB67006E3C0E176E000E1A6E120E196EF80E1CF2
:10FB77006E1F0E1B6E72EC6FF0000E2C6E280E2B94
:10FB87006E000E2E6E7D0E2D6E000E306E070E2F40
:10FB97006EF80E326E000E316EEFEC6EF0000E0D49
:10FBA7006E3C0E0C6E000E0F6E7D0E0E6E000E116B
:10FBB7006E070E106EFF0E136EE00E126EE8EC77F6
:10FBC700F0000E0D6E500E0C6E000E0F6E7D0E0EB9
:10FBD7006E000E116E070E106E070E136EE00E12FA
:10FBE7006EE8EC77F0780E296E490E2A6E000E2B20
:10FBF7006EF80E2D6E1F0E2C6E000E2F6E000E2E41
:10FC07006E020E306E640E01EC74F01E0E296E4FFC
:10FC17000E2A6E000E2B6E070E2D6E2C68000E2F0F
:10FC27006E000E2E6E020E306E020E01EC74F06C3A
:10FC3700C001F06DC002F0F70E036EFF0E046E9C5C
:10FC4700EC6DF0140E296E6CC02AF06DC02BF00716
:10FC57000E2D6E2C68000E2F6E000E2E6E010E30CC
:10FC67006E030E01EC74F06CC001F06DC002F0F38E
:10FC77000E036EFF0E046E9CEC6DF0500E296E6C39
:10FC8700C02AF06DC02BF0000E2D6E1F0E2C6E00DB
:10FC97000E2F6E000E2E6E010E306E030E01EC74E9
:10FCA700F05A0E296E520E2A6E000E2B6E000E2D84
:10FCB7006E1F0E2C6E000E2F6E000E2E6E020E3073
:10FCC7006E020E01EC74F06CC001F06DC002F0988A
:10FCD7000E036EFF0E046E9CEC6DF08C0E296E6C9D
:10FCE700C02AF06DC02BF0FF0E2D6E2C68000E2F72
:10FCF7006E000E2E6E010E306E010E01EC74F09543
:10FD07000E296E5D0E2A6E000E2B6EFF0E2D6E2CC9
:10FD170068000E2F6E000E2E6E010E306E060E015D
:10FD2700EC74F0950E296E5B0E2A6E000E2B6EFF9B
:10FD37000E2D6E2C68000E2F6E000E2E6E010E30EB
:10FD47006E200E01EC74F0950E296E630E2A6E007C
:10FD57000E2B6EFF0E2D6E2C68000E2F6E000E2ED2
:10FD67006E010E306E3A0E01EC74F0950E296E613D
:10FD77000E2A6E000E2B6EFF0E2D6E2C68000E2FB6
:10FD87006E000E2E6E010E306E570E01EC74F0955C
:10FD97000E296E5F0E2A6E000E2B6EFF0E2D6E2C37
:10FDA70068000E2F6E000E2E6E010E306E700E0163
:10FDB700EC74F0120000000000000000005F00007B
:10FDC7000007000700147F147F14242A7F2A1223B8
:10FDD7001308646236495620500008070300001CC8
:10FDE7002241000041221C002A1C7F1C2A08083ED1
:10FDF70008080080703000080808080800006060E4
:10FE07000020100804023E5149453E00427F400051
:10FE170072494949462141494D331814127F102729
:10FE2700454545393C4A4949314121110907364978
:10FE3700494936464949291E00001400000040344C
:10FE47000000000814224114141414140041221451
:10FE57000802015909063E415D594E7C1211127C78
:10FE67007F494949363E414141227F4141413E7FD9
:10FE7700494949417F090909013E414151737F08B9
:10FE870008087F00417F41002040413F017F08145F
:10FE970022417F404040407F021C027F7F040810C0
:10FEA7007F3E4141413E7F090909063E4151215E9E
:10FEB7007F09192946264949493203017F01033F32
:10FEC7004040403F1F2040201F3F4038403F6314C1
:10FED70008146303047804036159494D43007F41C3
:10FEE70041410204081020004141417F0402010200
:10FEF7000440404040400003070800205454784025
:10FF07007F284444383844444428384444287F38B8
:10FF17005454541800087E090218A4A49C787F083A
:10FF270004047800447D40002040403D007F1028B5
:10FF3700440000417F40007C047804787C08040476
:10FF4700783844444438FC1824241818242418FC0E
:10FF57007C08040408485454542404043F44243CB3
:10FF67004040207C1C2040201C3C4030403C442822
:10FF77001028444C9090907C4464544C44000836BC
:10FF8700410000007700000041360800020102042A
:10FF9700024557502045574C54204E5350204E533E
:10FFA7004C54204D4400454345333330314C2046B3
:10FFB700616C6C2032322D5331004E4F5254482F12
:10FFC700534F55544800454153542F5745535400F8
:10FFD7004E2F53204C5400452F57204C54004D6F43
:10FFE70064653A0046523A0046533A00504E530071
:09FFF7005045570020002A0000CB
:020000040001F9
:01000000FF00
:020000040020DA
:08000000FFFFFFFFFFFFFFFF00
:020000040030CA
:0E000000FF08191EFF8281FF0FC00FE00F40A6
:00000001FF
