:040000000CEF00F011
:10000800FACF03F0FBCF04F0E9CF05F078ED08F064
:1000180037EF08F0200E316E000E326E3DD1250EFE
:100028003618D8B404D0365031EC0BF035D1000E68
:10003800356E000E346E000E336E05D033841E4AC2
:100048001F2A01D00BD01EC0F6FF1FC0F7FF080003
:10005800F550300AD8B4F2D701D0F5D71EC0F6FF54
:100068001FC0F7FF0800F550D1EC0AF0D8A03BD02C
:10007800000E356E000E346E00D034C011F035C05D
:1000880012F0000E146E0A0E136EABEC0AF011C0DB
:1000980034F012C035F0D00E266EFF0E276E1EC04B
:1000A800F6FF1FC0F7FF0800F550286E296A265092
:1000B80028262750292228503426295035221E4A1E
:1000C8001F2A1EC0F6FF1FC0F7FF0800F550D1EC2D
:1000D8000AF0D8A008D0D1D706D0ECD0338803D006
:1000E80015D0DAD013D01EC0F6FF1FC0F7FF1E4A86
:1000F8001F2A0800F5CF36F03650000AD8B4DAD0F7
:100108006C0AD8B4EBD7140AD8A4C6D033A80ED03A
:1001180031C0D9FF32C0DAFFDECF2DF0DECF2EF0AE
:10012800DECF2FF0DECF30F0040E0FD031C0D9FF74
:1001380032C0DAFFDECF26F0DDCF27F026C02DF063
:1001480027C02EF02F6A306A020E3126000E3222A6
:1001580000D0010E366E080E3618D8B41CD001D067
:100168001AD03650040D9C0EF324F66EFF0EF420C0
:10017800F76E0900F5502D5C0900F5502E5809005E
:10018800F5502F580900F5503058D8A004D001D0A8
:1001980002D0362AE0D7800E36BE7F0E266E345047
:1001A800365C3550800A2658D8B007D03650345EB1
:1001B800000E36BEFF0E355A05D0000E356E000E05
:1001C800346E00D033A410D034503510D8B41CD0BD
:1001D800300E31EC0BF03406D8A03506345035100B
:1001E800D8B412D0F5D710D034503510D8B40CD0BC
:1001F800200E31EC0BF03406D8A0350634503510FB
:10020800D8B402D0F5D700D036502B6E2C6A2BBE4E
:100218002C0638D02DC011F02EC012F02FC013F0CC
:1002280030C014F02BC026F02CC027F0D89026360A
:100238002736D890263627369C0E2624F66EFF0ED3
:100248002720F76E0900F5CF15F00900F5CF16F055
:100258000900F5CF17F00A00F5CF18F0ADEC07F05C
:1002680011500F0B2A6E2A50010DE60EF324F66E7C
:10027800FF0EF420F76E0800F5CF36F0365031EC5B
:100288000BF000D02B06D8A02C062B28C3E12C2875
:10029800D8B402D0BFD700D01EC0F6FF1FC0F7FFEA
:1002A8001E4A1F2A0800F5CF36F03650D8B402D0BF
:1002B800B6D600D01200FBEC0AF0700ED36EF19E99
:1002C800010E936E000E946E000E956E0F0EC16EA9
:1002D80066EC07F0F292F19CF288000ECF6E000EE9
:1002E800CE6E9E909D80F28CF28E000E636E000E94
:1002F800626E000E5A6E000E5B6E000E5C6E000E93
:100308005D6E00D062046310D8A4FCD7000E636E43
:10031800000E626E5BC066F0BC0E1E6EFF0E1F6E96
:100328005AC020F05BC021F05CC022F05DC023F011
:1003380066C024F0256A0EEC00F0F288F19C0001FA
:10034800E5690001E669000E0001E86F000EE76F3D
:100358000001E8BF0AD00001E8511DE1150E0001B7
:10036800E75DD8B018D001D016D0440E0001E725BB
:10037800D96E000E0001E821DA6E6650DE18D8A4A6
:1003880005D0E7C0E5F0E7C0E6F000D00001E74B94
:10039800E82BDED700D0000E40EC09F0000E17EC79
:1003A80009F0000EEEEC08F00001E529D8B444D0BD
:1003B800000E3C6E3C0E3B6E000E3E6E500E3D6EC7
:1003C800000E406E140E3F6E0001E551020D000E46
:1003D800F324D96E010EF420DA6EDECF41F0DDCFC2
:1003E80042F069EC09F0000E1D6E3C0E1C6E000E0A
:1003F8001F6E500E1E6E000E216E140E206EFF0E24
:10040800236E22684DEC02F04D0E396E0001E55165
:10041800040D540EF3243A6E010EF4203B6EFF0EC9
:100428003D6E3C68000E3F6E000E3E6E010E406E43
:10043800340EA6EC05F000D00001E651010D800E47
:10044800F324D96E000EF420DA6EDF5040EC09F088
:100458000001E651010D950EF324D96E000EF4202B
:10046800DA6EDF5017EC09F00001E651010DAA0E13
:10047800F324D96E000EF420DA6EDF50EEEC08F0AB
:1004880018EC0BF0BFEC0AF03EEC0BF03BD70CEF8E
:1004980000F020C024F021C025F0241E251E244A87
:1004A800252A010E24242A6E000E25202B6E000E0C
:1004B800276E010E266E20C024F021C025F0D890AA
:1004C80024362536241E251E244A252A24C028F031
:1004D80025C029F0000E2D6E000E2C6E20C02EF0C7
:1004E80021C02FF01E502024186E22C019F023C0FE
:1004F8001AF01C507EEC0AF0205000081E24186EDA
:1005080022C019F023C01AF01C507EEC0AF01EC05D
:1005180018F022C019F023C01AF01C5020247EECD9
:100528000AF01EC018F022C019F023C01AF020509B
:1005380000081C247EEC0AF078D02BBE0BD02E06C7
:10054800D8A02F06020E2826000E292228502A2677
:1005580029502B222C4A2D2A020E2626000E27224D
:1005680026502A2627502B221E502E24186E22C0D1
:1005780019F023C01AF01C502C247EEC0AF01E50EF
:100588002E24186E22C019F023C01AF02C5000082F
:100598001C247EEC0AF02E5000081E24186E22C07F
:1005A80019F023C01AF01C502C247EEC0AF02E50AF
:1005B80000081E24186E22C019F023C01AF02C500F
:1005C80000081C247EEC0AF01E502C24186E22C051
:1005D80019F023C01AF01C502E247EEC0AF01E508D
:1005E8002C24186E22C019F023C01AF02E500008CF
:1005F8001C247EEC0AF02C5000081E24186E22C021
:1006080019F023C01AF01C502E247EEC0AF02C504E
:1006180000081E24186E22C019F023C01AF02E50AC
:1006280000081C247EEC0AF000D02E502C5C2D50C3
:10063800800A246E2F50800A2458D8A07ED7120032
:10064800F2926750D8B49DD0CE50CFCF01F0026A55
:1006580001C002F0016A01105E6E02505F6E000E6A
:10066800CF6E000ECE6E8DD0000ECF6E000ECE6E09
:100678009E90900ECD6ECD80000E696E000E5A6E63
:10068800000E5B6E000E5C6E000E5D6E010E676EF6
:1006980076D088D0340E5E5C210E5F58D8A009D081
:1006A8001D0E5E5C250E5F58D8B003D0020E676E33
:1006B8002AD042EC0BF027D026D074D0A00E5E5C76
:1006C8000F0E5F58D8A009D0890E5E5C130E5F58D4
:1006D800D8B003D0030E676E03D042EC0BF000D005
:1006E800F18C00D0900E5E5C010E5F58D8A008D047
:1006F800BD0E5E5C020E5F58D8B002D0040ED7D78C
:1007080042EC0BF000D0F19C4DD0900E5E5C010ED7
:100718005F58D8A031D0090E5E5C070E5F58D8B07C
:100728002BD0D8905A345A6E5B345B6E5C345C6E56
:100738005D345D6EE90E5E5C030E5F58D8A00DD087
:10074800010E5A245A6E000E5B205B6E000E5C2070
:100758005C6E000E5D205D6E00D0692A1F0E696414
:1007680008D0000E636E010E626EF29842EC0BF038
:1007780000D0030E676E03D042EC0BF000D0F18C72
:1007880011D06750000AD8B46FD7010AD8B482D7FD
:10079800030AD8B493D7010AD8B4A4D7070AD8B49F
:1007A800B4D700D01200366E800E3660A6D09F0EE9
:1007B8002E6401D0A2D03450D8A403D0010E346ED8
:1007C80000D01F0E2F6404D07E0E2F6403D000D0FB
:1007D8003F0E2F6E000E386E040E386401D08DD097
:1007E800530E2F6015D0E00E2F24116E126AFF0EE3
:1007F8001222000E146E050E136EABEC0AF0385080
:100808001126000E1222C10E1124F66EFD0E14D010
:10081800AD0E2F24116E126AFF0E1222000E146EF6
:10082800050E136EABEC0AF038501126000E12229A
:10083800C00E1124F66EFE0E1220F76E0800F5CFDA
:1008480035F000D0000E376E060E376401D053D055
:1008580035A023D03404D8A40CD02E503724186ED9
:1008680030C019F031C01AF0365038247EEC0AF046
:100878003ED037503402F3502E24236E34C024F077
:1008880034C025F030C026F031C027F0385034028B
:10089800F3503624E2EC09F02AD03050321804E143
:1008A80031503318D8B423D03404D8A40CD02E50E7
:1008B8003724186E32C019F033C01AF03650382475
:1008C8007EEC0AF014D037503402F3502E24236EF5
:1008D80034C024F034C025F032C026F033C027F0ED
:1008E80038503402F3503624E2EC09F000D0372AAD
:1008F800D8903532A9D7382A6FD7120027C02FF0E1
:1009080028C030F02F1E301E2F4A302A010E2F2407
:10091800356E000E3020366E000E326E010E316ECE
:1009280027C02FF028C030F0D8902F3630362F1E31
:10093800301E2F4A302A2FC033F030C034F0000E5A
:10094800386E000E376E27C039F028C03AF067D0ED
:1009580036BE0BD03906D8A03A06020E3326000E52
:1009680034223350352634503622374A382A020E7C
:100978003126000E3222315035263250362229A037
:1009880025D0395000082524186E395039242B24D5
:100998002F6E2F28196E2DC01AF02EC01BF0235071
:1009A8003724F3EC07F0375000082524186E375029
:1009B80037242B242F6E2F28196E2DC01AF02EC025
:1009C8001BF023503924F3EC07F000D029A227D0DC
:1009D800395000082524186E395039242B242F6EDD
:1009E8002F28196E2DC01AF02EC01BF037500008A2
:1009F8002324F3EC07F0375000082524186E3750ED
:100A080037242B242F6E2F28196E2DC01AF02EC0D4
:100A18001BF0395000082324F3EC07F000D03950BC
:100A2800375C3850800A2F6E3A50800A2F58D8A069
:100A38008FD71200010E29EC0BF0000E186E960EDF
:100A4800176E92EC09F0110E29EC0BF0010E186EDE
:100A5800F40E176E92EC09F0B10E29EC0BF0010EB2
:100A680021EC0BF02C0E21EC0BF02D0E21EC0BF0F1
:100A7800B20E29EC0BF0010E21EC0BF02C0E21EC40
:100A88000BF02D0E21EC0BF0B30E29EC0BF0010E40
:100A980021EC0BF02C0E21EC0BF02D0E21EC0BF0C1
:100AA800010E21EC0BF02C0E21EC0BF02D0E21EC9D
:100AB8000BF0B40E29EC0BF0070E21EC0BF0C00E76
:100AC80029EC0BF0A20E21EC0BF0020E21EC0BF03E
:100AD800840E21EC0BF0C10E29EC0BF0C50E21ECB5
:100AE8000BF0C20E29EC0BF00A0E21EC0BF0000EF5
:100AF80021EC0BF0C30E29EC0BF08A0E21EC0BF065
:100B08002A0E21EC0BF0C40E29EC0BF08A0E21EC16
:100B18000BF0EE0E21EC0BF0C50E29EC0BF00E0ECF
:100B280021EC0BF0200E29EC0BF0360E29EC0BF023
:100B3800C80E21EC0BF03A0E29EC0BF0050E21EC57
:100B48000BF012000001DE6FDEC0E4F039C0E3F004
:100B58003AC011F03BC012F027EC0AF011C0DFF0E8
:100B680012C0E0F0000E0001E26F000EE16F64D0E9
:100B78005950D8B434D04050050D0001E451416EAD
:100B8800426AF3504126F450422242BE28D04250D5
:100B980004E1810E415CD8A022D0000E0001E46F70
:100BA8004050070DF3500001E325030F0001E36FE8
:100BB800A00E0001E36504D0A00E0001E36F00D091
:100BC8000001E1513A24D96E0001E2513B20DA6E6E
:100BD800200EDE18D8B42CD002D02AD000D0E3C022
:100BE8002EF00001E1513A24D96E0001E2513B2078
:100BF800DA6EDF502F6E3CC030F03DC031F03EC0A1
:100C080032F03FC033F040C034F00001E451D7EC7B
:100C180003F04050060DF3500001E4250001E46F95
:100C2800800E0001E46504D0800E0001E46F00D05E
:100C38000001E14BE22B00D00001DF510001E15D32
:100C48000001E0510001E259D8A092D71200E00E4D
:100C580029EC0BF0020E21EC0BF01C0E21EC0BF032
:100C6800070E21EC0BF0120E21EC0BF0370E21ECE5
:100C78000BF0320E21EC0BF0290E21EC0BF02D0EAF
:100C880021EC0BF0290E21EC0BF0250E21EC0BF0DA
:100C98002B0E21EC0BF0390E21EC0BF0000E21ECA1
:100CA8000BF0010E21EC0BF0030E21EC0BF0100EF3
:100CB80021EC0BF0E10E29EC0BF0030E21EC0BF00C
:100CC8001D0E21EC0BF0070E21EC0BF0060E21ECAB
:100CD8000BF02E0E21EC0BF02C0E21EC0BF0290E54
:100CE80021EC0BF02D0E21EC0BF02E0E21EC0BF06D
:100CF8002E0E21EC0BF0370E21EC0BF03F0E21EC01
:100D08000BF0000E21EC0BF0000E21EC0BF0020EA4
:100D180021EC0BF0100E21EC0BF0130E29EC0BF06C
:100D2800000E186E0A0E176E92EC09F0290E29ECC7
:100D38000BF0000E186E640E176E92EC09F012009C
:100D4800236E800E236069D09F0E186401D065D091
:100D5800FF0E1D6EFF0E1E6E195023C01FF0206A75
:100D68001F26000E20221D501F261E50202220BEA6
:100D78000AD0205004E1800E1F5CD8A004D0235074
:100D88000008800F196EFF0E1D6EFF0E1E6E1A50A2
:100D980018C01FF0206A1F26000E20221D501F2693
:100DA8001E50202220BE0BD0205004E1A00E1F5C54
:100DB800D8A005D018500008A00F1A6E00D018C08F
:100DC80014F0235019241D6E1D04156E18501A2492
:100DD8001E6E1E04166E2350BBEC09F01C50216ECB
:100DE8001BC022F0828482981AC018F01850D8B418
:100DF80013D001D011D019C023F02350D8B40AD091
:100E080001D008D0215005EC0BF0225005EC0BF076
:100E18002306F3D71806EAD78288120000F800F8EC
:100E280000F81F001F00E0071FF81FF81FF8FFFF5A
:100E3800FFFFFFFFFFFFFFFFFFFFFFFFFFFFFFFFBA
:100E4800FFFFFFFFFFFFFFFFFFFFFFFFFFFFFFFFAA
:100E5800FFFFFFFFFFFFFFFF000000000000000092
:100E6800000000000000000000000000000000007A
:100E780043482D004348200043482B007C3C3C005D
:100E88003E3E7C003E7C7C00564C2D00564C2B0090
:100E98004551000020302000313030003230300021
:100EA8002031200020322000203320002034200070
:100EB8002035200020362000203720002038200050
:100EC800203920000FEC0BF096EC0AF0000E256E8E
:100ED800000E246EE2EC0AF0BF0E646E000E656E22
:100EE80064C011F065C012F0D20E136EFF0E146EBE
:100EF80065EC0AF0020E396E64C03AF065C03BF04A
:100F0800FF0E3D6E3C68000E3F6E000E3E6E010EF9
:100F1800406E020EA6EC05F064C011F065C012F038
:100F2800F70E136EFF0E146E65EC0AF00A0E396E9A
:100F380064C03AF065C03BF0FF0E3D6E3C68000EA1
:100F48003F6E000E3E6E010E406E320EA6EC05F0AE
:100F58001200000E196E000E1A6E000E1B6E000EA7
:100F68001C6E1550161017101810D8B42FD0010E7B
:100F78001D6E07D0D89015361636173618361D2A26
:100F880000D018BE02D0F6D700D0D89019361A363D
:100F98001B361C361550115C165012581750135832
:100FA80018501458D8A00AD01550115E1650125A6D
:100FB8001750135A1850145A198000D0D890183264
:100FC8001732163215321D2EE0D700D019C011F095
:100FD8001AC012F01BC013F01CC014F01200226ECD
:100FE800800E22603FD09F0E186401D03BD0FF0EC8
:100FF8001C6EFF0E1D6E195018C01EF01F6A1E26AB
:10100800000E1F221C501E261D501F221FBE0BD073
:101018001F5004E1A00E1E5CD8A005D0185000088F
:10102800A00F196E00D01B50206E1AC021F018C0F6
:1010380014F022C015F0185019241C6E1C04166EEA
:101048002250BBEC09F08284829807D0205005EC2E
:101058000BF0215005EC0BF000D019061928D8A484
:10106800F5D78288120000EEBFF01F0EEE6AE80680
:10107800FDE100EE5AF0130EEE6AE806FDE1240EDB
:10108800F66E0E0EF76E000EF86E01EE00F010EE22
:10109800A8F00900F5CFEEFFE550E150FAE10E0E99
:1010A800F66E140EF76E000EF86E00EE80F010EE7D
:1010B8003FF00900F5CFEEFFE550E150FAE1E00E10
:1010C800F66E150EF76E000EF86E00EE44F010EE98
:1010D80016F00900F5CFEEFFE550E150FAE1000EF9
:1010E800F86E00015FEF01F00600EACF06F0E1CFED
:1010F80007F0E2CF08F0D9CF09F0DACF0AF0F3CF42
:101108000BF0F4CF0CF0F6CF0DF0F7CF0EF0F8CFD0
:101118000FF0F5CF10F09EA003D038EC0BF000D004
:10112800F2A203D024EC03F000D010C0F5FF0FC0EA
:10113800F8FF0EC0F7FF0DC0F6FF0CC0F4FF0BC0A0
:10114800F3FF0AC0DAFF09C0D9FF08C0E2FF07C0F1
:10115800E1FF06C0EAFF05C0E9FF04C0FBFF03C0CA
:10116800FAFF1100136E000EAC6E000EAB6E13A0EA
:1011780002D0AC8800D013A203D0AC8CAB8C00D0CA
:1011880013A402D0AC8E00D013A602D0AB8802D034
:10119800AB8A00D013B8AC849E9813AA02D0AB8651
:1011A80000D013AC02D09D8A01D09D9A9E9A13AEAE
:1011B80002D09D8801D09D9811C0AFFF1250B06E2B
:1011C800AC8AAB8E949C948EACB8ACBE02D0948C96
:1011D80000D01200116E12D0809601D080868098BF
:1011E80002D080968088809A1DD0809601D0808613
:1011F800809802D080868088808A14D01150000A96
:10120800D8B4EAD7010AD8B4E9D7030AD8B4E9D7D9
:10121800010AD8B4EAD7070AD8B4E9D7010AD8B47A
:10122800E9D700D01200116E12D0839A01D0838AB8
:10123800839C02D0839A838C839E1DD0839A01D08D
:10124800838A839C02D0838A838C838E14D0115026
:10125800000AD8B4EAD7010AD8B4E9D7030AD8B43F
:10126800E9D7010AD8B4EAD7070AD8B4E9D7010AF6
:10127800D8B4E9D700D01200116E12D0839001D0F3
:101288008380839202D08390838283941DD083903D
:1012980001D08380839202D083808382838414D098
:1012A8001150000AD8B4EAD7010AD8B4E9D7030A1A
:1012B800D8B4E9D7010AD8B4EAD7070AD8B4E9D725
:1012C800010AD8B4E9D700D012003F5000083D24E5
:1012D800186ED8803F34196E41C01AF042C01BF016
:1012E8003B50F3EC07F03BC023F03CC024F03DC07A
:1012F80025F03EC026F03FC027F040C028F0000E81
:101308002A6E030E296E000E2C6E000E2B6E41C045
:101318002DF042C02EF082EC04F0120017C011F03C
:1013280018C012F0000E146EFA0E136EABEC0AF031
:1013380011C01BF012C01CF01BC019F01CC01AF021
:10134800191E1A1E194A1A2AFF0E19241B6EFF0E9F
:101358001A201C6EB80EB16E1BC0B2FF1C50B36EC3
:10136800A192B18000D0A1A2FED7B1901200176E51
:101378002A0E29EC0BF0000E21EC0BF017506A2412
:1013880021EC0BF0000E21EC0BF015506A2421EC37
:101398000BF02B0E29EC0BF0000E21EC0BF0145087
:1013A8006C2421EC0BF0000E21EC0BF016506C2491
:1013B80021EC0BF02C0E29EC0BF012002B6E2BC03D
:1013C8002CF02D6A0ED023C018F025C019F026C0C5
:1013D8001AF027C01BF02C50F3EC07F02C4A2D2AEA
:1013E80000D024502BC028F0296A2826000E292274
:1013F80028502C5C2D50800A2A6E2950800A2A58C1
:10140800D8A0E1D712000101010303020000000087
:1014180000000000000000000000000000000000C4
:10142800000404040505050505050000000000008A
:10143800000000000000000000000000000000059F
:1014480005050505050011C015F012C016F003D0FA
:10145800154A162A00D015C0D9FF16C0DAFFDF508A
:10146800D8A4F6D711C013F012C014F0131E141E1E
:10147800134A142A15501324116E16501420126E94
:1014880000D012002A0E29EC0BF0000E21EC0BF014
:10149800000E21EC0BF0000E21EC0BF07F0E21EC7E
:1014A8000BF02B0E29EC0BF0000E21EC0BF0000ECC
:1014B80021EC0BF0000E21EC0BF09F0E21EC0BF051
:1014C800120011C015F012C016F005D0154A162AE0
:1014D800134A142A00D013C0F6FF14C0F7FF15C032
:1014E800D9FF16C0DAFF0800F5CFDFFFDF50D8A418
:1014F800EDD712001B6E800E1B6013D09F0E186470
:1015080001D00FD018C014F01B28156E1828166EBD
:101518001B50BBEC09F01A5021EC0BF0195021ECD0
:101528000BF0120082888294800EC76E300EC66E51
:101538001EEC05F046EC0AF02BEC06F0360E29EC12
:101548000BF0C00E21EC0BF0010E686E120011506A
:101558001302F3CF15F0F4CF16F011501402F35024
:10156800162612501302F350162615C011F016C095
:1015780012F000D01200000E126E000E116E12BE94
:1015880008D0680E115C420E1258D8B005D001D0B0
:1015980003D0114A122AF3D71200136E000E126EEE
:1015A8003A0E136006D02F0E136403D0010E126E8C
:1015B80000D012C011F0113000D01200000E186EC9
:1015C800800E196EA00E1A6E24C01BF025C01CF0E8
:1015D800000EA4EC06F01200A262E22202C2E0A809
:1015E800906898B030187A10385A424A5201000E62
:1015F800126E190E116E3C0EB6EC08F0600ED36E2A
:101608001200126E9E96C9CF11F012C0C9FF00D009
:10161800C7A0FED712008292000E186E640E176ED5
:1016280092EC09F082821200F90ECB6E050ECA6E9A
:101638004A0EBB6E3C0EBA6E1200136E82988284FC
:10164800135005EC0BF082881200136E8298829476
:10165800135005EC0BF082881200116E00D0ACA27A
:10166800FED711C0ADFF1200000E676EF19CCD9041
:101678009E901200000EBA6E81961200000E676EE0
:04168800CD901200EF
:10FDC00000000000000000005F00000007000700C6
:10FDD000147F147F14242A7F2A12231308646236A6
:10FDE000495620500008070300001C224100004132
:10FDF000221C002A1C7F1C2A08083E08080080706C
:10FE0000300008080808080000606000201008049E
:10FE1000023E5149453E00427F40007249494946F1
:10FE20002141494D331814127F1027454545393C6F
:10FE30004A4949314121110907364949493646495C
:10FE400049291E000014000000403400000008147E
:10FE500022411414141414004122140802015909F7
:10FE6000063E415D594E7C1211127C7F494949364C
:10FE70003E414141227F4141413E7F494949417FC5
:10FE8000090909013E414151737F0808087F00417B
:10FE90007F41002040413F017F081422417F4040C4
:10FEA00040407F021C027F7F0408107F3E41414199
:10FEB0003E7F090909063E4151215E7F0919294605
:10FEC000264949493203017F01033F4040403F1F1B
:10FED0002040201F3F4038403F6314081463030450
:10FEE0007804036159494D43007F414141020408B0
:10FEF0001020004141417F04020102044040404083
:10FF000040000307080020545478407F28444438B8
:10FF10003844444428384444287F38545454180002
:10FF2000087E090218A4A49C787F08040478004481
:10FF30007D40002040403D007F1028440000417F6C
:10FF400040007C047804787C0804047838444444F5
:10FF500038FC1824241818242418FC7C08040408ED
:10FF6000485454542404043F44243C4040207C1C06
:10FF70002040201C3C4030403C44281028444C90F9
:10FF800090907C4464544C44000836410000007753
:10FF900000000041360800020102040201000000D6
:10FFA000100000000001000000100000000001002F
:10FFB0000000100000000001000000104E45435FEB
:10FFC000436F6465203D202530386C782025780DFE
:10FFD0000A00454345333330314C2046616C6C2078
:10FFE00032322D53310030313233343536373839EF
:10FFF000616263646566004C41422031302000003C
:020000040020DA
:08000000FFFFFFFFFFFFFFFF00
:020000040030CA
:0E000000FF08191EFF8281FF0FC00FE00F40A6
:00000001FF
