:04000000EDEF16F01A
:1010000000010000000A00000064000000E8030086
:101010000010270000A086010040420F0080969833
:101020000000E1F50500CA9A3B00803FCDCC3DD7DA
:10103000233C12833AB7D138C62737388635C0D615
:1010400033CC2B32708930E7DB2EE53C1E42A20DFB
:1010500000803F00204100C842007A44401C4650B6
:10106000C34724744997184BBCBE4C6B6E4E031596
:101070005079AD60F3497154686520566F6C7461A6
:1010800067652069732025302E33660D0A00726F64
:101090006F742025640D0A0A0000420E4E6E000E89
:1010A0004F6E6BEF0DF0250E6318D8B405D063506A
:1010B00087EC17F06BEF0DF0000E5D6E000E5C6EAE
:1010C000000E5B6E000E5A6E05D05A84404A412ACB
:1010D00001D00BD040C0F6FF41C0F7FF0800F5502B
:1010E000300AD8B4F2D701D0F5D740C0F6FF41C0DE
:1010F000F7FF0800F5503BEC17F0D8A035D0000EF4
:101100005D6E000E5C6E00D05CC00FF05DC010F034
:10111000000E126E0A0E116E02EC17F00FC05CF09A
:1011200010C05DF0D00E456EFF0E466E40C0F6FF5B
:1011300041C0F7FF0800F550476E486A4550472602
:101140004650482247505C2648505D22404A412A7A
:1011500040C0F6FF41C0F7FF0800F5503BEC17F028
:10116000D8A002D0D1D700D040C0F6FF41C0F7FFD1
:101170000800F5502E0AD8A430D05B8C404A412A92
:10118000000E626E000E616E1CD061C00FF062C076
:1011900010F0000E126E0A0E116E02EC17F040C035
:1011A000F6FF41C0F7FF0800F5500F26000E102291
:1011B000D00E0F24616EFF0E1020626E404A412A4D
:1011C00000D040C0F6FF41C0F7FF0800F5503BECEF
:1011D00017F0D8A00FD0D9D70DD0000E626E000E38
:1011E000616E5B8807D07AEF0DF05B841BD06BEFEC
:1011F0000DF018D040C0F6FF41C0F7FF404A412A29
:101200000800F5CF63F06350000AD8B47AEF0DF010
:10121000640AD8B407D0020AD8B4E7D70F0AD8A412
:101220006BEF0DF0070E5B14D8B423D35BA805D089
:10123000000E626E060E616E00D04EC0D9FF4FC028
:10124000DAFFDECF5EF0DECF5FF0DDCF60F0030EC1
:101250004E26000E4F2260AE11D05EC001F05FC07E
:1012600002F060C003F029EC17F001C05EF002C08C
:101270005FF003C060F0030E5A1200D0000E596EEA
:10128000000E586E5E505F106010D8B485D0820E8C
:10129000456EFF0E466E5EC047F05FC048F060C00E
:1012A00049F061C04AF0100E05D0D8904A32493258
:1012B00048324732E82EF9D747504524586E000E81
:1012C0004620596E5806D8A0590658C00FF059C08C
:1012D00010F0000E126E030E116E02EC17F00FC02C
:1012E00058F010C059F058C001F059C002F0000E7B
:1012F000046E0A0E036ED1EC14F001C058F002C067
:1013000059F059AE04D05806D8A0590600D058500C
:1013100000087BEC0DF024C050F025C051F026C031
:1013200052F050C015F051C016F052C017F05EC018
:1013300018F05FC019F060C01AF00EEC13F015C081
:1013400050F016C051F017C052F050C001F051C01B
:1013500002F052C003F0000E046E800E056E3F0EC8
:10136000066E1CEC15F0D8B004D05806D8A059066B
:1013700013D050C001F051C002F052C003F0000E73
:10138000046E200E056E410E066E1CEC15F0D8A002
:1013900003D0584A592A00D062BE06D062501CE1E0
:1013A0000D0E615CD8B018D05EC02EF05FC02FF07B
:1013B00060C030F061506BEC0FF024C031F025C0FC
:1013C00032F026C033F08DEC10F02EC05EF02FC04E
:1013D0005FF030C060F000D059BE06D0595020E117
:1013E0000A0E585CD8B01CD05E505F106010D8B4A4
:1013F0006DD05EC02BF05FC02CF060C02DF08AEC89
:1014000013F02B502C102D102E10D8B459BE5ED0D6
:10141000595006E1020E585CD8B002D057D000D027
:1014200050C001F051C002F052C003F0700E046EC3
:10143000890E056E400E066E1CEC15F0D8B002D079
:10144000F70E01D0F80E5826FF0E592200D0585042
:101450007BEC0DF024C050F025C051F026C052F0B6
:1014600017D05EC001F05FC002F060C003F050C052
:1014700004F051C005F052C006F089EC12F001C032
:1014800054F002C055F003C056F004C057F017D016
:101490005EC001F05FC002F060C003F050C004F015
:1014A00051C005F052C006F001EC12F001C054F03A
:1014B00002C055F003C056F004C057F000D0000E33
:1014C0005E6E000E5F6E000E606E33D05EC02BF05D
:1014D0005FC02CF060C02DF08AEC13F02BC054F0EC
:1014E0002CC055F02DC056F02EC057F05EC03AF01B
:1014F0005FC03BF060C03CF054C009F055C00AF03A
:1015000056C00BF057C00CF05EEC16F009C03DF071
:101510000AC03EF00BC03FF08EEC16F03AC05EF011
:101520003BC05FF03CC060F0000E596E000E586E7C
:1015300000D0010E636E0A0E6318D8B41CD001D01F
:101540001AD06350040D010EF324F66E100EF42031
:10155000F76E0900F550545C0900F5505558090024
:10156000F55056580900F5505758D8A004D001D06E
:1015700002D0632AE0D763C045F0466A45BE4606FE
:101580006150452662504622585045265950462201
:1015900045505C5E46505D5A61506210D8B404D02C
:1015A0005C06D8A05D0600D0030E5A14456E000EEE
:1015B0005B14466E45504610D8B404D05C06D8A0E3
:1015C0005D0600D05AA426D0030E5A14456E000EB4
:1015D0005B14466E45504610D8B40BD02D0E87ECE8
:1015E00017F007D0300E87EC17F05C06D8A05D0628
:1015F00000D05DBE69D05D50F5E15C04D8A064D038
:10160000F1D762D007D0200E87EC17F05C06D8A087
:101610005D0600D05DBE05D05D50F5E15C04D8B03C
:10162000F2D7030E5A14456E000E5B14466E4550F9
:101630004610D8B449D02D0E87EC17F045D054C0D1
:1016400001F055C002F056C003F057C004F06350DB
:10165000040D010EF324F66E100EF420F76E09004F
:10166000F5CF05F00900F5CF06F00900F5CF07F03A
:101670000A00F5CF08F067EC15F001C050F002C089
:1016800051F003C052F004C053F050C00EF051C0EE
:101690000FF052C010F053C011F00A0E126E000E7F
:1016A000136E000E146E000E156EEEEC15F00EC0EB
:1016B00050F00FC051F010C052F011C053F0505014
:1016C000300F87EC17F000D063066328D8B409D038
:1016D000B6D707D0300E87EC17F05806D8A05906B9
:1016E00000D059BE05D05950F5E15804D8B0F2D712
:1016F00062BE09D0625004E1090E615CD8A003D03B
:10170000080E636E03D061C063F000D06350615E69
:10171000000E63BEFF0E625A6350D8B404D02E0E82
:1017200087EC17F000D063507BEC0DF024C04BF039
:1017300025C04CF026C04DF05EC018F05FC019F017
:1017400060C01AF04BC015F04CC016F04DC017F039
:101750000EEC13F015C02BF016C02CF017C02DF0B6
:101760008AEC13F02BC054F02CC055F02DC056F06D
:101770002EC057F06BD054C001F055C002F056C0D7
:1017800003F057C004F06350040D010EF324F66E0D
:10179000100EF420F76E0900F5CF05F00900F5CF23
:1017A00006F00900F5CF07F00A00F5CF08F067EC66
:1017B00015F001C050F002C051F003C052F004C057
:1017C00053F050C00EF051C00FF052C010F053C093
:1017D00011F00A0E126E000E136E000E146E000E43
:1017E000156EEEEC15F00EC050F00FC051F010C0A9
:1017F00052F011C053F05050300F87EC17F054C026
:101800000EF055C00FF056C010F057C011F06350E5
:10181000040D010EF324F66E100EF420F76E09008D
:10182000F5CF12F00900F5CF13F00900F5CF14F051
:101830000A00F5CF15F0EEEC15F00EC054F00FC015
:1018400055F010C056F011C057F000D06306632861
:10185000D8B409D090D707D0300E87EC17F06106C6
:10186000D8A0620600D061506210D8B434D1F4D749
:1018700032D14EC0D9FF4FC0DAFFDECF54F0DDCFFA
:1018800055F0000E55BEFF0E566E576E020E4E26D8
:10189000000E4F2257AE0BD0030E5A12571E561E83
:1018A000551E546C000E55225622572200D061500E
:1018B0006210D8A409D05450551056105710D8A40F
:1018C00003D0614A622A00D0010E636E0A0E6318CB
:1018D000D8B41CD001D01AD06350040D010EF324EB
:1018E000F66E100EF420F76E0900F550545C0900F6
:1018F000F55055580900F55056580900F5505758FD
:10190000D8A004D001D002D0632AE0D7800E63BEF5
:101910007F0E456E6150635C6250800A4558D8B0B6
:1019200003D061C063F011D06250800A456E6350ED
:10193000615C800E63BE7F0E4558D8B006D0635000
:10194000616E626A61BE620600D05C505D10D8B400
:101950000ED0030E5A14456E000E5B14466E4550B1
:101960004610D8B404D05C06D8A05D0600D05BACAD
:1019700014D05C50615C6250800A456E5D50800AF4
:101980004558D8B005D061505C5E62505D5A05D0B4
:10199000000E5D6E000E5C6E00D0800E63BE7F0E8A
:1019A000456E5C50635C5D50800A4558D8B007D0E6
:1019B00063505C5E000E63BEFF0E5D5A05D0000EE4
:1019C0005D6E000E5C6E00D05AA41ED0030E5A1439
:1019D000456E000E5B14466E45504610D8B404D0D8
:1019E0002D0E87EC17F000D05C505D10D8B469D094
:1019F000300E87EC17F05C06D8A05D065C505D10D9
:101A0000D8B45FD0F5D75DD05C505D10D8B40CD0A1
:101A1000200E87EC17F05C06D8A05D065C505D10C8
:101A2000D8B402D0F5D700D0030E5A14456E000E7C
:101A30005B14466E45504610D8B443D02D0E87EC4B
:101A400017F03FD061C045F062C046F0D8904536EF
:101A50004636D89045364636010E4524F66E100EB1
:101A60004620F76E0900F5CF05F00900F5CF06F026
:101A70000900F5CF07F00A00F5CF08F054C001F0D7
:101A800055C002F056C003F057C004F067EC15F0E3
:101A900001C00EF002C00FF003C010F004C011F03E
:101AA0000A0E126E000E136E000E146E000E156EEE
:101AB000EEEC15F00E50300F636E635087EC17F0AC
:101AC00000D06106D8A062066128BCE16228D8B4C3
:101AD00002D0B8D700D040C0F6FF41C0F7FF404A5F
:101AE000412A0800F5CF63F06350D8B403D053EF18
:101AF00008F000D012002A6E2AAEEFD02A6C2A50CD
:101B0000800A120FD8A08DD0000E126E030E116E37
:101B1000000E046E0A0E036E000E0C6E640E0B6E49
:101B20002A50096E0A6A09BE0A06ADEC15F009C012
:101B300001F00AC002F0D1EC14F0090E01240F6E7E
:101B4000000E0220106E02EC17F0290E0F24F66E24
:101B5000100E1020F76E0900F5CF18F00900F5CF30
:101B600019F00A00F5CF1AF0000E046E640E036E31
:101B70002A50016E026A01BE0206D1EC14F0120E68
:101B800001240F6E000E0220106E000E126E030E66
:101B9000116E02EC17F0290E0F24F66E100E1020B5
:101BA000F76E0900F5CF15F00900F5CF16F00A0021
:101BB000F5CF17F00EEC13F015C027F016C028F083
:101BC00017C029F027C015F028C016F029C017F05B
:101BD000000E126E030E116E000E0C6E0A0E0B6ECE
:101BE0002A50096E0A6A09BE0A06ADEC15F009C052
:101BF0000FF00AC010F002EC17F0290E0F24F66E59
:101C0000100E1020F76E0900F5CF18F00900F5CF7F
:101C100019F00A00F5CF1AF00EEC13F041D15AD1A9
:101C200054D02A50800A750FD8A04FD0000E046EF1
:101C30000A0E036E2A50016E026A01BE0206D1EC42
:101C400014F0090E01240F6E000E0220106E000E1B
:101C5000126E030E116E02EC17F0290E0F24F66EB1
:101C6000100E1020F76E0900F5CF15F00900F5CF22
:101C700016F00A00F5CF17F0000E126E030E116E6B
:101C8000000E0C6E0A0E0B6E2A50096E0A6A09BE0F
:101C90000A06ADEC15F009C00FF00AC010F002EC16
:101CA00017F0290E0F24F66E100E1020F76E0900A3
:101CB000F5CF18F00900F5CF19F00A00F5CF1AF0AA
:101CC0000EEC13F0EDD006D100D02A50030D290EF2
:101CD000F324F66E100EF2D0FDD02A50800A120FB7
:101CE000D8A08DD0000E126E030E116E000E046E81
:101CF0000A0E036E000E0C6E640E0B6E2A50096EF7
:101D00000A6A09BE0A06ADEC15F009C001F00AC066
:101D100002F0D1EC14F0090E01240F6E000E022027
:101D2000106E02EC17F0500E0F24F66E100E1020FD
:101D3000F76E0900F5CF18F00900F5CF19F00A0089
:101D4000F5CF1AF0000E046E640E036E2A50016E79
:101D5000026A01BE0206D1EC14F0120E01240F6ECD
:101D6000000E0220106E000E126E030E116E02ECB9
:101D700017F0500E0F24F66E100E1020F76E0900AB
:101D8000F5CF15F00900F5CF16F00A00F5CF17F0E2
:101D90000EEC13F015C027F016C028F017C029F07C
:101DA00027C015F028C016F029C017F0000E126EDB
:101DB000030E116E000E0C6E0A0E0B6E2A50096E89
:101DC0000A6A09BE0A06ADEC15F009C00FF00AC098
:101DD00010F002EC17F0500E0F24F66E100E1020CB
:101DE000F76E0900F5CF18F00900F5CF19F00A00D9
:101DF000F5CF1AF00EEC13F053D06CD059D02A5016
:101E0000800A750FD8A054D0000E046E0A0E036E1F
:101E10002A50016E026A01BE0206D1EC14F0090ECE
:101E200001240F6E000E0220106E000E126E030EC3
:101E3000116E02EC17F0500E0F24F66E100E1020EB
:101E4000F76E0900F5CF15F00900F5CF16F00A007E
:101E5000F5CF17F0000E126E030E116E000E0C6E11
:101E60000A0E0B6E2A50096E0A6A09BE0A06ADEC0C
:101E700015F009C00FF00AC010F002EC17F0500E78
:101E80000F24F66E100E1020F76E0900F5CF18F033
:101E90000900F5CF19F00A00F5CF1AF00EEC13F097
:101EA00015C024F016C025F017C026F013D000D0BE
:101EB0002A50030D500EF324F66E100EF420F76E28
:101EC0000900F5CF24F00900F5CF25F00A00F5CF81
:101ED00026F000D012002D6E6D0E2D649BD0000EEA
:101EE000126E030E116E000E046E0A0E036E000ECB
:101EF0000C6E640E0B6E2DC009F00A6AADEC15F085
:101F000009C001F00AC002F0D1EC14F0090E01245E
:101F10000F6E000E0220106E02EC17F0290E0F2437
:101F2000F66E100E1020F76E0900F5CF18F00900BC
:101F3000F5CF19F00A00F5CF1AF0000E046E640E0A
:101F4000036E2DC001F0026AD1EC14F0120E0124D0
:101F50000F6E000E0220106E000E126E030E116E38
:101F600002EC17F0290E0F24F66E100E1020F76EFB
:101F70000900F5CF15F00900F5CF16F00A00F5CFEE
:101F800017F00EEC13F015C02AF016C02BF017C096
:101F90002CF0000E126E030E116E000E0C6E0A0E67
:101FA0000B6E2DC009F00A6AADEC15F009C00FF0F8
:101FB0000AC010F002EC17F0290E0F24F66E100E76
:101FC0001020F76E0900F5CF18F00900F5CF19F0D1
:101FD0000A00F5CF1AF02AC015F02BC016F02CC05D
:101FE00017F00EEC13F015C027F016C028F017C03C
:101FF00029F027C015F028C016F029C017F0000EF0
:10200000186E000E196E3F0E1A6E0EEC13F07DD096
:1020100083D062D00A0E2D645FD0000E126E030EC4
:10202000116E000E0C6E0A0E0B6E2DC009F00A6ABE
:10203000ADEC15F009C00FF00AC010F002EC17F07B
:10204000290E0F24F66E100E1020F76E0900F5CF42
:1020500018F00900F5CF19F00A00F5CF1AF0000EBC
:10206000046E0A0E036E2DC001F0026AD1EC14F06A
:10207000090E01240F6E000E0220106E000E126E6B
:10208000030E116E02EC17F0290E0F24F66E100EDF
:102090001020F76E0900F5CF15F00900F5CF16F006
:1020A0000A00F5CF17F00EEC13F015C02AF016C099
:1020B0002BF017C02CF02AC015F02BC016F02CC046
:1020C00017F0000E186E000E196E3F0E1A6E0EEC11
:1020D00013F01BD021D000D02D50030D290EF32476
:1020E000F66E100EF420F76E0900F5CF15F009001A
:1020F000F5CF16F00A00F5CF17F0000E186E000E9F
:10210000196E3F0E1A6E0EEC13F015C024F016C0B7
:1021100025F017C026F000D0120030C034F0356A28
:10212000366A2F34343601E335803450396E33C08B
:1021300034F0356A366A3234343601E3358034504F
:10214000386E3950D8B40BD03850395CD8B00ED076
:10215000395000083824346E180E346407D031C06A
:102160002EF032C02FF033C030F0B8D03850D8B491
:102170000BD03950385CD8B00ED038500008392414
:10218000346E180E346407D02EC02EF02FC02FF0FE
:1021900030C030F0A3D0060E376E30AE02D0378E8E
:1021A00000D033BE378C2F8EFF0E2E16FF0E2F164B
:1021B000000E3016328EFF0E3116FF0E3216000E54
:1021C00033163850395CD8B01ED0D89031363236FC
:1021D0003336380639503818D8B40FD0370637C0E0
:1021E00034F0070E3416D8B408D0EFD706D0D89004
:1021F00030322F322E32392A00D038503918D8B424
:1022000024D0F5D722D03950385CD8B01ED0D89021
:102210002E362F363036390639503818D8B40FD00C
:10222000370637C034F0070E3416D8B408D0EFD7CD
:1022300006D0D890333232323132382A00D038507A
:102240003918D8B402D0F5D700D037AE0CD0FF0E75
:102250002E1AFF0E2F1AFF0E301A010E2E26000E18
:102260002F22000E302237AC0DD0FF0E311AFF0E98
:10227000321AFF0E331A010E3126000E3222000EE2
:10228000332200D0000E376E2E5031262F503222CE
:102290003050332233AE0FD0FF0E311AFF0E321AF8
:1022A000FF0E331A010E3126000E3222000E3322A9
:1022B000010E376E00D031C001F032C002F033C0E1
:1022C00003F039C004F037C005F06EEC14F001C023
:1022D0002EF002C02FF003C030F000D01200600ECC
:1022E000D36E000E816E8268836884688EEC17F06E
:1022F0007DEC17F072EC17F0000E95EC17F000D0A3
:1023000016EC17F001C066F002C067F066C064F01A
:1023100067C065F0D89064366536D8906436653607
:1023200064C068F065C069F0770E406E100E416EB3
:1023300068C009F069C00AF0CFEC16F009C00DF0D2
:102340000AC00EF00BC00FF0000E106E7A0E116E68
:10235000440E126EFDEC13F00DC042F00EC043F0BF
:102360000FC044F04DEC08F08E0E406E100E416E22
:1023700068C042F069C043F04DEC08F068C001F05D
:1023800069C002F0030E046EE80E036ED1EC14F087
:102390000150B0EC16F069BE06D0E80E685C030E82
:1023A0006958D8B00ED068C001F069C002F0000EC4
:1023B000046E640E036ED1EC14F0015059EC17F06A
:1023C00018D0000E046E640E036E68C001F069C080
:1023D00002F0D1EC14F001C009F002C00AF0000EC6
:1023E0000C6E0A0E0B6EADEC15F0095059EC17F09F
:1023F00000D0010E66EC17F04CEC17F081D700EF1F
:1024000000F003C007F0086A096A0234073601E3E6
:10241000088007500F6E0F50D8A402D05DD078D03E
:1024200006C007F0086A096A0534073601E3088028
:1024300007500E6E0E50D8A402D04ED069D0028E36
:10244000FF0E0116FF0E0216000E0316058EFF0E7C
:102450000416FF0E0516000E0616000E0A6E000E7C
:102460000B6E000E0C6E000E0D6E7F0E0F5E0E508A
:10247000980F0F5E180E0E6ED8900A360B360C367B
:102480000D360450015C0550025806500358D8A080
:1024900007D00450015E0550025A0650035A0A80C4
:1024A000D8900136023603360E2EE6D700D00FAE96
:1024B00010D00F50800A970FD8B003D00DD028D07D
:1024C00000D0D8900D320C320B320A320F3EF9D7C1
:1024D00017D0170E0F6411D0000E016E000E026EA1
:1024E000000E036E000E046E13D007D0D8900A368B
:1024F0000B360C360D360F0600D00F50D8A4F6D789
:102500000AC001F00BC002F00CC003F00DC004F0D3
:102510001200033404340C6E0C50D8A402D061D0E5
:102520007CD0063407340B6E0B50D8A402D059D09F
:1025300074D0038EFF0E0116FF0E0216FF0E031657
:10254000000E0416068EFF0E0416FF0E0516FF0E73
:102550000616000E0716000E076E000E086E000E1F
:10256000096E000E0A6E7F0E0C5E0B50A00F0C5E03
:10257000200E0B6E00D0D8900736083609360A3682
:102580000450015C05500258065003580750045887
:10259000D8A00AD00450015E0550025A0650035AD2
:1025A0000750045A078000D0D8900136023603360F
:1025B00004360B2EE0D700D00CAE10D00C50800AA1
:1025C0009F0FD8B003D00DD028D000D0D8900A32B9
:1025D0000932083207320C3EF9D717D01F0E0C64AF
:1025E00011D0000E016E000E026E000E036E000E82
:1025F000046E13D007D0D8900736083609360A364D
:102600000C0600D00C50D8A4F6D707C001F008C0C3
:1026100002F009C003F00AC004F0120017C01BF05A
:102620001C6A1D6A16341B3601E31C801B501E6E8B
:102630001E50D8A402D00ED06CD01AC01BF01C6A59
:102640001D6A19341B3601E31C801B50236E235076
:10265000D8A407D0000E156E000E166E000E176E71
:1026600058D023507B0F1E2617C023F01A50231A70
:10267000800E2316168E198EFF0E1816FF0E1916D1
:10268000000E1A16000E1F6E000E206E000E216E38
:10269000070E226E00D015A007D018501F26195023
:1026A00020221A50212200D0D8901732163215322B
:1026B000D890183619361A36222EEDD700D0090ECA
:1026C000226E00D015A007D018501F2619502022C6
:1026D0001A50212200D0D890173216321532D890D5
:1026E000213220321F32222EEDD700D01FC001F040
:1026F00020C002F021C003F01EC004F023C005F08A
:102700006EEC14F001C015F002C016F003C017F013
:1027100000D012002DC02FF0306A316A2C342F36D1
:1027200001E330802F50396E3950D8A402D039D00F
:1027300063D0170E2F6E2BC030F02CC031F02DC09F
:1027400032F02F28336E04D0D8903232313230320A
:10275000332EFAD73050346E2C8EFF0E2B16FF0E10
:102760002C16000E2D162B50356E2C50366E2D501B
:10277000376E386A8E0E395E39AE10D03950800A05
:102780008F0FD8B003D00DD037D000D0D8903832CA
:10279000373236323532393EF9D719D0170E39640F
:1027A00011D0000E2B6E000E2C6E000E2D6E000E42
:1027B0002E6E22D007D0D89035363636373638369A
:1027C000390600D03950D8B402D0F5D700D03450F3
:1027D000D8B409D0381E371E361E356C000E36228E
:1027E0003722382200D035C02BF036C02CF037C04D
:1027F0002DF038C02EF000D012000FC013F0146A74
:10280000156A0E34133601E3148013501A6E1A50F1
:10281000D8A402D00ED061D012C013F0146A156A89
:102820001134133601E3148013501B6E1B50D8A4CF
:1028300007D0000E0D6E000E0E6E000E0F6E4DD006
:10284000000E176E000E186E000E196E1B50890FC9
:102850001A5E0FC01BF012501B1A800E1B160E8E34
:10286000FF0E0D16FF0E0E16000E0F16118EFF0E28
:102870001016FF0E1116000E1216180E166E00D04E
:10288000D89017361836193610500D5C11500E5866
:1028900012500F58D8A007D010500D5E11500E5A8C
:1028A00012500F5A1780D8900D360E360F36162E4E
:1028B000E7D700D017C001F018C002F019C003F02C
:1028C0001AC004F01BC005F06EEC14F001C00DF04E
:1028D00002C00EF003C00FF000D012000450D8B4B4
:1028E00005D0015002100310D8A40ED0000E016EC6
:1028F000000E026E000E036E53D006D0042AD8904C
:1029000003320232013200D0000E0114066E000EB6
:102910000214076EFE0E0314086E0650071008100E
:10292000D8B40ED0EBD70CD0042A010E0126000E2D
:102930000222000E0322D89003320232013200D06C
:10294000000E0114066E000E0214076EFF0E031433
:10295000086E065007100810D8B408D0E5D706D086
:102960000406D89001360236033600D002BE04D0E9
:10297000020E0460F5D700D004B002D0029E00D051
:10298000D8900432045003120550D8B402D0038EFC
:1029900000D001C001F002C002F003C003F000D07B
:1029A0001200000E066E04AE07D0036C041ED8B0F1
:1029B000042A010E066E00D002AE07D0016C021E82
:1029C000D8B0022A010E061A00D0000E086E000EC2
:1029D000076E03500410D8B421D0010E056E05D047
:1029E000D89003360436052A00D004BE02D0F8D7AA
:1029F00000D0D890073608360350015C04500258C6
:102A0000D8A006D00350015E0450025A078000D0BF
:102A1000D89004320332052EECD700D00650D8B43B
:102A200005D0076C081ED8B0082A00D007C001F0F6
:102A300008C002F000D0120003AE17D001C007F0AA
:102A400002C008F003C009F0071E081E091E072A6D
:102A5000000E08220922000E0724016E000E082035
:102A6000026E800E0920036E00D006AE17D004C09F
:102A700007F005C008F006C009F0071E081E091E71
:102A8000072A000E08220922000E0724046E000EF9
:102A90000820056E800E0920066E00D0000E011A77
:102AA000000E021A800E031A000E041A000E051AF8
:102AB000800E061A0450015C055002580650035857
:102AC000D8B002D0D89002D0D88000D01200000E2A
:102AD000096E000E0A6E000E0B6E000E0C6E055095
:102AE000061007100810D8B42FD0010E0D6E07D0B5
:102AF000D89005360636073608360D2A00D008BEAF
:102B000002D0F6D700D0D89009360A360B360C36EC
:102B10000550015C065002580750035808500458ED
:102B2000D8A00AD00550015E0650025A0750035A39
:102B30000850045A098000D0D89008320732063273
:102B400005320D2EE0D700D009C001F00AC002F016
:102B50000BC003F00CC004F01200000E0E6E0AAEA3
:102B600007D0096C0A1ED8B00A2A010E0E6E00D0DA
:102B70000CAE05D00B6C0C1ED8B00C2A00D00B503C
:102B80000C10D8B41DD0010E0D6E05D0D8900B36A8
:102B90000C360D2A00D00CBE02D0F8D700D00B5056
:102BA000095C0C500A58D8A005D00B50095E0C5097
:102BB0000A5A00D0D8900C320B320D2EF0D700D02C
:102BC0000E50D8B405D0096C0A1ED8B00A2A00D01D
:102BD00009C009F00AC00AF000D012001250131008
:102BE00014101510D8B429D0010E166E07D0D89045
:102BF0001236133614361536162A00D015BE02D0FA
:102C0000F6D700D012500E5C13500F5814501058C5
:102C100015501158D8A009D012500E5E13500F5AFB
:102C20001450105A1550115A00D0D8901532143241
:102C300013321232162EE6D700D00EC00EF00FC09F
:102C40000FF010C010F011C011F01200036E000E52
:102C5000AC6E000EAB6E03A002D0AC8800D003A215
:102C600003D0AC8CAB8C00D003A402D0AC8E00D0CF
:102C700003A602D0AB8802D0AB8A00D003B8AC84E4
:102C80009E9803AA02D0AB8600D003AC02D09D8AE6
:102C900001D09D9A9E9A03AE02D09D8801D09D9846
:102CA00001C0AFFF0250B06EAC8AAB8E949C948E84
:102CB000ACB8ACBE02D0948C00D012008E0E116E57
:102CC00007D0D8900C320B320A320932112A00D0C8
:102CD000000E09140D6E000E0A140E6E000E0B1479
:102CE0000F6EFF0E0C14106E0D500E100F10101002
:102CF000D8A4E7D709C001F00AC002F00BC003F066
:102D000011C004F0000E056E6EEC14F001C009F065
:102D100002C00AF003C00BF000D012003D503E107C
:102D20003F10D8B407D0000E3D1A000E3E1A800E98
:102D30003F1A00D03AC02EF03BC02FF03CC030F01C
:102D40003DC031F03EC032F03FC033F08DEC10F0AA
:102D50002EC03AF02FC03BF030C03CF000D0120043
:102D6000026E0250010D6A0EF324D96E000EF4209B
:102D7000DA6EDF50826E0250010D6A0EF324D96EB6
:102D8000000EF420DA6EDF50400B016E0150D8A423
:102D900002D0000E01D0010E846E00D01200000E91
:102DA0000C6E0AAE07D0096C0A1ED8B00A2A010EB2
:102DB0000C6E00D009C001F00AC002F0036A8E0E4A
:102DC000046E0CC005F06EEC14F001C009F002C0F6
:102DD0000AF003C00BF000D01200360EF66E2F0E74
:102DE000F76E000EF86E00EE6AF010EE0AF00900C1
:102DF000F5CFEEFFE550E150FAE1000EF86E00016C
:102E00006FEF11F00F501102F3CF13F0F4CF14F065
:102E10000F501202F350142610501102F3501426D2
:102E200013C00FF014C010F000D01200C28200D006
:102E3000C2B2FED7C450046E036AC3500324056EA9
:102E4000000E0420066E05C001F006C002F000D09E
:102E50001200015002100310D8B406D0000E011A5F
:102E6000000E021A800E031A01C001F002C002F027
:102E700003C003F01200036E000E026E3A0E0360F0
:102E800006D02F0E036403D0010E026E00D002C0E4
:102E900001F0013000D01200020ED56EDB0ED66EAE
:102EA0000B0ED76EF294D58E00D0F2A4FED7D59E2D
:102EB0001200016E0150010D6A0EF324D96E000E4E
:102EC000F420DA6EDF50836E838E1200026E0250A1
:102ED000FF0A016E01320132835001187F0B011885
:102EE000836E12000F0E926E000E936E000E946EA3
:102EF000000E956E000E966E1200000E026E190EF8
:102F0000016E3C0E26EC16F0600ED36E1200016EC0
:102F100000D0ACA2FED701C0ADFF1200010EC26E00
:102F20001B0EC16EC90EC06E1200016E0150040D61
:102F3000F328C26E12004079243019120278001072
:020000040020DA
:08000000FFFFFFFFFFFFFFFF00
:020000040030CA
:0E000000FF08191EFF8381FF0FC00FE00F40A5
:00000001FF
