:040000000CEF00F011
:10000800FACF01F0FBCF02F0E9CF03F0C4ED1AF00C
:100018002CEF1CF0500E0001E36F000E0001E46F9E
:100028004BEF05F0250E0001F819D8B406D00001F1
:10003800F851D2EC1FF04BEF05F0000E0001F26F03
:10004800000EF16F000E0001F06F000EEF6F06D08A
:100058000001EF854E4A4F2A01D00BD04EC0F6FF63
:100068004FC0F7FF0800F550300AD8B4F1D701D0D7
:10007800F5D74EC0F6FF4FC0F7FF0800F5504DEC1E
:100088001FF0D8A038D0000E0001F26F000EF16FFB
:1000980000D0F1C01DF0F2C01EF0000E206E0A0E56
:1000A8001F6E01EC1FF01DC0F1F01EC0F2F0D00E63
:1000B800536EFF0E546E4EC0F6FF4FC0F7FF080098
:1000C800F550556E566A5350552654505622555081
:1000D8000001F12756500001F2234E4A4F2A4EC024
:1000E800F6FF4FC0F7FF0800F5504DEC1FF0D8A001
:1000F80002D0CFD700D04EC0F6FF4FC0F7FF0800A0
:10010800F5502E0AD8A434D00001F08D4E4A4F2A5B
:10011800000E0001F76F000EF66F1ED0F6C01DF03E
:10012800F7C01EF0000E206E0A0E1F6E01EC1FF0C5
:100138004EC0F6FF4FC0F7FF0800F5501D26000E11
:100148001E22D00E1D240001F66FFF0E1E20000196
:10015800F76F4E4A4F2A00D04EC0F6FF4FC0F7FF48
:100168000800F5504DEC1FF0D8A012D0D7D710D00A
:10017800000E0001F76F000EF66F0001F08908D03D
:100188005BEF05F00001F08517D04BEF05F014D0B8
:100198004EC0F6FF4FC0F7FF4E4A4F2A0800F5CF72
:1001A800F8F00001F851000AD8B45BEF05F0660AD0
:1001B800D8B4E8D74BEF05F0070E0001F015D8B416
:1001C80085D30001F0A906D0000E0001F76F060ED6
:1001D800F66F00D0E3C0D9FFE4C0DAFFDECFF3F05A
:1001E800DECFF4F0DDCFF5F0030E0001E327000EBB
:1001F800E4230001F5AF12D0F3C00FF0F4C010F003
:10020800F5C011F03BEC1FF00FC0F3F010C0F4F094
:1002180011C0F5F0030E0001EF1300D0000E00012D
:10022800EE6F000EED6F0001F3510001F4110001B3
:10023800F511D8B48DD0820E536EFF0E546EF3C0F4
:1002480055F0F4C056F0F5C057F0F6C058F0100E4F
:1002580005D0D8905832573256325532E82EF9D751
:10026800555053240001ED6F000E54200001EE6F2D
:100278000001ED07D8A0EE07EDC01DF0EEC01EF09E
:10028800000E206E030E1F6E01EC1FF01DC0EDF076
:100298001EC0EEF0EDC015F0EEC016F0000E186EA0
:1002A8000A0E176E68EC19F015C0EDF016C0EEF0E6
:1002B8000001EEAF05D00001ED07D8A0EE0700D091
:1002C8000001ED510008EBEC08F032C0E9F033C052
:1002D800EAF034C0EBF0E9C023F0EAC024F0EBC048
:1002E80025F0F3C026F0F4C027F0F5C028F06CEC38
:1002F80014F023C0E9F024C0EAF025C0EBF0E9C00F
:100308000FF0EAC010F0EBC011F0000E126E800E74
:10031800136E3F0E146E1DEC19F0D8B005D0000115
:10032800ED07D8A0EE0714D0E9C00FF0EAC010F02E
:10033800EBC011F0000E126E200E136E410E146EFB
:100348001DEC19F0D8A004D00001ED4BEE2B00D025
:100358000001F7BF08D00001F7511EE10D0E0001A2
:10036800F65DD8B019D0F3C03CF0F4C03DF0F5C04C
:100378003EF00001F651E0EC0DF032C03FF033C022
:1003880040F034C041F002EC0FF03CC0F3F03DC047
:10039800F4F03EC0F5F000D00001EEBF08D0000137
:1003A800EE5128E10A0E0001ED5DD8B023D000011E
:1003B800F3510001F4110001F511D8B477D0F3C05E
:1003C80039F0F4C03AF0F5C03BF0D5EC15F03950EF
:1003D8003A103B103C10D8A469D00001EEBF66D09B
:1003E8000001EE5107E1020E0001ED5DD8B002D028
:1003F8005DD000D0E9C00FF0EAC010F0EBC011F0FA
:10040800700E126E890E136E400E146E1DEC19F0EC
:10041800D8B003D00001F70E02D00001F80EED2786
:10042800FF0EEE2300D00001ED51EBEC08F032C0D6
:10043800E9F033C0EAF034C0EBF017D0F3C00FF0A6
:10044800F4C010F0F5C011F0E9C012F0EAC013F0E2
:10045800EBC014F0E7EC13F00FC0E5F010C0E6F0C5
:1004680011C0E7F012C0E8F017D0F3C00FF0F4C0E5
:1004780010F0F5C011F0E9C012F0EAC013F0EBC0BB
:1004880014F05FEC13F00FC0E5F010C0E6F011C0F7
:10049800E7F012C0E8F000D0000E0001F36F000E84
:1004A8000001F46F000E0001F56F34D0F3C039F08D
:1004B800F4C03AF0F5C03BF0D5EC15F039C0E5F0E2
:1004C8003AC0E6F03BC0E7F03CC0E8F0F3C048F0C3
:1004D800F4C049F0F5C04AF0E5C017F0E6C018F0DE
:1004E800E7C019F0E8C01AF05DEC1CF017C04BF03B
:1004F80018C04CF019C04DF00FEC1EF048C0F3F0D6
:1005080049C0F4F04AC0F5F0000E0001EE6F000E8D
:10051800ED6F00D0010E0001F86F0A0E0001F81906
:10052800D8B422D001D020D00001F851040DB20E69
:10053800F324F66EFE0EF420F76E0900F550000164
:10054800E55D0900F5500001E6590900F550000184
:10055800E7590900F5500001E859D8A005D001D0A5
:1005680003D00001F82BD9D7F8C053F0546A53BE12
:1005780054060001F65153260001F7515422000198
:10058800ED5153260001EE51542253500001F15F02
:1005980054500001F25B0001F6510001F711D8B484
:1005A80005D00001F107D8A0F20700D0030E000122
:1005B800EF15536E000E0001F015546E5350541091
:1005C800D8B405D00001F107D8A0F20700D0000187
:1005D800EFA52DD0030E0001EF15536E000E00019C
:1005E800F015546E53505410D8B40CD02D0ED2ECD4
:1005F8001FF008D0300ED2EC1FF00001F107D8A090
:10060800F20700D00001F2BF73D00001F251F2E10D
:100618000001F105D8A06CD0EDD76AD008D0200E23
:10062800D2EC1FF00001F107D8A0F20700D00001BA
:10063800F2BF07D00001F251F2E10001F105D8B094
:10064800EED7030E0001EF15536E000E0001F015F2
:10065800546E53505410D8B44BD02D0ED2EC1FF01A
:1006680047D0E5C00FF0E6C010F0E7C011F0E8C0D1
:1006780012F00001F851040DB20EF324F66EFE0ECE
:10068800F420F76E0900F5CF13F00900F5CF14F048
:100698000900F5CF15F00A00F5CF16F0B3EC19F004
:1006A8000FC0E9F010C0EAF011C0EBF012C0ECF096
:1006B800E9C00FF0EAC010F0EBC011F0ECC012F086
:1006C8000A0E136E000E146E000E156E000E166ED6
:1006D80089EC1BF00FC0E9F010C0EAF011C0EBF094
:1006E80012C0ECF00001E951300FD2EC1FF000D03D
:1006F8000001F8070001F829D8B40AD0B2D708D009
:10070800300ED2EC1FF00001ED07D8A0EE0700D0A4
:100718000001EEBF07D00001EE51F2E10001ED0546
:10072800D8B0EED70001F7BF0CD00001F75105E1B2
:10073800090E0001F65DD8A004D0080E0001F86F7C
:1007480003D0F6C0F8F000D00001F8510001F65FC0
:10075800000E0001F8BFFF0E0001F75B0001F85121
:100768000001D8B404D02E0ED2EC1FF000D0000146
:10077800F851EBEC08F032C0E0F033C0E1F034C0DF
:10078800E2F0F3C026F0F4C027F0F5C028F0E0C08E
:1007980023F0E1C024F0E2C025F06CEC14F023C093
:1007A80039F024C03AF025C03BF0D5EC15F039C03B
:1007B800E5F03AC0E6F03BC0E7F03CC0E8F06ED0A8
:1007C800E5C00FF0E6C010F0E7C011F0E8C012F085
:1007D8000001F851040DB20EF324F66EFE0EF4205B
:1007E800F76E0900F5CF13F00900F5CF14F00900F2
:1007F800F5CF15F00A00F5CF16F0B3EC19F00FC0DD
:10080800E9F010C0EAF011C0EBF012C0ECF0E9C05A
:100818000FF0EAC010F0EBC011F0ECC012F00A0EB5
:10082800136E000E146E000E156E000E166E89EC17
:100838001BF00FC0E9F010C0EAF011C0EBF012C0D5
:10084800ECF00001E951300FD2EC1FF0E5C00FF0D9
:10085800E6C010F0E7C011F0E8C012F00001F8514E
:10086800040DB20EF324F66EFE0EF420F76E0900A6
:10087800F5CF13F00900F5CF14F00900F5CF15F006
:100888000A00F5CF16F089EC1BF00FC0E5F010C098
:10089800E6F011C0E7F012C0E8F000D00001F80758
:1008A8000001F829D8B40AD08BD708D0300ED2EC82
:1008B8001FF00001F607D8A0F70700D00001F65195
:1008C8000001F711D8B4E3D0F1D7E1D00001F65117
:1008D8000001F711D8A40ED00001E5510001E6117E
:1008E8000001E7110001E811D8A404D00001F64B7B
:1008F800F72B00D0800E0001F8BF7F0E536E000169
:10090800F6510001F85D0001F751800A5358D8B03C
:1009180003D0F6C0F8F017D00001F751800A536EE3
:100928000001F8510001F65D800E0001F8BF7F0E4E
:100938005358D8B008D00001F8510001F66FF76B92
:10094800F6BFF70700D00001F1510001F211D8B449
:1009580011D0030E0001EF15536E000E0001F015C3
:10096800546E53505410D8B405D00001F107D8A0E4
:10097800F20700D00001F0AD1DD00001F1510001D7
:10098800F65D0001F751800A536E0001F251800AAA
:100998005358D8B009D00001F6510001F15F0001A9
:1009A800F7510001F25B06D0000E0001F26F000E55
:1009B800F16F00D0800E0001F8BF7F0E536E00016A
:1009C800F1510001F85D0001F251800A5358D8B086
:1009D8000BD00001F8510001F15F000E0001F8BFD3
:1009E800FF0E0001F25B06D0000E0001F26F000E50
:1009F800F16F00D00001EFA525D0030E0001EF151F
:100A0800536E000E0001F015546E53505410D8B4B4
:100A180004D02D0ED2EC1FF000D00001F1510001DE
:100A2800F211D8B434D0300ED2EC1FF00001F10727
:100A3800D8A0F2070001F1510001F211D8B427D073
:100A4800F2D725D00001F1510001F211D8B40FD02E
:100A5800200ED2EC1FF00001F107D8A0F207000128
:100A6800F1510001F211D8B402D0F2D700D0030E30
:100A78000001EF15536E000E0001F015546E53502F
:100A88005410D8B404D02D0ED2EC1FF000D04EC0B4
:100A9800F6FF4FC0F7FF4E4A4F2A0800F5CFF8F08F
:100AA8000001F851D8B403D016EF00F000D01200BE
:100AB800B0EC1FF0D7EC1EF0000E236E000E226E75
:100AC8005EEC1FF0980E646E000E656E64C00FF049
:100AD80065C010F09A0E116EFF0E126EA6EC1EF095
:100AE800020E376E64C038F065C039F0FF0E3B6EF9
:100AF8003A68000E3D6E000E3C6E010E3E6E020E10
:100B0800B9EC16F064C00FF065C010F0E50E116E78
:100B1800FF0E126EA6EC1EF00A0E376E64C038F097
:100B280065C039F0FF0E3B6E3A68000E3D6E000E50
:100B38003C6E010E3E6E020EB9EC16F00A0E376ED0
:100B4800D40E386E000E396EFF0E3B6E3A68000EFA
:100B58003D6E000E3C6E010E3E6E230EB9EC16F093
:100B680064C00FF065C010F0EB0E116EFF0E126E30
:100B7800A6EC1EF00A0E376E64C038F065C039F076
:100B8800FF0E3B6E3A68000E3D6E000E3C6E010E85
:100B98003E6E320EB9EC16F00A0E376ED60E386E6F
:100BA800000E396EFF0E3B6E3A68000E3D6E000E69
:100BB8003C6E010E3E6E460EB9EC16F064C00FF0A6
:100BC80065C010F0EF0E116EFF0E126EA6EC1EF04F
:100BD8000A0E376E64C038F065C039F0FF0E3B6E00
:100BE8003A68000E3D6E000E3C6E010E3E6E500ED1
:100BF800B9EC16F00A0E376ED80E386E000E396E44
:100C0800FF0E3B6E3A68000E3D6E000E3C6E010E04
:100C18003E6E640EB9EC16F064C00FF065C010F0BB
:100C2800FD0E116EFF0E126EA6EC1EF00A0E376E48
:100C380064C038F065C039F0FF0E3B6E3A68000EAC
:100C48003D6E000E3C6E010E3E6E780EB9EC16F04D
:100C580064C00FF065C010F0CD0E116EFF0E126E5D
:100C6800A6EC1EF0140E376E64C038F065C039F07B
:100C7800070E3B6E3A68000E3D6E000E3C6E010E8C
:100C88003E6E1E0EB9EC16F0000E226E1E0E216E80
:100C9800000E246E1B0E236E000E266E3C0E256E73
:100CA800000E286E120E276E070E2A6E2968F9ECC0
:100CB8001BF0000E3A6E280E396E000E3C6E230EA5
:100CC8003B6E000E3E6E070E3D6EF80E406E000E37
:100CD8003F6E0AEC1DF0000E1B6E3C0E1A6E000EE5
:100CE8001D6E230E1C6E000E1F6E070E1E6EFF0E6D
:100CF800216EE00E206EE4EC0FF0000E1B6E500E1D
:100D08001A6E000E1D6E230E1C6E000E1F6E070E4F
:100D18001E6E070E216EE00E206EE4EC0FF01E0E24
:100D2800376EC50E386E000E396E070E3B6E3A6888
:100D3800000E3D6E000E3C6E020E3E6E640EB9EC67
:100D480016F064C00FF065C010F0DE0E116EFF0ED5
:100D5800126EA6EC1EF0320E376E64C038F065C015
:100D680039F0FF0E3B6E3A68000E3D6E000E3C6E89
:100D7800010E3E6E1E0EB9EC16F0000E226E1E0E0F
:100D8800216E000E246E390E236E000E266E3C0E68
:100D9800256E000E286E120E276EFF0E2A6E296829
:100DA800F9EC1BF0000E3A6E280E396E000E3C6E00
:100DB800410E3B6E000E3E6E070E3D6EF80E406E05
:100DC800000E3F6E0AEC1DF0000E1B6E3C0E1A6EF4
:100DD800000E1D6E410E1C6E000E1F6E070E1E6E5D
:100DE800FF0E216EE00E206EE4EC0FF0000E1B6E7D
:100DF800500E1A6E000E1D6E410E1C6E000E1F6EF8
:100E0800070E1E6E070E216EE00E206EE4EC0FF04A
:100E18003C0E376EC20E386E000E396EFF0E3B6EFA
:100E28003A68000E3D6E000E3C6E020E3E6E640E79
:100E3800B9EC16F064C00FF065C010F0C10E116E69
:100E4800FF0E126EA6EC1EF0500E376E64C038F01E
:100E580065C039F0000E3B6E1F0E3A6E000E3D6EF7
:100E6800000E3C6E010E3E6E1E0EB9EC16F0000E22
:100E7800226E1E0E216E000E246E570E236E000E7B
:100E8800266E3C0E256E000E286E120E276E000E82
:100E98002A6E1F0E296EF9EC1BF0000E1B6E280E31
:100EA8001A6E000E1D6E5F0E1C6E000E1F6E070E72
:100EB8001E6EF80E216E000E206EE4EC0FF0000E90
:100EC8001B6E3C0E1A6E000E1D6E5F0E1C6E000E21
:100ED8001F6E070E1E6EFF0E216EE00E206EE4ECF4
:100EE8000FF0000E3A6E500E396E000E3C6E5F0E1B
:100EF8003B6E000E3E6E070E3D6E070E406EE00E16
:100F08003F6E0AEC1DF05A0E376ECB0E386E000E8F
:100F1800396E000E3B6E1F0E3A6E000E3D6E000ECF
:100F28003C6E020E3E6E640EB9EC16F064C00FF013
:100F380065C010F0D70E116EFF0E126EA6EC1EF0F3
:100F48006E0E376E64C038F065C039F0F80E3B6E2F
:100F58001F0E3A6E000E3D6E000E3C6E010E3E6E88
:100F68001E0EB9EC16F0000E226E1E0E216E000E3B
:100F7800246E750E236E000E266E3C0E256E000E36
:100F8800286E120E276EF80E2A6E1F0E296EF9ECC7
:100F98001BF0000E3A6E280E396E000E3C6E7D0E68
:100FA8003B6E000E3E6E070E3D6EF80E406E000E54
:100FB8003F6E0AEC1DF0000E1B6E3C0E1A6E000E02
:100FC8001D6E7D0E1C6E000E1F6E070E1E6EFF0E30
:100FD800216EE00E206EE4EC0FF0000E1B6E500E3A
:100FE8001A6E000E1D6E7D0E1C6E000E1F6E070E13
:100FF8001E6E070E216EE00E206EE4EC0FF0780EE8
:10100800376EC80E386E000E396EF80E3B6E1F0E26
:101018003A6E000E3D6E000E3C6E020E3E6E640E81
:10102800B9EC16F01E0E376ECE0E386E000E396E05
:10103800070E3B6E3A68000E3D6E000E3C6E020EC7
:101048003E6E020EB9EC16F064C00FF065C010F0E9
:10105800F70E116EFF0E126EA6EC1EF0140E376E10
:1010680064C038F065C039F0070E3B6E3A68000E70
:101078003D6E000E3C6E010E3E6E030EB9EC16F08E
:1010880064C00FF065C010F0F30E116EFF0E126E03
:10109800A6EC1EF0500E376E64C038F065C039F00B
:1010A800000E3B6E1F0E3A6E000E3D6E000E3C6E3B
:1010B800010E3E6E030EB9EC16F05A0E376ED10EC5
:1010C800386E000E396E000E3B6E1F0E3A6E000E23
:1010D8003D6E000E3C6E020E3E6E020EB9EC16F02E
:1010E80064C00FF065C010F0850E116EFF0E126E11
:1010F800A6EC1EF08C0E376E64C038F065C039F06F
:10110800FF0E3B6E3A68000E3D6E000E3C6E010EFF
:101118003E6E010EB9EC16F0950E376E6F0E386EF6
:10112800000E396EFF0E3B6E3A68000E3D6E000EE3
:101138003C6E010E3E6E060EB9EC16F0950E376E3B
:101148006D0E386E000E396EFF0E3B6E3A68000E5B
:101158003D6E000E3C6E010E3E6E200EB9EC16F090
:10116800950E376EDE0E386E000E396EFF0E3B6E32
:101178003A68000E3D6E000E3C6E010E3E6E3A0E51
:10118800B9EC16F0950E376EDC0E386E000E396E1F
:10119800FF0E3B6E3A68000E3D6E000E3C6E010E6F
:1011A8003E6E570EB9EC16F0950E376EDA0E386EA5
:1011B800000E396EFF0E3B6E3A68000E3D6E000E53
:1011C8003C6E010E3E6E700EB9EC16F01200386ED1
:1011D80038AEEFD0386C3850800A120FD8A08DD0B6
:1011E800000E206E030E1F6E000E186E0A0E176E8C
:1011F800000E126E640E116E38500F6E106A0FBE1C
:10120800100648EC1BF00FC015F010C016F068EC83
:1012180019F0090E15241D6E000E16201E6E01EC25
:101228001FF0DA0E1D24F66EFE0E1E20F76E090062
:10123800F5CF26F00900F5CF27F00A00F5CF28F002
:10124800000E186E640E176E3850156E166A15BEAD
:10125800160668EC19F0120E15241D6E000E1620E5
:101268001E6E000E206E030E1F6E01EC1FF0DA0ECC
:101278001D24F66EFE0E1E20F76E0900F5CF23F032
:101288000900F5CF24F00A00F5CF25F06CEC14F036
:1012980023C035F024C036F025C037F035C023F020
:1012A80036C024F037C025F0000E206E030E1F6EE6
:1012B800000E126E0A0E116E38500F6E106A0FBEB5
:1012C800100648EC1BF00FC01DF010C01EF001EC1A
:1012D8001FF0DA0E1D24F66EFE0E1E20F76E0900B2
:1012E800F5CF26F00900F5CF27F00A00F5CF28F052
:1012F8006CEC14F041D15AD154D03850800A750F93
:10130800D8A04FD0000E186E0A0E176E3850156E02
:10131800166A15BE160668EC19F0090E15241D6E1E
:10132800000E16201E6E000E206E030E1F6E01ECBE
:101338001FF0DA0E1D24F66EFE0E1E20F76E090051
:10134800F5CF23F00900F5CF24F00A00F5CF25F0FA
:10135800000E206E030E1F6E000E126E0A0E116E26
:1013680038500F6E106A0FBE100648EC1BF00FC005
:101378001DF010C01EF001EC1FF0DA0E1D24F66EF1
:10138800FE0E1E20F76E0900F5CF26F00900F5CFF6
:1013980027F00A00F5CF28F06CEC14F0EDD006D158
:1013A80000D03850030DDA0EF324F66EFE0EF2D09C
:1013B800FDD03850800A120FD8A08DD0000E206EB4
:1013C800030E1F6E000E186E0A0E176E000E126EB8
:1013D800640E116E38500F6E106A0FBE100648EC7E
:1013E8001BF00FC015F010C016F068EC19F0090ECC
:1013F80015241D6E000E16201E6E01EC1FF0010E46
:101408001D24F66EFF0E1E20F76E0900F5CF26F09C
:101418000900F5CF27F00A00F5CF28F0000E186E66
:10142800640E176E3850156E166A15BE160668ECEF
:1014380019F0120E15241D6E000E16201E6E000ED9
:10144800206E030E1F6E01EC1FF0010E1D24F66EB8
:10145800FF0E1E20F76E0900F5CF23F00900F5CF27
:1014680024F00A00F5CF25F06CEC14F023C035F019
:1014780024C036F025C037F035C023F036C024F03C
:1014880037C025F0000E206E030E1F6E000E126E80
:101498000A0E116E38500F6E106A0FBE100648EC17
:1014A8001BF00FC01DF010C01EF001EC1FF0010E64
:1014B8001D24F66EFF0E1E20F76E0900F5CF26F0EC
:1014C8000900F5CF27F00A00F5CF28F06CEC14F0EE
:1014D80053D06CD059D03850800A750FD8A054D04A
:1014E800000E186E0A0E176E3850156E166A15BE65
:1014F800160668EC19F0090E15241D6E000E16204C
:101508001E6E000E206E030E1F6E01EC1FF0010E02
:101518001D24F66EFF0E1E20F76E0900F5CF23F08E
:101528000900F5CF24F00A00F5CF25F0000E206E53
:10153800030E1F6E000E126E0A0E116E38500F6EDB
:10154800106A0FBE100648EC1BF00FC01DF010C04B
:101558001EF001EC1FF0010E1D24F66EFF0E1E207A
:10156800F76E0900F5CF26F00900F5CF27F00A003D
:10157800F5CF28F06CEC14F023C032F024C033F01F
:1015880025C034F013D000D03850030D010EF324D9
:10159800F66EFF0EF420F76E0900F5CF32F0090061
:1015A800F5CF33F00A00F5CF34F000D01200426EC8
:1015B80042501E0DF350230F436E4150D8A467D0FC
:1015C800000E3A6E280E396E43C03BF03C6A000E9E
:1015D8003E6E070E3D6E000E406E000E3F6E0AEC2A
:1015E8001DF0000E3A6E3C0E396E43C03BF03C6A6B
:1015F800000E3E6E070E3D6E000E406E000E3F6EF2
:101608000AEC1DF0000E3A6E500E396E43C03BF0E6
:101618003C6A000E3E6E070E3D6E000E406E000ED8
:101628003F6E0AEC1DF0000E1B6E280E1A6E43C0AA
:101638001CF01D6A000E1F6E070E1E6EF80E216E3E
:10164800000E206EE4EC0FF0000E1B6E3C0E1A6EBE
:1016580043C01CF01D6A000E1F6E070E1E6EFF0EA3
:10166800216EE00E206EE4EC0FF0000E1B6E500EA3
:101678001A6E43C01CF01D6A000E1F6E070E1E6E08
:10168800070E216EE00E206EE4EC0FF000D041044E
:10169800D8A467D0000E3A6E280E396E43C03BF0CE
:1016A8003C6A000E3E6E070E3D6EF80E406E000E50
:1016B8003F6E0AEC1DF0000E3A6E3C0E396E43C0C8
:1016C8003BF03C6A000E3E6E070E3D6E000E406E0B
:1016D800000E3F6E0AEC1DF0000E3A6E500E396E89
:1016E80043C03BF03C6A000E3E6E070E3D6E000E96
:1016F800406E000E3F6E0AEC1DF0000E1B6E280EA9
:101708001A6E43C01CF01D6A000E1F6E070E1E6E77
:10171800F80E216E000E206EE4EC0FF0000E1B6E2A
:101728003C0E1A6E43C01CF01D6A000E1F6E070E99
:101738001E6EFF0E216EE00E206EE4EC0FF0000E20
:101748001B6E500E1A6E43C01CF01D6A000E1F6EF1
:10175800070E1E6E070E216EE00E206EE4EC0FF0F1
:1017680000D0020E4118D8A467D0000E3A6E280E99
:10177800396E43C03BF03C6A000E3E6E070E3D6E6C
:10178800000E406E000E3F6E0AEC1DF0000E3A6E21
:101798003C0E396E43C03BF03C6A000E3E6E070EAD
:1017A8003D6E000E406E000E3F6E0AEC1DF0000EFE
:1017B8003A6E500E396E43C03BF03C6A000E3E6EE6
:1017C800070E3D6E070E406EE00E3F6E0AEC1DF0F0
:1017D800000E1B6E280E1A6E43C01CF01D6A000E08
:1017E8001F6E070E1E6EF80E216E000E206EE4ECC2
:1017F8000FF0000E1B6E3C0E1A6E43C01CF01D6AE3
:10180800000E1F6E070E1E6EFF0E216EE00E206E7C
:10181800E4EC0FF0000E1B6E500E1A6E43C01CF065
:101828001D6A000E1F6E070E1E6E070E216EE00E5B
:10183800206EE4EC0FF000D0030E4118D8A467D056
:10184800000E3A6E280E396E43C03BF03C6A000E1B
:101858003E6E070E3D6E000E406E000E3F6E0AECA7
:101868001DF0000E3A6E3C0E396E43C03BF03C6AE8
:10187800000E3E6E070E3D6EFF0E406EE00E3F6E90
:101888000AEC1DF0000E3A6E500E396E43C03BF064
:101898003C6A000E3E6E070E3D6E000E406E000E56
:1018A8003F6E0AEC1DF0000E1B6E280E1A6E43C028
:1018B8001CF01D6A000E1F6E070E1E6EF80E216EBC
:1018C800000E206EE4EC0FF0000E1B6E3C0E1A6E3C
:1018D80043C01CF01D6A000E1F6E070E1E6EFF0E21
:1018E800216EE00E206EE4EC0FF0000E1B6E500E21
:1018F8001A6E43C01CF01D6A000E1F6E070E1E6E86
:10190800070E216EE00E206EE4EC0FF000D01200FE
:1019180015EC1FF00FC059F010C05AF059C01DF057
:101928005AC01EF0000E206E050E1F6E01EC1FF04F
:101938001DC023F01EC024F06FEC1EF023C027F05A
:1019480024C028F025C029F0000E2A6E800E2B6EC8
:10195800440E2C6E48EC16F027C05BF028C05CF0F3
:1019680029C05DF0AE0E4E6EFF0E4F6E5BC050F09C
:101978005CC051F05DC052F00EEC00F05BC00FF09F
:101988005CC010F05DC011F07B0E126E240E136E59
:10199800400E146E1DEC19F0D8B002D0010E01D023
:1019A800000E0001946F00D08FC093F0000E80B835
:1019B800010E0001926F91C096F0000E80B6010EE4
:1019C8000001956F000194510001D8A402D04E0E79
:1019D80001D0440E0001DA6F000196510001D8A42D
:1019E80002D0300E01D0310E0001DE6F000195519A
:1019F8000001D8A402D0300E01D0310E0001DC6FF6
:101A0800000193510001D8A402D0300E01D0310E4C
:101A18006F6E000192510001D8A402D0300E01D09F
:101A2800310E6D6E00019051D8A402D0300E01D055
:101A3800310E0001D66F00D00001835100018411DE
:101A4800D8A402D0300E01D0310E0001D86F00D0DA
:101A58000A0E376ED40E386E000E396EFF0E3B6ECE
:101A68003A68000E3D6E000E3C6E010E3E6E230E6F
:101A7800B9EC16F0950E376E6F0E386E000E396E93
:101A8800FF0E3B6E3A68000E3D6E000E3C6E010E76
:101A98003E6E060EB9EC16F0950E376E6D0E386E6A
:101AA800000E396EFF0E3B6E3A68000E3D6E000E5A
:101AB8003C6E010E3E6E200EB9EC16F0950E376E98
:101AC800DE0E386E000E396EFF0E3B6E3A68000E61
:101AD8003D6E000E3C6E010E3E6E3A0EB9EC16F0ED
:101AE800950E376EDC0E386E000E396EFF0E3B6EAB
:101AF8003A68000E3D6E000E3C6E010E3E6E570EAB
:101B0800B9EC16F0950E376EDA0E386E000E396E97
:101B1800FF0E3B6E3A68000E3D6E000E3C6E010EE5
:101B28003E6E700EB9EC16F00A0E376ED80E386E8F
:101B3800000E396EFF0E3B6E3A68000E3D6E000EC9
:101B48003C6E010E3E6E640EB9EC16F00A0E376E4E
:101B5800D60E386E000E396EFF0E3B6E3A68000ED8
:101B68003D6E000E3C6E010E3E6E460EB9EC16F050
:101B780028EC1FF000019105D8A407D0280E4E6E5E
:101B8800FF0E4F6E0EEC00F000D000018F05D8A4B8
:101B980007D0470E4E6EFF0E4F6E0EEC00F000D0D1
:101BA80000019005D8A407D0660E4E6EFF0E4F6E4A
:101BB8000EEC00F000D012003B6E6D0E3B649BD023
:101BC800000E206E030E1F6E000E186E0A0E176EA2
:101BD800000E126E640E116E3BC00FF0106A48ECD6
:101BE8001BF00FC015F010C016F068EC19F0090EC4
:101BF80015241D6E000E16201E6E01EC1FF0DA0E65
:101C08001D24F66EFE0E1E20F76E0900F5CF26F095
:101C18000900F5CF27F00A00F5CF28F0000E186E5E
:101C2800640E176E3BC015F0166A68EC19F0120EB8
:101C380015241D6E000E16201E6E000E206E030E5B
:101C48001F6E01EC1FF0DA0E1D24F66EFE0E1E202C
:101C5800F76E0900F5CF23F00900F5CF24F00A004C
:101C6800F5CF25F06CEC14F023C038F024C039F01F
:101C780025C03AF0000E206E030E1F6E000E126E85
:101C88000A0E116E3BC00FF0106A48EC1BF00FC033
:101C98001DF010C01EF001EC1FF0DA0E1D24F66EC8
:101CA800FE0E1E20F76E0900F5CF26F00900F5CFCD
:101CB80027F00A00F5CF28F038C023F039C024F007
:101CC8003AC025F06CEC14F023C035F024C036F08F
:101CD80025C037F035C023F036C024F037C025F0D2
:101CE800000E266E000E276E3F0E286E6CEC14F068
:101CF8007DD083D062D00A0E3B645FD0000E206E88
:101D0800030E1F6E000E126E0A0E116E3BC00FF00E
:101D1800106A48EC1BF00FC01DF010C01EF001EC5B
:101D28001FF0DA0E1D24F66EFE0E1E20F76E090057
:101D3800F5CF26F00900F5CF27F00A00F5CF28F0F7
:101D4800000E186E0A0E176E3BC015F0166A68EC86
:101D580019F0090E15241D6E000E16201E6E000EB9
:101D6800206E030E1F6E01EC1FF0DA0E1D24F66EB6
:101D7800FE0E1E20F76E0900F5CF23F00900F5CFFF
:101D880024F00A00F5CF25F06CEC14F023C038F0ED
:101D980024C039F025C03AF038C023F039C024F007
:101DA8003AC025F0000E266E000E276E3F0E286EF4
:101DB8006CEC14F01BD021D000D03B50030DDA0E90
:101DC800F324F66EFE0EF420F76E0900F5CF23F02B
:101DD8000900F5CF24F00A00F5CF25F0000E266E95
:101DE800000E276E3F0E286E6CEC14F023C032F004
:101DF80024C033F025C034F000D012003EC042F0B9
:101E0800436A446A3D34423601E343804250476E98
:101E180041C042F0436A446A4034423601E3438099
:101E28004250466E4750D8B40BD04650475CD8B0A5
:101E38000ED0475000084624426E180E426407D060
:101E48003FC03CF040C03DF041C03EF0B8D04650E5
:101E5800D8B40BD04750465CD8B00ED046500008D6
:101E68004724426E180E426407D03CC03CF03DC087
:101E78003DF03EC03EF0A3D0060E456E3EAE02D009
:101E8800458E00D041BE458C3D8EFF0E3C16FF0EA0
:101E98003D16000E3E16408EFF0E3F16FF0E4016F2
:101EA800000E41164650475CD8B01ED0D8903F3639
:101EB80040364136460647504618D8B40FD0450636
:101EC80045C042F0070E4216D8B408D0EFD706D066
:101ED800D8903E323D323C32472A00D0465047180F
:101EE800D8B424D0F5D722D04750465CD8B01ED0FD
:101EF800D8903C363D363E36470647504618D8B44B
:101F08000FD0450645C042F0070E4216D8B408D097
:101F1800EFD706D0D890413240323F32462A00D01F
:101F280046504718D8B402D0F5D700D045AE0CD0EB
:101F3800FF0E3C1AFF0E3D1AFF0E3E1A010E3C26FC
:101F4800000E3D22000E3E2245AC0DD0FF0E3F1A7A
:101F5800FF0E401AFF0E411A010E3F26000E4022C6
:101F6800000E412200D0000E456E3C503F263D50E9
:101F780040223E50412241AE0FD0FF0E3F1AFF0EC5
:101F8800401AFF0E411A010E3F26000E4022000E95
:101F98004122010E456E00D03FC00FF040C010F046
:101FA80041C011F047C012F045C013F0FFEC17F024
:101FB8000FC03CF010C03DF011C03EF000D0120040
:101FC8001EC022F01FC023F0221E231E224A232AED
:101FD800010E2224286E000E2320296E000E256E85
:101FE800010E246E1EC022F01FC023F0D8902236A6
:101FF8002336221E231E224A232A22C026F023C06B
:1020080027F0000E2B6E000E2A6E1EC02CF01FC08B
:102018002DF01C501E24166E20C017F021C018F099
:102028001A50BFEC1EF01E5000081C24166E20C06B
:1020380017F021C018F01A50BFEC1EF01CC016F0A3
:1020480020C017F021C018F01A501E24BFEC1EF053
:102058001CC016F020C017F021C018F01E50000850
:102068001A24BFEC1EF078D029BE0BD02C06D8A0BD
:102078002D06020E2626000E272226502826275037
:1020880029222A4A2B2A020E2426000E2522245011
:102098002826255029221C502C24166E20C017F003
:1020A80021C018F01A502A24BFEC1EF01C502C2412
:1020B800166E20C017F021C018F02A5000081A2404
:1020C800BFEC1EF02C5000081C24166E20C017F020
:1020D80021C018F01A502A24BFEC1EF02C5000081A
:1020E8001C24166E20C017F021C018F02A500008D2
:1020F8001A24BFEC1EF01C502A24166E20C017F0BC
:1021080021C018F01A502C24BFEC1EF01C502A24B1
:10211800166E20C017F021C018F02C5000081A24A1
:10212800BFEC1EF02A5000081C24166E20C017F0C1
:1021380021C018F01A502C24BFEC1EF02A500008B9
:102148001C24166E20C017F021C018F02C5000086F
:102158001A24BFEC1EF000D02C502A5C2B50800AA9
:10216800226E2D50800A2258D8A07ED712004A6EBF
:102178004850010DB70EF324D96E000EF420DA6E24
:10218800DF50496E8350800B4910836EB6D048C02B
:1021980015F0166A000E186E0A0E176E68EC19F024
:1021A8001550300F0001C56F48C00FF0106A000EBF
:1021B800126E0A0E116E48EC1BF00F50300F000122
:1021C800C66F1E0E376EC50E386E000E396E070EBE
:1021D8003B6E3A68000E3D6E000E3C6E020E3E6E7F
:1021E800640EB9EC16F097D048C015F0166A000EC8
:1021F800186E0A0E176E68EC19F01550300F0001B2
:10220800CB6F48C00FF0106A000E126E0A0E116EE6
:1022180048EC1BF00F50300F0001CC6F5A0E376E90
:10222800CB0E386E000E396E000E3B6E1F0E3A6EE6
:10223800000E3D6E000E3C6E020E3E6E640EB9EC52
:1022480016F069D048C015F0166A000E186E0A0E0E
:10225800176E68EC19F01550300F0001C26F48C0B6
:102268000FF0106A000E126E0A0E116E48EC1BF089
:102278000F50300F0001C36F3C0E376EC20E386E20
:10228800000E396EFF0E3B6E3A68000E3D6E000E72
:102298003C6E020E3E6E640EB9EC16F03CD048C09F
:1022A80015F0166A000E186E0A0E176E68EC19F013
:1022B8001550300F0001C86F48C00FF0106A000EAB
:1022C800126E0A0E116E48EC1BF00F50300F000111
:1022D800C96F780E376EC80E386E000E396EF80E5C
:1022E8003B6E1F0E3A6E000E3D6E000E3C6E020EE7
:1022F8003E6E640EB9EC16F00ED04A50000AD8B4FF
:1023080046D7010AD8B49ED7030AD8B46DD7010AB4
:10231800D8B4C5D700D01200346E800E3460A6D071
:102328009F0E2C6401D0A2D03250D8A403D0010E45
:10233800326E00D01F0E2D6404D07E0E2D6403D0A3
:1023480000D03F0E2D6E000E366E040E366401D09E
:102358008DD0530E2D6015D0E00E2D241D6E1E6AF3
:10236800FF0E1E22000E206E050E1F6E01EC1FF0E0
:1023780036501D26000E1E22D70E1D24F66EFC0EAA
:1023880014D0AD0E2D241D6E1E6AFF0E1E22000EE7
:10239800206E050E1F6E01EC1FF036501D26000E34
:1023A8001E22D60E1D24F66EFD0E1E20F76E0800A6
:1023B800F5CF33F000D0000E356E060E356401D02F
:1023C80053D033A023D03204D8A40CD02C503524B9
:1023D800166E2EC017F02FC018F034503624BFECFC
:1023E8001EF03ED035503202F3502C24216E32C0FC
:1023F80022F032C023F02EC024F02FC025F0365032
:102408003202F35034245AEC1DF02AD02E503018E2
:1024180004E12F503118D8B423D03204D8A40CD0FA
:102428002C503524166E30C017F031C018F03450D7
:102438003624BFEC1EF014D035503202F3502C2451
:10244800216E32C022F032C023F030C024F031C0F7
:1024580025F036503202F35034245AEC1DF000D0E7
:10246800352AD8903332A9D7362A6FD7120025C01B
:102478002DF026C02EF02D1E2E1E2D4A2E2A010EBE
:102488002D24336E000E2E20346E000E306E010E99
:102498002F6E25C02DF026C02EF0D8902D362E3662
:1024A8002D1E2E1E2D4A2E2A2DC031F02EC032F0A0
:1024B800000E366E000E356E25C037F026C038F097
:1024C80067D034BE0BD03706D8A03806020E3126A6
:1024D800000E32223150332632503422354A362A01
:1024E800020E2F26000E30222F5033263050342271
:1024F80027A025D0375000082324166E37503724DC
:1025080029242D6E2D28176E2BC018F02CC019F019
:10251800215035243DEC1AF0355000082324166E5E
:102528003550352429242D6E2D28176E2BC018F010
:102538002CC019F0215037243DEC1AF000D027A206
:1025480027D0375000082324166E37503724292403
:102558002D6E2D28176E2BC018F02CC019F0355091
:10256800000821243DEC1AF0355000082324166E8B
:102578003550352429242D6E2D28176E2BC018F0C0
:102588002CC019F03750000821243DEC1AF000D077
:102598003750355C3650800A2D6E3850800A2D58D9
:1025A800D8A08FD71200010ECAEC1FF0000E246EBF
:1025B800960E236EE1EC1CF0110ECAEC1FF0010E12
:1025C800246EF40E236EE1EC1CF0B10ECAEC1FF081
:1025D800010EC2EC1FF02C0EC2EC1FF02D0EC2EC47
:1025E8001FF0B20ECAEC1FF0010EC2EC1FF02C0E49
:1025F800C2EC1FF02D0EC2EC1FF0B30ECAEC1FF098
:10260800010EC2EC1FF02C0EC2EC1FF02D0EC2EC16
:102618001FF0010EC2EC1FF02C0EC2EC1FF02D0EA5
:10262800C2EC1FF0B40ECAEC1FF0070EC2EC1FF08C
:10263800C00ECAEC1FF0A20EC2EC1FF0020EC2ECD4
:102648001FF0840EC2EC1FF0C10ECAEC1FF0C50EBD
:10265800C2EC1FF0C20ECAEC1FF00A0EC2EC1FF04B
:10266800000EC2EC1FF0C30ECAEC1FF08A0EC2ECBB
:102678001FF02A0EC2EC1FF0C40ECAEC1FF08A0E1F
:10268800C2EC1FF0EE0EC2EC1FF0C50ECAEC1FF034
:102698000E0EC2EC1FF0200ECAEC1FF0360ECAEC6C
:1026A8001FF0C80EC2EC1FF03A0ECAEC1FF0050E60
:1026B800C2EC1FF0120011C015F0166A176A103428
:1026C800153601E3168015501D6E1D50D8A402D092
:1026D8005DD078D014C015F0166A176A1334153611
:1026E80001E3168015501C6E1C50D8A402D04ED0A1
:1026F80069D0108EFF0E0F16FF0E1016000E111661
:10270800138EFF0E1216FF0E1316000E1416000E6F
:10271800186E000E196E000E1A6E000E1B6E7F0EDC
:102728001D5E1C50980F1D5E180E1C6ED890183632
:1027380019361A361B3612500F5C135010581450A5
:102748001158D8A007D012500F5E1350105A1450C9
:10275800115A1880D8900F36103611361C2EE6D72D
:1027680000D01DAE10D01D50800A970FD8B003D0EE
:102778000DD028D000D0D8901B321A321932183216
:102788001D3EF9D717D0170E1D6411D0000E0F6E1D
:10279800000E106E000E116E000E126E13D007D0D0
:1027A800D890183619361A361B361D0600D01D501B
:1027B800D8A4F6D718C00FF019C010F01AC011F03D
:1027C8001BC012F01200113412341A6E1A50D8A419
:1027D80002D061D07CD014341534196E1950D8A4A5
:1027E80002D059D074D0118EFF0E0F16FF0E10169E
:1027F800FF0E1116000E1216148EFF0E1216FF0E83
:102808001316FF0E1416000E1516000E156E000E88
:10281800166E000E176E000E186E7F0E1A5E195097
:10282800A00F1A5E200E196E00D0D89015361636F5
:102838001736183612500F5C135010581450115890
:1028480015501258D8A00AD012500F5E1350105AC3
:102858001450115A1550125A158000D0D8900F36BE
:10286800103611361236192EE0D700D01AAE10D015
:102878001A50800A9F0FD8B003D00DD028D000D0AE
:10288800D89018321732163215321A3EF9D717D0A7
:102898001F0E1A6411D0000E0F6E000E106E000E7F
:1028A800116E000E126E13D007D0D890153616365A
:1028B800173618361A0600D01A50D8A4F6D715C0FD
:1028C8000FF016C010F017C011F018C012F0120067
:1028D80025C029F02A6A2B6A2434293601E32A8084
:1028E80029502C6E2C50D8A402D00ED06CD028C001
:1028F80029F02A6A2B6A2734293601E32A802950CD
:10290800316E3150D8A407D0000E236E000E246E0D
:10291800000E256E58D031507B0F2C2625C031F083
:102928002850311A800E3116248E278EFF0E261657
:10293800FF0E2716000E2816000E2D6E000E2E6EA6
:10294800000E2F6E070E306E00D023A007D0265041
:102958002D2627502E2228502F2200D0D8902532FD
:1029680024322332D890263627362836302EEDD713
:1029780000D0090E306E00D023A007D026502D2697
:1029880027502E2228502F2200D0D89025322432CA
:102998002332D8902F322E322D32302EEDD700D060
:1029A8002DC00FF02EC010F02FC011F02CC012F067
:1029B80031C013F0FFEC17F00FC023F010C024F063
:1029C80011C025F000D01200E00ECAEC1FF0020E74
:1029D800C2EC1FF01C0EC2EC1FF0070EC2EC1FF079
:1029E800120EC2EC1FF0370EC2EC1FF0320EC2EC12
:1029F8001FF0290EC2EC1FF02D0EC2EC1FF0290E9D
:102A0800C2EC1FF0250EC2EC1FF02B0EC2EC1FF01B
:102A1800390EC2EC1FF0000EC2EC1FF0010EC2EC22
:102A28001FF0030EC2EC1FF0100EC2EC1FF0E10EF7
:102A3800CAEC1FF0030EC2EC1FF01D0EC2EC1FF013
:102A4800070EC2EC1FF0060EC2EC1FF02E0EC2ECF1
:102A58001FF02C0EC2EC1FF0290EC2EC1FF02D0E39
:102A6800C2EC1FF02E0EC2EC1FF02E0EC2EC1FF0AF
:102A7800370EC2EC1FF03F0EC2EC1FF0000EC2EC86
:102A88001FF0000EC2EC1FF0020EC2EC1FF0100E79
:102A9800C2EC1FF0130ECAEC1FF0000E246E0A0ED3
:102AA800236EE1EC1CF0290ECAEC1FF0000E246E18
:102AB800640E236EE1EC1CF012004A6E4850010DC2
:102AC800B70EF324D96E000EF420DA6EDF50496E8B
:102AD8008350800B4910836E5BD048C015F0166A8E
:102AE800000E186E0A0E176E68EC19F01550300FAC
:102AF8000001CE6F48C00FF0106A000E126E0A0E69
:102B0800116E48EC1BF00F50300F0001CF6F1E0EF6
:102B1800376ECE0E386E000E396E070E3B6E3A6871
:102B2800000E3D6E000E3C6E020E3E6E020EB9ECBB
:102B380016F036D048C015F0166A000E186E0A0E48
:102B4800176E68EC19F01550300F0001D16F48C0AE
:102B58000FF0106A000E126E0A0E116E48EC1BF090
:102B68000F50300F0001D26F5A0E376ED10E386EEB
:102B7800000E396E000E3B6E1F0E3A6E000E3D6E53
:102B8800000E3C6E020E3E6E020EB9EC16F008D036
:102B98004A50000AD8B4A1D7020AD8B4CBD700D07B
:102BA80012003BC03DF03E6A3F6A3A343D3601E3CD
:102BB8003E803D50476E4750D8A402D039D063D0EC
:102BC800170E3D6E39C03EF03AC03FF03BC040F0B2
:102BD8003D28416E04D0D89040323F323E32412EDB
:102BE800FAD73E50426E3A8EFF0E3916FF0E3A164D
:102BF800000E3B163950436E3A50446E3B50456EBA
:102C0800466A8E0E475E47AE10D04750800A8F0F37
:102C1800D8B003D00DD037D000D0D8904632453246
:102C280044324332473EF9D719D0170E476411D0C2
:102C3800000E396E000E3A6E000E3B6E000E3C6EB2
:102C480022D007D0D8904336443645364636470614
:102C580000D04750D8B402D0F5D700D04250D8B4ED
:102C680009D0461E451E441E436C000E44224522D0
:102C7800462200D043C039F044C03AF045C03BF08A
:102C880046C03CF000D0120029C02DF02E6A2F6AF1
:102C980028342D3601E32E802D50346E3450D8A4BC
:102CA80002D00ED061D02CC02DF02E6A2F6A2B34A2
:102CB8002D3601E32E802D50356E3550D8A407D01F
:102CC800000E276E000E286E000E296E4DD0000EE5
:102CD800316E000E326E000E336E3550890F345E41
:102CE80029C035F02C50351A800E3516288EFF0E67
:102CF8002716FF0E2816000E29162B8EFF0E2A16F1
:102D0800FF0E2B16000E2C16180E306E00D0D89021
:102D18003136323633362A50275C2B5028582C50FF
:102D28002958D8A007D02A50275E2B50285A2C5053
:102D3800295A3180D890273628362936302EE7D7B9
:102D480000D031C00FF032C010F033C011F034C0E1
:102D580012F035C013F0FFEC17F00FC027F010C0C9
:102D680028F011C029F000D01200416E41C047F090
:102D780037C046F038C00FF039C010F050EC1EF0E4
:102D88000FC042F010C043F0000E456E000E446EB6
:102D980054D06C50D8B42CD03E50050D47503F6EDF
:102DA800406AF3503F26F450402240BE21D04050A4
:102DB80004E1810E3F5CD8A01BD0000E476E3E5048
:102DC800070DF3504624030F466EA00E466403D049
:102DD800A00E466E00D044503824D96E4550392094
:102DE800DA6E200EDE18D8B425D002D023D000D059
:102DF80046C02CF044503824D96E45503920DA6E3C
:102E0800DF502D6E3AC02EF03BC02FF03CC030F0A2
:102E18003DC031F03EC032F0475090EC11F03E50CA
:102E2800060DF3504724476E800E476403D0800E8A
:102E3800476E00D0444A452A00D04250445C435073
:102E48004558D8A0A6D71200216E800E216069D0FF
:102E58009F0E166401D065D0FF0E1B6EFF0E1C6E10
:102E6800175021C01DF01E6A1D26000E1E221B5081
:102E78001D261C501E221EBE0AD01E5004E1800EC4
:102E88001D5CD8A004D021500008800F176EFF0EDB
:102E98001B6EFF0E1C6E185016C01DF01E6A1D26F4
:102EA800000E1E221B501D261C501E221EBE0BD0BB
:102EB8001E5004E1A00E1D5CD8A005D016500008D5
:102EC800A00F186E00D016C012F0215017241B6EE8
:102ED8001B04136E165018241C6E1C04146E21500B
:102EE80033EC1DF01A501F6E19C020F082848298AE
:102EF80018C016F01650D8B413D001D011D017C08E
:102F080021F02150D8B40AD001D008D01F50A6EC27
:102F18001FF02050A6EC1FF02106F3D71606EAD7BB
:102F280082881200819E440E0001D46F000E0001B9
:102F38008C6F010E8B6F00D0010E7FEC1DF0010E1F
:102F4800EBEC1DF0010EC7EC1DF0020EA3EC1DF01A
:102F580000019105D8A405D0090E4B6E000EB7EC00
:102F68001CF0080E8DEC1EF0030EA3EC1DF0030EF2
:102F78008DEC1EF0010EA3EC1DF080A810D0020EFF
:102F8800C7EC1DF0070E8DEC1EF0030EC7EC1DF00C
:102F9800030E8DEC1EF0010EC7EC1DF000D0020EE2
:102FA800EBEC1DF000018F05D8A405D0080E4B6E80
:102FB800010EB7EC1CF0060E8DEC1EF0030EEBECC8
:102FC8001DF0030E8DEC1EF0010EEBEC1DF080A63B
:102FD80011D0020E7FEC1DF0060E8DEC1EF0030ED4
:102FE8007FEC1DF0030E8DEC1EF0010E7FEC1DF042
:102FF80001D0A2D712001250D8B405D00F5010102B
:103008001110D8A40ED0000E0F6E000E106E000E18
:10301800116E53D006D0122AD890113210320F32C6
:1030280000D0000E0F14146E000E1014156EFE0E54
:103038001114166E145015101610D8B40ED0EBD704
:103048000CD0122A010E0F26000E1022000E11229B
:10305800D890113210320F3200D0000E0F14146EB7
:10306800000E1014156EFF0E1114166E1450151064
:103078001610D8B408D0E5D706D01206D8900F3667
:103088001036113600D010BE04D0020E1260F5D7EB
:1030980000D012B002D0109E00D0D8901232125038
:1030A80011121350D8B402D0118E00D00FC00FF0F7
:1030B80010C010F011C011F000D01200D9EC1FF0B0
:1030C80091EC1FF09CEC1FF0000EE0EC1FF0700E6E
:1030D800D36EF19E5CEC05F028EC1FF000D015ECE7
:1030E8001FF00FC062F010C063F062C060F063C0F0
:1030F80061F0D89060366136D8906036613660C02D
:1031080023F061C024F06FEC1EF023C027F024C028
:1031180028F025C029F0000E2A6E800E2B6E440E72
:103128002C6E48EC16F027C080F028C081F029C02A
:1031380082F080C00FF081C010F082C011F0330E11
:10314800126E130E136E400E146E1DEC19F0D8B0EB
:1031580003D096EC17F003D0C0EC18F000D00001B3
:103168009005D8A403D08DEC1CF0B9D7000E00014F
:10317800906FB5D70CEF00F0818E4E0E0001D46F22
:10318800000E00018C6F000E8B6F000E00018F6F18
:10319800000E0001916F00D0010E7FEC1DF0010EB2
:1031A800EBEC1DF0010EC7EC1DF0020EA3EC1DF0B8
:1031B800080E8DEC1EF0030EA3EC1DF0020E8DEC34
:1031C8001EF0010EA3EC1DF080A810D0020EC7EC73
:1031D8001DF0060E8DEC1EF0030EC7EC1DF0020E5E
:1031E8008DEC1EF0010EC7EC1DF000D0020EEBECCA
:1031F8001DF0090E8DEC1EF0030EEBEC1DF0020E17
:103208008DEC1EF0010EEBEC1DF080A611D0020E25
:103218007FEC1DF0070E8DEC1EF0030E7FEC1DF009
:10322800020E8DEC1EF0010E7FEC1DF001D0B4D71C
:10323800120011AE17D00FC015F010C016F011C053
:1032480017F0151E161E171E152A000E1622172215
:10325800000E15240F6E000E1620106E800E17201B
:10326800116E00D014AE17D012C015F013C016F0AE
:1032780014C017F0151E161E171E152A000E16224A
:103288001722000E1524126E000E1620136E800EE3
:103298001720146E00D0000E0F1A000E101A800EA0
:1032A800111A000E121A000E131A800E141A125058
:1032B8000F5C1350105814501158D8B002D0D89041
:1032C80002D0D88000D01200000E1A6E18AE07D0B7
:1032D800176C181ED8B0182A010E1A6E00D016AE38
:1032E80007D0156C161ED8B0162A010E1A1A00D06F
:1032F800000E1C6E000E1B6E17501810D8B421D08B
:10330800010E196E05D0D89017361836192A00D034
:1033180018BE02D0F8D700D0D8901B361C361750EC
:10332800155C18501658D8A006D01750155E1850BE
:10333800165A1B8000D0D89018321732192EECD7A5
:1033480000D01A50D8B405D01B6C1C1ED8B01C2A4B
:1033580000D01BC015F01CC016F000D01200000EE3
:10336800176E000E186E000E196E000E1A6E1350AE
:10337800141015101610D8B42FD0010E1B6E07D0DC
:10338800D89013361436153616361B2A00D016BEBA
:1033980002D0F6D700D0D8901736183619361A3614
:1033A80013500F5C145010581550115816501258DD
:1033B800D8A00AD013500F5E1450105A1550115A45
:1033C8001650125A178000D0D8901632153214327F
:1033D80013321B2EE0D700D017C00FF018C010F022
:1033E80019C011F01AC012F01200206E800E206071
:1033F8003FD09F0E166401D03BD0FF0E1A6EFF0E11
:103408001B6E175020C01CF01D6A1C26000E1D22C2
:103418001A501C261B501D221DBE0BD01D5004E146
:10342800800E1C5CD8A005D020500008800F176EB5
:1034380000D019501E6E18C01FF016C012F0205090
:1034480017241A6E1A04136E16C014F0205033ECA9
:103458001DF08284829807D01E50A6EC1FF01F50E2
:10346800A6EC1FF000D017061728D8A4F5D7828835
:103478001200206E800E20603FD09F0E166401D08F
:103488003BD0FF0E1A6EFF0E1B6E175016C01CF0B5
:103498001D6A1C26000E1D221A501C261B501D22B8
:1034A8001DBE0BD01D5004E1A00E1C5CD8A005D099
:1034B80016500008A00F176E00D019501E6E18C0C5
:1034C8001FF016C012F020C013F0165017241A6E01
:1034D8001A04146E205033EC1DF08284829807D0B1
:1034E8001E50A6EC1FF01F50A6EC1FF000D01706C8
:1034F8001728D8A4F5D782881200838EB9EC1FF05C
:1035080064C00FF065C010F0FD0E116EFF0E126E54
:10351800A6EC1EF00A0E376E64C038F065C039F0AC
:10352800FF0E3B6E3A68000E3D6E000E3C6E010EBB
:103538003E6E780EB9EC16F06CEC1FF0839EEBEC47
:103548001FF064C00FF065C010F0FB0E116EFF0E87
:10355800126EA6EC1EF00A0E376E64C038F065C015
:1035680039F0FF0E3B6E3A68000E3D6E000E3C6E61
:10357800010E3E6E780EB9EC16F06CEC1FF01200DE
:103588000600EACF04F0E1CF05F0E2CF06F0D9CF8C
:1035980007F0DACF08F0F3CF09F0F4CF0AF0F6CF4E
:1035A8000BF0F7CF0CF0F8CF0DF0F5CF0EF0F2A23C
:1035B80003D085EC1FF000D0F0A003D079EC1FF009
:1035C80000D0F0A203D0E6EC1FF000D00EC0F5FF4B
:1035D8000DC0F8FF0CC0F7FF0BC0F6FF0AC0F4FFE0
:1035E80009C0F3FF08C0DAFF07C0D9FF06C0E2FF31
:1035F80005C0E1FF04C0EAFF03C0E9FF02C0FBFF0A
:1036080001C0FAFF1100838E64C00FF065C010F08E
:10361800FD0E116EFF0E126EA6EC1EF00A0E376E2E
:1036280064C038F065C039F0FF0E3B6E3A68000E92
:103638003D6E000E3C6E010E3E6E780EB9EC16F033
:103648006CEC1FF0839E64C00FF065C010F0FB0E99
:10365800116EFF0E126EA6EC1EF00A0E376E64C0D5
:1036680038F065C039F0FF0E3B6E3A68000E3D6ECB
:10367800000E3C6E010E3E6E780EB9EC16F06CEC46
:103688001FF08CEC0CF01200000E146E10AE07D078
:103698000F6C101ED8B0102A010E146E00D012AE96
:1036A80005D0116C121ED8B0122A00D01150121079
:1036B800D8B41DD0010E136E05D0D890113612362D
:1036C800132A00D012BE02D0F8D700D011500F5CD8
:1036D80012501058D8A005D011500F5E1250105A31
:1036E80000D0D89012321132132EF0D700D01450D7
:1036F800D8B405D00F6C101ED8B0102A00D00FC057
:103708000FF010C010F000D0120013501410151054
:103718001610D8B429D0010E176E07D0D8901336DA
:10372800143615361636172A00D016BE02D0F6D72C
:1037380000D013500F5C14501058155011581650E3
:103748001258D8A009D013500F5E1450105A1550B3
:10375800115A1650125A00D0D89016321532143217
:103768001332172EE6D700D00FC00FF010C010F09C
:1037780011C011F012C012F01200116E000EAC6EE2
:10378800000EAB6E11A002D0AC8800D011A203D0FD
:10379800AC8CAB8C00D011A402D0AC8E00D011A69A
:1037A80002D0AB8802D0AB8A00D011B8AC849E9806
:1037B80011AA02D0AB8600D011AC02D09D8A01D0EC
:1037C8009D9A9E9A11AE02D09D8801D09D980FC0F7
:1037D800AFFF1050B06EAC8AAB8E949C948EACB890
:1037E800ACBE02D0948C00D0120023C016F025C0C5
:1037F80017F029C018F02AC019F02150F9EC19F077
:10380800235027242B6E2B04166E25C017F029C0D1
:1038180018F02AC019F02150F9EC19F023C016F05D
:1038280027C017F029C018F02AC019F021503DEC24
:103838001AF023C016F027C017F029C018F02AC0C4
:1038480019F0215025242B6E2B043DEC1AF01200A0
:1038580000EE80F0370EEE6AE806FDE100EE64F057
:10386800080EEE6AE806FDE1D80EF66E3D0EF76E1C
:10387800000EF86E00EEB7F010EE29F00900F5CF53
:10388800EEFFE550E150FAE1DE0EF66E3F0EF76E00
:10389800000EF86E00EE6CF010EE05F00900F5CFA2
:1038A800EEFFE550E150FAE1000EF86E000162EF1C
:1038B80018F08E0E1F6E07D0D8901A3219321832AF
:1038C80017321F2A00D0000E17141B6E000E181492
:1038D8001C6E000E19141D6EFF0E1A141E6E1B505E
:1038E8001C101D101E10D8A4E7D717C00FF018C061
:1038F80010F019C011F01FC012F0000E136EFFEC8B
:1039080017F00FC017F010C018F011C019F000D050
:103918001200000E0001846F010E836F000E00017B
:10392800906F1AD000019005D8A409D0000E0001AC
:10393800906F000E0001846F000E836F00D08082AC
:103948008188808A848207EC1BF080928198809A13
:10395800849207EC1BF000D000018305000184115C
:10396800D8B4E0D712004B044C6E4C50D8B40CD0ED
:1039780001D00AD04CC048F00001975161EC15F015
:1039880081EC1AF04C06F1D7000E486E00019751F1
:1039980061EC15F081EC1AF000019105D8A404D06F
:1039A800000E0001916F08D000018F05D8A404D043
:1039B800000E00018F6F00D0120023C01DF024C03C
:1039C8001EF0000E206EFA0E1F6E01EC1FF01DC0D7
:1039D80027F01EC028F027C025F028C026F0251E95
:1039E800261E254A262AFF0E2524276EFF0E26208E
:1039F800286EB80EB16E27C0D6FF2850D76EA19298
:103A0800B18000D0A1A2FED7B19012003D500008AD
:103A18003B24166ED8803D34176E3FC018F040C066
:103A280019F039503DEC1AF039C021F03AC022F0B3
:103A38003BC023F03CC024F03DC025F03EC026F03A
:103A4800000E286E030E276E000E2A6E000E296ED9
:103A58003FC02BF040C02CF03BEC12F01200156E6A
:103A68002A0ECAEC1FF0000EC2EC1FF01550692494
:103A7800C2EC1FF0000EC2EC1FF013506924C2EC18
:103A88001FF02B0ECAEC1FF0000EC2EC1FF01250F4
:103A98006B24C2EC1FF0000EC2EC1FF014506B2414
:103AA800C2EC1FF02C0ECAEC1FF01200296E29C0C0
:103AB8002AF02B6A0ED021C016F023C017F024C0BC
:103AC80018F025C019F02A503DEC1AF02A4A2B2A82
:103AD80000D0225029C026F0276A2626000E272269
:103AE80026502A5C2B50800A286E2750800A2858B6
:103AF800D8A0E1D71200446E030E0001976F44C0AE
:103B080041F000019751DBEC0AF00AD0819801D00E
:103B18008188819A13D0819801D08188818A0ED0BA
:103B28004450000AD8B4F2D7010AD8B4F1D7030A2E
:103B3800D8B4F1D7010AD8B4F0D700D01200446E37
:103B4800020E0001976F44C041F000019751DBEC71
:103B58000AF00AD0809201D08082809413D080929B
:103B680001D0808280840ED04450000AD8B4F2D7A5
:103B7800010AD8B4F1D7030AD8B4F1D7010AD8B4E6
:103B8800F0D700D01200446E010E0001976F44C0B8
:103B980041F000019751DBEC0AF00AD0849201D081
:103BA8008482849413D0849201D0848284840ED039
:103BB8004450000AD8B4F2D7010AD8B4F1D7030A9E
:103BC800D8B4F1D7010AD8B4F0D700D01200446EA7
:103BD800000E0001976F44C041F000019751DBECE3
:103BE8000AF00AD0809A01D0808A819C13D0809AEA
:103BF80001D0808A818C0ED04450000AD8B4F2D704
:103C0800010AD8B4F1D7030AD8B4F1D7010AD8B455
:103C1800F0D700D012004B504C104D10D8B407D03C
:103C2800000E4B1A000E4C1A800E4D1A00D048C0D8
:103C38003CF049C03DF04AC03EF04BC03FF04CC09C
:103C480040F04DC041F002EC0FF03CC048F03DC0E0
:103C580049F03EC04AF000D012002A0ECAEC1FF00C
:103C6800000EC2EC1FF0000EC2EC1FF0000EC2ECFA
:103C78001FF07F0EC2EC1FF02B0ECAEC1FF0000ED7
:103C8800C2EC1FF0000EC2EC1FF0000EC2EC1FF0D9
:103C98009F0EC2EC1FF012000FC013F010C014F0FA
:103CA80003D0134A142A00D013C0D9FF14C0DAFF76
:103CB800DF50D8A4F6D70FC011F010C012F0111EB3
:103CC800121E114A122A135011240F6E145012207A
:103CD800106E00D01200000E266E24AE07D0236CA2
:103CE800241ED8B0242A010E266E00D023C00FF05F
:103CF80024C010F0116A8E0E126E26C013F0FFEC6D
:103D080017F00FC023F010C024F011C025F000D028
:103D180012005E6E5EC05FF05F50D8B40CD001D068
:103D28000AD05FC048F000019751BBEC10F007ECD7
:103D38001BF05F06F1D7000E486E00019751BBECEF
:103D480010F012000FC013F010C014F005D0134A81
:103D5800142A114A122A00D011C0F6FF12C0F7FF28
:103D680013C0D9FF14C0DAFF0800F5CFDFFFDF501A
:103D7800D8A4EDD71200196E800E196013D09F0ECB
:103D8800166401D00FD016C012F01928136E162829
:103D9800146E195033EC1DF01850C2EC1FF0175078
:103DA800C2EC1FF0120082888294800EC76E300E1B
:103DB800C66ED7EC12F031EC1EF0E8EC14F0360EBB
:103DC800CAEC1FF0C00EC2EC1FF0010E686E1200A4
:103DD80040792430191202780010FF30300030305A
:103DE80000303000303000303000303000440030D7
:103DF800003000440030003000001D501F02F3CF97
:103E080021F0F4CF22F01D502002F35022261E503C
:103E18001F02F350222621C01DF022C01EF000D040
:103E28001200C28200D0C2B2FED7C450126E116A0C
:103E3800C3501124136E000E1220146E13C00FF01D
:103E480014C010F000D01200D9EC1FF091EC1FF054
:103E58009CEC1FF0700ED36EF292F090F092F19CF1
:103E6800F19AF188F288F086F088F28E12000F50ED
:103E780010101110D8B406D0000E0F1A000E101A28
:103E8800800E111A0FC00FF010C010F011C011F001
:103E98001200116E000E106E3A0E116006D02F0E31
:103EA800116403D0010E106E00D010C00FF00F3057
:103EB80000D01200000E166E800E176EA00E186E3F
:103EC80022C019F023C01AF0000E28EC17F01200D7
:103ED800030ED56EDB0ED66E0B0ED76EF294D58E12
:103EE80000D0F2A4FED7D59E1200F09000018B05F9
:103EF80000018C11D8A404D0010E00018F6F00D0EE
:103F08001200F29200018B0500018C11D8A404D094
:103F1800010E0001916F00D01200190E926E070E6B
:103F2800936E000E946E000E956E000E966E120043
:103F3800000E106E190E0F6E3C0EC1EC1BF0600ED9
:103F4800D36E1200106E9E96C9CF0FF010C0C9FF35
:103F580000D0C7A0FED712008292000E246E640E15
:103F6800236EE1EC1CF082821200F90ECB6E050E76
:103F7800CA6E4A0EBB6E3C0EBA6E1200116E829863
:103F880082841150A6EC1FF082881200116E82986C
:103F980082941150A6EC1FF0828812000F6E00D098
:103FA800ACA2FED70FC0ADFF1200010EC26E0E0EFE
:103FB800C16EA90EC06E12000F6E0F50040DF328CB
:103FC800C26E1200F092010E0001906F1200000EF6
:0C3FD800BA6E819612000130003000002B
:10FCD60000000000000000005F00000007000700B1
:10FCE600147F147F14242A7F2A1223130864623691
:10FCF600495620500008070300001C22410000411D
:10FD0600221C002A1C7F1C2A08083E080800807056
:10FD16003000080808080800006060002010080489
:10FD2600023E5149453E00427F40007249494946DC
:10FD36002141494D331814127F1027454545393C5A
:10FD46004A49493141211109073649494936464947
:10FD560049291E0000140000004034000000081469
:10FD660022411414141414004122140802015909E2
:10FD7600063E415D594E7C1211127C7F4949493637
:10FD86003E414141227F4141413E7F494949417FB0
:10FD9600090909013E414151737F0808087F004166
:10FDA6007F41002040413F017F081422417F4040AF
:10FDB60040407F021C027F7F0408107F3E41414184
:10FDC6003E7F090909063E4151215E7F09192946F0
:10FDD600264949493203017F01033F4040403F1F06
:10FDE6002040201F3F4038403F631408146303043B
:10FDF6007804036159494D43007F4141410204089B
:10FE06001020004141417F0402010204404040406D
:10FE160040000307080020545478407F28444438A3
:10FE26003844444428384444287F385454541800ED
:10FE3600087E090218A4A49C787F0804047800446C
:10FE46007D40002040403D007F1028440000417F57
:10FE560040007C047804787C0804047838444444E0
:10FE660038FC1824241818242418FC7C08040408D8
:10FE7600485454542404043F44243C4040207C1CF1
:10FE86002040201C3C4030403C44281028444C90E4
:10FE960090907C4464544C4400083641000000773E
:10FEA60000000041360800020102040201000000C1
:10FEB6000A00000064000000E803000010270000AC
:10FEC600A086010040420F008096980000E1F505EB
:10FED60000CA9A3B00803FCDCC3DD7233C12833AE3
:10FEE600B7D138C62737388635C0D633CC2B3270D3
:10FEF6008930E7DB2EE53C1E42A20D00803F002044
:10FF06004100C842007A44401C4650C34724744905
:10FF160097184BBCBE4C6B6E4E03155079AD60F313
:10FF26004971494E543020696E74657272757074E9
:10FF36002070696E206465746563746564200D0ABB
:10FF460000494E543120696E746572727570742062
:10FF560070696E206465746563746564200D0A00BB
:10FF6600494E543220696E746572727570742070D1
:10FF7600696E206465746563746564200D0A0045C6
:10FF860057502045574C54204E5350204E534C54F6
:10FF9600204D4400454345333330314C2046616C97
:10FFA6006C2032322D533100766F6C74732061727F
:10FFB600652025302E33660D0A0A004E4F525448EE
:10FFC6002F534F55544800454153542F57455354CA
:10FFD600004E2F53204C5400452F57204C54004DB3
:10FFE6006F64653A0046523A0046533A00504E5303
:0AFFF600005045570020002A0000CB
:020000040020DA
:08000000FFFFFFFFFFFFFFFF00
:020000040030CA
:0E000000FF08191EFF8281FF0FC00FE00F40A6
:00000001FF
